:1000000080315828013410347E1480310B1F0928A8
:100010000A2856282100111E0E280F281B28200010
:10002000111E132814281B2823006F088A006E084D
:100030000A00803156282100911E1F2820282C28D4
:100040002000911E242825282C2823006D088A00D2
:100050006C080A00803156282100921C3028312873
:100060003A282000921C352836283A289B318423D0
:10007000803156282100911C3E283F284828200026
:10008000911C4328442848289B31752380315628E9
:100090002100111F4C284D2856282000111F5128DF
:1000A000522856289B316623803156287E1009003D
:1000B00080315A28803102208031ED0080310320C8
:1000C0008031EE00F83084009A3085005D30860083
:1000D000013087000A309A3168228031553084001F
:1000E0000030850018309A3162228031433084001C
:1000F000013085001A309A3162228031A0308400AC
:10010000013085004C309A31622280317E1020000F
:1001100095316B2D21004D088039D7004D35DD001C
:10012000CC1F9328942895285D145D0803199928FD
:100130009A28A9285D0A031D9E289F28A728003019
:10014000CD000030CC000030CB000030CA00CC170E
:10015000B1280030CD000030CC000030CB000030A2
:10016000CA0051088039D7065135DC00D01FB928A4
:10017000BA28BB285C145C080319BF28C028CF2804
:100180005C0A031DC428C528CD280030D1000030EA
:10019000D0000030CF000030CE00D017D72800307C
:1001A000D1000030D0000030CF000030CE005C081D
:1001B0000319DB28DC28E1285D08031DE028E1287D
:1001C000EA280030CD000030CC000030CB000030F9
:1001D000CA00C42A4A08A00050089D31A1258031D8
:1001E00021002108E3002008E2006208D200D301C8
:1001F000D401D5015508DB005408DA005308D900B2
:100200005208D8006308D200D301D401D5015508A3
:10021000E1005408E0005308DF005208DE004B08FC
:10022000A0004F089D31A125803121002108E30065
:100230002008E2006208D200D301D401D50152089F
:10024000D8075308D93D5408DA3D5508DB3D63080B
:10025000D200D301D401D5015208DE075308DF3D97
:100260005408E03D5508E13D4C08A0004E089D3182
:10027000A125803121002108E3002008E200620866
:10028000D200D301D401D5015208D8075308D93D73
:100290005408DA3D5508DB3D6308D200D301D40190
:1002A000D5015208DE075308DF3D5408E03D5508EC
:1002B000E13D0830D835D90DDA0DDB0D890B5A290F
:1002C0004B08A0004E089D31A12580312100210856
:1002D000E3002008E2006208D8076308D93D003037
:1002E000DA3DDB3D4A08A0004F089D31A125803151
:1002F00021002108E3002008E2006208D807630813
:10030000D93D0030DA3DDB3D0830D835D90DDA0D66
:10031000DB0D890B85294A08A0004E089D31A125D7
:10032000803121002108E3002008E2006208D8079C
:100330006308D93D0030DA3DDB3D4B08A000500892
:100340009D31A125803121002108E3002008E20031
:100350006208DE076308DF3D0030E03DE13D4C0808
:10036000A0004F089D31A125803121002108E30024
:100370002008E2006208DE076308DF3D0030E03D50
:10038000E13D4C08A00050089D31A125803121009D
:100390002108E3002008E2006208D2006308D300CD
:1003A000D401D5010830D235D30DD40DD50D890B2C
:1003B000D3295208DE075308DF3D5408E03D5508B5
:1003C000E13D5808D2005908D3005A08D4005B0810
:1003D000D5001830D536D40CD30CD20C890BEA29B1
:1003E0005208DE075308DF3D5408E03D5508E13D63
:1003F0000830D835D90DDA0DDB0D890BF9295D08E8
:100400005C07D200D301D30D5208823EE200FF30D8
:10041000533DE300222A0130DE35DF0DE00DE10D12
:10042000890B0C2ADB1F152A162A172A5E140130A5
:10043000D835D90DDA0DDB0D890B182AFF30E2070C
:10044000FF30E33DE01F252A262A0B2ADC01DB1FB3
:100450002A2A2B2A472AFF305805D200FF30590597
:10046000D300FF305A05D4007F305B05D500550816
:1004700054045304520403193E2A3F2A422A0130ED
:10048000DC00472A5E1C452A462A472A3F2A5C0888
:1004900003194B2A4C2A722A0130DE070030DF3D57
:1004A000E03DE13D611C552A562A722A5E08D200C1
:1004B0005F08D3006008D4006108D5000130D60081
:1004C000D537D40CD30CD20CD60B602A5508E100DA
:1004D0005408E0005308DF005208DE000130E20754
:1004E0000030E33D6308803AD20080305202031DA1
:1004F0007B2AFF306202031C7E2A7F2A892A7F30F2
:100500002100E1008030E0000030DF000030DE003C
:10051000BA2A21006308803AD20080305202031DBB
:10052000932A013062020318962A972AA22A0030E1
:100530002100E1000030E0000030DF000030DE008C
:10054000D701BA2A21006208DD00FF30DE05FF3046
:10055000DF057F30E0050030E1055D1CB02AB12ADF
:10056000B22AE0175D08D2000130D236890BB52AD5
:100570005208E1005708E1046108CD006008CC0092
:100580005F08CB005E08CA000800200023088039FD
:10059000AD002335B300A21FCE2ACF2AD02A3314B0
:1005A00033080319D42AD52AE42A330A031DD92A89
:1005B000DA2AE22A0030A3000030A2000030A100B5
:1005C0000030A000A217EC2A0030A3000030A200E7
:1005D0000030A1000030A00027088039AD06273583
:1005E000B200A61FF42AF52AF62A3214320803199B
:1005F000FA2AFB2A0A2B320A031DFF2A002B082B9A
:100600000030A7000030A6000030A5000030A40094
:10061000A617122B0030A7000030A6000030A5005E
:100620000030A40032080319162B172B1C2B33089B
:10063000031D1B2B1C2B252B0030A3000030A20018
:100640000030A1000030A000FF2C2008F000260898
:100650009D317E25823171082000B9007008B800F4
:100660003808A800A901AA01AB012B08B1002A088B
:10067000B0002908AF002808AE003908A800A90179
:10068000AA01AB012B08B7002A08B6002908B5005B
:100690002808B4002108F00025089D317E2582310C
:1006A00071082000B9007008B8003808A800A90136
:1006B000AA01AB012808AE072908AF3D2A08B03DC2
:1006C0002B08B13D3908A800A901AA01AB012808EF
:1006D000B4072908B53D2A08B63D2B08B73D2208C6
:1006E000F00024089D317E25823171082000B90078
:1006F0007008B8003808A800A901AA01AB012808B1
:10070000AE072908AF3D2A08B03D2B08B13D390896
:10071000A800A901AA01AB012808B4072908B53D22
:100720002A08B63D2B08B73D0830AE35AF0DB00DE9
:10073000B10D890B952B2108F00024089D317E25F1
:10074000823171082000B9007008B8003808AE077F
:100750003908AF3D0030B03DB13D2008F00025081C
:100760009D317E25823171082000B9007008B800E3
:100770003808AE073908AF3D0030B03DB13D083014
:10078000AE35AF0DB00DB10D890BC02B2008F000B8
:1007900024089D317E25823171082000B90070083F
:1007A000B8003808AE073908AF3D0030B03DB13D64
:1007B0002108F00026089D317E2582317108200035
:1007C000B9007008B8003808B4073908B53D0030E2
:1007D000B63DB73D2208F00025089D317E258231C7
:1007E00071082000B9007008B8003808B40739084B
:1007F000B53D0030B63DB73D2208F00026089D31DA
:100800007E25823171082000B9007008B8003808D0
:10081000A8003908A900AA01AB010830A835A90D24
:10082000AA0DAB0D890B0E2C2808B4072908B53D7D
:100830002A08B63D2B08B73D2E08A8002F08A900AE
:100840003008AA003108AB001830AB36AA0CA90C4E
:10085000A80C890B252C2808B4072908B53D2A08BF
:10086000B63D2B08B73D0830AE35AF0DB00DB10D1C
:10087000890B342C33083207A800A901A90D2808D8
:10088000823EB800FF30293DB9005D2C0130B435FF
:10089000B50DB60DB70D890B472CB11F502C512C3F
:1008A000522C34140130AE35AF0DB00DB10D890BA3
:1008B000532CFF30B807FF30B93DB61F602C612CB8
:1008C000462CB201B11F652C662C822CFF302E0500
:1008D000A800FF302F05A900FF303005AA007F30A7
:1008E0003105AB002B082A04290428040319792CAC
:1008F0007A2C7D2C0130B200822C341C802C812C6F
:10090000822C7A2C32080319862C872CAD2C0130CE
:10091000B4070030B53DB63DB73D371C902C912C47
:10092000AD2C3408A8003508A9003608AA003708FD
:10093000AB000130AC00AB37AA0CA90CA80CAC0B77
:100940009B2C2B08B7002A08B6002908B5002808F8
:10095000B4000130B8070030B93D3908803AA8002A
:1009600080302802031DB62CFF303802031CB92C3E
:10097000BA2CC42C7F302000B7008030B600003085
:10098000B5000030B400F52C20003908803AA800EA
:1009900080302802031DCE2C013038020318D12CE0
:1009A000D22CDD2C00302000B7000030B600003023
:1009B000B5000030B400AD01F52C20003808B300BC
:1009C000FF30B405FF30B5057F30B6050030B70500
:1009D000331CEB2CEC2CED2CB6173308A80001309F
:1009E000A836890BF02C2808B7002D08B704370863
:1009F000A3003608A2003508A1003408A0000800B2
:100A0000210031088039BE003135C000B01F092DEA
:100A10000A2D0B2D4014400803190F2D102D202DE9
:100A2000400A031D142D152D1D2D0030B10000307E
:100A3000B0000030AF000030AE00B017B101282D7B
:100A40000030B1000030B0000030AF000030AE0028
:100A500035088039BF003F083E060319302D312D7F
:100A6000322D3E173535BF00B41F372D382D392DA7
:100A70003F143F0803193D2D3E2D4E2D3F0A031D07
:100A8000422D432D4B2D0030B5000030B400003016
:100A9000B3000030B200B417B501562D0030B500D8
:100AA0000030B4000030B3000030B20040083F0214
:100AB00003185B2D5C2D802D3E1F5F2D602D622D58
:100AC0008030BE064008C1003F08C0004108BF009A
:100AD0002E08C1003208AE004108B2002F08C10044
:100AE0003308AF004108B3003008C1003408B0003B
:100AF0004108B4003108C1003508B1004108B50013
:100B0000C1013F08B600B7013708B90040083602F6
:100B1000B800031CB9033908803ABA0080303A02A1
:100B2000031D942D1A303802031C972D982DCE2DBD
:100B30002100310830042F042E04031DA02DA22D06
:100B40000130A32D0030C1000030B1000030B000F2
:100B50000030AF000030AE003F08C000D52D411C72
:100B6000B22DB32DBD2D4108B6000130B636890B2C
:100B7000B62D36080138C100BF2D0310C10C2E1C44
:100B8000C22DC32DC42DC1170130B600B137B00C32
:100B9000AF0CAE0CB60BC62D0130C00721003F08CC
:100BA0004002031CD42DD52DAF2D3E1BD82DD92DA1
:100BB000132E4008031DDD2DDE2DE72D0030B10082
:100BC0000030B0000030AF000030AE000B2F320814
:100BD000AE073308AF3D3408B03D3508B13D311C98
:100BE000F22DF32D9D2E411CF62DF72D012E4108DF
:100BF000B6000130B636890BFA2D36080138C1002F
:100C0000032E0310C10C2E1C062E072E082EC11712
:100C10000130B600B137B00CAF0CAE0CB60B0A2EDB
:100C20000130C0079D2E3108803AB6003508803A61
:100C30003602031D252E34083002031D252E3308ED
:100C40002F02031D252E32082E020318282E292ECE
:100C50005E2EFF30B600FF30B700FF30B800FF3027
:100C6000B9002E083202BA002F08333BBB0030080F
:100C7000343BBC003108353BBD003A08B6073B08A1
:100C8000B73D3C08B83D3D08B93D3908B1003808CA
:100C9000B0003708AF003608AE008030BE06410312
:100CA000FF3AC1004108031D562E572E662E013013
:100CB000AE070030AF3DB03DB13D662E3208AE020A
:100CC0003308AF3B3408B03B3508B13B3108300442
:100CD0002F042E04031D6D2E6E2E992E4108031D28
:100CE000722E732E992E0030B1000030B00000300B
:100CF000AF000030AE000B2F0130AE35AF0DB00DA0
:100D0000B10D890B7D2EC11F862E872E882E2E14A5
:100D1000411C8B2E8C2E902E0314410DC100922E5F
:100D20000310C10D40080319962E972E992E0130FD
:100D3000C002B01F9C2E9D2E7C2EBF01C11FA12E74
:100D4000A22EB02E41087F390319A72EA82EAB2E54
:100D50000130BF00B02E2E1CAE2EAF2EB02EA82E0E
:100D60003F080319B42EB52EDE2E0130AE07003039
:100D7000AF3DB03DB13D311CBE2EBF2EDE2E2E0844
:100D8000B6002F08B7003008B8003108B9000130AC
:100D9000BA00B937B80CB70CB60CBA0BC92E390863
:100DA000B1003808B0003708AF003608AE00400A7E
:100DB0000319DB2EDC2EDE2E0130C007400A03199A
:100DC000E22EE32EE82E4008031DE72EE82EF62E35
:100DD0000030B1000030B0000030AF000030AE0095
:100DE0004008031DF42EF52EF62EBE01401CF92EF0
:100DF000FA2EFC2EB017FE2E7F30B0054008B6004C
:100E00000130B636890B012F3608B100BE1F092FFD
:100E10000A2F0B2FB117080001302100C300BF1BA0
:100E2000122F142F0130152F0030C6002000560855
:100E30002100C500200055082100C4004608031900
:100E4000222F232F372FFF30C407FF30C53D460820
:100E5000031D2B2F2C2F312F2B30C1000030C2004F
:100E6000352F2D30C1000030C2004108C6001F30B0
:100E7000C7000030C8002300D701742FFF302100C5
:100E8000C707FF30C83D4708B83E860001308700DD
:100E90000A30A0000030A1003F08A3003E08A200D5
:100EA0009F315927873121002108A7002008A6007B
:100EB0009C310624873121002608303E8100C30181
:100EC000FF30C407FF30C53D0A30A0000030A1004C
:100ED0003F08A3003E08A200913103218731210081
:100EE0002108BF002008BE0021004808803AC00049
:100EF00080304002031D7E2F01304702031C812FEA
:100F0000822FA02F21003E083F04031D882F892F28
:100F10003E2F4308031D8D2F8E2F3E2F4508803A0C
:100F2000C00080304002031D972F01304402031C93
:100F30009A2F9B2FA02F2000E3189F2FA02F3E2F2A
:100F4000210046080319A52FA62FB12FFF30C70790
:100F5000FF30C83D4708B83E86000130870046088C
:100F600081003D08B5003C08B4004708B83EB60013
:100F70004508B8004408B7009F31AB2787312100EE
:100F80003508BD003408BC0008002100A401A501FB
:100F9000200821040319CD2FCE2FFB2F0130A600EE
:100FA000D82F0130A035A10D890BD22F0130A60713
:100FB000A11FDB2FDC2FD12F0130A435A50D890B0C
:100FC000DD2F21082302031DE72F20082202031C26
:100FD000EA2FEB2FF02F2008A2022108A33B2414B4
:100FE0000130A136A00C890BF12F0130A602031DA0
:100FF000FA2FFB2FDC2F2508A1002408A0000800F1
:101000000E3028009D009C014D302200E7001A3070
:10101000E800200092131D3028009E000800903147
:101020004F2088312200A4009B282408013E210083
:10103000A6009331E123883121002708AE0026085D
:10104000AD009031002088314C302100E200983012
:10105000E30022002408013E2100A6009331E12391
:10106000883121002708E5002608E4009C31182477
:101070008831BC282408013E2100E400973155271F
:101080008831210067082200A300210066082200A1
:10109000A200210065082200A100210064082200AE
:1010A000A0009A31EE228831D8302100E200983039
:1010B000E3009C3118248831BC282408013E21001B
:1010C000E400973155278831210067082200A300EA
:1010D000210066082200A200210065082200A1006C
:1010E000210064082200A0009A31E4228831CB302C
:1010F0002100E2009830E3009C3118248831BC289C
:1011000020006D08031985288728013088280030C1
:10111000ED009F302100E2009830E3009C3118245C
:101120008831BC287D302100E2009830E3009C31FA
:1011300018248831BC282408860001308700010863
:10114000003A0319BC28493A03195D28053A0319E6
:1011500080281C3A03193A28033A031915283A3A09
:1011600003195D28053A031980281C3A03193A2807
:10117000033A03191528922808009A315C22883115
:1011800071082200D4007008D300530865022000C3
:10119000D30022005408663B2000D4005308F0001E
:1011A0005408F100890D893B8909F200F3000130F0
:1011B00096310C26883173082000A7007208A6001B
:1011C0007108A5007008A4003A30A3000330A20003
:1011D0001230A1006F30A0008231C522883120007A
:1011E0002308BD002208BC002108BB002008BA006B
:1011F00022004E082000C10022004D082000C0003F
:1012000022004C082000BF0022004B082000BE0036
:101210008D31F425883120003D082200CE002000C9
:101220003C082200CD0020003B082200CC0020001A
:101230003A082200CB0020005308F0005408F100C7
:10124000890D893B8909F200F300013096310C26A3
:10125000883173082000A7007208A6007108A50055
:101260007008A400220064082000A3002200630884
:101270002000A200220062082000A10022006108D4
:101280002000A0008231C522883120002308BD0043
:101290002208BC002108BB002008BA0092311A22A3
:1012A000883120003B08D0003A08CF0022006008B7
:1012B0002000A70022005F082000A60022005E0890
:1012C0002000A50022005D082000A40022004E0896
:1012D0002000A30022004D082000A20022004C089C
:1012E0002000A10022004B082000A0008231C5226E
:1012F000883120002308BD002208BC002108BB0063
:101300002008BA0092311A22883120003B08D2000E
:101310003A08D10051084F07D7005208503DD80075
:1013200004305802003003195702031C98299929E8
:10133000AC295408803ACE0080304E02031DA22909
:1013400001305302031CA529A629AC29FF30200037
:10135000D7000330D800BD290430200058020030E7
:1013600003195702031CB529B629BD29D41FB92971
:10137000BA29BD29D701D801BD295808F10057085D
:10138000F0009C313E24883108009A319222893144
:1013900021002108EF002008EE009031A8208931BB
:1013A00021006F082200AB0021006E082200AA0075
:1013B000AB1FDB29DC29DF29AA01AB01F1292B08AE
:1013C000803AA40080302402031DE8293C302A0220
:1013D000031CEB29EC29F1293B302200AA00003044
:1013E000AB009A319B22893121002108EF002008AF
:1013F000EE009031A820893121006F082200A8005A
:1014000021006E082200A700A81F072A082A0A2A1E
:10141000A701A8019C31532489312200A901280881
:101420002B06031D152A27082A06031D182A192A28
:101430001C2A01302000E400200064080319212A3E
:10144000222A942A22002708FF3EA400FF30283DCC
:10145000A5002B08803AA6002508803A2602031D25
:10146000332A24082A02031C362A372A572A220044
:101470002708013EA4000030283DA5002508803A39
:10148000A6002B08803A2602031D482A2A082402B7
:10149000031C4B2A4C2A572AFF302100A100A2012D
:1014A0000530A30000309C31C5248931CF2A2200A9
:1014B0002908A400A5012B082506031D612A2A0876
:1014C0002406031D642A652A712A44302100A100E4
:1014D0004430A2000530A30044309C31C52489313A
:1014E000912A2908A400A50128082506031D7A2AA7
:1014F00027082406031D7D2A7E2A882A2100A101AF
:10150000A2010530A300FF309C31C5248931912A06
:101510002100A101A2010530A30000309C31C524A7
:1015200089312000E401CF2A22002908A400A50166
:101530002B082506031D9E2A2A082406031DA12A1E
:10154000A22AAE2A44302100A1004430A200053076
:10155000A30044309C31C5248931912A2908A40074
:10156000A50128082506031DB72A27082406031D00
:10157000BA2ABB2AC52A2100A101A2010530A30075
:10158000FF309C31C5248931912A2100A101A2019B
:101590000530A30000309C31C5248931912A0130E7
:1015A0002200A9073B302902031CD72AD82A0F2A78
:1015B0009C31AC248931080021004B08860087014A
:1015C000403FCE00413FCF004E0884004F088500C9
:1015D0001200253A031DED2AEE2A2C2C4B0886001A
:1015E00087010130810741310318810A2000D501AC
:1015F000D6010030E300FF302200D100FF30D200DE
:101600002100D201222B2000E31421004B08860088
:1016100087010130810741310318810A222B0130F3
:10162000D200222B4B0886008701403FCE00413F6D
:10163000CF004E0884004F0885000008303A031997
:10164000032B0F2B52080319262B272B122B4B0889
:10165000A6004D08A8004C08A70091315F218A31EF
:10166000210027082000D600210026082000D500F0
:10167000D61F3B2B3C2B422B6314D509D609D50A28
:101680000319D60A21004B0886008701403FD70086
:10169000413FD80057088400580885001200643A7A
:1016A0000319532B542B5E2B5708840058088500D0
:1016B0001200693A031D5D2B5E2B892B4C088600B6
:1016C0004D08870001088400850102308107003F32
:1016D000D300013FD4005708013ECE000030583DF2
:1016E000CF004B08860087014E08C03F4F08C13F1E
:1016F0004A08BD004908BC005408BF005308BE009A
:1017000087310C278A3121003D08CA003C08C900F6
:101710004F2C57088400580885001200753A031DA5
:10172000922B932BC82B4C0886004D08870001088C
:101730008400850102308107003FD300013FD400BF
:101740005708013ECE000030583DCF004B088600C0
:1017500087014E08C03F4F08C13FBF2B4A08BD005C
:101760004908BC005408BF005308BE0093316823E9
:101770008A3121003D08CA003C08C9004F2C570897
:101780008400580885000008753A0319AE2BC82B51
:10179000570884005808850012006E3A031DD12BAB
:1017A000D22BF92B4C0886004D08870001088400D5
:1017B000850102308107003FCE00013FCF004E0877
:1017C00086004F08870022004F08C03F5008C13FE5
:1017D00021005708013ECE000030583DCF004B0895
:1017E000860087014E08C03F4F08C13FC901CA01AA
:1017F0004F2C4B0886008701403FCE00413FCF0071
:101800004E0884004F0885001200253A031D092C5C
:101810000A2C232C4B0886008701013081074131B7
:101820000318810A2530A3000030A4004A08A6004E
:101830004908A5009131BC218A3101302100C9003D
:101840000030CA004F2C4B08860087010130810709
:1018500041310318810AF62B4B0886008701403F6F
:10186000CE00413FCF004E0884004F08850000089D
:10187000D000D1015008A3005108A4004A08A600D6
:101880004908A5009131BC218A3121004B0886000E
:1018900087010130810741310318810A1D2C08009E
:1018A000210027088039B1002735B800A61F592C20
:1018B0005A2C5B2C3814380803195F2C602C702CC0
:1018C000380A031D642C652C6D2C0030A7000030F5
:1018D000A6000030A5000030A400A617A701782CB0
:1018E0000030A7000030A6000030A5000030A400A2
:1018F00023088039B1062335B900A21F802C812C22
:10190000822C391439080319862C872C972C390A14
:10191000031D8B2C8C2C942C0030A3000030A200D3
:101920000030A1000030A000A217A3019F2C0030BE
:10193000A3000030A2000030A1000030A000230866
:10194000220421042004031DA62CA72CBE2C003049
:10195000A7000030A6000030A5000030A4008030B1
:10196000A6047F30A7043108A7042708A30026088F
:10197000A2002508A1002408A000F32D3808031DAB
:10198000C22CC32CCC2C0030A3000030A2000030AD
:10199000A1000030A000F32D3808A800A9012908F3
:1019A000AB0039082802AA00031CAB032A087F3EBB
:1019B000B20000302B3DB3002708B0002608AF006E
:1019C0002508AE002408AD000030A7000030A600B6
:1019D0000030A5000030A4000030B7000030B60091
:1019E0000030B5000030B400B901322D39080319B8
:1019F000FA2CFB2C152D0130AD35AE0DAF0DB00D11
:101A0000890BFC2C0130A435A50DA60DA70D890B63
:101A1000032DB71F0C2D0D2D0E2D24140130B435C0
:101A2000B50DB60DB70D890B0F2D23083002031D20
:101A3000232D22082F02031D232D21082E02031D12
:101A4000232D20082D02031C262D272D302D37177E
:101A50002008AD022108AE3B2208AF3B2308B03B73
:101A60000130B9071A303902031C372D382DF62CF6
:101A700030082F042E042D0403193F2D402D592D1D
:101A80003414592D0130A435A50DA60DA70D890BD1
:101A9000432DB71F4C2D4D2D4E2D24140130B43540
:101AA000B50DB60DB70D890B4F2DFF30B207FF30C6
:101AB000B33DA61F5C2D5D2D422DB901B71F612DD1
:101AC000622D7E2DFF303405A800FF303505A900BA
:101AD000FF303605AA007F303705AB002B082A04FB
:101AE000290428040319752D762D792D0130B900AC
:101AF0007E2D241C7C2D7D2D7E2D762D39080319FD
:101B0000822D832DA92D0130A4070030A53DA63DCF
:101B1000A73D271C8C2D8D2DA92D2408A800250854
:101B2000A9002608AA002708AB000130AC00AB379B
:101B3000AA0CA90CA80CAC0B972D2B08A7002A08FF
:101B4000A6002908A5002808A4000130B20700302B
:101B5000B33D3308803AA80080302802031DB22D1F
:101B6000FF303202031CB52DB62DC32DFF302100EE
:101B7000B2000030B3000030A7000030A6000030F3
:101B8000A5000030A40021003308803AA80080306E
:101B90002802031DCD2D013032020318D02DD12D86
:101BA000DD2D2100B201B3010030A7000030A600F6
:101BB0000030A5000030A400B10121003208B800B7
:101BC000381CE32DE42DE62DA617E82D7F30A60561
:101BD0003808A8000130A836890BEB2D2808A7008B
:101BE0003108A704B52C080020003D088039CA0040
:101BF0003D35CC00BC1FFD2DFE2DFF2D4C144C0897
:101C00000319032E042E142E4C0A031D082E092E30
:101C1000112E0030BD000030BC000030BB00003091
:101C2000BA00BC17BD011C2E0030BD000030BC0046
:101C30000030BB000030BA0041088039CB004B08AF
:101C40004A060319242E252E262E4A174135CB008D
:101C5000C01F2B2E2C2E2D2E4B144B080319312E6A
:101C6000322E422E4B0A031D362E372E3F2E0030C9
:101C7000C1000030C0000030BF000030BE00C017FF
:101C8000C1014A2E0030C1000030C0000030BF004A
:101C90000030BE004C084B0203184F2E502E742EFD
:101CA0004A1F532E542E562E8030CA064C08CD00A3
:101CB0004B08CC004D08CB003A08CD003E08BA00D6
:101CC0004D08BE003B08CD003F08BB004D08BF00DB
:101CD0003C08CD004008BC004D08C0003D08CD00C8
:101CE0004108BD004D08C100CD014B08C200C30131
:101CF0004308C5004C084202C400031CC503450844
:101D0000803AC60080304602031D882E1A304402F5
:101D1000031C8B2E8C2EC22E20003D083C043B045D
:101D20003A04031D942E962E0130972E0030CD00DC
:101D30000030BD000030BC000030BB000030BA00F5
:101D40004B08CC00C92E4D1CA62EA72EB12E4D0837
:101D5000C2000130C236890BAA2E42080138CD00DC
:101D6000B32E0310CD0C3A1CB62EB72EB82ECD17BD
:101D70000130C200BD37BC0CBB0CBA0CC20BBA2E72
:101D80000130CC0720004B084C02031CC82EC92E82
:101D9000A32E4A1BCC2ECD2E072F4C08031DD12E6F
:101DA000D22EDB2E0030BD000030BC000030BB0066
:101DB0000030BA00FF2F3E08BA073F08BB3D40087D
:101DC000BC3D4108BD3D3D1CE62EE72E912F4D1C2C
:101DD000EA2EEB2EF52E4D08C2000130C236890BDB
:101DE000EE2E42080138CD00F72E0310CD0C3A1C20
:101DF000FA2EFB2EFC2ECD170130C200BD37BC0CD5
:101E0000BB0CBA0CC20BFE2E0130CC07912F3D0843
:101E1000803AC2004108803A4202031D192F40084F
:101E20003C02031D192F3F083B02031D192F3E08DA
:101E30003A0203181C2F1D2F522FFF30C200FF3013
:101E4000C300FF30C400FF30C5003A083E02C600A0
:101E50003B083F3BC7003C08403BC8003D08413BB6
:101E6000C9004608C2074708C33D4808C43D4908A1
:101E7000C53D4508BD004408BC004308BB004208FE
:101E8000BA008030CA064D03FF3ACD004D08031D4D
:101E90004A2F4B2F5A2F0130BA070030BB3DBC3DB3
:101EA000BD3D5A2F3E08BA023F08BB3B4008BC3B31
:101EB0004108BD3B3D083C043B043A04031D612F2F
:101EC000622F8D2F4D08031D662F672F8D2F003039
:101ED000BD000030BC000030BB000030BA00FF2F56
:101EE0000130BA35BB0DBC0DBD0D890B712FCD1F57
:101EF0007A2F7B2F7C2F3A144D1C7F2F802F842F1D
:101F000003144D0DCD00862F0310CD0D4C08031981
:101F10008A2F8B2F8D2F0130CC02BC1F902F912F39
:101F2000702FCB01CD1F952F962FA42F4D087F39F1
:101F300003199B2F9C2F9F2F0130CB00A42F3A1CFD
:101F4000A22FA32FA42F9C2F4B080319A82FA92F32
:101F5000D22F0130BA070030BB3DBC3DBD3D3D1C1A
:101F6000B22FB32FD22F3A08C2003B08C3003C085F
:101F7000C4003D08C5000130C600C537C40CC30C01
:101F8000C20CC60BBD2F4508BD004408BC00430869
:101F9000BB004208BA004C0A0319CF2FD02FD22F12
:101FA0000130CC074C0A0319D62FD72FDC2F4C0851
:101FB000031DDB2FDC2FEA2F0030BD000030BC00FA
:101FC0000030BB000030BA004C08031DE82FE92F99
:101FD000EA2FCA014C1CED2FEE2FF02FBC17F22F69
:101FE0007F30BC054C08C2000130C236890BF52F8A
:101FF0004208BD00CA1FFD2FFE2FFF2FBD1708008E
:1020000021002E082200E60021002D082200E50014
:10201000080022008C018D018E01193021008C00F6
:1020200020308D001F308E00103023008C00803057
:102030008D00BF308E0024008C018D018E012500A3
:102040008C018D018E01373026008C00F0308D0020
:10205000FF308E003F3027008C00F0308D00FF30C5
:102060008E003C00A1010D30A40019303D009C0001
:102070000230A5000330A70014309F000E303C0052
:10208000A00018303D009E002700910192019301AD
:1020900094019501960197019801990108009A31E0
:1020A000D1229031003A031D56285728612820007C
:1020B0006508D83E86000130870081016508D83E5A
:1020C000A728133020006502031C6728682882288F
:1020D0006C289D313C2590319A31D1229031003AC3
:1020E000031D73287428692865302100E2009830A8
:1020F000E3009C31182490312000E5012300D80131
:10210000D830A7289D313C2590312100EB002000DC
:102110006508D83E86000130870021006B088100E9
:1021200020006508D83E8600013087000A3001068D
:10213000031D9B289C28A4286508D93E86000130F1
:1021400087008101E50180280130E5074F2808005C
:10215000C0302100B100AF30B0009B30AF00343050
:10216000AE003D30CD008B30CC007A30CB008B30D0
:10217000CA006E08A0006F08A100A201A3010030F0
:102180009631B026903121002308D1002208D000DA
:102190002108CF002008CE0080318A209031210014
:1021A0004D08B5004C08B4004B08B3004A08B20013
:1021B000853100259031210031082200A300210043
:1021C00030082200A20021002F082200A1002100D7
:1021D0002E082200A00023082100E7002200220888
:1021E0002100E600220021082100E500220020084D
:1021F0002100E40092318922903121006508EF002E
:102200006408EE0008002100A501A11F0829092982
:102210001029A009A109A00A0319A10A0130A500EB
:10222000A31F132914291B29A209A309A20A031910
:10223000A30A0130A506A601A7012008210403195D
:102240002229232950290130A4002D290130A0354D
:10225000A10D890B27290130A407A11F302931299D
:1022600026290130A635A70D890B32292108230222
:10227000031D3C2920082202031C3F29402945292F
:102280002008A2022108A33B26140130A136A00C8D
:10229000890B46290130A402031D4F2950293129F9
:1022A00025080319542955295A29A609A709A60A58
:1022B0000319A70A2708A1002608A000080021008A
:1022C000AD01AE01260886008701403FA900413FCD
:1022D000AA00290884002A08850012002A3A031D52
:1022E00072297329A32926088600870101308107F6
:1022F00041310318810A2708860028088700010851
:102300008400850102308107003FAD00013FAE002F
:10231000B7292E08A1002D08A0000A30A200003025
:10232000A3009C31FC24913121002C082007AD0032
:102330000030213DAE00260886008701013081076C
:1023400041310318810A260886008701403FA90011
:10235000413FAA00290884002A0885000008D03ED1
:10236000AC000A302C02031CB629B72989292E0893
:10237000A7002D08A600080021002508260403193F
:10238000C229C329C92925082604031DC829C9292A
:10239000CE2923089B31F5239131192A250886007F
:1023A000260887004931160001040319D829D929C4
:1023B000F92925088600260887004931403FA700F3
:1023C000413FA80025088600260887004231403F8B
:1023D000A900413FAA002A08803AAB002808803AA9
:1023E0002B02031DF529270829020318F829F929CA
:1023F000192A210025088600260887004231250871
:10240000840026088500003FA700013FA800403F48
:1024100027078400413F283D8500230880002508C8
:1024200086002608870042310130810741310318B8
:10243000810A0800031020003C0D3D0DC300430835
:10244000031D232A242A2D2A0030BD000030BC00A1
:102450000030BB000030BA00882A3A08BE003B08B2
:10246000BF003C08C0003D08C1001F30C136C00C91
:10247000BF0CBE0C890B362A3E08C200BC17FF30C9
:10248000BA05FF30BB05FF30BC050030BD059630F6
:10249000C302C31F4C2A4D2A632A4308803A973E41
:1024A0000318532A542A552A242A0130BD36BC0C5D
:1024B000BB0CBA0C890B562A0130C307031D612AD5
:1024C000622A552A782A20304302031C682A692A86
:1024D000732A242A0130BA35BB0DBC0DBD0D890B02
:1024E0006B2A0130C3024308031D772A782A6A2A1F
:1024F000420803197C2A7D2A882ABA09BB09BC092B
:10250000BD09BA0A0319BB0A0319BC0A0319BD0A9B
:10251000080003102100660D670DED006D08031D16
:10252000922A932A9C2A0030E7000030E60000300F
:10253000E5000030E400F72A6408E8006508E900D7
:102540006608EA006708EB001F30EB36EA0CE90C7E
:10255000E80C890BA52A6808EC00E617FF30E405B3
:10256000FF30E505FF30E6050030E7059630ED0267
:10257000ED1FBB2ABC2AD22A6D08803A973E031869
:10258000C22AC32AC42A932A0130E736E60CE50C96
:10259000E40C890BC52A0130ED07031DD02AD12A8E
:1025A000C42AE72A20306D02031CD72AD82AE22A3F
:1025B000932A0130E435E50DE60DE70D890BDA2AA3
:1025C0000130ED026D08031DE62AE72AD92A6C08BE
:1025D0000319EB2AEC2AF72AE409E509E609E709D9
:1025E000E40A0319E50A0319E60A0319E70A0800D1
:1025F0002400951AFC2AFD2A672B21002608A70033
:10260000A8012708A0002808A1000530A20000307A
:10261000A3009C31FC249231FB3021002007840070
:102620001830213D803885000008240094002100E6
:102630002608A700A8012708A0002808A100053047
:10264000A2000030A3009C31FC249231FC30210018
:10265000200784001830213D8038850000082400C0
:10266000950021002608A700A8012708A000280837
:10267000A1000530A2000030A3009C31FC2492315F
:10268000FD302100200784001830213D803885006E
:1026900000082400970021002608A700A8012708A9
:1026A000A0002808A1000530A2000030A3009C3142
:1026B000FC249231FE302100200784001830213D97
:1026C000803885000008240092009516672B0800CA
:1026D00001302100C100200056082100C300200065
:1026E00055082100C2001F30C4000030C50023007F
:1026F000D701A82BFF302100C407FF30C53D440897
:10270000B83E8600013087000A30A0000030A100EA
:102710003F08A3003E08A2009E31622693312100AB
:102720002008303E8100C101FF30C207FF30C33DA9
:102730000A30A0000030A1003F08A3003E08A2001C
:102740008731C527933121002108BF002008BE0032
:102750002100440845040319AE2BAF2BCC2B3E08B7
:102760003F04031DB42BB52B7A2B4108031DB92B55
:10277000BA2B7A2B4308803AC00080304002031DF8
:10278000C32B01304202031CC62BC72BCC2B2000CD
:10279000E318CB2BCC2B7A2B21003D08B5003C084D
:1027A000B4004408B83EB6004308B8004208B70079
:1027B0009F31AB27933121003508BD003408BC00A0
:1027C00008002100AB01AC01AA01E82B0130A607EB
:1027D0002608860001308700203001060319F12BFE
:1027E000F22BE62B2608860001308700F730010720
:1027F000A80005302802031CFE2BFF2BE62B260821
:102800008600013087002D300106031D082C092C9D
:102810000E2C0130AA000130A607372C26088600AE
:10282000013087002B300106031D172C182C372C84
:102830000B2C26088600013087002C08A1002B08ED
:10284000A0000A30A2000030A3009C31FC24933188
:1028500021002108A90001082002A800031CA903E7
:102860002808303EAB000030293DAC000B2C260878
:10287000860001308700D0300107A8000A30280206
:10288000031C432C442C192C2A08031D482C492CCA
:10289000552C2B09A8002C09A900A80A0319A90A7C
:1028A0002808A6002908A700592C2C08A7002B08E7
:1028B000A6000800220023082100E70022002208C9
:1028C0002100E600220021082100E5002200200866
:1028D0002100E40092318922943121006408220011
:1028E000A60023082100C900220022082100C800F8
:1028F000220021082100C700220020082100C60074
:10290000220026082100EE00EF01EE1BEF036E0807
:10291000A0006F08A100890D893B8909A200A300CE
:1029200001309631B026943121002308C5002208D9
:10293000C4002108C3002008C2009D311C25943129
:1029400021004508D1004408D0004308CF004208C8
:10295000CE004430CD007A30CC000030CB000030C7
:10296000CA0080318A20943121004D08E7004C08CC
:10297000E6004B08E5004A08E400923189229431D0
:10298000210065082200A500210064082200A4009F
:1029900005302100E2009930E300220026082100E2
:1029A000E400E501E41BE503220025082100E7001F
:1029B000220024082100E6009C31182494310800EC
:1029C00020006D080319E52CE62C6A2DE530210066
:1029D000E2009830E3009A319222943121002108DC
:1029E000E5002008E4009C3118249431AE30210029
:1029F000E2009830E3009A319B22943121002108B3
:102A0000E5002008E4009C31182494318E30210028
:102A1000E2009830E3009A31AD2294312100210880
:102A2000E5002008E4009C31182494311430210082
:102A3000E2009930E3009C31182494319B31E42367
:102A40009431210023082200A30021002208220043
:102A5000A200210021082200A1002100200822005C
:102A6000A00094315A2494310D302100E2009930B5
:102A7000E3009C31182494319B31D32394312100FD
:102A800023082200A300210022082200A200210026
:102A900021082200A100210020082200A00094317A
:102AA0005A249431F0302100E2009830E3009A314A
:102AB000B622943121002108E5002008E4009C3171
:102AC00018249431AB302100E2009830E3009C31AF
:102AD0001824943108009D315C2595318B170B1714
:102AE0009B314B239531BD302100A0000830A1005F
:102AF0009A31892295319B31582395312200C201A8
:102B000088310F20953120006608031D882D892DFE
:102B1000B42D9A31B6229531013021002102C23004
:102B200003192002031C952D962DAC2D3230A000E8
:102B30000030A1009C319424953101302000E60042
:102B400001302200C207D0302200AC00C930890B0E
:102B5000A72DAC0BA72D003200302100A000A10052
:102B60009C3194249531C32D9A31B6229531013090
:102B7000210021025F30031920020318C02DC12D4E
:102B8000C32D2000E6010B302200AC006230890B1F
:102B9000C72DAC0BC72D00009431E02495312200E5
:102BA0004208AC00AD012C082100A00022002D0835
:102BB0002100A1003230A2000030A3009C31FC248F
:102BC0009531210020082D3EAD000030213DAE00A2
:102BD0009031002095312E302100E200BD30E3001D
:102BE0009830E40022004208AC00AD012C0821001E
:102BF000E50022002D082100E6009D31E9259531F0
:102C00002E302100E9009A31C82295319C312A24C6
:102C10009531802D80315828F80078080319112E3D
:102C2000122E262EF31F152E162E262E7009FA00B0
:102C30007109FB007209FC007309FD00FA0A03190F
:102C4000FB0A0319FC0A0319FD0A2E2E7308FD0066
:102C50007208FC007108FB007008FA007308720427
:102C600071047004031D352E362E3F2E0030F30004
:102C70000030F2000030F1000030F000AF2E96304E
:102C8000F9004B2E0130F9070130FD36FC0CFB0C2E
:102C9000FA0C890B452EFE307D05031D502E512E5A
:102CA000422E612E0130F9070130FA070030FB3D5A
:102CB000FC3DFD3D0130FD36FC0CFB0CFA0C890B94
:102CC0005B2EFF307D05031D662E672E522E712E62
:102CD0000130F9020130FA35FB0DFC0DFD0D890BB9
:102CE0006B2EFC1B742E752E7B2E0230790203187E
:102CF0007A2E7B2E682E79187E2E7F2E872EFF301F
:102D0000FA05FF30FB057F30FC05FF30FD050310A1
:102D1000F90C7908F400F501F601F7011830F435E3
:102D2000F50DF60DF70D890B8F2E7408FA04750852
:102D3000FB047608FC047708FD0478080319A12E2B
:102D4000A22EA72EF31FA52EA62EA72EFD177D08B7
:102D5000F3007C08F2007B08F1007A08F00008001C
:102D60002100A80028080319B62EB72ECB2EA31FCA
:102D7000BA2EBB2ECB2E2009AA002109AB002209B6
:102D8000AC002309AD00AA0A0319AB0A0319AC0A67
:102D90000319AD0AD32E2308AD002208AC00210888
:102DA000AB002008AA002308220421042004031DEC
:102DB000DA2EDB2EE42E0030A3000030A20000301B
:102DC000A1000030A000542F9630A900F02E013051
:102DD000A9070130AD36AC0CAB0CAA0C890BEA2E5E
:102DE000FE302D05031DF52EF62EE72E062F0130A1
:102DF000A9070130AA070030AB3DAC3DAD3D013025
:102E0000AD36AC0CAB0CAA0C890B002FFF302D0596
:102E1000031D0B2F0C2FF72E162F0130A9020130A6
:102E2000AA35AB0DAC0DAD0D890B102FAC1B192FB6
:102E30001A2F202F0230290203181F2F202F0D2FA9
:102E40002918232F242F2C2FFF30AA05FF30AB0584
:102E50007F30AC05FF30AD050310A90C2908A40094
:102E6000A501A601A7011830A435A50DA60DA70D33
:102E7000890B342F2408AA042508AB042608AC04C7
:102E80002708AD0428080319462F472F4C2FA31FEE
:102E90004A2F4B2F4C2FAD172D08A3002C08A20052
:102EA0002B08A1002A08A000080000302100EE0035
:102EB0000030ED000030EC000030EB00E801640869
:102EC0008600013087000108EF000130E407303050
:102ED0006F02031C6C2F6D2FBC2F3A306F0203184A
:102EE000722F732FBC2F4130CD002030CC0000302A
:102EF000CB000030CA006E08D1006D08D0006C080D
:102F0000CF006B08CE0080318A20973121004D0818
:102F1000EE004C08ED004B08EC004A08EB006F088F
:102F2000D03EA000FF3003180030A100A201A30191
:102F300000309631B026973121002308B1002208D5
:102F4000B0002108AF002008AE006E08B5006D0883
:102F5000B4006C08B3006B08B200853100259731CE
:102F600021003108EE003008ED002F08EC002E089B
:102F7000EB000130E9075F2F2C306F060319C12FDA
:102F8000C22FC82F2E306F06031DC72FC82FCC2F7E
:102F90000130E800E9015F2FEA01EC2F4130A30086
:102FA0002030A2000030A1000030A0006E08A70071
:102FB0006D08A6006C08A5006B08A4008C31502495
:102FC000973121002308EE002208ED002108EC00D3
:102FD0002008EB000130EA0768080319F02FF12FF1
:102FE000F72F69086A02031CF62FF72FCE2F6E0801
:102FF000E7006D08E6006C08E5006B08E4000800D7
:1030000095341E34003400343C341D340F341E34E7
:10301000D1341A34BF341A3400340034003400344C
:103020000034003400340034003400340034003400
:1030300000340034003400340034003400340034F0
:1030400000340034003400340034003400340034E0
:1030500093341B34A2341B34003400340034003465
:10306000DA341A3400340034F834123400340034C2
:103070000034003400340034003400343E341B3457
:1030800000340034003400340034003400340034A0
:1030900000340034003400346334683461346E34F6
:1030A0006734653464342034733465347434703474
:1030B0006F3469346E347434203474346F34203493
:1030C000253475340D340A34003469346E34703468
:1030D000753474342034623475346634663465343F
:1030E000723420346F3476346534723466346C3420
:1030F0006F3477340D340A34003455346E346B3405
:103100006F3477346E34203463346F346D346D34FF
:1031100061346E3464340D340A3400342C34203479
:1031200064347534743479342034633479346334DA
:103130006C3465343A3420342534753400346C34BE
:103140006F3467347334203474346F3467346734C5
:103150006C34653464340D340A3400342C34203437
:1031600073346534743470346F3469346E34743449
:103170003A34203425347534003463346F34753474
:103180006E347434653472343A34203425347534F2
:103190000A340D3400346334683461346E34673477
:1031A0006534643420346B3469340D340A340034AB
:1031B0006334683461346E34673465346434203485
:1031C0006B3470340D340A34003468346F346F3427
:1031D0006734743465343A3420342534753400341B
:1031E0002C34203470346F346D3470343A342034DD
:1031F00025347534003440340A3410340734003434
:1032000064340034103401340034253469342E34ED
:10321000253430343334753400342C3420346B345A
:1032200069343A34203400342C3420346B34703414
:063230003A3420340034A2
:103492000800080008000800080023001D121D167D
:1034A20008008931C5219A31080021001C08F10069
:1034B2001B08F000080020005C08F1005B08F00027
:1034C2000800640080010131890B632A0034FE0088
:1034D20012001E00FE0B692A00342100210822007E
:1034E200EE00210020082200ED00080032009901C0
:1034F2009B019D0106309F009E019C010800210056
:1035020021082000E200210020082000E10008003C
:10351200210021082200EA00210020082200E900FF
:10352200080020005C082100A10020005B082100A7
:10353200A0000800220066082100A1002200650800
:103542002100A0000800210021082200E80021003B
:1035520020082200E7000800200058082100A100EE
:10356200200057082100A000080020005A0821006E
:10357200A100200059082100A000080020006A08CC
:10358200031DC42AC62A0130C72A003008002100C0
:103592006908E2000130E3009C3118249A310800E6
:1035A20020006708031DD62AD82A0130D92A003004
:1035B200080021009111200091112400940195012D
:1035C20097019201080022002308E0002208DF0090
:1035D2002108DE002008DD00080022002308E400A4
:1035E2002208E3002108E2002008E100080000347C
:1035F200003480343F340034003480343F34323479
:103602000034F1007108F000F00DF00D21001D08EA
:103612007006033970069D000800200010100B147C
:1036220000302100A0000030A1009A3180229B319D
:10363200080080302C009C007C309B00C0309A0037
:103642001F08F33904389F00080080302C009900CD
:103652007C309800C03097001F08FC3901389F0069
:1036620008002100A1002108A000A00DA00D1D0846
:103672002006033920069D000800210020082400AE
:1036820091002000911D462B472B422B91112400C3
:103692001108080010309B3132239B31CB302100BE
:1036A200A0001E30A1009A316E229B310800210039
:1036B200A6019231F8229B3152302100A0001A302B
:1036C200A1009A31A4229B3108002000111322008C
:1036D2006D086E0403196E2B6F2B742B6E088A0013
:1036E2006D080A009B31080022006B086C04031964
:1036F2007B2B7C2B812B6C088A006B080A009B3188
:10370200200091100800220069086A0403198A2B1C
:103712008B2B902B6A088A0069080A009B312000D3
:10372200921008002100200821040319992B9A2BDA
:10373200A12B21082000E000210020082000DF004A
:1037420008002100200821040319A82BA92BB02B63
:1037520021082000DE00210020082000DD000800F2
:10376200F93020009E009D014B302200EB001A3000
:10377200EC0020009110210091141E3020009F00C7
:103782000800FF302800960095014C302200E90025
:103792001A30EA002000921021009214753028009D
:1037A20097000800220060082100A30022005F08A1
:1037B2002100A20022005E082100A10022005D0873
:1037C2002100A0000800220064082100A3002200BA
:1037D20063082100A200220062082100A100220049
:1037E20061082100A00008002100A2009A31BF2236
:1037F2009B31003A0319FE2BFF2BF72B21002208E5
:10380200A0009E310F269B3108002100A71B0A2C25
:103812000B2C0C2C172C2609A8002709A900A80A92
:103822000319A90A2808A6002908A7000800E430FD
:103832002100E8000030D900DA006308DC006208E9
:10384200DB00E830DD000030DE009E3137269C319F
:1038520008002000921F2E2C2F2C3D2C22006708DE
:1038620068040319352C362C3B2C68088A0067083B
:103872000A009C312000921308007108F3007008BE
:10388200F200F336F20CF336F20C72082C009800B8
:1038920070080339F2000630F235890B4D2C72089C
:1038A200970008002100A0019B313E239C3121009A
:1038B200A0019B313E239C312100A0019B313E237C
:1038C2009C312100A0019B313E239C310800A03095
:1038D20021009E009B019C0105309F0001309D004C
:1038E2002000111349302100A0001A30A1009A31A2
:1038F2006E229C3121001117080021002008A2002D
:10390200842C0130A00720088600013087000108BE
:10391200031D8C2C8D2C822C22082002A000A101D8
:10392200A01BA103080021002108A3002008A20077
:10393200A336A20CA336A20C22082C009B00210065
:1039420020080339A2000630A235890BA52C2208D3
:103952002C009A000800FF302100A0009B313E237A
:103962009C31FF302100A0009B313E239C31FF306F
:103972002100A0009B313E239C31FF302100A0009A
:103982009B313E239C3108002100A4002308E0382B
:10399200A0009B313E239C3121002208A0009B31D4
:1039A2003E239C3121002108A0009B313E239C3103
:1039B20021002408A0009B313E239C3108000830DE
:1039C20020006A020318E62CE72CF92C6B08433E10
:1039D200860001308700010823009A0020006B084E
:1039E200013E0739F0007008EB000130EA07FB2CBA
:1039F2002100111208002100A401A501201C022DA2
:103A0200032D072D2208A4072308A53D0130A23566
:103A1200A30D890B082D0130A136A00C890B0D2DA9
:103A220020082104031D162D172DFF2C2508A100A7
:103A32002408A000080080302100C5064908B10012
:103A42004808B0004708AF004608AE004508B50078
:103A52004408B4004308B3004208B200853100258F
:103A62009D3121003108C5003008C4002F08C30071
:103A72002E08C200080020006808B03E860001300F
:103A8200870001082100A10020006808013E0739D3
:103A92002100A00020082000E8002100911220004F
:103AA20067080319552D562D582D0130E7022100C4
:103AB2009116210808009A3177229D319031092010
:103AC2009D319B31B1239D319B31C2239D31883180
:103AD20000209D319C3168249D319E3195269D3177
:103AE2009B311A239D319B3126239D319A31DA2253
:103AF2009D319B310E239D310800F800F401F50140
:103B02007008F200F3017208F6007308F700781CDF
:103B12008B2D8C2D902D7608F4077708F53D01301A
:103B2200F635F70D890B912D0310F80C7808031D5B
:103B32009B2D9C2D882D7508F1007408F00008005B
:103B42002100A800A401A5012008A200A3012208C7
:103B5200A6002308A700281CAF2DB02DB42D2608DF
:103B6200A4072708A53D0130A635A70D890BB52D61
:103B72000310A80C2808031DBF2DC02DAC2D25084D
:103B8200A1002408A00008002100B201B301DC2D2D
:103B92003108AF00B0012F08A3003008A4002E089E
:103BA200A6002D08A5009131BC219D3101302100D4
:103BB200B2070030B33D2C0832078600013087007F
:103BC2000108B1003108031DE72DE82DC92D0800B9
:103BD200E5302200A000210062082200A10001308D
:103BE200A200A301A401AA01AB0121302100D90046
:103BF2000130DA006408DC006308DB002030DD00FD
:103C02000130DE009E3137269D31210062082200FC
:103C12002307860001308700810108002100111A64
:103C2200132E142E182E200823009A00342E200062
:103C32006A0803191D2E1E2E342E6C08433E860080
:103C42000130870021002008810020006C08013E1D
:103C520007392100A10021082000EC0021001112E7
:103C620001302000EA0221001116080021005C0840
:103C7200E1005B08E0002200CF01D001552E5A0876
:103C8200CA005908C900E030CB005E08CD005D08CB
:103C9200CC008A31DC229E31210049082200CF0764
:103CA20021004A082200D03D2100600884006108FA
:103CB20085001200031D5E2E5F2E402ED901DA010F
:103CC20008002100200821040319682E692E902E75
:103CD2000130A400732E0130A035A10D890B6D2E89
:103CE2000130A407A11F762E772E6C2E2108230205
:103CF200031D7D2E20082202031C802E812E852E7C
:103D02002008A2022108A33B0130A136A00C890B96
:103D1200862E0130A402031D8F2E902E772E2308AB
:103D2200A1002208A0000800210091120730230000
:103D3200EC001F30ED0021001112E0302300EE00F4
:103D42001C30EF0048309F0090309D0026309E00CE
:103D520040309B0003309C004A302100A0001A3002
:103D6200A1009B3193239E314E302100A0001A30D6
:103D7200A1009B31A2239E312200DB01DC01200045
:103D8200EC01EB010830EA00E901E801E70121005A
:103D920091160800EE2E9A3156229E3171082200A9
:103DA200D6007008D50012302000EE00022F9A31A2
:103DB20056229E3171082000DC007008DB001330AF
:103DC200EE00022F9A3156229E3171082000DA004D
:103DD2007008D9001030EE00022F20006E08F200A9
:103DE200F3017308003A0319F72E022F7208103AF2
:103DF2000319CC2E023A0319D82E013A0319E32EE5
:103E0200022F6E089B3102239E3108002000693583
:103E1200A03E8600013087000030C03FC13F230032
:103E22009D1C142F152F272F20006935A03E8600D8
:103E32000130870001155D085E040319212F222F2E
:103E4200272F5E088A005D080A009F3123001D1D8E
:103E52002B2F2C2F3E2F20006935A03E86000130EB
:103E6200870081145F0860040319382F392F3E2F11
:103E720060088A005F080A009F3123001908F000D9
:103E820020006908013E0739F10071086806031D28
:103E92004B2F4C2F4D2F582F6908B03E8600013012
:103EA2008700700881007108E9000130E707080007
:103EB2002100A501A31F5E2F5F2F662FA209A30970
:103EC200A20A0319A30A0130A500A11F692F6A2FB4
:103ED2006F2FA009A109A00A0319A10A2008210431
:103EE2000319742F752F9C2F0130A4007F2F0130EE
:103EF200A035A10D890B792F0130A407A11F822FB4
:103F0200832F782F21082302031D892F20082202E4
:103F1200031C8C2F8D2F912F2008A2022108A33B76
:103F22000130A136A00C890B922F0130A402031D8F
:103F32009B2F9C2F832F25080319A02FA12FA62F7B
:103F4200A209A309A20A0319A30A2308A1002208AD
:103F5200A00008002000631CAF2FB02FBA2F210051
:103F62003608AC003508AE003408AD009D31C525D9
:103F72009F312100B81FBE2FBF2FC12FB701B8013B
:103F8200BA01BB01D52F20302100A3000030A400CC
:103F92003508A6003408A5009131BC219F310130BB
:103FA2002100BA070030BB3D3B08803AB90038080F
:103FB200803A3902031DDF2F37083A02031CE22F31
:103FC200E32FC42F20006318E72FE82FF22F2100E0
:103FD2003608AC003508AE003408AD009D31C52569
:103FE2009F3121003608A0009C317E249F312100A0
:0E3FF20037082007B4003808213DB50008004C
:020000040001F9
:08000E008C3FF33FFF3FFF3F71
:00000001FF
