:1000000080317428013410347E1480310B1F09288C
:100010000A2872282100111E0E280F281B282000F4
:10002000111E132814281B28230057088A0056087D
:100030000A00803172282100911E1F2820282C28B8
:100040002000911E242825282C28230055088A00EA
:1000500054080A00803172282100921C302831286F
:100060003A282000921C352836283A2888313A2030
:10007000803172282100121D3E283F284828200088
:10008000121D432844284828973130278031722890
:100090002100921D4C284D2856282000921D5128E1
:1000A0005228562897313427803172282100911C1C
:1000B0005A285B2864282000911C5F286028642847
:1000C00088312B20803172282100111F682869286F
:1000D00072282000111F6D286E28722888311C207C
:1000E000803172287E10090080317628803102200C
:1000F0008031EE00803103208031EF00D230840067
:10010000973085005E308600013087000A309731D5
:1001100070278031553084000030850019309731C8
:100120006A2780312100EC01ED01EE01EF01203062
:100130008400013085003E3097316A278031A0303D
:10014000840001308500343097316A2780317E1079
:1001500020008A31B32A200023088039AD002335DE
:10016000B300A21FB428B528B628331433080319E6
:10017000BA28BB28CA28330A031DBF28C028C828AC
:100180000030A3000030A2000030A1000030A00029
:10019000A217D2280030A3000030A2000030A10036
:1001A0000030A00027088039AD062735B200A61F11
:1001B000DA28DB28DC28321432080319E028E12889
:1001C000F028320A031DE528E628EE280030A700B3
:1001D0000030A6000030A5000030A400A617F828C3
:1001E0000030A7000030A6000030A5000030A400B9
:1001F00032080319FC28FD2802293308031D0129B0
:1002000002290B290030A3000030A2000030A10019
:100210000030A000E52A2008F000260889318B2153
:10022000803171082000B9007008B8003808A800B3
:10023000A901AA01AB012B08B1002A08B0002908C6
:10024000AF002808AE003908A800A901AA01AB0137
:100250002B08B7002A08B6002908B5002808B40002
:100260002108F000250889318B2180317108200098
:10027000B9007008B8003808A800A901AA01AB01AC
:100280002808AE072908AF3D2A08B03D2B08B13D2C
:100290003908A800A901AA01AB012808B407290858
:1002A000B53D2A08B63D2B08B73D2208F0002408CA
:1002B00089318B21803171082000B9007008B800A5
:1002C0003808A800A901AA01AB012808AE0729082F
:1002D000AF3D2A08B03D2B08B13D3908A800A9015F
:1002E000AA01AB012808B4072908B53D2A08B63D84
:1002F0002B08B73D0830AE35AF0DB00DB10D890BF1
:100300007B292108F000240889318B218031710874
:100310002000B9007008B8003808AE073908AF3DB2
:100320000030B03DB13D2008F000250889318B2117
:10033000803171082000B9007008B8003808AE0795
:100340003908AF3D0030B03DB13D0830AE35AF0D9E
:10035000B00DB10D890BA6292008F00024088931C1
:100360008B21803171082000B9007008B80038086E
:10037000AE073908AF3D0030B03DB13D2108F00077
:10038000260889318B21803171082000B90070085E
:10039000B8003808B4073908B53D0030B63DB73D60
:1003A0002208F000250889318B2180317108200056
:1003B000B9007008B8003808B4073908B53D0030F6
:1003C000B63DB73D2208F000260889318B218031E7
:1003D00071082000B9007008B8003808A800390872
:1003E000A900AA01AB010830A835A90DAA0DAB0DD3
:1003F000890BF4292808B4072908B53D2A08B63D19
:100400002B08B73D2E08A8002F08A9003008AA0025
:100410003108AB001830AB36AA0CA90CA80C890B1C
:100420000B2A2808B4072908B53D2A08B63D2B0831
:10043000B73D0830AE35AF0DB00DB10D890B1A2A9E
:1004400033083207A800A901A90D2808823EB80088
:10045000FF30293DB900432A0130B435B50DB60D42
:10046000B70D890B2D2AB11F362A372A382A3414A2
:100470000130AE35AF0DB00DB10D890B392AFF300B
:10048000B807FF30B93DB61F462A472A2C2AB201C9
:10049000B11F4B2A4C2A682AFF302E05A800FF30D6
:1004A0002F05A900FF303005AA007F303105AB00D1
:1004B0002B082A042904280403195F2A602A632AC6
:1004C0000130B200682A341C662A672A682A602A2A
:1004D000320803196C2A6D2A932A0130B4070030C0
:1004E000B53DB63DB73D371C762A772A932A3408A6
:1004F000A8003508A9003608AA003708AB0001306B
:10050000AC00AB37AA0CA90CA80CAC0B812A2B08A9
:10051000B7002A08B6002908B5002808B400013041
:10052000B8070030B93D3908803AA8008030280269
:10053000031D9C2AFF303802031C9F2AA02AAA2AE6
:100540007F302000B7008030B6000030B5000030AA
:10055000B400DB2A20003908803AA8008030280245
:10056000031DB42A013038020318B72AB82AC32A57
:1005700000302000B7000030B6000030B500003079
:10058000B400AD01DB2A20003808B300FF30B40509
:10059000FF30B5057F30B6050030B705331CD12AD2
:1005A000D22AD32AB6173308A8000130A836890BFF
:1005B000D62A2808B7002D08B7043708A300360844
:1005C000A2003508A1003408A000080020003D0862
:1005D0008039CA003D35CC00BC1FEF2AF02AF12A31
:1005E0004C144C080319F52AF62A062B4C0A031D55
:1005F000FA2AFB2A032B0030BD000030BC0000307B
:10060000BB000030BA00BC17BD010E2B0030BD008E
:100610000030BC000030BB000030BA004108803917
:10062000CB004B084A060319162B172B182B4A1719
:100630004135CB00C01F1D2B1E2B1F2B4B144B080D
:100640000319232B242B342B4B0A031D282B292B76
:10065000312B0030C1000030C0000030BF0000303E
:10066000BE00C017C1013C2B0030C1000030C000EB
:100670000030BF000030BE004C084B020318412B75
:10068000422B662B4A1F452B462B482B8030CA062F
:100690004C08CD004B08CC004D08CB003A08CD00EB
:1006A0003E08BA004D08BE003B08CD003F08BB0025
:1006B0004D08BF003C08CD004008BC004D08C000FC
:1006C0003D08CD004108BD004D08C100CD014B08DB
:1006D000C200C3014308C5004C084202C400031C09
:1006E000C5034508803AC60080304602031D7A2BB8
:1006F0001A304402031C7D2B7E2BB42B20003D08B6
:100700003C043B043A04031D862B882B0130892BC3
:100710000030CD000030BD000030BC000030BB0018
:100720000030BA004B08CC00BB2B4D1C982B992BEA
:10073000A32B4D08C2000130C236890B9C2B420806
:100740000138CD00A52B0310CD0C3A1CA82BA92BEA
:10075000AA2BCD170130C200BD37BC0CBB0CBA0CA4
:10076000C20BAC2B0130CC0720004B084C02031C01
:10077000BA2BBB2B952B4A1BBE2BBF2BF92B4C083E
:10078000031DC32BC42BCD2B0030BD000030BC009B
:100790000030BB000030BA00F12C3E08BA073F0819
:1007A000BB3D4008BC3D4108BD3D3D1CD82BD92B6D
:1007B000832C4D1CDC2BDD2BE72B4D08C2000130B8
:1007C000C236890BE02B42080138CD00E92B03101B
:1007D000CD0C3A1CEC2BED2BEE2BCD170130C200CB
:1007E000BD37BC0CBB0CBA0CC20BF02B0130CC07D4
:1007F000832C3D08803AC2004108803A4202031D22
:100800000B2C40083C02031D0B2C3F083B02031D30
:100810000B2C3E083A0203180E2C0F2C442CFF30F0
:10082000C200FF30C300FF30C400FF30C5003A08EB
:100830003E02C6003B083F3BC7003C08403BC800A7
:100840003D08413BC9004608C2074708C33D480868
:10085000C43D4908C53D4508BD004408BC004308E7
:10086000BB004208BA008030CA064D03FF3ACD00F3
:100870004D08031D3C2C3D2C4C2C0130BA07003098
:10088000BB3DBC3DBD3D4C2C3E08BA023F08BB3BC6
:100890004008BC3B4108BD3B3D083C043B043A04D6
:1008A000031D532C542C7F2C4D08031D582C592C00
:1008B0007F2C0030BD000030BC000030BB00003099
:1008C000BA00F12C0130BA35BB0DBC0DBD0D890B42
:1008D000632CCD1F6C2C6D2C6E2C3A144D1C712C7E
:1008E000722C762C03144D0DCD00782C0310CD0DF9
:1008F0004C0803197C2C7D2C7F2C0130CC02BC1FB2
:10090000822C832C622CCB01CD1F872C882C962C1B
:100910004D087F3903198D2C8E2C912C0130CB0082
:10092000962C3A1C942C952C962C8E2C4B08031943
:100930009A2C9B2CC42C0130BA070030BB3DBC3D27
:10094000BD3D3D1CA42CA52CC42C3A08C2003B087C
:10095000C3003C08C4003D08C5000130C600C537CF
:10096000C40CC30CC20CC60BAF2C4508BD00440818
:10097000BC004308BB004208BA004C0A0319C12C52
:10098000C22CC42C0130CC074C0A0319C82CC92C2A
:10099000CE2C4C08031DCD2CCE2CDC2C0030BD0001
:1009A0000030BC000030BB000030BA004C08031D12
:1009B000DA2CDB2CDC2CCA014C1CDF2CE02CE22CCA
:1009C000BC17E42C7F30BC054C08C2000130C23695
:1009D000890BE72C4208BD00CA1FEF2CF02CF12C2C
:1009E000BD17080021004B0886008701403FCE005C
:1009F000413FCF004E0884004F0885001200253A81
:100A0000031D032D042D3E2E4B0886008701013067
:100A1000810741310318810AEC01ED01003020000B
:100A2000E500FF302200CA00FF30CB002100D201D8
:100A3000382D2000E51421004B0886008701013085
:100A4000810741310318810A382D0130D200382D39
:100A50004B0886008701403FCE00413FCF004E0843
:100A600084004F0885000008303A0319192D252D00
:100A7000520803193C2D3D2D282D4B08A6004C088B
:100A8000A7008D317E25843121002708ED0026083E
:100A9000EC00ED1F4C2D4D2D552D2000651421002F
:100AA000EC09ED09EC0A0319ED0A4B0886008701F1
:100AB000403FD700413FD8005708840058088500C0
:100AC0001200643A0319652D662D702D57088400B5
:100AD000580885001200693A031D6F2D702D9B2D5B
:100AE0004C0886004D08870001088400850102300B
:100AF0008107003FD300013FD4005708013ECE00DC
:100B00000030583DCF004B08860087014E08C03F9B
:100B10004F08C13F4A08BD004908BC005408BF0047
:100B20005308BE008F314B27843121003D08CA0095
:100B30003C08C900612E570884005808850012003F
:100B4000753A031DA42DA52DDA2D4C0886004D08FD
:100B5000870001088400850102308107003FD3002F
:100B6000013FD4005708013ECE000030583DCF0071
:100B70004B08860087014E08C03F4F08C13FD12D6A
:100B80004A08BD004908BC005408BF005308BE0015
:100B900087316A27843121003D08CA003C08C9001A
:100BA000612E57088400580885000008753A03191B
:100BB000C02DDA2D570884005808850012006E3ABF
:100BC000031DE32DE42D0B2E4C0886004D088700F5
:100BD00001088400850102308107003FCE00013FFB
:100BE000CF004E0886004F08870022004808C03F0B
:100BF0004908C13F21005708013ECE000030583D52
:100C0000CF004B08860087014E08C03F4F08C13F08
:100C1000C901CA01612E4B0886008701403FCE0002
:100C2000413FCF004E0884004F0885001200253A4E
:100C3000031D1B2E1C2E352E4B088600870101300C
:100C4000810741310318810A2530A3000030A40038
:100C50004A08A6004908A5008D31DA258431013003
:100C60002100C9000030CA00612E4B0886008701B0
:100C70000130810741310318810A082E4B08860094
:100C80008701403FCE00413FCF004E0884004F080F
:100C900085000008D000D1015008A3005108A4002D
:100CA0004A08A6004908A5008D31DA2584312100C3
:100CB0004B08860087010130810741310318810A02
:100CC0002F2E080097315E27863171082200CD0053
:100CD0007008CC004C0866022000D30022004D08AA
:100CE000673B2000D4005308F0005408F100890D40
:100CF000893B8909F200F30001308E31A726863145
:100D000073082000A7007208A6007108A5007008EB
:100D1000A4003A30A3000330A2001230A1006F30CB
:100D2000A0008031AB20863120002308BD002208BE
:100D3000BC002108BB002008BA00220047082000A0
:100D4000C100220046082000C00022004508200003
:100D5000BF00220044082000BE008231E622863116
:100D600020003D082200C70020003C082200C600E9
:100D700020003B082200C50020003A082200C400E1
:100D800020005308F0005408F100890D893B8909BF
:100D9000F200F30001308E31A7268631730820005F
:100DA000A7007208A6007108A5007008A400220020
:100DB00065082000A300220064082000A200220091
:100DC00063082000A100220062082000A0008031FA
:100DD000AB20863120002308BD002208BC0021087A
:100DE000BB002008BA008E313826863120003B082F
:100DF000D0003A08CF00220061082000A70022009E
:100E000060082000A60022005F082000A500220044
:100E10005E082000A400220047082000A300220052
:100E200046082000A200220045082000A100220060
:100E300044082000A0008031AB2086312000230828
:100E4000BD002208BC002108BB002008BA008E317A
:100E50003826863120003B08D2003A08D1005108DC
:100E60004F07E3005208503DE400043064020030B4
:100E700003196302031C3D2F3E2F512F5408803A63
:100E8000CE0080304E02031D472F01305302031C59
:100E90004A2F4B2F512FFF302000E3000330E40096
:100EA000622F043020006402003003196302031C27
:100EB0005A2F5B2F622FD41F5E2F5F2F622FE3010B
:100EC000E401622F6408F1006308F0008831EF202C
:100ED0008631080001302100C1006D08C3006C0894
:100EE000C2001F30C4000030C5002300BF01A62F80
:100EF000FF302100C407FF30C53D4408A03E8600F6
:100F0000013087000A30A0000030A1003F08A30094
:100F10003E08A2008A318022873121002008303E1D
:100F20008100C101FF30C207FF30C33D0A30A0007D
:100F30000030A1003F08A3003E08A2008B315623D9
:100F4000873121002108BF002008BE00210044088D
:100F500045040319AC2FAD2FCA2F3E083F04031DD3
:100F6000B22FB32F782F4108031DB72FB82F782F3A
:100F70004308803AC00080304002031DC12F013079
:100F80004202031CC42FC52FCA2F2000E518C92F09
:100F9000CA2F782F21003D08B5003C08B400440852
:100FA000A03EB6004308B8004208B7008C31CD24FB
:100FB000873121003508BD003408BC00080021003D
:100FC000A401A501201CE52FE62FEA2F2208A40783
:100FD0002308A53D0130A235A30D890BEB2F01306D
:100FE000A136A00C890BF02F20082104031DF92F36
:100FF000FA2FE22F2508A1002408A000080008000D
:1010000024009E1408002100A1002108A000A00DCA
:10101000A00D1D082006033920069D000800103091
:1010200088310320883151302100A0000A30A1000E
:1010300097319B27883108002000111322006E0889
:101040006F040319242825282A286F088A006E08AF
:101050000A008831080022006C086D040319312849
:10106000322837286D088A006C080A008831200071
:101070009110080022006A086B04031940284128D7
:1010800046286B088A006A080A00883120009210FE
:10109000080021002008210403194F285028572850
:1010A00021082200D500210020082200D4000800D9
:1010B00021002008210403195E285F2866282108E2
:1010C0002200D300210020082200D2000800803036
:1010D00024009C0008309D009E019F014F309A0023
:1010E00097313827883124009D1608000E302800DB
:1010F0009D009C0100302200E8000030E900200043
:1011000092131D3028009E000800E3302100E70004
:101110000030D900DA006208DC006108DB00E7304B
:10112000DD008931FA2188310800FF3020009E005F
:101130009D0101302200EC001730ED0020009110DD
:10114000210091141D3020009F000800FF3028006E
:1011500096009501FF302200EA000730EB002000E6
:101160009210210092147630280097000800210088
:10117000A2009731B6278831003A0319C028C12848
:10118000B92821002208A0008931D2218831080025
:101190002100A71BCC28CD28CE28D9282609A800B5
:1011A0002709A900A80A0319A90A2808A6002908DE
:1011B000A70008002000D5010030D700FF30D6007E
:1011C000D801D901DC01DD01E20197310527883121
:1011D00097310227883197311C2788310800710820
:1011E000F3007008F200F336F20CF336F20C7208DA
:1011F0002C00980070080339F2000630F235890B94
:10120000FE28720897000800A03021009E009B0174
:101210009C0105309F0001309D0020001113FF301C
:101220002100A0001630A10097319B2789312100B1
:101230001117080021002008A20020290130A00772
:1012400020088600013087000108031D282929296C
:101250001E2922082002A000A101A01BA103080052
:10126000083020006B0203183629372949296C08F9
:10127000383E860001308700010823009A002000D4
:101280006C08013E0739F0007008EC000130EB07F4
:101290004B2921001112080006302000E200033023
:1012A000E10097310227893120006208F200F30142
:1012B000F235F30D9130720784001030733D8038A1
:1012C0008500013F8A00003F0A0089312000E200CA
:1012D00008009731A42789318B31912389318831D6
:1012E000952089318831A62089318831762089314D
:1012F0008931042189318A31E62289318831672098
:1013000089319731F42789319731C827893197314D
:10131000E82789310800F800F401F5017008F200AF
:10132000F3017208F6007308F700781C98299929D0
:101330009D297608F4077708F53D0130F635F70D5D
:10134000890B9E290310F80C7808031DA829A929E8
:1013500095297508F1007408F00008002100B20119
:10136000B301C5293108AF00B0012F08A300300830
:10137000A4002E08A6002D08A5008D31DA2589319C
:1013800001302100B2070030B33D2C08320786003F
:10139000013087000108B1003108031DD029D1298F
:1013A000B22908002100111AD629D729DB292008E3
:1013B00023009A00F72920006B080319E029E1298E
:1013C000F7296D08383E860001308700210020088B
:1013D000810020006D08013E07392100A10021088D
:1013E0002000ED002100111201302000EB0221004D
:1013F0001116080021005C08E0005B08DF002200F5
:10140000C801C901172A5A08CA005908C900DF30A3
:10141000CB005D08CC00CD018431F224893121005C
:1014200049082200C80721004A082200C93D2100BE
:101430005F088400600885001200031D202A212A0D
:10144000032AD901DA01080020005A085B040319B5
:101450002A2A2B2A3F2A0130DA020030DB3B5808C7
:10146000860059088700010897313C278A310130EE
:101470002000D8070030D93D0330F1004F2A600822
:101480000319432A442A4B2AE001883100208A317B
:101490000130F1004F2A973193278A31F10071080A
:1014A00008006A2A973146278A3171082200D10044
:1014B0007008D00012302000EF007B2A97314627B9
:1014C0008A3171082200CF007008CE001030200051
:1014D000EF007B2A20006F08F200F3017308003A46
:1014E0000319732A7B2A7208103A0319522A023A06
:1014F00003195E2A7B2A6F089731DC278A3108009E
:101500002100200821040319862A872AAE2A0130E7
:10151000A400912A0130A035A10D890B8B2A01303E
:10152000A407A11F942A952A8A2A21082302031DB1
:101530009B2A20082202031C9E2A9F2AA32A2008F5
:10154000A2022108A33B0130A136A00C890BA42ADA
:101550000130A402031DAD2AAE2A952A2308A1005A
:101560002208A0000800893169218A318B170B17E6
:1015700088310F208A3162302100A0000630A1009E
:101580009731AD278A31031022008C1E03140318F3
:10159000CA2ACD2A22008C16CF2A22008C1229308A
:1015A0002100EB009630EA007F30890BD52AEA0B48
:1015B000D52AEB0BD52A2B302100E8009830E90022
:1015C0009731BF278A31C32A8031742821009112B4
:1015D00079302300D4000C30D500210011123030B6
:1015E0002300D6000930D70048309F0090309D007E
:1015F00026309E0040309B0003309C0000302100CC
:10160000A0001730A100883149208A311430210010
:10161000A0001730A100883158208A312200DA0159
:10162000DB012000ED01EC010830EB00EA01E901EB
:10163000E8012100911608000430F00097312427BA
:101640008B31003A0319252B262B512B20005E08E5
:101650005F0403192C2B2D2B3E2B5C0886005D08A4
:10166000870097310B278B31810001302000DC0788
:101670000030DD3D0130DE020030DF3B5E085F04FC
:101680000319432B442B482B973120278B31542BA4
:10169000973111278B31973128278B310730F00094
:1016A000542B97310E278B31700808002100A401BC
:1016B000A5012008210403195E2B5F2B8C2B013020
:1016C000A600692B0130A035A10D890B632B0130D9
:1016D000A607A11F6C2B6D2B622B0130A435A50D25
:1016E000890B6E2B21082302031D782B2008220270
:1016F000031C7B2B7C2B812B2008A2022108A33BFF
:1017000024140130A136A00C890B822B0130A602D3
:10171000031D8B2B8C2B6D2B2508A1002408A0000A
:10172000080022008C0150308D008E0119302100FC
:101730008C00D0308D00DF308E00103023008C0004
:1017400020308D00FF308E0024008C018D018E0131
:1017500025008C018D018E01373026008C00F03081
:101760008D00FF308E003F3027008C00F0308D0060
:10177000FF308E003C00A1010F30A40002303D007C
:10178000A50014309D000E303C009D001A303D0035
:101790009E000C303C009E001B303D009C0027004A
:1017A000910192019301940195019601970198018D
:1017B00099010800973105278B3124001C1EE12B6D
:1017C000E22BE62B8831DA208B31122C97318427DB
:1017D0008B31003A0319ED2BEE2BFC2B9731582758
:1017E0008B31003A0319F52BF62BFC2B053020002A
:1017F000E2000130E100122C973141278B31003A91
:101800000319032C042C122C973158278B31003AE2
:1018100003190B2C0C2C122C05302000E200023096
:10182000E100122C20006208F200F301F235F30D02
:101830009130720784001030733D80388500013F7D
:101840008A00003F0A008C312000E20008002100DD
:10185000A501A31F2C2C2D2C342CA209A309A20A0C
:101860000319A30A0130A500A11F372C382C3D2CE9
:10187000A009A109A00A0319A10A2008210403193B
:10188000422C432C6A2C0130A4004D2C0130A03591
:10189000A10D890B472C0130A407A11F502C512CFE
:1018A000462C21082302031D572C20082202031C6A
:1018B0005A2C5B2C5F2C2008A2022108A33B01308C
:1018C000A136A00C890B602C0130A402031D692CE9
:1018D0006A2C512C250803196E2C6F2C742CA2092C
:1018E000A309A20A0319A30A2308A1002208A00041
:1018F000080020006A35203E860001308700003055
:10190000C03FC13F23009D1C862C872C9A2C2000B1
:101910006A35203E860001308700011522005208FA
:1019200053040319942C952C9A2C53088A005208BE
:101930000A008C3123001D1D9E2C9F2CB22C2000F0
:101940006A35203E86000130870081142200540849
:1019500055040319AC2CAD2CB22C55088A00540840
:101960000A008C3123001908F00020006A08013EAB
:101970000739F10071086906031DBF2CC02CC12C6A
:10198000CC2C6A08303E8600013087007008810048
:101990007108EA000130E80708002000651CD12C1E
:1019A000D22CDC2C21003608AC003508AE003408FF
:1019B000AD008931AE218C312100B81FE02CE12C23
:1019C000E32CB701B801BA01BB01F72C203021008C
:1019D000A3000030A4003508A6003408A5008D310E
:1019E000DA258C3101302100BA070030BB3D3B08BD
:1019F000803AB9003808803A3902031D012D3708B2
:101A00003A02031C042D052DE62C20006518092D33
:101A10000A2D142D21003608AC003508AE0034081C
:101A2000AD008931AE218C3121003608A00089310A
:101A30001A218C31210037082007B4003808213DD5
:101A4000B50008002100A501A11F272D282D2F2D4D
:101A5000A009A109A00A0319A10A0130A500A31F2A
:101A6000322D332D3A2DA209A309A20A0319A30A84
:101A70000130A506A601A701200821040319412D64
:101A8000422D6F2D0130A4004C2D0130A035A10D49
:101A9000890B462D0130A407A11F4F2D502D452D38
:101AA0000130A635A70D890B512D21082302031DF6
:101AB0005B2D20082202031C5E2D5F2D642D200863
:101AC000A2022108A33B26140130A136A00C890BE9
:101AD000652D0130A402031D6E2D6F2D502D25089C
:101AE0000319732D742D792DA609A709A60A0319C8
:101AF000A70A2708A1002608A00008002100AC01C1
:101B0000AD01260886008701403FA800413FA9009B
:101B1000280884002908850012002A3A031D912D07
:101B2000922DC12D260886008701013081074131A1
:101B30000318810A270886008701010884008501AF
:101B400002308107003FAC00013FAD00D52D2D08CC
:101B5000A1002C08A0000A30A2000030A3008731A9
:101B6000DF278D3121002B082007AC000030213DFC
:101B7000AD00260886008701013081074131031836
:101B8000810A260886008701403FA800413FA9003E
:101B900028088400290885000008D03EAB000A30E0
:101BA0002B02031CD42DD52DA72D2D08A7002C0802
:101BB000A60008002100250826040319E02DE12DC8
:101BC000E72D25082604031DE62DE72DEC2D23081F
:101BD0008831B7208D31372E2508860026088700EA
:101BE0004931160001040319F62DF72D172E25088B
:101BF0008600260887004931403FA700413FA800E2
:101C000025088600260887004231403FA900413F51
:101C1000AA002A08803AAB002808803A2B02031D4C
:101C2000132E270829020318162E172E372E2100EF
:101C300025088600260887004231250884002608EA
:101C40008500003FA700013FA800403F2707840010
:101C5000413F283D8500230880002508860026088E
:101C6000870042310130810741310318810A0800A1
:101C7000031020003C0D3D0DC3004308031D412E01
:101C8000422E4B2E0030BD000030BC000030BB00A7
:101C90000030BA00A62E3A08BE003B08BF003C0840
:101CA000C0003D08C1001F30C136C00CBF0CBE0CC7
:101CB000890B542E3E08C200BC17FF30BA05FF3016
:101CC000BB05FF30BC050030BD059630C302C31F05
:101CD0006A2E6B2E812E4308803A973E0318712E90
:101CE000722E732E422E0130BD36BC0CBB0CBA0CCA
:101CF000890B742E0130C307031D7F2E802E732E97
:101D0000962E20304302031C862E872E912E422EC3
:101D10000130BA35BB0DBC0DBD0D890B892E0130CC
:101D2000C3024308031D952E962E882E42080319E0
:101D30009A2E9B2EA62EBA09BB09BC09BD09BA0A68
:101D40000319BB0A0319BC0A0319BD0A0800F800ED
:101D500078080319AC2EAD2EC12EF31FB02EB12E74
:101D6000C12E7009FA007109FB007209FC007309A9
:101D7000FD00FA0A0319FB0A0319FC0A0319FD0AFC
:101D8000C92E7308FD007208FC007108FB00700882
:101D9000FA007308720471047004031DD02ED12E52
:101DA000DA2E0030F3000030F2000030F100003095
:101DB000F0004A2F9630F900E62E0130F907013085
:101DC000FD36FC0CFB0CFA0C890BE02EFE307D0579
:101DD000031DEB2EEC2EDD2EFC2E0130F907013019
:101DE000FA070030FB3DFC3DFD3D0130FD36FC0CAB
:101DF000FB0CFA0C890BF62EFF307D05031D012F1D
:101E0000022FED2E0C2F0130F9020130FA35FB0DB7
:101E1000FC0DFD0D890B062FFC1B0F2F102F162F0D
:101E2000023079020318152F162F032F7918192F56
:101E30001A2F222FFF30FA05FF30FB057F30FC05FB
:101E4000FF30FD050310F90C7908F400F501F601E7
:101E5000F7011830F435F50DF60DF70D890B2A2F23
:101E60007408FA047508FB047608FC047708FD047E
:101E7000780803193C2F3D2F422FF31F402F412F8D
:101E8000422FFD177D08F3007C08F2007B08F1006B
:101E90007A08F000080001302100C300BF1B512F59
:101EA000532F0130542F0030C6006D08C5006C0858
:101EB000C400460803195D2F5E2F722FFF30C40740
:101EC000FF30C53D4608031D662F672F6C2F2B3052
:101ED000C1000030C200702F2D30C1000030C200A0
:101EE0004108C6001F30C7000030C8002300BF01F2
:101EF000AF2FFF302100C707FF30C83D4708A03E85
:101F00008600013087000A30A0000030A1003F08A1
:101F1000A3003E08A2008C3127248F312100210824
:101F2000A7002008A6008831C8208F31210026088C
:101F3000303E8100C301FF30C407FF30C53D0A3089
:101F4000A0000030A1003F08A3003E08A2008D3190
:101F500022258F3121002108BF002008BE0021006A
:101F60004808803AC00080304002031DB92F01307C
:101F70004702031CBC2FBD2FDB2F21003E083F046E
:101F8000031DC32FC42F792F4308031DC82FC92F4A
:101F9000792F4508803AC00080304002031DD22FBF
:101FA00001304402031CD52FD62FDB2F2000E5186B
:101FB000DA2FDB2F792F210046080319E02FE12FBC
:101FC000EC2FFF30C707FF30C83D4708A03E860012
:101FD00001308700460881003D08B5003C08B40088
:101FE0004708A03EB6004508B8004408B7008C3149
:101FF000CD248F3121003508BD003408BC00080015
:10200000E6340A340034003400340034D234093465
:1020100000340034B6341734003400340034003453
:102020000034003400340034003400340034003410
:102030000034003400340034003400340034003400
:1020400000340034003400340034003400340034F0
:10205000493408345834083400340034003400342F
:10206000C8341734003400340034003400340034F1
:1020700000340034003400340034003400340034C0
:1020800000340034003400340034003400340034B0
:1020900000340034003400346334683461346E3406
:1020A0006734653464342034733465347434703484
:1020B0006F3469346E347434203474346F342034A3
:1020C000253475340D340A34003469346E34703478
:1020D000753474342034623475346634663465344F
:1020E000723420346F3476346534723466346C3430
:1020F0006F3477340D340A340034673408340034D4
:10210000003400340034003400340034003400342F
:10211000003400340034003400340034003400341F
:1021200000342C3417348B34173476341734243479
:102130000A341C340B344C3417345234173493346F
:1021400017347D34173455346E346B346F34773430
:102150006E34203463346F346D346D3461346E34D6
:1021600064340D340A3400342C342034643475342F
:102170007434793420346334793463346C346534A2
:102180003A3420342534753400346C346F34673479
:102190007334203474346F34673467346C3465348A
:1021A00064340D340A3400342C34203473346534F0
:1021B000743470346F3469346E3474343A34203487
:1021C0002534753400346334683461346E346734D4
:1021D0006534643420346B3469340D340A3400348B
:1021E0006334683461346E34673465346434203465
:0A21F0006B3470340D340A340034EF
:102DFE00080008000800200012110800200092119F
:102E0E00080024001E1508002400190808002400DC
:102E1E009E15080024009E10080023001D121D168A
:102E2E00080024009D129D16080024009D131D13FA
:102E3E00080024009E121E16080024001C080139EA
:102E4E00080024009E161E1608002000D50108302A
:102E5E00080089314C21973108008B31DA239731E4
:102E6E0008002100921512150800F00070082400C9
:102E7E009900080024001C0E890C0139080021005D
:102E8E001C08F1001B08F0000800973193279731BA
:102E9E00F0007008080097317D279731F000700818
:102EAE00080024001E0E890C890C0139080022002E
:102EBE004F08F1004E08F000080021002108EF0035
:102ECE002008EE000800640080010131890B6B2F91
:102EDE000034FE0012001E00FE0B712F0034200085
:102EEE00563597313C279731033008009731182714
:102EFE0097312000D50100300800031024009C1EDD
:102F0E0003140030093D080003142000560D9731BC
:102F1E003C279731043008009731082797318831C4
:102F2E00DA20973100300800210021082200EF003E
:102F3E00210020082200EE000800320099019B01BA
:102F4E009D0106309F009E019C0108002100210872
:102F5E002200EB00210020082200EA0008002000D9
:102F6E006B08031DBB2FBD2F0130BE2F0030080094
:102F7E0021006908E2006808E10088318520973158
:102F8E000800210091112000911124009401950157
:102F9E0097019201080000340034A03440346634A6
:102FAE00663466343F34C2340134F1007108F000E7
:102FBE00F00DF00D21001D087006033970069D00FE
:102FCE000800200010100B1400302100A00000306B
:102FDE00A100973164279731080080302C009900AA
:102FEE007F309800C03097001F08FC3901389F00D1
:102FFE00080068346F346F346734743465343A348F
:10300E00203425347534003440340A3410340734F7
:10301E0000346434003410340134003425346934FF
:10302E002E34253430343334753400342C3420347B
:10303E006B3469343A34203400342C3420346B34FD
:0C304E0070343A3420340034483400342C
:020000040001F9
:08000E008C3FF33FFF3FFF3F71
:00000001FF
