:1000000080315828013410347E1480310B1F0928A8
:100010000A2856282100111E0E280F281B28200010
:10002000111E132814281B28220051088A0050088A
:100030000A00803156282100911E1F2820282C28D4
:100040002000911E242825282C2822004F088A00F1
:100050004E080A00803156282100921C3028312891
:100060003A282000921C352836283A289E312E2620
:10007000803156282100911C3E283F284828200026
:10008000911C4328442848289E311F268031562839
:100090002100111F4C284D2856282000111F5128DF
:1000A000522856289E311026803156287E1009008D
:1000B00080315A28803102208031ED0080310320C8
:1000C0008031EE0021009D3127258031ED009D31EA
:1000D00028258031EE00493084009D308500543061
:1000E00086000130870008308731F927803155308C
:1000F00084000030850018309D3143258031203048
:100100008400013085001A309D3143258031A030B4
:100110008400013085004C309D31432580317E10B4
:1001200020009631B92E21002C088039B6002C35DC
:10013000BC00AB1F9C289D289E283C143C0803193A
:10014000A228A328B2283C0A031DA728A828B02863
:100150000030AC000030AB000030AA000030A90035
:10016000AB17BA280030AC000030AB000030AA005A
:100170000030A90030088039B6063035B700AF1F0F
:10018000C228C328C428371437080319C828C92827
:10019000D828370A031DCD28CE28D6280030B00035
:1001A0000030AF000030AE000030AD00AF17E028E7
:1001B0000030B0000030AF000030AE000030AD00C5
:1001C00037080319E428E528EA283C08031DE92834
:1001D000EA28F3280030AC000030AB000030AA0061
:1001E0000030A900CD2A2908A0002F0890317D20D9
:1001F000803121002108C2002008C1004108B1005F
:10020000B201B301B4013408BB003308BA003208AC
:10021000B9003108B8004208B100B201B301B4011D
:100220003408C0003308BF003208BE003108BD00EA
:100230002A08A0002E0890317D208031210021085D
:10024000C2002008C1004108B100B201B301B401ED
:100250003108B8073208B93D3308BA3D3408BB3D10
:100260004208B100B201B301B4013108BD07320840
:10027000BE3D3308BF3D3408C03D2B08A0002D080B
:1002800090317D20803121002108C2002008C1006A
:100290004108B100B201B301B4013108B807320816
:1002A000B93D3308BA3D3408BB3D4208B100B20144
:1002B000B301B4013108BD073208BE3D3308BF3D6C
:1002C0003408C03D0830B835B90DBA0DBB0D890BE7
:1002D00063292A08A0002D0890317D20803121005B
:1002E0002108C2002008C1004108B8074208B93DF2
:1002F0000030BA3DBB3D2908A0002E0890317D207A
:10030000803121002108C2002008C1004108B8073F
:100310004208B93D0030BA3DBB3D0830B835B90D93
:10032000BA0DBB0D890B8E292908A0002D0890312C
:100330007D20803121002108C2002008C100410831
:10034000B8074208B93D0030BA3DBB3D2A08A000BD
:100350002F0890317D20803121002108C200200823
:10036000C1004108BD074208BE3D0030BF3DC03D51
:100370002B08A0002E0890317D208031210021081B
:10038000C2002008C1004108BD074208BE3D003040
:10039000BF3DC03D2B08A0002F0890317D2080314B
:1003A00021002108C2002008C1004108B100420814
:1003B000B200B301B4010830B135B20DB30DB40DC4
:1003C000890BDC293108BD073208BE3D3308BF3D2B
:1003D0003408C03D3808B1003908B2003A08B3000B
:1003E0003B08B4001830B436B30CB20CB10C890B16
:1003F000F3293108BD073208BE3D3308BF3D34083C
:10040000C03D0830B835B90DBA0DBB0D890B022AB5
:100410003C083707B100B201B20D3108823EC1007D
:10042000FF30323DC2002B2A0130BD35BE0DBF0D5D
:10043000C00D890B152ABB1F1E2A1F2A202A3D1416
:100440000130B835B90DBA0DBB0D890B212AFF302B
:10045000C107FF30C23DBF1F2E2A2F2A142AB70121
:10046000BB1F332A342A502AFF303805B100FF3031
:100470003905B200FF303A05B3007F303B05B400C8
:1004800034083304320431040319472A482A4B2A1A
:100490000130B700502A3D1C4E2A4F2A502A482AC4
:1004A00037080319542A552A7B2A0130BD0700302A
:1004B000BE3DBF3DC03D401C5E2A5F2A7B2A3D08F1
:1004C000B1003E08B2003F08B3004008B40001305C
:1004D000B500B437B30CB20CB10CB50B692A3408B3
:1004E000C0003308BF003208BE003108BD00013033
:1004F000C1070030C23D4208803AB100803031026D
:10050000031D842AFF304102031C872A882A922A6D
:100510007F302100C0008030BF000030BE000030BE
:10052000BD00C32A21004208803AB1008030310268
:10053000031D9C2A0130410203189F2AA02AAB2ADE
:1005400000302100C0000030BF000030BE0000308D
:10055000BD00B601C32A21004108BC00FF30BD0523
:10056000FF30BE057F30BF050030C0053C1CB92AF6
:10057000BA2ABB2ABF173C08B1000130B136890B3B
:10058000BE2A3108C0003608C0044008AC003F084D
:10059000AB003E08AA003D08A9000800200023087F
:1005A0008039AD002335B300A21FD72AD82AD92A13
:1005B000331433080319DD2ADE2AED2A330A031D1A
:1005C000E22AE32AEB2A0030A3000030A200003028
:1005D000A1000030A000A217F52A0030A3000030CF
:1005E000A2000030A1000030A00027088039AD062D
:1005F0002735B200A61FFD2AFE2AFF2A3214320830
:100600000319032B042B132B320A031D082B092B70
:10061000112B0030A7000030A6000030A5000030EC
:10062000A400A6171B2B0030A7000030A600003046
:10063000A5000030A400320803191F2B202B252B06
:100640003308031D242B252B2E2B0030A300003054
:10065000A2000030A1000030A000082D2008F0000A
:10066000260890313620823171082000B9007008C8
:10067000B8003808A800A901AA01AB012B08B100F5
:100680002A08B0002908AF002808AE003908A800E1
:10069000A901AA01AB012B08B7002A08B600290856
:1006A000B5002808B4002108F00025089031362054
:1006B000823171082000B9007008B8003808A8001D
:1006C000A901AA01AB012808AE072908AF3D2A08F5
:1006D000B03D2B08B13D3908A800A901AA01AB0122
:1006E0002808B4072908B53D2A08B63D2B08B73DB0
:1006F0002208F00024089031362082317108200051
:10070000B9007008B8003808A800A901AA01AB0117
:100710002808AE072908AF3D2A08B03D2B08B13D97
:100720003908A800A901AA01AB012808B4072908C3
:10073000B53D2A08B63D2B08B73D0830AE35AF0DA4
:10074000B00DB10D890B9E2B2108F00024089031CB
:100750003620823171082000B9007008B8003808CE
:10076000AE073908AF3D0030B03DB13D2008F00084
:10077000250890313620823171082000B9007008B8
:10078000B8003808AE073908AF3D0030B03DB13D84
:100790000830AE35AF0DB00DB10D890BC92B200857
:1007A000F000240890313620823171082000B90011
:1007B0007008B8003808AE073908AF3D0030B03DCA
:1007C000B13D2108F00026089031362082317108B1
:1007D0002000B9007008B8003808B4073908B53DE2
:1007E0000030B63DB73D2208F00025089031362094
:1007F000823171082000B9007008B8003808B407C9
:100800003908B53D0030B63DB73D2208F000260856
:1008100090313620823171082000B9007008B8008C
:100820003808A8003908A900AA01AB010830A8358A
:10083000A90DAA0DAB0D890B172C2808B4072908A0
:10084000B53D2A08B63D2B08B73D2E08A8002F0855
:10085000A9003008AA003108AB001830AB36AA0C4A
:10086000A90CA80C890B2E2C2808B4072908B53D23
:100870002A08B63D2B08B73D0830AE35AF0DB00D98
:10088000B10D890B3D2C33083207A800A901A90D31
:100890002808823EB800FF30293DB900662C01309F
:1008A000B435B50DB60DB70D890B502CB11F592CB1
:1008B0005A2C5B2C34140130AE35AF0DB00DB10D98
:1008C000890B5C2CFF30B807FF30B93DB61F692C8F
:1008D0006A2C4F2CB201B11F6E2C6F2C8B2CFF3069
:1008E0002E05A800FF302F05A900FF303005AA0013
:1008F0007F303105AB002B082A0429042804031992
:10090000822C832C862C0130B2008B2C341C892C39
:100910008A2C8B2C832C320803198F2C902CB62C0C
:100920000130B4070030B53DB63DB73D371C992CBA
:100930009A2CB62C3408A8003508A9003608AA005D
:100940003708AB000130AC00AB37AA0CA90CA80CDF
:10095000AC0BA42C2B08B7002A08B6002908B50058
:100960002808B4000130B8070030B93D3908803A92
:10097000A80080302802031DBF2CFF303802031C62
:10098000C22CC32CCD2C7F302000B7008030B600A5
:100990000030B5000030B400FE2C20003908803A49
:1009A000A80080302802031DD72C0130380203181C
:1009B000DA2CDB2CE62C00302000B7000030B6002B
:1009C0000030B5000030B400AD01FE2C2000380826
:1009D000B300FF30B405FF30B5057F30B6050030F9
:1009E000B705331CF42CF52CF62CB6173308A800E9
:1009F0000130A836890BF92C2808B7002D08B70458
:100A00003708A3003608A2003508A1003408A0006A
:100A10000800210031088039BE003135C000B01F08
:100A2000122D132D142D401440080319182D192DC3
:100A3000292D400A031D1D2D1E2D262D0030B1002D
:100A40000030B0000030AF000030AE00B017B10190
:100A5000312D0030B1000030B0000030AF00003068
:100A6000AE0035088039BF003F083E060319392D16
:100A70003A2D3B2D3E173535BF00B41F402D412D7B
:100A8000422D3F143F080319462D472D572D3F0A8D
:100A9000031D4B2D4C2D542D0030B5000030B400FB
:100AA0000030B3000030B200B417B5015F2D003044
:100AB000B5000030B4000030B3000030B200400890
:100AC0003F020318642D652D892D3E1F682D692D69
:100AD0006B2D8030BE064008C1003F08C0004108B1
:100AE000BF002E08C1003208AE004108B2002F0836
:100AF000C1003308AF004108B3003008C10034081A
:100B0000B0004108B4003108C1003508B100410807
:100B1000B500C1013F08B600B7013708B900400869
:100B20003602B800031CB9033908803ABA00803095
:100B30003A02031D9D2D1A303802031CA02DA12D51
:100B4000D72D2100310830042F042E04031DA92DB8
:100B5000AB2D0130AC2D0030C1000030B1000030B1
:100B6000B0000030AF000030AE003F08C000DE2D06
:100B7000411CBB2DBC2DC62D4108B6000130B63638
:100B8000890BBF2D36080138C100C82D0310C10CD8
:100B90002E1CCB2DCC2DCD2DC1170130B600B13779
:100BA000B00CAF0CAE0CB60BCF2D0130C00721003E
:100BB0003F084002031CDD2DDE2DB82D3E1BE12D2C
:100BC000E22D1C2E4008031DE62DE72DF02D0030F0
:100BD000B1000030B0000030AF000030AE00142F84
:100BE0003208AE073308AF3D3408B03D3508B13D9B
:100BF000311CFB2DFC2DA62E411CFF2D002E0A2E94
:100C00004108B6000130B636890B032E360801388C
:100C1000C1000C2E0310C10C2E1C0F2E102E112EF5
:100C2000C1170130B600B137B00CAF0CAE0CB60B2B
:100C3000132E0130C007A62E3108803AB6003508C1
:100C4000803A3602031D2E2E34083002031D2E2E4C
:100C500033082F02031D2E2E32082E020318312EC8
:100C6000322E672EFF30B600FF30B700FF30B800DD
:100C7000FF30B9002E083202BA002F08333BBB0008
:100C80003008343BBC003108353BBD003A08B6079C
:100C90003B08B73D3C08B83D3D08B93D3908B100B7
:100CA0003808B0003708AF003608AE008030BE0606
:100CB0004103FF3AC1004108031D5F2E602E6F2ED5
:100CC0000130AE070030AF3DB03DB13D6F2E320870
:100CD000AE023308AF3B3408B03B3508B13B3108B6
:100CE00030042F042E04031D762E772EA22E4108E9
:100CF000031D7B2E7C2EA22E0030B1000030B000F0
:100D00000030AF000030AE00142F0130AE35AF0D13
:100D1000B00DB10D890B862EC11F8F2E902E912EF6
:100D20002E14411C942E952E992E0314410DC100B2
:100D30009B2E0310C10D400803199F2EA02EA22E3A
:100D40000130C002B01FA52EA62E852EBF01C11FE7
:100D5000AA2EAB2EB92E41087F390319B02EB12E21
:100D6000B42E0130BF00B92E2E1CB72EB82EB92ECE
:100D7000B12E3F080319BD2EBE2EE72E0130AE075F
:100D80000030AF3DB03DB13D311CC72EC82EE72E1F
:100D90002E08B6002F08B7003008B8003108B90097
:100DA0000130BA00B937B80CB70CB60CBA0BD22E5A
:100DB0003908B1003808B0003708AF003608AE0077
:100DC000400A0319E42EE52EE72E0130C007400A41
:100DD0000319EB2EEC2EF12E4008031DF02EF12E00
:100DE000FF2E0030B1000030B0000030AF00003006
:100DF000AE004008031DFD2EFE2EFF2EBE01401C3E
:100E0000022F032F052FB017072F7F30B0054008A2
:100E1000B6000130B636890B0A2F3608B100BE1F66
:100E2000122F132F142FB117080001302100C30017
:100E3000BF1B1B2F1D2F01301E2F0030C6002000AE
:100E400056082100C500200055082100C4004608AE
:100E500003192B2F2C2F402FFF30C407FF30C53D27
:100E60004608031D342F352F3A2F2B30C100003098
:100E7000C2003E2F2D30C1000030C2004108C60024
:100E80001F30C7000030C8002300D7017D2FFF307E
:100E90002100C707FF30C83D4708B83E8600013033
:100EA00087000A30A0000030A1003F08A3003E08E0
:100EB000A2009231B022873121002108A70020082A
:100EC000A6009E31BF26873121002608303E8100D2
:100ED000C301FF30C407FF30C53D0A30A000003019
:100EE000A1003F08A3003E08A2009331B023873140
:100EF00021002108BF002008BE0021004808803AD8
:100F0000C00080304002031D872F01304702031CC0
:100F10008A2F8B2FA92F21003E083F04031D912FFC
:100F2000922F472F4308031D962F972F472F4508D1
:100F3000803AC00080304002031DA02F01304402DF
:100F4000031CA32FA42FA92F2000E318A82FA92F3B
:100F5000472F210046080319AE2FAF2FBA2FFF30BD
:100F6000C707FF30C83D4708B83E860001308700FC
:100F7000460881003D08B5003C08B4004708B83E6B
:100F8000B6004508B8004408B70093310223873102
:100F900021003508BD003408BC00080021005C08B1
:100FA000E1005B08E0002200AC01AD01EC2F5A0823
:100FB000CA005908C900E030CB005E08CD005D08CA
:100FC000CC008A31DC228731210049082200AC079D
:100FD00021004A082200AD3D21006008840061081C
:100FE00085001200031DF52FF62FD72FD901DA0146
:100FF0000800FE0012001E00FE0BFA2F003408004D
:1010000020006708031D0528072801300828003044
:1010100008002100AD01AE01AC0110280130A80785
:10102000280886000130870020300106031919289E
:101030001A280E282808860001308700F73001079B
:10104000AA0005302A02031C262827280E28280873
:101050008600013087002D300106031D302831281D
:1010600036280130AC000130A8075F282808860028
:10107000013087002B300106031D3F2840285F28E0
:10108000332828088600013087002E08A3002D0889
:10109000A2000A30A4000030A5009F31C02788318B
:1010A00021002308AB0001082202AA00031CAB03A5
:1010B0002A08303EAD0000302B3DAE003328280812
:1010C000860001308700D0300107AA000A302A02CA
:1010D000031C6B286C2841282C08031D70287128DC
:1010E0007D282D09AA002E09AB00AA0A0319AB0A14
:1010F0002A08A8002B08A90081282E08A9002D087D
:10110000A80008002100A8002808031988288928B9
:101110009D28A31F8C288D289D282009AA0021091D
:10112000AB002209AC002309AD00AA0A0319AB0ADF
:101130000319AC0A0319AD0AA5282308AD0022083B
:10114000AC002108AB002008AA00230822042104D7
:101150002004031DAC28AD28B6280030A3000030C1
:10116000A2000030A1000030A00026299630A9007E
:10117000C2280130A9070130AD36AC0CAB0CAA0C6B
:10118000890BBC28FE302D05031DC728C828B928A7
:10119000D8280130A9070130AA070030AB3DAC3D8B
:1011A000AD3D0130AD36AC0CAB0CAA0C890BD2288E
:1011B000FF302D05031DDD28DE28C928E828013071
:1011C000A9020130AA35AB0DAC0DAD0D890BE2289B
:1011D000AC1BEB28EC28F228023029020318F12876
:1011E000F228DF282918F528F628FE28FF30AA055E
:1011F000FF30AB057F30AC05FF30AD050310A90C07
:101200002908A400A501A601A7011830A435A50D41
:10121000A60DA70D890B06292408AA042508AB04EE
:101220002608AC042708AD04280803191829192931
:101230001E29A31F1C291D291E29AD172D08A30037
:101240002C08A2002B08A1002A08A00008000030EA
:101250002100CD000030CC000030CB000030CA00AF
:10126000C70143088600013087000108CE00013025
:10127000C30730304E02031C3E293F298E293A30E5
:101280004E020318442945298E294130AC002030F4
:10129000AB000030AA000030A9004D08B0004C0897
:1012A000AF004B08AE004A08AD0080319320893171
:1012B00021002C08CD002B08CC002A08CB002908DF
:1012C000CA004E08D03EA000FF3003180030A10035
:1012D000A201A30100308831822089312100230836
:1012E000B1002208B0002108AF002008AE004D0870
:1012F000B5004C08B4004B08B3004A08B200853171
:101300000925893121003108CD003008CC002F0893
:10131000CB002E08CA000130C80731292C304E06F8
:101320000319932994299A292E304E06031D9929D1
:101330009A299E290130C700C8013129C901BE2957
:101340004130A3002030A2000030A1000030A000F6
:101350004D08A7004C08A6004B08A5004A08A400A9
:101360008C315024893121002308CD002208CC0083
:101370002108CB002008CA000130C907470803191B
:10138000C229C329C92948084902031CC829C929F7
:10139000A0294D08C6004C08C5004B08C4004A08E7
:1013A000C30008009D313725893171082200B10042
:1013B0007008B000300821006D022000D300220028
:1013C000310821006E3B2000D4005308F00054087F
:1013D000F100890D893B8909F200F3000130973152
:1013E0005C27893173082000A7007208A6007108E5
:1013F000A5007008A4003B30A3000330A200123007
:10140000A1006F30A0008231CE2289312000230854
:10141000BD002208BC002108BB002008BA00220041
:101420002B082000C10022002A082000C000220052
:1014300029082000BF00220028082000BE008D31AE
:10144000F425893120003D082200AB0020003C0833
:101450002200AA0020003B082200A90020003A0830
:101460002200A80020005308F0005408F100890D64
:10147000893B8909F200F300013097315C278931FB
:1014800073082000A7007208A6007108A500700864
:10149000A40022005B082000A30022005A082000BC
:1014A000A200220059082000A100220058082000B4
:1014B000A0008231CE22893120002308BD002208FD
:1014C000BC002108BB002008BA009431C724893130
:1014D00020003B08D0003A08CF0022005708200027
:1014E000A700220056082000A60022005508200070
:1014F000A500220054082000A40022002B08200090
:10150000A30022002A082000A200220029082000AF
:10151000A100220028082000A0008231CE228931BB
:1015200020002308BD002208BC002108BB002008C1
:10153000BA009431C724893120003B08D2003A0810
:10154000D10051084F07D7005208503DD800043051
:101550005802003003195702031CAF2AB02AC32ACD
:101560005408803ACE0080304E02031DB92A013063
:101570005302031CBC2ABD2AC32AFF302000D70017
:101580000330D800D42A0430200058020030031958
:101590005702031CCC2ACD2AD42AD41FD02AD12A00
:1015A000D42AD701D801D42A5808F1005708F000EE
:1015B0009E31E3268931080021004B08860087010F
:1015C000403FCE00413FCF004E0884004F088500C9
:1015D0001200253A031DED2AEE2A2C2C4B0886001A
:1015E00087010130810741310318810A2000D501AC
:1015F000D6010030E300FF302200AE00FF30AF0024
:101600002100D201222B2000E31421004B08860088
:1016100087010130810741310318810A222B0130F3
:10162000D200222B4B0886008701403FCE00413F6D
:10163000CF004E0884004F0885000008303A031997
:10164000032B0F2B52080319262B272B122B4B0889
:10165000A8004D08AA004C08A90094310C248A3136
:10166000210029082000D600210028082000D500EC
:10167000D61F3B2B3C2B422B6314D509D609D50A28
:101680000319D60A21004B0886008701403FD70086
:10169000413FD80057088400580885001200643A7A
:1016A0000319532B542B5E2B5708840058088500D0
:1016B0001200693A031D5D2B5E2B892B4C088600B6
:1016C0004D08870001088400850102308107003F32
:1016D000D300013FD4005708013ECE000030583DF2
:1016E000CF004B08860087014E08C03F4F08C13F1E
:1016F0004A08BD004908BC005408BF005308BE009A
:10170000873115278A3121003D08CA003C08C900ED
:101710004F2C57088400580885001200753A031DA5
:10172000922B932BC82B4C0886004D08870001088C
:101730008400850102308107003FD300013FD400BF
:101740005708013ECE000030583DCF004B088600C0
:1017500087014E08C03F4F08C13FBF2B4A08BD005C
:101760004908BC005408BF005308BE009531A625A7
:101770008A3121003D08CA003C08C9004F2C570897
:101780008400580885000008753A0319AE2BC82B51
:10179000570884005808850012006E3A031DD12BAB
:1017A000D22BF92B4C0886004D08870001088400D5
:1017B000850102308107003FCE00013FCF004E0877
:1017C00086004F08870022002C08C03F2D08C13F2B
:1017D00021005708013ECE000030583DCF004B0895
:1017E000860087014E08C03F4F08C13FC901CA01AA
:1017F0004F2C4B0886008701403FCE00413FCF0071
:101800004E0884004F0885001200253A031D092C5C
:101810000A2C232C4B0886008701013081074131B7
:101820000318810A2530A3000030A4004A08A6004E
:101830004908A500943169248A3101302100C9008A
:101840000030CA004F2C4B08860087010130810709
:1018500041310318810AF62B4B0886008701403F6F
:10186000CE00413FCF004E0884004F08850000089D
:10187000D000D1015008A3005108A4004A08A600D6
:101880004908A500943169248A3121004B0886005B
:1018900087010130810741310318810A1D2C08009E
:1018A000210027088039B1002735B800A61F592C20
:1018B0005A2C5B2C3814380803195F2C602C702CC0
:1018C000380A031D642C652C6D2C0030A7000030F5
:1018D000A6000030A5000030A400A617A701782CB0
:1018E0000030A7000030A6000030A5000030A400A2
:1018F00023088039B1062335B900A21F802C812C22
:10190000822C391439080319862C872C972C390A14
:10191000031D8B2C8C2C942C0030A3000030A200D3
:101920000030A1000030A000A217A3019F2C0030BE
:10193000A3000030A2000030A1000030A000230866
:10194000220421042004031DA62CA72CBE2C003049
:10195000A7000030A6000030A5000030A4008030B1
:10196000A6047F30A7043108A7042708A30026088F
:10197000A2002508A1002408A000F32D3808031DAB
:10198000C22CC32CCC2C0030A3000030A2000030AD
:10199000A1000030A000F32D3808A800A9012908F3
:1019A000AB0039082802AA00031CAB032A087F3EBB
:1019B000B20000302B3DB3002708B0002608AF006E
:1019C0002508AE002408AD000030A7000030A600B6
:1019D0000030A5000030A4000030B7000030B60091
:1019E0000030B5000030B400B901322D39080319B8
:1019F000FA2CFB2C152D0130AD35AE0DAF0DB00D11
:101A0000890BFC2C0130A435A50DA60DA70D890B63
:101A1000032DB71F0C2D0D2D0E2D24140130B435C0
:101A2000B50DB60DB70D890B0F2D23083002031D20
:101A3000232D22082F02031D232D21082E02031D12
:101A4000232D20082D02031C262D272D302D37177E
:101A50002008AD022108AE3B2208AF3B2308B03B73
:101A60000130B9071A303902031C372D382DF62CF6
:101A700030082F042E042D0403193F2D402D592D1D
:101A80003414592D0130A435A50DA60DA70D890BD1
:101A9000432DB71F4C2D4D2D4E2D24140130B43540
:101AA000B50DB60DB70D890B4F2DFF30B207FF30C6
:101AB000B33DA61F5C2D5D2D422DB901B71F612DD1
:101AC000622D7E2DFF303405A800FF303505A900BA
:101AD000FF303605AA007F303705AB002B082A04FB
:101AE000290428040319752D762D792D0130B900AC
:101AF0007E2D241C7C2D7D2D7E2D762D39080319FD
:101B0000822D832DA92D0130A4070030A53DA63DCF
:101B1000A73D271C8C2D8D2DA92D2408A800250854
:101B2000A9002608AA002708AB000130AC00AB379B
:101B3000AA0CA90CA80CAC0B972D2B08A7002A08FF
:101B4000A6002908A5002808A4000130B20700302B
:101B5000B33D3308803AA80080302802031DB22D1F
:101B6000FF303202031CB52DB62DC32DFF302100EE
:101B7000B2000030B3000030A7000030A6000030F3
:101B8000A5000030A40021003308803AA80080306E
:101B90002802031DCD2D013032020318D02DD12D86
:101BA000DD2D2100B201B3010030A7000030A600F6
:101BB0000030A5000030A400B10121003208B800B7
:101BC000381CE32DE42DE62DA617E82D7F30A60561
:101BD0003808A8000130A836890BEB2D2808A7008B
:101BE0003108A704B52C080020003D088039CA0040
:101BF0003D35CC00BC1FFD2DFE2DFF2D4C144C0897
:101C00000319032E042E142E4C0A031D082E092E30
:101C1000112E0030BD000030BC000030BB00003091
:101C2000BA00BC17BD011C2E0030BD000030BC0046
:101C30000030BB000030BA0041088039CB004B08AF
:101C40004A060319242E252E262E4A174135CB008D
:101C5000C01F2B2E2C2E2D2E4B144B080319312E6A
:101C6000322E422E4B0A031D362E372E3F2E0030C9
:101C7000C1000030C0000030BF000030BE00C017FF
:101C8000C1014A2E0030C1000030C0000030BF004A
:101C90000030BE004C084B0203184F2E502E742EFD
:101CA0004A1F532E542E562E8030CA064C08CD00A3
:101CB0004B08CC004D08CB003A08CD003E08BA00D6
:101CC0004D08BE003B08CD003F08BB004D08BF00DB
:101CD0003C08CD004008BC004D08C0003D08CD00C8
:101CE0004108BD004D08C100CD014B08C200C30131
:101CF0004308C5004C084202C400031CC503450844
:101D0000803AC60080304602031D882E1A304402F5
:101D1000031C8B2E8C2EC22E20003D083C043B045D
:101D20003A04031D942E962E0130972E0030CD00DC
:101D30000030BD000030BC000030BB000030BA00F5
:101D40004B08CC00C92E4D1CA62EA72EB12E4D0837
:101D5000C2000130C236890BAA2E42080138CD00DC
:101D6000B32E0310CD0C3A1CB62EB72EB82ECD17BD
:101D70000130C200BD37BC0CBB0CBA0CC20BBA2E72
:101D80000130CC0720004B084C02031CC82EC92E82
:101D9000A32E4A1BCC2ECD2E072F4C08031DD12E6F
:101DA000D22EDB2E0030BD000030BC000030BB0066
:101DB0000030BA00FF2F3E08BA073F08BB3D40087D
:101DC000BC3D4108BD3D3D1CE62EE72E912F4D1C2C
:101DD000EA2EEB2EF52E4D08C2000130C236890BDB
:101DE000EE2E42080138CD00F72E0310CD0C3A1C20
:101DF000FA2EFB2EFC2ECD170130C200BD37BC0CD5
:101E0000BB0CBA0CC20BFE2E0130CC07912F3D0843
:101E1000803AC2004108803A4202031D192F40084F
:101E20003C02031D192F3F083B02031D192F3E08DA
:101E30003A0203181C2F1D2F522FFF30C200FF3013
:101E4000C300FF30C400FF30C5003A083E02C600A0
:101E50003B083F3BC7003C08403BC8003D08413BB6
:101E6000C9004608C2074708C33D4808C43D4908A1
:101E7000C53D4508BD004408BC004308BB004208FE
:101E8000BA008030CA064D03FF3ACD004D08031D4D
:101E90004A2F4B2F5A2F0130BA070030BB3DBC3DB3
:101EA000BD3D5A2F3E08BA023F08BB3B4008BC3B31
:101EB0004108BD3B3D083C043B043A04031D612F2F
:101EC000622F8D2F4D08031D662F672F8D2F003039
:101ED000BD000030BC000030BB000030BA00FF2F56
:101EE0000130BA35BB0DBC0DBD0D890B712FCD1F57
:101EF0007A2F7B2F7C2F3A144D1C7F2F802F842F1D
:101F000003144D0DCD00862F0310CD0D4C08031981
:101F10008A2F8B2F8D2F0130CC02BC1F902F912F39
:101F2000702FCB01CD1F952F962FA42F4D087F39F1
:101F300003199B2F9C2F9F2F0130CB00A42F3A1CFD
:101F4000A22FA32FA42F9C2F4B080319A82FA92F32
:101F5000D22F0130BA070030BB3DBC3DBD3D3D1C1A
:101F6000B22FB32FD22F3A08C2003B08C3003C085F
:101F7000C4003D08C5000130C600C537C40CC30C01
:101F8000C20CC60BBD2F4508BD004408BC00430869
:101F9000BB004208BA004C0A0319CF2FD02FD22F12
:101FA0000130CC074C0A0319D62FD72FDC2F4C0851
:101FB000031DDB2FDC2FEA2F0030BD000030BC00FA
:101FC0000030BB000030BA004C08031DE82FE92F99
:101FD000EA2FCA014C1CED2FEE2FF02FBC17F22F69
:101FE0007F30BC054C08C2000130C236890BF52F8A
:101FF0004208BD00CA1FFD2FFE2FFF2FBD1708008E
:102000002000921F042805281328220048084904AC
:1020100003190B280C28112849088A0048080A00CF
:1020200090312000921308009D315A259031913152
:10203000D02190319E316A2690319E317B2690319D
:102040009E315B2690319F310D27903191312221B5
:1020500090319D31C42590319D31D02590319D31F5
:10206000A22590319D31B82590310800F800F40187
:10207000F5017008F200F3017208F6007308F7002A
:10208000781C4328442848287608F4077708F53D4B
:102090000130F635F70D890B49280310F80C780844
:1020A000031D5328542840287508F1007408F000D7
:1020B00008002100B201B30170283108AF00B0015F
:1020C0002F08A3003008A4002E08A6002D08A500A4
:1020D00094316924903101302100B2070030B33DC2
:1020E0002C0832078600013087000108B100310852
:1020F000031D7B287C285D2808002100A800A4017E
:10210000A5012008A200A3012208A6002308A70019
:10211000281C8B288C2890282608A4072708A53D72
:102120000130A635A70D890B91280310A80C2808AB
:10213000031D9B289C2888282508A1002408A000AE
:102140000800E5302200BA00210062082200BB002E
:102150000230BC00BD01BE01C401C5013B302100FD
:10216000D9000130DA006408DC006308DB003A3093
:10217000DD000130DE008731CE279031210062087A
:1021800022003D07860002308700810108002100FF
:10219000111ACB28CC28D028200823009A00EC283C
:1021A00020006A080319D528D628EC286C08203EA0
:1021B00086000130870021002008810020006C0883
:1021C000013E07392100A10021082000EC00210078
:1021D000111201302000EA0221001116080021002E
:1021E000200821040319F528F6281D290130A40030
:1021F00000290130A035A10D890BFA280130A40770
:10220000A11F03290429F92821082302031D0A29F3
:1022100020082202031C0D290E2912292008A202DF
:102220002108A33B0130A136A00C890B13290130F2
:10223000A402031D1C291D2904292308A10022082A
:10224000A0000800210091125E302200CE00123062
:10225000CF002100111285302200D0001F30D100A4
:10226000483023009F0090309D0026309E00403073
:102270009B0003309C0024302100A0001D30A100F1
:102280009E313D26913129302100A0001D30A10052
:102290009E314C2691312200B801B9012000EC0199
:1022A000EB010830EA00E901E801E701210091169D
:1022B00008002100AD01AE01280829040319612995
:1022C00062298F290130AC006C290130A835A90D95
:1022D000890B66290130AC07A91F6F297029652970
:1022E0000130AD35AE0D890B712929082B02031D74
:1022F0007B2928082A02031C7E297F298429280893
:10230000AA022908AB3B2D140130A936A80C890B71
:1023100085290130AC02031D8E298F2970292E08D2
:10232000A9002D08A8000800B7299D313125913159
:1023300071082200B3007008B20012302000EE00D5
:10234000CB299D313125913171082000DC007008C6
:10235000DB001330EE00CB299D313125913171081E
:102360002000DA007008D9001030EE00CB292000E0
:102370006E08F200F3017308003A0319C029CB2953
:102380007208103A03199529023A0319A129013A52
:102390000319AC29CB296E089D31AC259131080079
:1023A00022008C018D018E01193021008C0020301B
:1023B0008D001F308E00103023008C0080308D0087
:1023C000BF308E0024008C018D018E0125008C0110
:1023D0008D018E01373026008C00F0308D00FF30EB
:1023E0008E003F3027008C00F0308D00FF308E00D3
:1023F0003C00A1010D30A40019303D009C000230CA
:10240000A5000330A70014309F000E303C00A00050
:1024100018303D009E002700910192019301940124
:10242000950196019701980199010800FF3021005C
:10243000A8000330A9009D317525923121002108A3
:10244000A3002008A2003C30A4000030A5009F316A
:10245000C027923121002308AB002208AA00913145
:102460005921923121002808AF009E31F82692317F
:102470002100B00130082F02031C3F2A402A492ABC
:10248000A101A2010530A300FF309F316A279231DC
:10249000512AA101A2010530A30000309F316A2713
:1024A000923101302100B0073C303002031C592A20
:1024B0005A2A3A2A9F315127923108002000693563
:1024C000A03E8600013087000030C03FC13F23009E
:1024D0009D1C6B2A6C2A7E2A20006935A03E86004E
:1024E0000130870001155D085E040319782A792AF6
:1024F0007E2A5E088A005D080A00923123001D1DB5
:10250000822A832A952A20006935A03E8600013060
:10251000870081145F08600403198F2A902A952A86
:1025200060088A005F080A00923123001908F00051
:1025300020006908013E0739F10071086806031D93
:10254000A22AA32AA42AAF2A6908B03E8600013035
:102550008700700881007108E9000130E707080072
:102560002100A501A31FB52AB62ABD2AA209A309E5
:10257000A20A0319A30A0130A500A11FC02AC12A7B
:10258000C62AA009A109A00A0319A10A200821044A
:102590000319CB2ACC2AF32A0130A400D62A013011
:1025A000A035A10D890BD02A0130A407A11FD92A7B
:1025B000DA2ACF2A21082302031DE02A200822025A
:1025C000031CE32AE42AE82A2008A2022108A33BEC
:1025D0000130A136A00C890BE92A0130A402031DA9
:1025E000F22AF32ADA2A25080319F72AF82AFD2AFB
:1025F000A209A309A20A0319A30A2308A100220819
:10260000A00008002000631C062B072B112B2100C3
:102610003608AC003508AE003408AD0090315920C2
:1026200093312100B81F152B162B182BB701B801B9
:10263000BA01BB012C2B20302100A3000030A400E4
:102640003508A6003408A50094316924933101307F
:102650002100BA070030BB3D3B08803AB90038087A
:10266000803A3902031D362B37083A02031C392BF6
:102670003A2B1B2B200063183E2B3F2B492B2100AC
:102680003608AC003508AE003408AD009031592052
:10269000933121003608A0009F3123279331210078
:1026A00037082007B4003808213DB50008008831FC
:1026B00000209331003A031D5E2B5F2B692B200015
:1026C0006508D83E86000130870081016508D83E44
:1026D000AF2B133020006502031C6F2B702B8A2B4D
:1026E000742B9F31E0279331883100209331003AD9
:1026F000031D7B2B7C2B712B65302100E200983071
:10270000E3009E31D12693312000E5012300D8015A
:10271000D830AF2B9F31E02793312100EB00200010
:102720006508D83E86000130870021006B088100D3
:1027300020006508D83E8600013087000A30010677
:10274000031DA32BA42BAC2B6508D93E86000130BA
:1027500087008101E501882B0130E507572B080030
:102760002100A501A11FB52BB62BBD2BA009A109E6
:10277000A00A0319A10A0130A500A31FC02BC12B79
:10278000C82BA209A309A20A0319A30A0130A506AE
:10279000A601A701200821040319CF2BD02BFD2B64
:1027A0000130A400DA2B0130A035A10D890BD42B08
:1027B0000130A407A11FDD2BDE2BD32B0130A63562
:1027C000A70D890BDF2B21082302031DE92B20080D
:1027D0002202031CEC2BED2BF22B2008A202210875
:1027E000A33B26140130A136A00C890BF32B01303A
:1027F000A402031DFC2BFD2BDE2B25080319012C45
:10280000022C072CA609A709A60A0319A70A27085C
:10281000A1002608A00008002100AF01B00128088F
:1028200086008701403FAB00413FAC002B0884008D
:102830002C08850012002A3A031D1F2C202C502C36
:102840002808860087010130810741310318810A79
:10285000290886002A0887000108840085010230C3
:102860008107003FAF00013FB000642C3008A30097
:102870002F08A2000A30A4000030A5009F31C02715
:10288000943121002E082207AF000030233DB00014
:102890002808860087010130810741310318810A29
:1028A000280886008701403FAB00413FAC002B0861
:1028B00084002C0885000008D03EAE000A302E02AD
:1028C000031C632C642C362C3008A9002F08A800A8
:1028D000080021002508260403196F2C702C762C83
:1028E00025082604031D752C762C7B2C23089E318D
:1028F0008C269431C62C250886002608870049318D
:10290000160001040319852C862CA62C25088600A8
:10291000260887004931403FA700413FA80025080D
:102920008600260887004231403FA900413FAA00A7
:102930002A08803AAB002808803A2B02031DA22CFB
:10294000270829020318A52CA62CC62C210025082F
:102950008600260887004231250884002608850065
:10296000003FA700013FA800403F27078400413FE8
:10297000283D85002308800025088600260887005A
:1029800042310130810741310318810A08000310E8
:1029900020003C0D3D0DC3004308031DD02CD12C5D
:1029A000DA2C0030BD000030BC000030BB0000302D
:1029B000BA00352D3A08BE003B08BF003C08C000F5
:1029C0003D08C1001F30C136C00CBF0CBE0C890BC6
:1029D000E32C3E08C200BC17FF30BA05FF30BB0530
:1029E000FF30BC050030BD059630C302C31FF92C73
:1029F000FA2C102D4308803A973E0318002D012D24
:102A0000022DD12C0130BD36BC0CBB0CBA0C890B8D
:102A1000032D0130C307031D0E2D0F2D022D252D73
:102A200020304302031C152D162D202DD12C0130F2
:102A3000BA35BB0DBC0DBD0D890B182D0130C3027D
:102A40004308031D242D252D172D42080319292D78
:102A50002A2D352DBA09BB09BC09BD09BA0A0319CB
:102A6000BB0A0319BC0A0319BD0A08002400951A01
:102A70003A2D3B2DA52D21002808A900AA012908DF
:102A8000A2002A08A3000530A4000030A5009F3151
:102A9000C0279531D0302100220784001830233D13
:102AA0008038850000082400940021002808A9002F
:102AB000AA012908A2002A08A3000530A4000030BA
:102AC000A5009F31C0279531D13021002207840015
:102AD0001830233D8038850000082400950021002F
:102AE0002808A900AA012908A2002A08A300053085
:102AF000A4000030A5009F31C0279531D2302100BD
:102B0000220784001830233D803885000008240007
:102B1000970021002808A900AA012908A2002A0874
:102B2000A3000530A4000030A5009F31C0279531D7
:102B3000D3302100220784001830233D80388500DF
:102B40000008240092009516A52D080001302100F0
:102B5000C100200056082100C300200055082100B4
:102B6000C2001F30C4000030C5002300D701E62D8D
:102B7000FF302100C407FF30C53D4408B83E860041
:102B8000013087000A30A0000030A1003F08A300F8
:102B90003E08A2009031EF20953121002008303E00
:102BA0008100C101FF30C207FF30C33D0A30A800D9
:102BB0000030A9003F08AB003E08AA00913159211E
:102BC000953121002908BF002808BE0021004408D3
:102BD00045040319EC2DED2D0A2E3E083F04031D7C
:102BE000F22DF32DB82D4108031DF72DF82DB82D2A
:102BF0004308803AC00080304002031D012E01309E
:102C00004202031C042E052E0A2E2000E318092E72
:102C10000A2EB82D21003D08B5003C08B400440838
:102C2000B83EB6004308B8004208B700933102230B
:102C3000953121003508BD003408BC0008009331EF
:102C4000572396312100EC00972E6C08013EA80016
:102C500088310920963121002908B0002808AF00EA
:102C60009D313D2596314C302100E2009830E30043
:102C70006C08013EA80088310920963121002908FE
:102C8000E5002808E4009E31D1269631B82E6C0864
:102C9000013EC30089312721963121004608D20028
:102CA0004508D1004408D0004308CF009E31AE262D
:102CB0009631B8302100E2009830E3009E31D126F1
:102CC0009631B82E6C08013EC30089312721963118
:102CD00021004608D2004508D1004408D00043082E
:102CE000CF009E319D269631AB302100E200983016
:102CF000E3009E31D1269631B82E20006D080319CD
:102D0000822E842E0130852E0030ED008E30210081
:102D1000E2009830E3009E31D1269631B82E7D3006
:102D2000E2009830E3009E31D1269631B82E6C082F
:102D30008600013087000108003A0319B82E493A8D
:102D40000319622E053A03197D2E1C3A0319472EEA
:102D5000033A0319252E3A3A0319622E053A03194C
:102D60007D2E1C3A0319472E033A0319252E8F2E68
:102D700008009031142096318B170B179D31F525E3
:102D80009631D2302100A0000930A1009D316C2580
:102D900096319E31022696312400B40196311F26C9
:102DA000963120006608031DD62ED72E022F9D31A6
:102DB00087259631013021002102C23003192002FB
:102DC000031CE32EE42EFA2E3230A0000030A100C6
:102DD0009F313927963101302000E6000130240070
:102DE000B407D0302200C600C930890BF52EC60BBF
:102DF000F52E003200302100A000A1009F313927BC
:102E00009631112F9D318725963101302100210205
:102E10005F300319200203180E2F0F2F112F2000EF
:102E2000E6010B302200C6006230890B152FC60B5D
:102E3000152F00009F31A12796312400340822006D
:102E4000C600C70146082100A20022004708210051
:102E5000A3003230A4000030A5009F31C027963176
:102E6000210022082D3EAF000030233DB0009D31EF
:102E70003D25963120302100E2009D30E30098305E
:102E8000E400240034082200C600C70146082100DF
:102E9000E500220047082100E6009031A12096318C
:102EA00020302100E9009D31992596319031002094
:102EB0009631CE2E80315828F80078080319612FFA
:102EC000622F762FF31F652F662F762F7009FA0079
:102ED0007109FB007209FC007309FD00FA0A03196D
:102EE000FB0A0319FC0A0319FD0A7E2F7308FD0073
:102EF0007208FC007108FB007008FA007308720485
:102F000071047004031D852F862F8F2F0030F3006E
:102F10000030F2000030F1000030F000FF2F96305A
:102F2000F9009B2F0130F9070130FD36FC0CFB0C3A
:102F3000FA0C890B952FFE307D05031DA02FA12FC4
:102F4000922FB12F0130F9070130FA070030FB3D15
:102F5000FC3DFD3D0130FD36FC0CFB0CFA0C890BF1
:102F6000AB2FFF307D05031DB62FB72FA22FC12F2A
:102F70000130F9020130FA35FB0DFC0DFD0D890B16
:102F8000BB2FFC1BC42FC52FCB2F02307902031897
:102F9000CA2FCB2FB82F7918CE2FCF2FD72FFF3096
:102FA000FA05FF30FB057F30FC05FF30FD050310FF
:102FB000F90C7908F400F501F601F7011830F43541
:102FC000F50DF60DF70D890BDF2F7408FA0475085F
:102FD000FB047608FC047708FD0478080319F12F38
:102FE000F22FF72FF31FF52FF62FF72FFD177D0880
:102FF000F3007C08F2007B08F1007A08F00008007A
:103000002234113400340034E0341F34C734103417
:103010000034083490341D3400340034003400345B
:103020000034003400340034003400340034003400
:1030300000340034003400340034003400340034F0
:1030400000340034003400340034003400340034E0
:103050003D341E344C341E3400340034003400340B
:10306000A2341D34003400343634153400340034B6
:10307000003400340034003400340034E8341D34AB
:1030800000340034003400340034003400340034A0
:1030900000340034003400346334683461346E34F6
:1030A0006734653464342034733465347434703474
:1030B0006F3469346E347434203474346F34203493
:1030C000253475340D340A34003469346E34703468
:1030D000753474342034623475346634663465343F
:1030E000723420346F3476346534723466346C3420
:1030F0006F3477340D340A34003455346E346B3405
:103100006F3477346E34203463346F346D346D34FF
:1031100061346E3464340D340A3400346C346F34EA
:1031200067347334203474346F34673467346C34E8
:10313000653464340D340A34003463346F347534C8
:103140006E347434653472343A3420342534753432
:103150000A340D3400346334683461346E346734B7
:103160006534643420346B3469340D340A340034EB
:103170006334683461346E346734653464342034C5
:103180006B3470340D340A3400342C3420347034F1
:103190006F346D3470343A3420342534753400344F
:1031A00040340A34103407340034643400341034AA
:1031B00001340034253469342E342534303433342A
:0431C000753400342E
:103A460008000800080008003234003423001D1264
:103A56001D160800923116229D31080021001C080F
:103A6600F1001B08F000080020005C08F1005B086C
:103A7600F000080021003008EE002F08ED000800D5
:103A8600640080010131890B442D00340034003478
:103A9600603440346634663466343F34210021088D
:103AA6002200D300210020082200D20008003200A4
:103AB60099019B019D0106309F009E019C01080013
:103AC600210021082000E200210020082000E1005A
:103AD6000800210021082200CB0021002008220036
:103AE600CA000800200058082100A100200057083D
:103AF6002100A0000800210021082200C9002100A1
:103B060020082200C800080020005A082100A10051
:103B1600200059082100A000080020006A08031DA3
:103B2600952D972D0130982D003008002100690849
:103B3600E2000230E3009E31D1269D3108002100CB
:103B46009111200091112400940195019701920191
:103B56000800F1007108F000F00DF00D21001D08BD
:103B66007006033970069D000800200010100B1423
:103B760000302100A0000030A1009D3163259D3159
:103B8600080080302C009C007C309B00C0309A00DE
:103B96001F08F33904389F00080080302C00990074
:103BA6007C309800C03097001F08FC3901389F0010
:103BB60008002100A1002108A000A00DA00D1D08ED
:103BC6002006033920069D00080021002008240055
:103BD60091002000911DF02DF12DEC2D9111240066
:103BE6001108080010309D31DC259D3194302100EC
:103BF600A0001130A1009D3151259D310800210002
:103C0600A801953136259E312D302100A0001D30AA
:103C1600A1009D317E259E3108002000111322004F
:103C2600520853040319182E192E1E2E53088A0003
:103C360052080A009E31080022004C084D04031960
:103C4600252E262E2B2E4D088A004C080A009E3162
:103C560020009110080022004A084B040319342E54
:103C6600352E3A2E4B088A004A080A009E3120005B
:103C7600921008002100200821040319432E442E27
:103C86004B2E21082000E000210020082000DF0044
:103C960008002100200821040319522E532E5A2E03
:103CA60021082000DE00210020082000DD00080099
:103CB6000E3028009D009C01FF302200C80007300E
:103CC600C900200092131D3028009E000800F9301C
:103CD60020009E009D0125302200CC001D30CD0025
:103CE60020009110210091141E3020009F00080032
:103CF600F93028009600950126302200CA001D30B2
:103D0600CB002000921021009214773028009700F3
:103D160008002100A2009D3190259E31003A03192A
:103D2600952E962E8E2E21002208A0009031C720B7
:103D36009E310800210052082200D70021005108B8
:103D46002200D600210050082200D50021004F088D
:103D56002200D4000800210052082200DB002100C6
:103D660051082200DA00210050082200D900210063
:103D76004F082200D80008002100A71BC32EC42E1E
:103D8600C52ED02E2609A8002709A900A80A0319BE
:103D9600A90A2808A6002908A7000800E43021007F
:103DA600E8000030D900DA006308DC006208DB00B6
:103DB600E830DD000030DE008731CE279E31080076
:103DC6007108F3007008F200F336F20CF336F20CC9
:103DD60072082C00980070080339F2000630F2359C
:103DE600890BF22E7208970008002100A0019D3170
:103DF600E8259E312100A0019D31E8259E31210054
:103E0600A0019D31E8259E312100A0019D31E825C4
:103E16009E310800A03021009E009B019C010530C8
:103E26009F0001309D002000111323302100A000C7
:103E36001D30A1009D3151259F3121001117080029
:103E460021002008A200292F0130A00720088600A3
:103E5600013087000108031D312F322F272F22083A
:103E66002002A000A101A01BA10308002100210837
:103E7600A3002008A200A336A20CA336A20C220897
:103E86002C009B00210020080339A2000630A23531
:103E9600890B4A2F22082C009A000800FF302100C7
:103EA600A0009D31E8259F31FF302100A0009D3103
:103EB600E8259F31FF302100A0009D31E8259F3184
:103EC600FF302100A0009D31E8259F310800210028
:103ED600A4002308E038A0009D31E8259F31210089
:103EE6002208A0009D31E8259F3121002108A0006D
:103EF6009D31E8259F3121002408A0009D31E82549
:103F06009F310800083020006A0203188B2F8C2F7F
:103F16009E2F6B08203E8600013087000108230093
:103F26009A0020006B08013E0739F0007008EB008C
:103F36000130EA07A02F21001112080020006D08A9
:103F46000319A62FA72FBF2FC5302100E2009830F6
:103F5600E3009D3187259F3121002108E5002008D7
:103F6600E4009E31D1269F319A302100E20098303C
:103F7600E3009E31D1269F3108002100A601A7014A
:103F8600221CC62FC72FCB2F2408A6072508A73D1E
:103F96000130A435A50D890BCC2F0130A336A20C18
:103FA600890BD12F22082304031DDA2FDB2FC32F01
:103FB6002708A3002608A200080020006808B03ED3
:103FC60086000130870001082100A1002000680852
:103FD600013E07392100A00020082000E80021004A
:103FE6009112200067080319F92FFA2FFC2F0130D0
:0A3FF600E7022100911621080800DF
:020000040001F9
:08000E008C3FF33FFF3FFF3F71
:00000001FF
