:1000000080317428013410347E1480310B1F09288C
:100010000A2872282100111E0E280F281B282000F4
:10002000111E132814281B28220063088A00620866
:100030000A00803172282100911E1F2820282C28B8
:100040002000911E242825282C28230055088A00EA
:1000500054080A00803172282100921C302831286F
:100060003A282000921C352836283A289F31352717
:10007000803172282100121D3E283F284828200088
:10008000121D4328442848289E31152680317228A5
:100090002100921D4C284D2856282000921D5128E1
:1000A000522856289E311926803172282100911C31
:1000B0005A285B2864282000911C5F286028642847
:1000C0009F312627803172282100111F6828692856
:1000D00072282000111F6D286E2872289F31172763
:1000E000803172287E10090080317628803102200C
:1000F0008031EE00803103208031EF00D030840069
:100100009E30850066308600013087000A309E31BF
:1001100053268031553084000030850019309E31DF
:100120004D2680312100EE01EF01203084000130A6
:1001300085003C309E314D268031A0308400013056
:10014000850034309E314D2680317E102000913163
:10015000A32921002C088039B6002C35BC00AB1F28
:10016000B228B328B4283C143C080319B828B9288D
:10017000C8283C0A031DBD28BE28C6280030AC0094
:100180000030AB000030AA000030A900AB17D02827
:100190000030AC000030AB000030AA000030A900F5
:1001A00030088039B6063035BB00AF1FD828D928B3
:1001B000DA283B143B080319DE28DF28EE283B0A27
:1001C000031DE328E428EC280030B0000030AF0025
:1001D0000030AE000030AD00AF17F6280030B000A0
:1001E0000030AF000030AE000030AD003B08031916
:1001F000FA28FB2800293C08031DFF2800290929AB
:100200000030AC000030AB000030AA000030A90084
:10021000E32A2908A0002F08913100218031210014
:100220002108C2002008C1004108B100B201B30199
:10023000B4013408BA003308B9003208B8003108F4
:10024000B7004208B100B201B301B4013408C000E4
:100250003308BF003208BE003108BD002A08A000E4
:100260002E0891310021803121002108C200200890
:10027000C1004108B100B201B301B4013108B707B0
:100280003208B83D3308B93D3408BA3D4208B100E0
:10029000B201B301B4013108BD073208BE3D3308D5
:1002A000BF3D3408C03D2B08A0002D08913100212E
:1002B000803121002108C2002008C1004108B1009E
:1002C000B201B301B4013108B7073208B83D3308B1
:1002D000B93D3408BA3D4208B100B201B301B401DE
:1002E0003108BD073208BE3D3308BF3D3408C03D6C
:1002F0000830B735B80DB90DBA0D890B79292A0820
:10030000A0002D0891310021803121002108C20078
:100310002008C1004108B7074208B83D0030B93D88
:10032000BA3D2908A0002E0891310021803121001A
:100330002108C2002008C1004108B7074208B83DA3
:100340000030B93DBA3D0830B735B80DB90DBA0D1A
:10035000890BA4292908A0002D08913100218031A2
:1003600021002108C2002008C1004108B707420847
:10037000B83D0030B93DBA3D2A08A0002F089131A0
:100380000021803121002108C2002008C10041085D
:10039000BD074208BE3D0030BF3DC03D2B08A00058
:1003A0002E0891310021803121002108C20020084F
:1003B000C1004108BD074208BE3D0030BF3DC03D01
:1003C0002B08A0002F089131002180312100210845
:1003D000C2002008C1004108B1004208B200B301C8
:1003E000B4010830B135B20DB30DB40D890BF2294B
:1003F0003108BD073208BE3D3308BF3D3408C03D5B
:100400003708B1003808B2003908B3003A08B40020
:100410001830B436B30CB20CB10C890B092A310870
:10042000BD073208BE3D3308BF3D3408C03D08302B
:10043000B735B80DB90DBA0D890B182A3C083B0722
:10044000B100B201B20D3108823EC100FF30323D31
:10045000C200412A0130BD35BE0DBF0DC00D890B54
:100460002B2ABA1F342A352A362A3D140130B735D3
:10047000B80DB90DBA0D890B372AFF30C107FF300F
:10048000C23DBF1F442A452A2A2ABB01BA1F492A56
:100490004A2A662AFF303705B100FF303805B2001E
:1004A000FF303905B3007F303A05B4003408330417
:1004B0003204310403195D2A5E2A612A0130BB002F
:1004C000662A3D1C642A652A662A5E2A3B080319AF
:1004D0006A2A6B2A912A0130BD070030BE3DBF3D1C
:1004E000C03D401C742A752A912A3D08B1003E087F
:1004F000B2003F08B3004008B4000130B500B43783
:10050000B30CB20CB10CB50B7F2A3408C000330811
:10051000BF003208BE003108BD000130C107003005
:10052000C23D4208803AB10080303102031D9A2A50
:10053000FF304102031C9D2A9E2AA82A7F302100F9
:10054000C0008030BF000030BE000030BD00D92A9E
:1005500021004208803AB10080303102031DB22AE6
:10056000013041020318B52AB62AC12A0030210001
:10057000C0000030BF000030BE000030BD00B6013A
:10058000D92A21004108BC00FF30BD05FF30BE055F
:100590007F30BF050030C0053C1CCF2AD02AD12AAD
:1005A000BF173C08B1000130B136890BD42A31089D
:1005B000C0003608C0044008AC003F08AB003E084D
:1005C000AA003D08A9000800200023088039AD00DA
:1005D0002335B300A21FED2AEE2AEF2A3314330885
:1005E0000319F32AF42A032B330A031DF82AF92AE4
:1005F000012B0030A3000030A2000030A100003029
:10060000A000A2170B2B0030A3000030A200003086
:10061000A1000030A00027088039AD062735B200C0
:10062000A61F132B142B152B321432080319192B68
:100630001A2B292B320A031D1E2B1F2B272B0030B0
:10064000A7000030A6000030A5000030A400A617C7
:10065000312B0030A7000030A6000030A50000308C
:10066000A40032080319352B362B3B2B3308031D0E
:100670003A2B3B2B442B0030A3000030A20000306B
:10068000A1000030A0001E2D2008F00026089031A7
:10069000B920823171082000B9007008B80038080C
:1006A000A800A901AA01AB012B08B1002A08B000DB
:1006B0002908AF002808AE003908A800A901AA013E
:1006C000AB012B08B7002A08B6002908B500280896
:1006D000B4002108F00025089031B920823171085A
:1006E0002000B9007008B8003808A800A901AA01C4
:1006F000AB012808AE072908AF3D2A08B03D2B08FA
:10070000B13D3908A800A901AA01AB012808B40726
:100710002908B53D2A08B63D2B08B73D2208F00050
:1007200024089031B920823171082000B900700886
:10073000B8003808A800A901AA01AB012808AE0733
:100740002908AF3D2A08B03D2B08B13D3908A80063
:10075000A901AA01AB012808B4072908B53D2A0858
:10076000B63D2B08B73D0830AE35AF0DB00DB10D1D
:10077000890BB42B2108F00024089031B920823174
:1007800071082000B9007008B8003808AE073908B1
:10079000AF3D0030B03DB13D2008F000250890315C
:1007A000B920823171082000B9007008B8003808FB
:1007B000AE073908AF3D0030B03DB13D0830AE3531
:1007C000AF0DB00DB10D890BDF2B2008F000240810
:1007D0009031B920823171082000B9007008B8004A
:1007E0003808AE073908AF3D0030B03DB13D2108B3
:1007F000F00026089031B920823171082000B9003C
:100800007008B8003808B4073908B53D0030B63D67
:10081000B73D2208F00025089031B92082317108D7
:100820002000B9007008B8003808B4073908B53D91
:100830000030B63DB73D2208F00026089031B920BF
:10084000823171082000B9007008B8003808A8008B
:100850003908A900AA01AB010830A835A90DAA0DD5
:10086000AB0D890B2D2C2808B4072908B53D2A08A3
:10087000B63D2B08B73D2E08A8002F08A900300868
:10088000AA003108AB001830AB36AA0CA90CA80C92
:10089000890B442C2808B4072908B53D2A08B63D21
:1008A0002B08B73D0830AE35AF0DB00DB10D890B3B
:1008B000532C33083207A800A901A90D2808823E4D
:1008C000B800FF30293DB9007C2C0130B435B50D9E
:1008D000B60DB70D890B662CB11F6F2C702C712CC7
:1008E00034140130AE35AF0DB00DB10D890B722C43
:1008F000FF30B807FF30B93DB61F7F2C802C652C28
:10090000B201B11F842C852CA12CFF302E05A8002C
:10091000FF302F05A900FF303005AA007F303105D8
:10092000AB002B082A04290428040319982C992CBD
:100930009C2C0130B200A12C341C9F2CA02CA12C8B
:10094000992C32080319A52CA62CCC2C0130B40705
:100950000030B53DB63DB73D371CAF2CB02CCC2C8C
:100960003408A8003508A9003608AA003708AB00EB
:100970000130AC00AB37AA0CA90CA80CAC0BBA2CFC
:100980002B08B7002A08B6002908B5002808B400CB
:100990000130B8070030B93D3908803AA8008030EE
:1009A0002802031DD52CFF303802031CD82CD92C6B
:1009B000E32C7F302000B7008030B6000030B50057
:1009C0000030B400142D20003908803AA80080308F
:1009D0002802031DED2C013038020318F02CF12CF5
:1009E000FC2C00302000B7000030B6000030B5000D
:1009F0000030B400AD01142D20003808B300FF30E2
:100A0000B405FF30B5057F30B6050030B705331C9F
:100A10000A2D0B2D0C2DB6173308A8000130A8366F
:100A2000890B0F2D2808B7002D08B7043708A3003D
:100A30003608A2003508A1003408A00008002100F3
:100A400031088039BE003135C000B01F282D292D56
:100A50002A2D4014400803192E2D2F2D3F2D400A1A
:100A6000031D332D342D3C2D0030B1000030B0007B
:100A70000030AF000030AE00B017B101472D00309C
:100A8000B1000030B0000030AF000030AE003508DB
:100A90008039BF003F083E0603194F2D502D512DC0
:100AA0003E173535BF00B41F562D572D582D3F1416
:100AB0003F0803195C2D5D2D6D2D3F0A031D612D2F
:100AC000622D6A2D0030B5000030B4000030B30054
:100AD0000030B200B417B501752D0030B5000030FC
:100AE000B4000030B3000030B20040083F020318E9
:100AF0007A2D7B2D9F2D3E1F7E2D7F2D812D8030C9
:100B0000BE064008C1003F08C0004108BF002E08D3
:100B1000C1003208AE004108B2002F08C1003308FE
:100B2000AF004108B3003008C1003408B0004108EC
:100B3000B4003108C1003508B1004108B500C10159
:100B40003F08B600B7013708B90040083602B800C0
:100B5000031CB9033908803ABA0080303A02031DF9
:100B6000B32D1A303802031CB62DB72DED2D210000
:100B7000310830042F042E04031DBF2DC12D013078
:100B8000C22D0030C1000030B1000030B000003094
:100B9000AF000030AE003F08C000F42D411CD12D45
:100BA000D22DDC2D4108B6000130B636890BD52D8B
:100BB00036080138C100DE2D0310C10C2E1CE12DBA
:100BC000E22DE32DC1170130B600B137B00CAF0CE8
:100BD000AE0CB60BE52D0130C00721003F084002E6
:100BE000031CF32DF42DCE2D3E1BF72DF82D322EA8
:100BF0004008031DFC2DFD2D062E0030B1000030F5
:100C0000B0000030AF000030AE002A2F3208AE072F
:100C10003308AF3D3408B03D3508B13D311C112ECD
:100C2000122EBC2E411C152E162E202E4108B60069
:100C30000130B636890B192E36080138C100222E34
:100C40000310C10C2E1C252E262E272EC117013075
:100C5000B600B137B00CAF0CAE0CB60B292E01307C
:100C6000C007BC2E3108803AB6003508803A3602FB
:100C7000031D442E34083002031D442E33082F0276
:100C8000031D442E32082E020318472E482E7D2EB7
:100C9000FF30B600FF30B700FF30B800FF30B900BA
:100CA0002E083202BA002F08333BBB003008343B19
:100CB000BC003108353BBD003A08B6073B08B73DDC
:100CC0003C08B83D3D08B93D3908B1003808B000CE
:100CD0003708AF003608AE008030BE064103FF3A49
:100CE000C1004108031D752E762E852E0130AE07FA
:100CF0000030AF3DB03DB13D852E3208AE02330825
:100D0000AF3B3408B03B3508B13B310830042F0409
:100D10002E04031D8C2E8D2EB82E4108031D912EFE
:100D2000922EB82E0030B1000030B0000030AF007D
:100D30000030AE002A2F0130AE35AF0DB00DB10D31
:100D4000890B9C2EC11FA52EA62EA72E2E14411C4A
:100D5000AA2EAB2EAF2E0314410DC100B12E0310ED
:100D6000C10D40080319B52EB62EB82E0130C002B1
:100D7000B01FBB2EBC2E9B2EBF01C11FC02EC12E8B
:100D8000CF2E41087F390319C62EC72ECA2E013037
:100D9000BF00CF2E2E1CCD2ECE2ECF2EC72E3F081D
:100DA0000319D32ED42EFD2E0130AE070030AF3DF7
:100DB000B03DB13D311CDD2EDE2EFD2E2E08B600DD
:100DC0002F08B7003008B8003108B9000130BA0068
:100DD000B937B80CB70CB60CBA0BE82E3908B1000D
:100DE0003808B0003708AF003608AE00400A0319D3
:100DF000FA2EFB2EFD2E0130C007400A0319012FE9
:100E0000022F072F4008031D062F072F152F003034
:100E1000B1000030B0000030AF000030AE0040083C
:100E2000031D132F142F152FBE01401C182F192F2F
:100E30001B2FB0171D2F7F30B0054008B6000130C2
:100E4000B636890B202F3608B100BE1F282F292F58
:100E50002A2FB117080001302100C300BF1B312F1A
:100E6000332F0130342F0030C6006F08C5006E08E4
:100E7000C400460803193D2F3E2F522FFF30C407F0
:100E8000FF30C53D4608031D462F472F4C2F2B3002
:100E9000C1000030C200502F2D30C1000030C20010
:100EA0004108C6001F30C7000030C8002300BF0142
:100EB0008F2FFF302100C707FF30C83D4708A03EF5
:100EC0008600013087000A30A0000030A1003F08F2
:100ED000A3003E08A200933174238731210021082A
:100EE000A7002008A60090310020873121002608A5
:100EF000303E8100C301FF30C407FF30C53D0A30DA
:100F0000A0000030A1003F08A3003E08A2009431D9
:100F1000C824873121002108BF002008BE0021001D
:100F20004808803AC00080304002031D992F0130EC
:100F30004702031C9C2F9D2FBB2F21003E083F041E
:100F4000031DA32FA42F592F4308031DA82FA92F3A
:100F5000592F4508803AC00080304002031DB22F4F
:100F600001304402031CB52FB62FBB2F2000E5181B
:100F7000BA2FBB2F592F210046080319C02FC12FAC
:100F8000CC2FFF30C707FF30C83D4708A03E860082
:100F900001308700460881003D08B5003C08B400D8
:100FA0004708A03EB6004508B8004408B700943191
:100FB0001A24873121003508BD003408BC00080020
:100FC00020006908303E86000130870001082100BA
:100FD000A10020006908013E07392100A000200877
:100FE0002000E90021009112200068080319F92F60
:100FF000FA2FFC2F0130E802210091162108080089
:101000000E3028009D009C0100302200DC000030E2
:10101000DD00200092131D3028009E0008002100F2
:10102000AB01AC01AA0116280130A60726088600EC
:10103000013087002030010603191F2820281428BA
:101040002608860001308700F7300107A800053028
:101050002802031C2C282D2814282608860001307D
:1010600087002D300106031D362837283C28013023
:10107000AA000130A60765282608860001308700EF
:101080002B300106031D45284628652839282608E7
:101090008600013087002C08A1002B08A0000A3030
:1010A000A2000030A3009031772088312100210870
:1010B000A90001082002A800031CA9032808303E4B
:1010C000AB000030293DAC003928260886000130ED
:1010D0008700D0300107A8000A302802031C7128BD
:1010E000722847282A08031D7628772883282B0989
:1010F000A8002C09A900A80A0319A90A2808A60013
:101100002908A70087282C08A7002B08A60008009C
:101110002100A800280803198E288F28A328A31FC0
:1011200092289328A3282009AA002109AB002209AC
:10113000AC002309AD00AA0A0319AB0A0319AC0AD3
:101140000319AD0AAB282308AD002208AC00210822
:10115000AB002008AA002308220421042004031D58
:10116000B228B328BC280030A3000030A200003011
:10117000A1000030A0002C299630A900C828013019
:10118000A9070130AD36AC0CAB0CAA0C890BC228F8
:10119000FE302D05031DCD28CE28BF28DE280130C6
:1011A000A9070130AA070030AB3DAC3DAD3D013091
:1011B000AD36AC0CAB0CAA0C890BD828FF302D0532
:1011C000031DE328E428CF28EE280130A9020130CE
:1011D000AA35AB0DAC0DAD0D890BE828AC1BF12881
:1011E000F228F828023029020318F728F828E52801
:1011F0002918FB28FC280429FF30AA05FF30AB057D
:101200007F30AC05FF30AD050310A90C2908A40000
:10121000A501A601A7011830A435A50DA60DA70D9F
:10122000890B0C292408AA042508AB042608AC0461
:101230002708AD04280803191E291F292429A31FE4
:10124000222923292429AD172D08A3002C08A20048
:101250002B08A1002A08A000080000302100CD00C2
:101260000030CC000030CB000030CA00C70143087A
:101270008600013087000108CE000130C3073030FE
:101280004E02031C4429452994293A304E02031882
:101290004A294B2994294130AC002030AB00003062
:1012A000AA000030A9004D08B0004C08AF004B0860
:1012B000AE004A08AD008031A920893121002C08F8
:1012C000CD002B08CC002A08CB002908CA004E0804
:1012D000D03EA000FF3003180030A100A201A301FE
:1012E000003088318820893121002308B10022088C
:1012F000B0002108AF002008AE004D08B5004C0832
:10130000B4004B08B3004A08B20085311F2589316B
:1013100021003108CD003008CC002F08CB002E086A
:10132000CA000130C80737292C304E060319992905
:101330009A29A0292E304E06031D9F29A029A429F1
:101340000130C700C8013729C901C4294130A300B1
:101350002030A2000030A1000030A0004D08A700FE
:101360004C08A6004B08A5004A08A4008C31502464
:10137000893121002308CD002208CC002108CB00B0
:101380002008CA000130C90747080319C829C9291C
:10139000CF2948084902031CCE29CF29A6294D0888
:1013A000C6004C08C5004B08C4004A08C30008002A
:1013B0009E314726893171082200CB007008CA008F
:1013C0004A086E022000D30022004B086F3B200029
:1013D000D4005308F0005408F100890D893B8909B5
:1013E000F200F300013097315C2789317308200047
:1013F000A7007208A6007108A5007008A4003A3082
:10140000A3000330A2001230A1006F30A00082318F
:10141000E422893120002308BD002208BC002108F5
:10142000BB002008BA00220043082000C1002200AF
:1014300042082000C000220041082000BF00220016
:1014400040082000BE008D31F425893120003D0880
:101450002200C30020003C082200C20020003B08FC
:101460002200C10020003A082200C00020005308DA
:10147000F0005408F100890D893B8909F200F3005E
:10148000013097315C27893173082000A70072086A
:10149000A6007108A5007008A40022006D082000B5
:1014A000A30022006C082000A20022006B0820008C
:1014B000A10022006A082000A0008231E4228931C4
:1014C00020002308BD002208BC002108BB00200822
:1014D000BA009531DE25893120003B08D0003A085A
:1014E000CF00220069082000A70022006808200021
:1014F000A600220067082000A50022006608200040
:10150000A400220043082000A3002200420820007B
:10151000A200220041082000A10022004008200073
:10152000A0008231E422893120002308BD00220876
:10153000BC002108BB002008BA009531DE258931A6
:1015400020003B08D2003A08D10051084F07E300C1
:101550005208503DE4000430640200300319630275
:10156000031CB32AB42AC72A5408803ACE0080301C
:101570004E02031DBD2A01305302031CC02AC12A9A
:10158000C72AFF302000E3000330E400D82A0430EB
:1015900020006402003003196302031CD02AD12A00
:1015A000D82AD41FD42AD52AD82AE301E401D82A7C
:1015B0006408F1006308F0009F31EB2789310800CF
:1015C00021004B0886008701403FCE00413FCF00FD
:1015D0004E0884004F0885001200253A031DF12AA9
:1015E000F22A2C2C4B0886008701013081074131FB
:1015F0000318810AEE01EF0100302000E500FF3002
:101600002200C600FF30C7002100D201262B200097
:10161000E51421004B088600870101308107413124
:101620000318810A262B0130D200262B4B08860096
:101630008701403FCE00413FCF004E0884004F0855
:1016400085000008303A0319072B132B52080319A1
:101650002A2B2B2B162B4B08A6004C08A7009531E4
:1016600024258A3121002708EF002608EE00EF1F0D
:101670003A2B3B2B432B200065142100EE09EF0988
:10168000EE0A0319EF0A4B0886008701403FD70096
:10169000413FD80057088400580885001200643A7A
:1016A0000319532B542B5E2B5708840058088500D0
:1016B0001200693A031D5D2B5E2B892B4C088600B6
:1016C0004D08870001088400850102308107003F32
:1016D000D300013FD4005708013ECE000030583DF2
:1016E000CF004B08860087014E08C03F4F08C13F1E
:1016F0004A08BD004908BC005408BF005308BE009A
:1017000087312B278A3121003D08CA003C08C900D7
:101710004F2C57088400580885001200753A031DA5
:10172000922B932BC82B4C0886004D08870001088C
:101730008400850102308107003FD300013FD400BF
:101740005708013ECE000030583DCF004B088600C0
:1017500087014E08C03F4F08C13FBF2B4A08BD005C
:101760004908BC005408BF005308BE0096314D26FE
:101770008A3121003D08CA003C08C9004F2C570897
:101780008400580885000008753A0319AE2BC82B51
:10179000570884005808850012006E3A031DD12BAB
:1017A000D22BF92B4C0886004D08870001088400D5
:1017B000850102308107003FCE00013FCF004E0877
:1017C00086004F08870022004408C03F4508C13FFB
:1017D00021005708013ECE000030583DCF004B0895
:1017E000860087014E08C03F4F08C13FC901CA01AA
:1017F0004F2C4B0886008701403FCE00413FCF0071
:101800004E0884004F0885001200253A031D092C5C
:101810000A2C232C4B0886008701013081074131B7
:101820000318810A2530A3000030A4004A08A6004E
:101830004908A500953180258A3101302100C90071
:101840000030CA004F2C4B08860087010130810709
:1018500041310318810AF62B4B0886008701403F6F
:10186000CE00413FCF004E0884004F08850000089D
:10187000D000D1015008A3005108A4004A08A600D6
:101880004908A500953180258A3121004B08860042
:1018900087010130810741310318810A1D2C08009E
:1018A000210027088039B1002735B800A61F592C20
:1018B0005A2C5B2C3814380803195F2C602C702CC0
:1018C000380A031D642C652C6D2C0030A7000030F5
:1018D000A6000030A5000030A400A617A701782CB0
:1018E0000030A7000030A6000030A5000030A400A2
:1018F00023088039B1062335B900A21F802C812C22
:10190000822C391439080319862C872C972C390A14
:10191000031D8B2C8C2C942C0030A3000030A200D3
:101920000030A1000030A000A217A3019F2C0030BE
:10193000A3000030A2000030A1000030A000230866
:10194000220421042004031DA62CA72CBE2C003049
:10195000A7000030A6000030A5000030A4008030B1
:10196000A6047F30A7043108A7042708A30026088F
:10197000A2002508A1002408A000F32D3808031DAB
:10198000C22CC32CCC2C0030A3000030A2000030AD
:10199000A1000030A000F32D3808A800A9012908F3
:1019A000AB0039082802AA00031CAB032A087F3EBB
:1019B000B20000302B3DB3002708B0002608AF006E
:1019C0002508AE002408AD000030A7000030A600B6
:1019D0000030A5000030A4000030B7000030B60091
:1019E0000030B5000030B400B901322D39080319B8
:1019F000FA2CFB2C152D0130AD35AE0DAF0DB00D11
:101A0000890BFC2C0130A435A50DA60DA70D890B63
:101A1000032DB71F0C2D0D2D0E2D24140130B435C0
:101A2000B50DB60DB70D890B0F2D23083002031D20
:101A3000232D22082F02031D232D21082E02031D12
:101A4000232D20082D02031C262D272D302D37177E
:101A50002008AD022108AE3B2208AF3B2308B03B73
:101A60000130B9071A303902031C372D382DF62CF6
:101A700030082F042E042D0403193F2D402D592D1D
:101A80003414592D0130A435A50DA60DA70D890BD1
:101A9000432DB71F4C2D4D2D4E2D24140130B43540
:101AA000B50DB60DB70D890B4F2DFF30B207FF30C6
:101AB000B33DA61F5C2D5D2D422DB901B71F612DD1
:101AC000622D7E2DFF303405A800FF303505A900BA
:101AD000FF303605AA007F303705AB002B082A04FB
:101AE000290428040319752D762D792D0130B900AC
:101AF0007E2D241C7C2D7D2D7E2D762D39080319FD
:101B0000822D832DA92D0130A4070030A53DA63DCF
:101B1000A73D271C8C2D8D2DA92D2408A800250854
:101B2000A9002608AA002708AB000130AC00AB379B
:101B3000AA0CA90CA80CAC0B972D2B08A7002A08FF
:101B4000A6002908A5002808A4000130B20700302B
:101B5000B33D3308803AA80080302802031DB22D1F
:101B6000FF303202031CB52DB62DC32DFF302100EE
:101B7000B2000030B3000030A7000030A6000030F3
:101B8000A5000030A40021003308803AA80080306E
:101B90002802031DCD2D013032020318D02DD12D86
:101BA000DD2D2100B201B3010030A7000030A600F6
:101BB0000030A5000030A400B10121003208B800B7
:101BC000381CE32DE42DE62DA617E82D7F30A60561
:101BD0003808A8000130A836890BEB2D2808A7008B
:101BE0003108A704B52C080020003D088039CA0040
:101BF0003D35CC00BC1FFD2DFE2DFF2D4C144C0897
:101C00000319032E042E142E4C0A031D082E092E30
:101C1000112E0030BD000030BC000030BB00003091
:101C2000BA00BC17BD011C2E0030BD000030BC0046
:101C30000030BB000030BA0041088039CB004B08AF
:101C40004A060319242E252E262E4A174135CB008D
:101C5000C01F2B2E2C2E2D2E4B144B080319312E6A
:101C6000322E422E4B0A031D362E372E3F2E0030C9
:101C7000C1000030C0000030BF000030BE00C017FF
:101C8000C1014A2E0030C1000030C0000030BF004A
:101C90000030BE004C084B0203184F2E502E742EFD
:101CA0004A1F532E542E562E8030CA064C08CD00A3
:101CB0004B08CC004D08CB003A08CD003E08BA00D6
:101CC0004D08BE003B08CD003F08BB004D08BF00DB
:101CD0003C08CD004008BC004D08C0003D08CD00C8
:101CE0004108BD004D08C100CD014B08C200C30131
:101CF0004308C5004C084202C400031CC503450844
:101D0000803AC60080304602031D882E1A304402F5
:101D1000031C8B2E8C2EC22E20003D083C043B045D
:101D20003A04031D942E962E0130972E0030CD00DC
:101D30000030BD000030BC000030BB000030BA00F5
:101D40004B08CC00C92E4D1CA62EA72EB12E4D0837
:101D5000C2000130C236890BAA2E42080138CD00DC
:101D6000B32E0310CD0C3A1CB62EB72EB82ECD17BD
:101D70000130C200BD37BC0CBB0CBA0CC20BBA2E72
:101D80000130CC0720004B084C02031CC82EC92E82
:101D9000A32E4A1BCC2ECD2E072F4C08031DD12E6F
:101DA000D22EDB2E0030BD000030BC000030BB0066
:101DB0000030BA00FF2F3E08BA073F08BB3D40087D
:101DC000BC3D4108BD3D3D1CE62EE72E912F4D1C2C
:101DD000EA2EEB2EF52E4D08C2000130C236890BDB
:101DE000EE2E42080138CD00F72E0310CD0C3A1C20
:101DF000FA2EFB2EFC2ECD170130C200BD37BC0CD5
:101E0000BB0CBA0CC20BFE2E0130CC07912F3D0843
:101E1000803AC2004108803A4202031D192F40084F
:101E20003C02031D192F3F083B02031D192F3E08DA
:101E30003A0203181C2F1D2F522FFF30C200FF3013
:101E4000C300FF30C400FF30C5003A083E02C600A0
:101E50003B083F3BC7003C08403BC8003D08413BB6
:101E6000C9004608C2074708C33D4808C43D4908A1
:101E7000C53D4508BD004408BC004308BB004208FE
:101E8000BA008030CA064D03FF3ACD004D08031D4D
:101E90004A2F4B2F5A2F0130BA070030BB3DBC3DB3
:101EA000BD3D5A2F3E08BA023F08BB3B4008BC3B31
:101EB0004108BD3B3D083C043B043A04031D612F2F
:101EC000622F8D2F4D08031D662F672F8D2F003039
:101ED000BD000030BC000030BB000030BA00FF2F56
:101EE0000130BA35BB0DBC0DBD0D890B712FCD1F57
:101EF0007A2F7B2F7C2F3A144D1C7F2F802F842F1D
:101F000003144D0DCD00862F0310CD0D4C08031981
:101F10008A2F8B2F8D2F0130CC02BC1F902F912F39
:101F2000702FCB01CD1F952F962FA42F4D087F39F1
:101F300003199B2F9C2F9F2F0130CB00A42F3A1CFD
:101F4000A22FA32FA42F9C2F4B080319A82FA92F32
:101F5000D22F0130BA070030BB3DBC3DBD3D3D1C1A
:101F6000B22FB32FD22F3A08C2003B08C3003C085F
:101F7000C4003D08C5000130C600C537C40CC30C01
:101F8000C20CC60BBD2F4508BD004408BC00430869
:101F9000BB004208BA004C0A0319CF2FD02FD22F12
:101FA0000130CC074C0A0319D62FD72FDC2F4C0851
:101FB000031DDB2FDC2FEA2F0030BD000030BC00FA
:101FC0000030BB000030BA004C08031DE82FE92F99
:101FD000EA2FCA014C1CED2FEE2FF02FBC17F22F69
:101FE0007F30BC054C08C2000130C236890BF52F8A
:101FF0004208BD00CA1FFD2FFE2FFF2FBD1708008E
:102000002100A71B04280528062811282609A80056
:102010002709A900A80A0319A90A2808A60029085F
:10202000A7000800A03021009E009B019C01053004
:102030009F0001309D0020001113E0302100A0001E
:102040001D30A1009E317E2690312100111708001D
:1020500021002008A2002E280130A00720088600B9
:10206000013087000108031D362837282C28220854
:102070002002A000A101A01BA1030800083020003D
:102080006B0203184428452857286C08383E860000
:1020900001308700010823009A0020006C08013EEF
:1020A0000739F0007008EC000130EB0759282100D7
:1020B0001112080006302000E2000330E1009D31DB
:1020C000E425903120006208F200F301F235F30DAF
:1020D0009130720784001830733D80388500013FCD
:1020E0008A00003F0A0090312000E2000800210031
:1020F000A401A501201C7D287E2882282208A4078F
:102100002308A53D0130A235A30D890B832801309A
:10211000A136A00C890B882820082104031D9128D2
:1021200092287A282508A1002408A00008009E31E2
:10213000872690319231DE2290319F318127903174
:102140009F319227903188310020903190311220B8
:1021500090319231322290319F31442790319E311B
:10216000F22690319E31C62690319E31E62690317E
:102170000800F800F401F5017008F200F30172089C
:10218000F6007308F700781CC628C728CB28760805
:10219000F4077708F53D0130F635F70D890BCC28AB
:1021A0000310F80C7808031DD628D728C328750813
:1021B000F1007408F00008002100B201B301F32817
:1021C0003108AF00B0012F08A3003008A4002E088A
:1021D000A6002D08A5009531802590310130210001
:1021E000B2070030B33D2C0832078600013087006B
:1021F0000108B1003108031DFE28FF28E02808006F
:102200002100A800A401A5012008A200A301220822
:10221000A6002308A700281C0E290F291329260829
:10222000A4072708A53D0130A635A70D890B142961
:102230000310A80C2808031D1E291F290B29250897
:10224000A1002408A00008002100111A282929292A
:102250002D29200823009A00492920006B08031922
:102260003229332949296D08383E8600013087001C
:1022700021002008810020006D08013E073921005F
:10228000A10021082000ED002100111201302000E2
:10229000EB0221001116080021005C08E0005B0839
:1022A000DF002200C401C50169295A08CA00590883
:1022B000C900DF30CB005D08CC00CD018A31E022BF
:1022C0009131210049082200C40721004A08220058
:1022D000C53D21005F088400600885001200031DD1
:1022E000722973295529D901DA01080020005A08FA
:1022F0005B0403197C297D2991290130DA02003021
:10230000DB3B580886005908870001089E312526C6
:10231000913101302000D8070030D93D0330F10061
:10232000A12960080319952996299D29E0019D316D
:10233000F62591310130F100A1299E3176269131A7
:10234000F100710808009031972091318B170B171D
:102350009F310A279131D8302100A0000930A10017
:102360009E31992691319E31212691319631C22696
:10237000913105302100ED000F30EC00F130890B78
:10238000BF29EC0BBF29ED0BBF2928302100E80045
:102390009930E9009E31AB269131B62980317428FD
:1023A000E9299E312F26913171082200CF00700853
:1023B000CE0012302000EF00FA299E312F269131F5
:1023C00071082200CD007008CC0010302000EF0012
:1023D000FA2920006F08F200F3017308003A03198C
:1023E000F229FA297208103A0319D129023A03197D
:1023F000DD29FA296F089E31DA2691310800210083
:10240000200821040319052A062A2D2A0130A400D8
:10241000102A0130A035A10D890B0A2A0130A4072A
:10242000A11F132A142A092A21082302031D1A2A8C
:1024300020082202031C1D2A1E2A222A2008A2028A
:102440002108A33B0130A136A00C890B232A0130BF
:10245000A402031D2C2A2D2A142A2308A1002208D5
:10246000A000080021009112C6302300D4001330D0
:10247000D500210011123E302200E2001030E300AE
:10248000483023009F0090309D0026309E00403051
:102490009B0003309C00E1302100A0001D30A10012
:1024A0009F3153279231F9302100A0001D30A10047
:1024B0009F31622792312200D801D9012000ED011D
:1024C000EC010830EB00EA01E901E8012100911676
:1024D00008000430F0009E3109269231003A0319B9
:1024E000722A732A9E2A20005E085F040319792A43
:1024F0007A2A8B2A5C0886005D0887009D31ED25CD
:102500009231810001302000DC070030DD3D0130D8
:10251000DE020030DF3B5E085F040319902A912A37
:10252000952A9E3105269231A12A9D31F3259231BB
:102530009E310D2692310730F000A12A9D31F02501
:102540009231700808002100A401A501200821048F
:102550000319AB2AAC2AD92A0130A600B62A0130C9
:10256000A035A10D890BB02A0130A607A11FB92AF9
:10257000BA2AAF2A0130A435A50D890BBB2A210840
:102580002302031DC52A20082202031CC82AC92AC7
:10259000CE2A2008A2022108A33B24140130A13630
:1025A000A00C890BCF2A0130A602031DD82AD92AF4
:1025B000BA2A2508A1002408A000080022008C01E6
:1025C00050308D008E01193021008C00D0308D00EC
:1025D000DF308E00103023008C0020308D00FF3063
:1025E0008E0024008C018D018E0125008C018D014F
:1025F0008E01373026008C00F0308D00FF308E00C9
:102600003F3027008C00F0308D00FF308E003C0002
:10261000A1010F30A40002303D00A50014309D0040
:102620000E303C009D001A303D009E000C303C00F6
:102630009E001B303D009C002700910192019301F8
:1026400094019501960197019801990108009D3127
:10265000E725933124001C1E2E2B2F2B332B9F316B
:10266000D62793315F2B9E3167269331003A0319A9
:102670003A2B3B2B492B9E3141269331003A0319CB
:10268000422B432B492B05302000E2000130E100B2
:102690005F2B9E312A269331003A0319502B512B80
:1026A0005F2B9E3141269331003A0319582B592B49
:1026B0005F2B05302000E2000230E1005F2B20009C
:1026C0006208F200F301F235F30D913072078400D5
:1026D0001830733D80388500013F8A00003F0A00B2
:1026E00093312000E20008002100A501A31F792BEF
:1026F0007A2B812BA209A309A20A0319A30A01308C
:10270000A500A11F842B852B8A2BA009A109A00A53
:102710000319A10A2008210403198F2B902BB72B32
:102720000130A4009A2B0130A035A10D890B942B08
:102730000130A407A11F9D2B9E2B932B2108230260
:10274000031DA42B20082202031CA72BA82BAC2BB3
:102750002008A2022108A33B0130A136A00C890B5E
:10276000AD2B0130A402031DB62BB72B9E2B2508E1
:102770000319BB2BBC2BC12BA209A309A20A031965
:10278000A30A2308A1002208A000080020006A353F
:10279000203E8600013087000030C03FC13F23004B
:1027A0009D1CD32BD42BE72B20006A35203E8600BE
:1027B0000130870001152200500851040319E12B54
:1027C000E22BE72B51088A0050080A0093312300BE
:1027D0001D1DEB2BEC2BFF2B20006A35203E8600C5
:1027E0000130870081142200520853040319F92B89
:1027F000FA2BFF2B53088A0052080A00933123005A
:102800001908F00020006A08013E0739F10071083C
:102810006906031D0C2C0D2C0E2C192C6A08303E59
:10282000860001308700700881007108EA000130DD
:10283000E80708002000651C1E2C1F2C292C2100F5
:102840003608AC003508AE003408AD009031DC200D
:1028500094312100B81F2D2C2E2C302CB701B8013B
:10286000BA01BB01442C20302100A3000030A40099
:102870003508A6003408A500953180259431013033
:102880002100BA070030BB3D3B08803AB900380848
:10289000803A3902031D4E2C37083A02031C512C92
:1028A000522C332C20006518562C572C612C2100FB
:1028B0003608AC003508AE003408AD009031DC209D
:1028C000943121003608A000903128209431210055
:1028D00037082007B4003808213DB50008009E31B4
:1028E000B4269431003A031D762C772C812C2000DD
:1028F0006708C03E86000130870081016708C03E3E
:10290000C72C133020006702031C872C882CA22CB4
:102910008C2C8731E02794319E31B4269431003AD3
:10292000031D932C942C892C65302100E1009830F4
:10293000E2009F31712794312000E7012300C0019C
:10294000C030C72C8731E02794312100EA002000F5
:102950006708C03E86000130870021006A088100B8
:1029600020006708C03E8600013087000A3001065B
:10297000031DBB2CBC2CC42C6708C13E8600013053
:1029800087008101E701A02C0130E7076F2C0800C8
:102990002100A501A11FCD2CCE2CD52CA009A10969
:1029A000A00A0319A10A0130A500A31FD82CD92C15
:1029B000E02CA209A309A20A0319A30A0130A50663
:1029C000A601A701200821040319E72CE82C152DE6
:1029D0000130A400F22C0130A035A10D890BEC2CA4
:1029E0000130A407A11FF52CF62CEB2C0130A635E5
:1029F000A70D890BF72C21082302031D012D2008A8
:102A00002202031C042D052D0A2D2008A2022108F4
:102A1000A33B26140130A136A00C890B0B2D0130ED
:102A2000A402031D142D152DF62C25080319192DAC
:102A30001A2D1F2DA609A709A60A0319A70A2708F8
:102A4000A1002608A00008002100AC01AD01260865
:102A500086008701403FA800413FA9002808840064
:102A60002908850012002A3A031D372D382D672DBD
:102A70002608860087010130810741310318810A49
:102A8000270886008701010884008501023081073C
:102A9000003FAC00013FAD007B2D2D08A1002C08AC
:102AA000A0000A30A2000030A300903177209531B9
:102AB00021002B082007AC000030213DAD00260886
:102AC000860087010130810741310318810A2608F9
:102AD00086008701403FA800413FA90028088400E4
:102AE000290885000008D03EAB000A302B02031CE9
:102AF0007A2D7B2D4D2D2D08A7002C08A60008004F
:102B00002100250826040319862D872D8D2D2508E3
:102B10002604031D8C2D8D2D922D23089F31A32774
:102B20009531DD2D250886002608870049311600DD
:102B3000010403199C2D9D2DBD2D25088600260816
:102B400087004931403FA700413FA8002508860083
:102B5000260887004231403FA900413FAA002A08C9
:102B6000803AAB002808803A2B02031DB92D2708B4
:102B700029020318BC2DBD2DDD2D2100250886005E
:102B80002608870042312508840026088500003F7A
:102B9000A700013FA800403F27078400413F283D90
:102BA000850023088000250886002608870042311A
:102BB0000130810741310318810A08000310200009
:102BC0003C0D3D0DC3004308031DE72DE82DF12DFD
:102BD0000030BD000030BC000030BB000030BA0047
:102BE0004C2E3A08BE003B08BF003C08C0003D0820
:102BF000C1001F30C136C00CBF0CBE0C890BFA2DB2
:102C00003E08C200BC17FF30BA05FF30BB05FF30DD
:102C1000BC050030BD059630C302C31F102E112E17
:102C2000272E4308803A973E0318172E182E192E88
:102C3000E82D0130BD36BC0CBB0CBA0C890B1A2E2A
:102C40000130C307031D252E262E192E3C2E2030C1
:102C50004302031C2C2E2D2E372EE82D0130BA35C1
:102C6000BB0DBC0DBD0D890B2F2E0130C3024308D7
:102C7000031D3B2E3C2E2E2E42080319402E412EC2
:102C80004C2EBA09BB09BC09BD09BA0A0319BB0A13
:102C90000319BC0A0319BD0A080001302100C10054
:102CA0006F08C3006E08C2001F30C4000030C500AA
:102CB0002300BF01892EFF302100C407FF30C53D2E
:102CC0004408A03E8600013087000A30A000003092
:102CD000A1003F08A3003E08A2009131FF219631D8
:102CE00021002008303E8100C101FF30C207FF30C3
:102CF000C33D0A30A0000030A1003F08A3003E08F9
:102D0000A2009231A322963121002108BF002008A1
:102D1000BE0021004408450403198F2E902EAD2ECD
:102D20003E083F04031D952E962E5B2E4108031D81
:102D30009A2E9B2E5B2E4308803AC00080304002C2
:102D4000031DA42E01304202031CA72EA82EAD2E77
:102D50002000E518AC2EAD2E5B2E21003D08B500FD
:102D60003C08B4004408A03EB6004308B80042083E
:102D7000B70094311A24963121003508BD0034087B
:102D8000BC00080094316F2496312100EB003A2FEB
:102D90006B08013EA60088310F20963121002708DC
:102DA000AE002608AD009E31BD2696314C30210084
:102DB000E1009830E2006B08013EA60088310F2048
:102DC000963121002708E4002608E3009F3171278F
:102DD00096315B2F6B08013EC30089312D2196315E
:102DE00021004608D2004508D1004408D00043081D
:102DF000CF009F31C5279631F0302100E100983097
:102E0000E2009F31712796315B2F6B08013EC300B2
:102E100089312D21963121004608D2004508D10084
:102E20004408D0004308CF009F31B4279631E330E7
:102E30002100E1009830E2009F31712796315B2F2D
:102E400020006E080319252F272F0130282F00306E
:102E5000EE00C5302100E1009830E2009F3171277B
:102E600096315B2FA330E1009830E2009F3171274B
:102E700096315B2F6B088600013087000108003A0D
:102E800003195B2F493A0319052F053A0319202F1F
:102E90001C3A0319EA2E033A0319C82E3A3A0319C9
:102EA000052F053A0319202F1C3A0319EA2E033A7D
:102EB0000319C82E322F0800F80078080319612F73
:102EC000622F762FF31F652F662F762F7009FA0079
:102ED0007109FB007209FC007309FD00FA0A03196D
:102EE000FB0A0319FC0A0319FD0A7E2F7308FD0073
:102EF0007208FC007108FB007008FA007308720485
:102F000071047004031D852F862F8F2F0030F3006E
:102F10000030F2000030F1000030F000FF2F96305A
:102F2000F9009B2F0130F9070130FD36FC0CFB0C3A
:102F3000FA0C890B952FFE307D05031DA02FA12FC4
:102F4000922FB12F0130F9070130FA070030FB3D15
:102F5000FC3DFD3D0130FD36FC0CFB0CFA0C890BF1
:102F6000AB2FFF307D05031DB62FB72FA22FC12F2A
:102F70000130F9020130FA35FB0DFC0DFD0D890B16
:102F8000BB2FFC1BC42FC52FCB2F02307902031897
:102F9000CA2FCB2FB82F7918CE2FCF2FD72FFF3096
:102FA000FA05FF30FB057F30FC05FF30FD050310FF
:102FB000F90C7908F400F501F601F7011830F43541
:102FC000F50DF60DF70D890BDF2F7408FA0475085F
:102FD000FB047608FC047708FD0478080319F12F38
:102FE000F22FF72FF31FF52FF62FF72FFD177D0880
:102FF000F3007C08F2007B08F1007A08F00008007A
:103000003234123400340034E034073424341134C0
:10301000B4341E34A2341E3400340034003400347E
:103020000034003400340034003400340034003400
:1030300000340034003400340034003400340034F0
:1030400000340034003400340034003400340034E0
:1030500053341F3462341F340034003400340034DD
:10306000C6341E34003400340034003400340034DC
:1030700000340034003400340034003400340034B0
:1030800000340034003400340034003400340034A0
:1030900000340034003400346334683461346E34F6
:1030A0006734653464342034733465347434703474
:1030B0006F3469346E347434203474346F34203493
:1030C000253475340D340A34003469346E34703468
:1030D000753474342034623475346634663465343F
:1030E000723420346F3476346534723466346C3420
:1030F0006F3477340D340A34003444341F340034D0
:10310000003400340034003400340034003400341F
:10311000003400340034003400340034003400340F
:10312000003411341E346E341E3459341E34763457
:1031300011346934123435341E343B341E34763441
:103140001E3460341E3455346E346B346F3477342F
:103150006E34203463346F346D346D3461346E34C6
:1031600064340D340A3400342C342034643475341F
:103170007434793420346334793463346C34653492
:103180003A3420342534753400346C346F34673469
:103190007334203474346F34673467346C3465347A
:1031A00064340D340A3400342C34203473346534E0
:1031B000743470346F3469346E3474343A34203477
:1031C0002534753400346334683461346E346734C4
:1031D0006534643420346B3469340D340A3400347B
:1031E0006334683461346E34673465346434203455
:1031F0006B3470340D340A34003468346F346F34F7
:103200006734743465343A342034253475340034EA
:1032100040340A3410340734003464340034103439
:1032200001340034253469342E34253430343334B9
:10323000753400342C3420346B3469343A342034FF
:1032400000342C3420346B3470343A34203400345D
:0C3250004834483448340D340A3400344B
:103BC000080008000800080020001211080020006A
:103BD0009211080024001E1508002400190808008E
:103BE00024009E15080024009E10080024009E1446
:103BF000080023001D121D16080024009D129D16AA
:103C0000080024009D131D13080024009E121E1698
:103C1000080024001C080139080024009E161E1606
:103C200008002000D5010830080090315A209E314C
:103C30000800933127239E310800210092151215A8
:103C400008009F3144279E310800F00070082400CE
:103C50009900080024001C0E890C0139080021007D
:103C60001C08F1001B08F00008009E3176269E31EA
:103C7000F000700808009E3160269E31F000700848
:103C8000080024001E0E890C890C0139080022004E
:103C90004D08F1004C08F00008006400800101317B
:103CA000890B4E2E0034FE0012001E00FE0B542E17
:103CB0000034200056359E3125269E310330080001
:103CC0009D31FD259E312000D501003008000310F4
:103CD00024009C1E03140030093D0800031420003A
:103CE000560D9E3125269E31043008009D31EA256F
:103CF0009E319F31D6279E310030080021002108D7
:103D00002200E500210020082200E4000800320023
:103D100099019B019D0106309F009E019C010800B6
:103D2000210021082200DB00210020082200DA0007
:103D30000800210021082200DF00210020082200C5
:103D4000DE00080020006B08031DA72EA92E0130FD
:103D5000AA2E0030080021006908E2006808E1008E
:103D60009F3171279E31080020006808031DB92E7D
:103D7000BB2E0130BC2E0030080021002E0822008E
:103D8000EF0021002D082200EE0008002100911113
:103D900020009111240094019501970192010800DF
:103DA00000340034A03440346634663466343F3422
:103DB000C2340134F1007108F000F00DF00D210063
:103DC0001D087006033970069D00080020001010C1
:103DD0000B1400302100A0000030A1009E3190267D
:103DE0009E31080080302C0099007F309800C03050
:103DF00097001F08FC3901389F0008002100A1002E
:103E00002108A000A00DA00D1D08200603392006E2
:103E10009D00080010309E31FE269F31D0302100D9
:103E2000A0001130A1009E317E269F3108002000A5
:103E3000111322006408650403191F2F202F252F5A
:103E400065088A0064080A009F31080022006008A3
:103E5000610403192C2F2D2F322F61088A0060086E
:103E60000A009F3120009110080022005E085F04C4
:103E700003193B2F3C2F412F5F088A005E080A0080
:103E80009F31200092100800803024009C000830F0
:103E90009D009E019F014F309A009E311D269F314B
:103EA00024009D1608002100200821040319592F21
:103EB0005A2F612F21082200D30021002008220060
:103EC000D20008002100200821040319682F692F5F
:103ED000702F21082200D100210020082200D000EC
:103EE0000800E3302100E7000030D900DA00620862
:103EF000DC006108DB00E730DD0091314C219F31AF
:103F00000800FF3020009E009D01E2302200E0000A
:103F10001D30E10020009110210091141D3020007F
:103F20009F000800FF30280096009501E330220032
:103F3000DE001D30DF002000921021009214763048
:103F40002800970008002100A2009E31A2269F3180
:103F5000003A0319AC2FAD2FA52F21002208A00095
:103F6000913124219F310800210052082200E900EC
:103F7000210051082200E800210050082200E7003B
:103F800021004F082200E60008002100520822000C
:103F9000ED00210051082200EC0021005008220011
:103FA000EB0021004F082200EA0008002000D501A4
:103FB0000030D700FF30D600D801D901DC01DD0187
:103FC000E2019D31E7259F319D31E4259F319E31EE
:103FD00001269F3108007108F3007008F200F336E3
:103FE000F20CF336F20C72082C00980070080339BA
:103FF000F2000630F235890BFA2F7208970008009C
:020000040001F9
:08000E008C3FF33FFF3FFF3F71
:00000001FF
