:1000000080315828080008007E1480310B1F092811
:100010000A2856282100111E0E280F281B28200010
:10002000111E132814281B28220065088A00640862
:100030000A00803156282100911E1F2820282C28D4
:100040002000911E242825282C28230055088A00EA
:1000500054080A00803156282100921C302831288B
:100060003A282000921C352836283A289C315D24F5
:10007000803156282100911C3E283F284828200026
:10008000911C4328442848289C314E24803156280E
:100090002100111F4C284D2856282000111F5128DF
:1000A000522856289C313F24803156287E10090062
:1000B00080315A284A3084009B3085006C3086009D
:1000C0000030870004309B31602380310030840091
:1000D00090308500683086000130870008309B3101
:1000E00060238031553084000030850017309B310B
:1000F0005A238031203084000130850030309B311C
:100100005A238031A03084000130850034309B3187
:100110005A2380317E1020009E31F52E21004D089B
:100120008039D7004D35DD00CC1F972898289928B5
:100130005D145D0803199D289E28AD285D0A031DE6
:10014000A228A328AB280030CD000030CC0000301E
:10015000CB000030CA00CC17B5280030CD000030ED
:10016000CC000030CB000030CA0051088039D706DF
:100170005135DC00D01FBD28BE28BF285C145C08A8
:100180000319C328C428D3285C0A031DC828C9281A
:10019000D1280030D1000030D0000030CF00003036
:1001A000CE00D017DB280030D1000030D000003066
:1001B000CF000030CE005C080319DF28E028E528D6
:1001C0005D08031DE428E528EE280030CD0000304E
:1001D000CC000030CB000030CA00C82A4A08A0007A
:1001E00050089E315B26803121002108E300200861
:1001F000E2006208D200D301D401D5015508DB002A
:100200005408DA005308D9005208D8006308D20015
:10021000D301D401D5015508E1005408E00053088A
:10022000DF005208DE004B08A0004F089E315B261D
:10023000803121002108E3002008E2006208D2009A
:10024000D301D401D5015208D8075308D93D540829
:10025000DA3D5508DB3D6308D200D301D401D50156
:100260005208DE075308DF3D5408E03D5508E13DE4
:100270004C08A0004E089E315B26803121002108E9
:10028000E3002008E2006208D200D301D401D501C6
:100290005208D8075308D93D5408DA3D5508DB3DCC
:1002A0006308D200D301D401D5015208DE075308F8
:1002B000DF3D5408E03D5508E13D0830D835D90D03
:1002C000DA0DDB0D890B5E294B08A0004E089E312C
:1002D0005B26803121002108E3002008E20062084B
:1002E000D8076308D93D0030DA3DDB3D4A08A0005D
:1002F0004F089E315B26803121002108E300200851
:10030000E2006208D8076308D93D0030DA3DDB3DE2
:100310000830D835D90DDA0DDB0D890B89294A084B
:10032000A0004E089E315B26803121002108E300A9
:100330002008E2006208D8076308D93D0030DA3DA2
:10034000DB3D4B08A00050089E315B268031210028
:100350002108E3002008E2006208DE076308DF3DB1
:100360000030E03DE13D4C08A0004F089E315B2687
:10037000803121002108E3002008E2006208DE0746
:100380006308DF3D0030E03DE13D4C08A00050082F
:100390009E315B26803121002108E3002008E20025
:1003A0006208D2006308D300D401D5010830D235E9
:1003B000D30DD40DD50D890BD7295208DE0753086C
:1003C000DF3D5408E03D5508E13D5808D20059088A
:1003D000D3005A08D4005B08D5001830D536D40CA9
:1003E000D30CD20C890BEE295208DE075308DF3DEF
:1003F0005408E03D5508E13D0830D835D90DDA0DF7
:10040000DB0D890BFD295D085C07D200D301D30DFC
:100410005208823EE200FF30533DE300262A0130BD
:10042000DE35DF0DE00DE10D890B102ADB1F192AE7
:100430001A2A1B2A5E140130D835D90DDA0DDB0DCE
:10044000890B1C2AFF30E207FF30E33DE01F292A19
:100450002A2A0F2ADC01DB1F2E2A2F2A4B2AFF30E3
:100460005805D200FF305905D300FF305A05D4009B
:100470007F305B05D500550854045304520403191A
:10048000422A432A462A0130DC004B2A5E1C492AB4
:100490004A2A4B2A432A5C0803194F2A502A762AF3
:1004A0000130DE070030DF3DE03DE13D611C592AAF
:1004B0005A2A762A5E08D2005F08D3006008D4006A
:1004C0006108D5000130D600D537D40CD30CD20C3E
:1004D000D60B642A5508E1005408E0005308DF00F9
:1004E0005208DE000130E2070030E33D6308803A45
:1004F000D20080305202031D7F2AFF306202031CAB
:10050000822A832A8D2A7F302100E1008030E0009A
:100510000030DF000030DE00BE2A21006308803A90
:10052000D20080305202031D972A01306202031864
:100530009A2A9B2AA62A00302100E1000030E00020
:100540000030DF000030DE00D701BE2A2100620843
:10055000DD00FF30DE05FF30DF057F30E0050030D5
:10056000E1055D1CB42AB52AB62AE0175D08D20061
:100570000130D236890BB92A5208E1005708E1044C
:100580006108CD006008CC005F08CB005E08CA009F
:100590000800200023088039AD002335B300A21FD6
:1005A000D22AD32AD42A331433080319D82AD92AB1
:1005B000E82A330A031DDD2ADE2AE62A0030A300DA
:1005C0000030A2000030A1000030A000A217F02AE5
:1005D0000030A3000030A2000030A1000030A000D5
:1005E00027088039AD062735B200A61FF82AF92A58
:1005F000FA2A321432080319FE2AFF2A0E2B320A75
:10060000031D032B042B0C2B0030A7000030A60089
:100610000030A5000030A400A617162B0030A7005C
:100620000030A6000030A5000030A40032080319F5
:100630001A2B1B2B202B3308031D1F2B202B292BA0
:100640000030A3000030A2000030A1000030A00064
:10065000032D2008F00026089E31382682317108CB
:100660002000B9007008B8003808A800A901AA0144
:10067000AB012B08B1002A08B0002908AF002808F8
:10068000AE003908A800A901AA01AB012B08B700E8
:100690002A08B6002908B5002808B4002108F0008F
:1006A00025089E313826823171082000B900700873
:1006B000B8003808A800A901AA01AB012808AE07B4
:1006C0002908AF3D2A08B03D2B08B13D3908A800E4
:1006D000A901AA01AB012808B4072908B53D2A08D9
:1006E000B63D2B08B73D2208F00024089E3138267D
:1006F000823171082000B9007008B8003808A800DD
:10070000A901AA01AB012808AE072908AF3D2A08B4
:10071000B03D2B08B13D3908A800A901AA01AB01E1
:100720002808B4072908B53D2A08B63D2B08B73D6F
:100730000830AE35AF0DB00DB10D890B992B2108E6
:10074000F00024089E313826823171082000B9005B
:100750007008B8003808AE073908AF3D0030B03D2A
:10076000B13D2008F00025089E31382682317108FD
:100770002000B9007008B8003808AE073908AF3D4E
:100780000030B03DB13D0830AE35AF0DB00DB10D0C
:10079000890BC42B2008F00024089E3138268231B2
:1007A00071082000B9007008B8003808AE07390891
:1007B000AF3D0030B03DB13D2108F00026089E312C
:1007C0003826823171082000B9007008B800380856
:1007D000B4073908B53D0030B63DB73D2208F000FA
:1007E00025089E313826823171082000B900700832
:1007F000B8003808B4073908B53D0030B63DB73DFC
:100800002208F00026089E31382682317108200027
:10081000B9007008B8003808A8003908A900AA0172
:10082000AB010830A835A90DAA0DAB0D890B122C10
:100830002808B4072908B53D2A08B63D2B08B73D5E
:100840002E08A8002F08A9003008AA003108AB0024
:100850001830AB36AA0CA90CA80C890B292C280837
:10086000B4072908B53D2A08B63D2B08B73D083026
:10087000AE35AF0DB00DB10D890B382C33083207F2
:10088000A800A901A90D2808823EB800FF30293D23
:10089000B900612C0130B435B50DB60DB70D890B1B
:1008A0004B2CB11F542C552C562C34140130AE3522
:1008B000AF0DB00DB10D890B572CFF30B807FF30CD
:1008C000B93DB61F642C652C4A2CB201B11F692CAE
:1008D0006A2C862CFF302E05A800FF302F05A900BA
:1008E000FF303005AA007F303105AB002B082A0409
:1008F0002904280403197D2C7E2C812C0130B200A0
:10090000862C341C842C852C862C7E2C32080319D2
:100910008A2C8B2CB12C0130B4070030B53DB63D8C
:10092000B73D371C942C952CB12C3408A800350801
:10093000A9003608AA003708AB000130AC00AB377D
:10094000AA0CA90CA80CAC0B9F2C2B08B7002A08EA
:10095000B6002908B5002808B4000130B8070030F7
:10096000B93D3908803AA80080302802031DBA2C0E
:10097000FF303802031CBD2CBE2CC82C7F30200059
:10098000B7008030B6000030B5000030B400F92C5C
:1009900020003908803AA80080302802031DD22C9C
:1009A000013038020318D52CD62CE12C0030200061
:1009B000B7000030B6000030B5000030B400AD0123
:1009C000F92C20003808B300FF30B405FF30B5051E
:1009D0007F30B6050030B705331CEF2CF02CF12C1E
:1009E000B6173308A8000130A836890BF42C280864
:1009F000B7002D08B7043708A3003608A200350851
:100A0000A1003408A0000800210031088039BE0090
:100A10003135C000B01F0D2D0E2D0F2D4014400894
:100A20000319132D142D242D400A031D182D192DE3
:100A3000212D0030B1000030B0000030AF00003098
:100A4000AE00B017B1012C2D0030B1000030B00065
:100A50000030AF000030AE0035088039BF003F08DD
:100A60003E060319342D352D362D3E173535BF0082
:100A7000B41F3B2D3C2D3D2D3F143F080319412D44
:100A8000422D522D3F0A031D462D472D4F2D00307C
:100A9000B5000030B4000030B3000030B200B4172D
:100AA000B5015A2D0030B5000030B4000030B3005D
:100AB0000030B20040083F0203185F2D602D842DE6
:100AC0003E1F632D642D662D8030BE064008C10098
:100AD0003F08C0004108BF002E08C1003208AE0028
:100AE0004108B2002F08C1003308AF004108B3002D
:100AF0003008C1003408B0004108B4003108C1001A
:100B00003508B1004108B500C1013F08B600B70182
:100B10003708B90040083602B800031CB903390889
:100B2000803ABA0080303A02031D982D1A303802FC
:100B3000031C9B2D9C2DD22D2100310830042F0445
:100B40002E04031DA42DA62D0130A72D0030C100B9
:100B50000030B1000030B0000030AF000030AE0017
:100B60003F08C000D92D411CB62DB72DC12D41081D
:100B7000B6000130B636890BBA2D36080138C100EF
:100B8000C32D0310C10C2E1CC62DC72DC82DC11797
:100B90000130B600B137B00CAF0CAE0CB60BCA2D9D
:100BA0000130C00721003F084002031CD82DD92D79
:100BB000B32D3E1BDC2DDD2D172E4008031DE12D2E
:100BC000E22DEB2D0030B1000030B0000030AF005E
:100BD0000030AE000F2F3208AE073308AF3D3408A7
:100BE000B03D3508B13D311CF62DF72DA12E411C2D
:100BF000FA2DFB2D052E4108B6000130B636890BC3
:100C0000FE2D36080138C100072E0310C10C2E1C22
:100C10000A2E0B2E0C2EC1170130B600B137B00CC6
:100C2000AF0CAE0CB60B0E2E0130C007A12E310852
:100C3000803AB6003508803A3602031D292E340862
:100C40003002031D292E33082F02031D292E3208DE
:100C50002E0203182C2E2D2E622EFF30B600FF30F0
:100C6000B700FF30B800FF30B9002E083202BA00DA
:100C70002F08333BBB003008343BBC003108353B08
:100C8000BD003A08B6073B08B73D3C08B83D3D08F3
:100C9000B93D3908B1003808B0003708AF00360850
:100CA000AE008030BE064103FF3AC1004108031D7B
:100CB0005A2E5B2E6A2E0130AE070030AF3DB03D9C
:100CC000B13D6A2E3208AE023308AF3B3408B03B68
:100CD0003508B13B310830042F042E04031D712E5A
:100CE000722E9D2E4108031D762E772E9D2E0030EC
:100CF000B1000030B0000030AF000030AE000F2F68
:100D00000130AE35AF0DB00DB10D890B812EC11F75
:100D10008A2E8B2E8C2E2E14411C8F2E902E942ECC
:100D20000314410DC100962E0310C10D4008031994
:100D30009A2E9B2E9D2E0130C002B01FA02EA12EF8
:100D4000802EBF01C11FA52EA62EB42E41087F39CB
:100D50000319AB2EAC2EAF2E0130BF00B42E2E1CCB
:100D6000B22EB32EB42EAC2E3F080319B82EB92ED6
:100D7000E22E0130AE070030AF3DB03DB13D311C39
:100D8000C22EC32EE22E2E08B6002F08B700300860
:100D9000B8003108B9000130BA00B937B80CB70C47
:100DA000B60CBA0BCD2E3908B1003808B0003708A0
:100DB000AF003608AE00400A0319DF2EE02EE22E07
:100DC0000130C007400A0319E62EE72EEC2E40083A
:100DD000031DEB2EEC2EFA2E0030B1000030B000D7
:100DE0000030AF000030AE004008031DF82EF92E91
:100DF000FA2EBE01401CFD2EFE2E002FB017022F32
:100E00007F30B0054008B6000130B636890B052F9B
:100E10003608B100BE1F0D2F0E2F0F2FB11708007F
:100E200001302100C300BF1B162F182F0130192FCE
:100E30000030C600200056082100C50020005508DB
:100E40002100C40046080319262F272F3B2FFF300F
:100E5000C407FF30C53D4608031D2F2F302F352F07
:100E60002B30C1000030C200392F2D30C1000030BE
:100E7000C2004108C6001F30C7000030C800230070
:100E8000BF01782FFF302100C707FF30C83D47085A
:100E9000A03E8600013087000A30A0000030A1008B
:100EA0003F08A3003E08A20090315A20873121005C
:100EB0002108A7002008A6009C31ED2487312100DD
:100EC0002608303E8100C301FF30C407FF30C53D16
:100ED0000A30A0000030A1003F08A3003E08A20095
:100EE0009131B521873121002108BF002008BE00C3
:100EF00021004808803AC00080304002031D822F44
:100F000001304702031C852F862FA42F21003E08A5
:100F10003F04031D8C2F8D2F422F4308031D912F5B
:100F2000922F422F4508803AC00080304002031DB6
:100F30009B2F01304402031C9E2F9F2FA42F2000C3
:100F4000E318A32FA42F422F210046080319A92F2D
:100F5000AA2FB52FFF30C707FF30C83D4708A03E76
:100F6000860001308700460881003D08B5003C0836
:100F7000B4004708A03EB6004508B8004408B700D2
:100F80009031AC20873121003508BD003408BC0009
:100F900008002100911208302300D4001030D50041
:100FA000210011129D302200E4001D30E500483080
:100FB00023009F0090309D0026309E0040309B0013
:100FC00003309C0040302100A0001B30A1009C3168
:100FD0006C24873142302100A0001B30A1009C31DD
:100FE0007B2487312200CE01CF012000EB01EA01F2
:100FF0000830E900E801E701E60121009116080048
:101000002100A2009B31AE238831003A0319092840
:101010000A28022821002208A0009E31A326883138
:1010200008009131012188312200D4009D28540804
:10103000013E2100A6009431922488312100270826
:10104000AE002608AD009B31C02388314C30210012
:10105000E1009830E20022005408013E2100A60081
:1010600094319224883121002708E4002608E30007
:101070009C3199248831BE285408013E2100E400A7
:10108000973155278831210067082200D3002100BD
:1010900066082200D200210065082200D10021004C
:1010A00064082200D0009B31DD238831CA30210042
:1010B000E1009830E2009C3199248831BE28540820
:1010C000013E2100E400973155278831210067084F
:1010D0002200D300210066082200D200210065080A
:1010E0002200D100210064082200D0009B31D323CC
:1010F0008831BD302100E1009830E2009C31992414
:101100008831BE2820006E080319872889280130FD
:101110008A280030EE009F302100E1009830E20084
:101120009C3199248831BE287D302100E10098301F
:10113000E2009C3199248831BE2854088600013091
:1011400087000108003A0319BE28493A03195F28AD
:10115000053A031982281C3A03193C28033A03195B
:1011600017283A3A03195F28053A031982281C3ACE
:1011700003193C28033A03191728942808009B31C7
:101180005423883171082200C9007008C80048083B
:1011900020006C02D3002200490820006D3BD400DF
:1011A0005308F0005408F100890D893B8909F200C9
:1011B000F300013096310C26883173082000A70017
:1011C0007208A6007108A5007008A4003A30A300B8
:1011D0000330A2001230A1006F30A0008231C9227A
:1011E000883120002308BD002208BC002108BB0074
:1011F0002008BA00220043082000C1002200420853
:101200002000C000220041082000BF00220040084A
:101210002000BE008D31F425883120003D082200D9
:10122000C30020003C082200C20020003B0822002E
:10123000C10020003A082200C00020005308F0003E
:101240005408F100890D893B8909F200F30001304F
:1012500096310C26883173082000A7007208A6007A
:101260007108A5007008A40022006F082000A300E8
:1012700022006E082000A20022006D082000A100BC
:1012800022006C082000A0008231C9228831200091
:101290002308BD002208BC002108BB002008BA00BA
:1012A0009231CB22883120003B08D0003A08CF0091
:1012B00022006B082000A70022006A082000A60078
:1012C000220069082000A500220068082000A40070
:1012D000220043082000A300220042082000A200B0
:1012E000220041082000A100220040082000A000A8
:1012F0008231C922883120002308BD002208BC00A9
:101300002108BB002008BA009231CB22883120008E
:101310003B08D2003A08D10051084F07D7005208C5
:10132000503DD80004305802003003195702031C06
:101330009A299B29AE295408803ACE0080304E026B
:10134000031DA42901305302031CA729A829AE2993
:10135000FF302000D7000330D800BF290430200020
:101360005802003003195702031CB729B829BF29B6
:10137000D41FBB29BC29BF29D701D801BF295808D0
:10138000F1005708F0009D311325883108009B318A
:101390008A23893121002108EF002008EE009131D5
:1013A0005A21893121006F082200DB0021006E08DC
:1013B0002200DA00DB1FDD29DE29E129DA01DB0169
:1013C000F3295B08803AD40080305402031DEA29D7
:1013D0003C305A02031CED29EE29F3293B30220050
:1013E000DA000030DB009B31932389312100210892
:1013F000EF002008EE0091315A21893121006F0859
:101400002200D80021006E082200D700D81F092A28
:101410000A2A0C2AD701D8019D31282589312200BA
:10142000D90158085B06031D172A57085A06031DE1
:101430001A2A1B2A1E2A01302000E400200064081A
:101440000319232A242A962A22005708FF3ED40093
:10145000FF30583DD5005B08803AD6005508803AE9
:101460005602031D352A54085A02031C382A392A09
:10147000592A22005708013ED4000030583DD500BB
:101480005508803AD6005B08803A5602031D4A2A66
:101490005A085402031C4D2A4E2A592AFF302100B3
:1014A000A100A2010530A30000309D3182258931C1
:1014B000D12A22005908D400D5015B085506031D26
:1014C000632A5A085406031D662A672A732A443081
:1014D0002100A1004430A2000530A30044309D311A
:1014E00082258931932A5908D400D5015808550618
:1014F000031D7C2A57085406031D7F2A802A8A2A46
:101500002100A101A2010530A300FF309D318225F9
:101510008931932A2100A101A2010530A3000030E6
:101520009D31822589312000E401D12A2200590809
:10153000D400D5015B085506031DA02A5A0854069D
:10154000031DA32AA42AB02A44302100A10044305C
:10155000A2000530A30044309D3182258931932AB1
:101560005908D400D50158085506031DB92A570853
:101570005406031DBC2ABD2AC72A2100A101A201CD
:101580000530A300FF309D3182258931932A210047
:10159000A101A2010530A30000309D3182258931CF
:1015A000932A01302200D9073B305902031CD92A63
:1015B000DA2A112A9D3169258931080021004B085A
:1015C00086008701403FCE00413FCF004E08840097
:1015D0004F0885001200253A031DEF2AF02A2C2C13
:1015E0004B08860087010130810741310318810AC9
:1015F0002000D501D6010030E300FF302200C600F4
:10160000FF30C7002100D201242B2000E314210069
:101610004B08860087010130810741310318810A98
:10162000242B0130D200242B4B0886008701403F39
:10163000CE00413FCF004E0884004F0885000008CF
:10164000303A0319052B112B52080319282B292B8B
:10165000142B4B08A6004C08A700923111228A31A6
:10166000210027082000D600210026082000D500F0
:10167000D61F3B2B3C2B422B6314D509D609D50A28
:101680000319D60A21004B0886008701403FD70086
:10169000413FD80057088400580885001200643A7A
:1016A0000319532B542B5E2B5708840058088500D0
:1016B0001200693A031D5D2B5E2B892B4C088600B6
:1016C0004D08870001088400850102308107003F32
:1016D000D300013FD4005708013ECE000030583DF2
:1016E000CF004B08860087014E08C03F4F08C13F1E
:1016F0004A08BD004908BC005408BF005308BE009A
:10170000873110278A3121003D08CA003C08C900F2
:101710004F2C57088400580885001200753A031DA5
:10172000922B932BC82B4C0886004D08870001088C
:101730008400850102308107003FD300013FD400BF
:101740005708013ECE000030583DCF004B088600C0
:1017500087014E08C03F4F08C13FBF2B4A08BD005C
:101760004908BC005408BF005308BE009431192436
:101770008A3121003D08CA003C08C9004F2C570897
:101780008400580885000008753A0319AE2BC82B51
:10179000570884005808850012006E3A031DD12BAB
:1017A000D22BF92B4C0886004D08870001088400D5
:1017B000850102308107003FCE00013FCF004E0877
:1017C00086004F08870022004408C03F4508C13FFB
:1017D00021005708013ECE000030583DCF004B0895
:1017E000860087014E08C03F4F08C13FC901CA01AA
:1017F0004F2C4B0886008701403FCE00413FCF0071
:101800004E0884004F0885001200253A031D092C5C
:101810000A2C232C4B0886008701013081074131B7
:101820000318810A2530A3000030A4004A08A6004E
:101830004908A50092316D228A3101302100C9008A
:101840000030CA004F2C4B08860087010130810709
:1018500041310318810AF62B4B0886008701403F6F
:10186000CE00413FCF004E0884004F08850000089D
:10187000D000D1015008A3005108A4004A08A600D6
:101880004908A50092316D228A3121004B0886005B
:1018900087010130810741310318810A1D2C08009E
:1018A000210027088039B1002735B800A61F592C20
:1018B0005A2C5B2C3814380803195F2C602C702CC0
:1018C000380A031D642C652C6D2C0030A7000030F5
:1018D000A6000030A5000030A400A617A701782CB0
:1018E0000030A7000030A6000030A5000030A400A2
:1018F00023088039B1062335B900A21F802C812C22
:10190000822C391439080319862C872C972C390A14
:10191000031D8B2C8C2C942C0030A3000030A200D3
:101920000030A1000030A000A217A3019F2C0030BE
:10193000A3000030A2000030A1000030A000230866
:10194000220421042004031DA62CA72CBE2C003049
:10195000A7000030A6000030A5000030A4008030B1
:10196000A6047F30A7043108A7042708A30026088F
:10197000A2002508A1002408A000F32D3808031DAB
:10198000C22CC32CCC2C0030A3000030A2000030AD
:10199000A1000030A000F32D3808A800A9012908F3
:1019A000AB0039082802AA00031CAB032A087F3EBB
:1019B000B20000302B3DB3002708B0002608AF006E
:1019C0002508AE002408AD000030A7000030A600B6
:1019D0000030A5000030A4000030B7000030B60091
:1019E0000030B5000030B400B901322D39080319B8
:1019F000FA2CFB2C152D0130AD35AE0DAF0DB00D11
:101A0000890BFC2C0130A435A50DA60DA70D890B63
:101A1000032DB71F0C2D0D2D0E2D24140130B435C0
:101A2000B50DB60DB70D890B0F2D23083002031D20
:101A3000232D22082F02031D232D21082E02031D12
:101A4000232D20082D02031C262D272D302D37177E
:101A50002008AD022108AE3B2208AF3B2308B03B73
:101A60000130B9071A303902031C372D382DF62CF6
:101A700030082F042E042D0403193F2D402D592D1D
:101A80003414592D0130A435A50DA60DA70D890BD1
:101A9000432DB71F4C2D4D2D4E2D24140130B43540
:101AA000B50DB60DB70D890B4F2DFF30B207FF30C6
:101AB000B33DA61F5C2D5D2D422DB901B71F612DD1
:101AC000622D7E2DFF303405A800FF303505A900BA
:101AD000FF303605AA007F303705AB002B082A04FB
:101AE000290428040319752D762D792D0130B900AC
:101AF0007E2D241C7C2D7D2D7E2D762D39080319FD
:101B0000822D832DA92D0130A4070030A53DA63DCF
:101B1000A73D271C8C2D8D2DA92D2408A800250854
:101B2000A9002608AA002708AB000130AC00AB379B
:101B3000AA0CA90CA80CAC0B972D2B08A7002A08FF
:101B4000A6002908A5002808A4000130B20700302B
:101B5000B33D3308803AA80080302802031DB22D1F
:101B6000FF303202031CB52DB62DC32DFF302100EE
:101B7000B2000030B3000030A7000030A6000030F3
:101B8000A5000030A40021003308803AA80080306E
:101B90002802031DCD2D013032020318D02DD12D86
:101BA000DD2D2100B201B3010030A7000030A600F6
:101BB0000030A5000030A400B10121003208B800B7
:101BC000381CE32DE42DE62DA617E82D7F30A60561
:101BD0003808A8000130A836890BEB2D2808A7008B
:101BE0003108A704B52C080020003D088039CA0040
:101BF0003D35CC00BC1FFD2DFE2DFF2D4C144C0897
:101C00000319032E042E142E4C0A031D082E092E30
:101C1000112E0030BD000030BC000030BB00003091
:101C2000BA00BC17BD011C2E0030BD000030BC0046
:101C30000030BB000030BA0041088039CB004B08AF
:101C40004A060319242E252E262E4A174135CB008D
:101C5000C01F2B2E2C2E2D2E4B144B080319312E6A
:101C6000322E422E4B0A031D362E372E3F2E0030C9
:101C7000C1000030C0000030BF000030BE00C017FF
:101C8000C1014A2E0030C1000030C0000030BF004A
:101C90000030BE004C084B0203184F2E502E742EFD
:101CA0004A1F532E542E562E8030CA064C08CD00A3
:101CB0004B08CC004D08CB003A08CD003E08BA00D6
:101CC0004D08BE003B08CD003F08BB004D08BF00DB
:101CD0003C08CD004008BC004D08C0003D08CD00C8
:101CE0004108BD004D08C100CD014B08C200C30131
:101CF0004308C5004C084202C400031CC503450844
:101D0000803AC60080304602031D882E1A304402F5
:101D1000031C8B2E8C2EC22E20003D083C043B045D
:101D20003A04031D942E962E0130972E0030CD00DC
:101D30000030BD000030BC000030BB000030BA00F5
:101D40004B08CC00C92E4D1CA62EA72EB12E4D0837
:101D5000C2000130C236890BAA2E42080138CD00DC
:101D6000B32E0310CD0C3A1CB62EB72EB82ECD17BD
:101D70000130C200BD37BC0CBB0CBA0CC20BBA2E72
:101D80000130CC0720004B084C02031CC82EC92E82
:101D9000A32E4A1BCC2ECD2E072F4C08031DD12E6F
:101DA000D22EDB2E0030BD000030BC000030BB0066
:101DB0000030BA00FF2F3E08BA073F08BB3D40087D
:101DC000BC3D4108BD3D3D1CE62EE72E912F4D1C2C
:101DD000EA2EEB2EF52E4D08C2000130C236890BDB
:101DE000EE2E42080138CD00F72E0310CD0C3A1C20
:101DF000FA2EFB2EFC2ECD170130C200BD37BC0CD5
:101E0000BB0CBA0CC20BFE2E0130CC07912F3D0843
:101E1000803AC2004108803A4202031D192F40084F
:101E20003C02031D192F3F083B02031D192F3E08DA
:101E30003A0203181C2F1D2F522FFF30C200FF3013
:101E4000C300FF30C400FF30C5003A083E02C600A0
:101E50003B083F3BC7003C08403BC8003D08413BB6
:101E6000C9004608C2074708C33D4808C43D4908A1
:101E7000C53D4508BD004408BC004308BB004208FE
:101E8000BA008030CA064D03FF3ACD004D08031D4D
:101E90004A2F4B2F5A2F0130BA070030BB3DBC3DB3
:101EA000BD3D5A2F3E08BA023F08BB3B4008BC3B31
:101EB0004108BD3B3D083C043B043A04031D612F2F
:101EC000622F8D2F4D08031D662F672F8D2F003039
:101ED000BD000030BC000030BB000030BA00FF2F56
:101EE0000130BA35BB0DBC0DBD0D890B712FCD1F57
:101EF0007A2F7B2F7C2F3A144D1C7F2F802F842F1D
:101F000003144D0DCD00862F0310CD0D4C08031981
:101F10008A2F8B2F8D2F0130CC02BC1F902F912F39
:101F2000702FCB01CD1F952F962FA42F4D087F39F1
:101F300003199B2F9C2F9F2F0130CB00A42F3A1CFD
:101F4000A22FA32FA42F9C2F4B080319A82FA92F32
:101F5000D22F0130BA070030BB3DBC3DBD3D3D1C1A
:101F6000B22FB32FD22F3A08C2003B08C3003C085F
:101F7000C4003D08C5000130C600C537C40CC30C01
:101F8000C20CC60BBD2F4508BD004408BC00430869
:101F9000BB004208BA004C0A0319CF2FD02FD22F12
:101FA0000130CC074C0A0319D62FD72FDC2F4C0851
:101FB000031DDB2FDC2FEA2F0030BD000030BC00FA
:101FC0000030BB000030BA004C08031DE82FE92F99
:101FD000EA2FCA014C1CED2FEE2FF02FBC17F22F69
:101FE0007F30BC054C08C2000130C236890BF52F8A
:101FF0004208BD00CA1FFD2FFE2FFF2FBD1708008E
:1020000000340034A03440346634663466343F34DF
:1020100020006835203E8600013087000030C03F38
:10202000C13F23009D1C152816282828200068354C
:10203000203E86000130870001155B085C0403190F
:102040002228232828285C088A005B080A0090318F
:1020500023001D1D2C282D283F2820006835203EF8
:1020600086000130870081145D085E040319392859
:102070003A283F285E088A005D080A009031230054
:102080001908F00020006808013E0739F1007108C6
:102090006706031D4C284D284E2859286808303EF5
:1020A000860001308700700881007108E800013067
:1020B000E60708002100A501A31F5F286028672804
:1020C000A209A309A20A0319A30A0130A500A11FAE
:1020D0006A286B287028A009A109A00A0319A10A7F
:1020E000200821040319752876289D280130A400B2
:1020F00080280130A035A10D890B7A280130A40772
:10210000A11F83288428792821082302031D8A28F7
:1021100020082202031C8D288E2892282008A20263
:102120002108A33B0130A136A00C890B9328013074
:10213000A402031D9C289D28842825080319A12892
:10214000A228A728A209A309A20A0319A30A2308FF
:10215000A1002208A00008002000631CB028B128BC
:10216000BB2821003608AC003508AE003408AD00AD
:102170009E317F2690312100B81FBF28C028C22879
:10218000B701B801BA01BB01D62820302100A30055
:102190000030A4003508A6003408A50092316D2255
:1021A000903101302100BA070030BB3D3B08803A36
:1021B000B9003808803A3902031DE02837083A028E
:1021C000031CE328E428C52820006318E828E92830
:1021D000F32821003608AC003508AE003408AD0005
:1021E0009E317F26903121003608A0009D31532575
:1021F0009031210037082007B4003808213DB50090
:1022000008009B31B7239131003A031D08290929A1
:10221000132920006508C03E860001308700810137
:102220006508C03E5929133020006502031C192996
:102230001A2934291E299E31182691319B31B72342
:102240009131003A031D252926291B2965302100DB
:10225000E1009830E2009C31992491312000E501A1
:102260002300C001C03059299E3118269131210028
:10227000EA0020006508C03E86000130870021008A
:102280006A08810020006508C03E86000130870092
:102290000A300106031D4D294E2956296508C13E05
:1022A0008600013087008101E50132290130E50710
:1022B00001290800C0302100B100AF30B0009B30D0
:1022C000AF003430AE003D30CD008B30CC007A30E2
:1022D000CB008B30CA006E08A0006F08A100A201DD
:1022E000A30100309631B026913121002308D1009E
:1022F0002208D0002108CF002008CE0080318E2097
:10230000913121004D08B5004C08B4004B08B300D2
:102310004A08B2008531042591312100310822009C
:10232000D300210030082200D20021002F08220013
:10233000D10021002E082200D00053082100E70020
:10234000220052082100E600220051082100E50089
:10235000220050082100E40093313A2391312100FA
:102360006508EF006408EE0008002100A501A11F28
:10237000BA29BB29C229A009A109A00A0319A10AE7
:102380000130A500A31FC529C629CD29A209A3098B
:10239000A20A0319A30A0130A506A601A701200875
:1023A00021040319D429D529022A0130A400DF29E8
:1023B0000130A035A10D890BD9290130A407A11F37
:1023C000E229E329D8290130A635A70D890BE42994
:1023D00021082302031DEE2920082202031CF129F3
:1023E000F229F7292008A2022108A33B2614013074
:1023F000A136A00C890BF8290130A402031D012A83
:10240000022AE32925080319062A072A0C2AA60905
:10241000A709A60A0319A70A2708A1002608A000F1
:1024200008002100AC01AD01260886008701403F6D
:10243000A800413FA900280884002908850012004F
:102440002A3A031D242A252A542A260886008701B1
:102450000130810741310318810A2708860087016E
:1024600001088400850102308107003FAC00013F74
:10247000AD00682A2D08A1002C08A0000A30A20097
:102480000030A3009D31D825923121002B08200770
:10249000AC000030213DAD002608860087010130E8
:1024A000810741310318810A260886008701403FD1
:1024B000A800413FA90028088400290885000008D9
:1024C000D03EAB000A302B02031C672A682A3A2A46
:1024D0002D08A7002C08A6000800210025082604C6
:1024E0000319732A742A7A2A25082604031D792AD7
:1024F0007A2A7F2A2308883100209231CA2A2508A7
:102500008600260887004931160001040319892A2C
:102510008A2AAA2A25088600260887004931403FD2
:10252000A700413FA8002508860026088700423101
:10253000403FA900413FAA002A08803AAB00280882
:10254000803A2B02031DA62A270829020318A92A6C
:10255000AA2ACA2A210025088600260887004231B7
:102560002508840026088500003FA700013FA80039
:10257000403F27078400413F283D85002308800015
:102580002508860026088700423101308107413145
:102590000318810A0800031020003C0D3D0DC30004
:1025A0004308031DD42AD52ADE2A0030BD0000309E
:1025B000BC000030BB000030BA00392B3A08BE0026
:1025C0003B08BF003C08C0003D08C1001F30C136B9
:1025D000C00CBF0CBE0C890BE72A3E08C200BC171A
:1025E000FF30BA05FF30BB05FF30BC050030BD052C
:1025F0009630C302C31FFD2AFE2A142B4308803ADB
:10260000973E0318042B052B062BD52A0130BD3627
:10261000BC0CBB0CBA0C890B072B0130C307031D84
:10262000122B132B062B292B20304302031C192BB2
:102630001A2B242BD52A0130BA35BB0DBC0DBD0D8C
:10264000890B1C2B0130C3024308031D282B292BA7
:102650001B2B420803192D2B2E2B392BBA09BB0932
:10266000BC09BD09BA0A0319BB0A0319BC0A03193C
:10267000BD0A080003102100660D670DED006D080E
:10268000031D432B442B4D2B0030E7000030E600A8
:102690000030E5000030E400A82B6408E80065087D
:1026A000E9006608EA006708EB001F30EB36EA0C29
:1026B000E90CE80C890B562B6808EC00E617FF3094
:1026C000E405FF30E505FF30E6050030E70596300C
:1026D000ED02ED1F6C2B6D2B832B6D08803A973E1E
:1026E0000318732B742B752B442B0130E736E60C43
:1026F000E50CE40C890B762B0130ED07031D812BD3
:10270000822B752B982B20306D02031C882B892B74
:10271000932B442B0130E435E50DE60DE70D890BD5
:102720008B2B0130ED026D08031D972B982B8A2B04
:102730006C0803199C2B9D2BA82BE409E509E609DD
:10274000E709E40A0319E50A0319E60A0319E70A87
:1027500008002400951AAD2BAE2B182C210026085A
:10276000A700A8012708A0002808A1000530A200A2
:102770000030A3009D31D8259331E230210020079D
:1027800084001830213D8038850000082400940022
:1027900021002608A700A8012708A0002808A100FA
:1027A0000530A2000030A3009D31D8259331E330DD
:1027B0002100200784001830213D80388500000862
:1027C0002400950021002608A700A8012708A000E2
:1027D0002808A1000530A2000030A3009D31D825B3
:1027E0009331E4302100200784001830213D8038E7
:1027F000850000082400970021002608A700A801F2
:102800002708A0002808A1000530A2000030A3007E
:102810009D31D8259331E530210020078400183000
:10282000213D803885000008240092009516182C60
:10283000080001302100C100200056082100C3001B
:10284000200055082100C2001F30C4000030C50020
:102850002300BF01592CFF302100C407FF30C53DC4
:102860004408A03E8600013087000A30A0000030F6
:10287000A1003F08A3003E08A2009F314E279431DB
:1028800021002008303E8100C101FF30C207FF3027
:10289000C33D0A30A0000030A1003F08A3003E085D
:1028A000A2009F318127943121002108BF00200818
:1028B000BE0021004408450403195F2C602C7D2CC8
:1028C0003E083F04031D652C662C2B2C4108031D7C
:1028D0006A2C6B2C2B2C4308803AC00080304002BD
:1028E000031D742C01304202031C772C782C7D2CA4
:1028F0002000E3187C2C7D2C2B2C21003D08B500FA
:102900003C08B4004408A03EB6004308B8004208A2
:10291000B7009031AC20943121003508BD00340857
:10292000BC0008002100AB01AC01AA01992C0130C8
:10293000A60726088600013087002030010603190B
:10294000A22CA32C972C2608860001308700F73094
:102950000107A80005302802031CAF2CB02C972CCF
:1029600026088600013087002D300106031DB92C92
:10297000BA2CBF2C0130AA000130A607E82C26088B
:102980008600013087002B300106031DC82CC92C9E
:10299000E82CBC2C26088600013087002C08A100FA
:1029A0002B08A0000A30A2000030A3009D31D825DA
:1029B000943121002108A90001082002A800031C6D
:1029C000A9032808303EAB000030293DAC00BC2CE8
:1029D0002608860001308700D0300107A8000A30A1
:1029E0002802031CF42CF52CCA2C2A08031DF92CF0
:1029F000FA2C062D2B09A8002C09A900A80A0319F6
:102A0000A90A2808A6002908A7000A2D2C08A70053
:102A10002B08A600080020006E080319102D112DA8
:102A2000852DD7302100E1009830E2009B318A23C8
:102A3000953121002108E4002008E3009C3199240D
:102A40009531AE302100E1009830E2009B319323B4
:102A5000953121002108E4002008E3009C319924ED
:102A600095318E302100E1009830E2009B31A523A2
:102A7000953121002108E4002008E3009C319924CD
:102A80009531FB302100E1009830E2009C3199241F
:102A900095319C31DC249531210023082200D3009C
:102AA000210022082200D200210021082200D100AA
:102AB000210020082200D000953186259531F43080
:102AC0002100E1009830E2009C31992495319C313D
:102AD000CB249531210023082200D30021002208B5
:102AE0002200D200210021082200D100210020086C
:102AF0002200D000953186259531AB302100E100D0
:102B00009830E2009C319924953108002200530846
:102B10002100E700220052082100E60022005108AF
:102B20002100E500220050082100E40093313A23FF
:102B30009531210064082200D60053082100C90005
:102B4000220052082100C800220051082100C700BD
:102B5000220050082100C600220056082100EE0085
:102B6000EF01EE1BEF036E08A0006F08A100890DB6
:102B7000893B8909A200A30001309631B026953126
:102B800021002308C5002208C4002108C300200832
:102B9000C2009D31F825953121004508D100440837
:102BA000D0004308CF004208CE004430CD007A3038
:102BB000CC000030CB000030CA0080318E2095312F
:102BC00021004D08E7004C08E6004B08E5004A08E4
:102BD000E40093313A239531210065082200D500A5
:102BE000210064082200D400EC302100E10098307C
:102BF000E200220056082100E300E401E31BE403A5
:102C0000220055082100E600220054082100E500BA
:102C10009C31992495310800F80078080319112E89
:102C2000122E262EF31F152E162E262E7009FA00B0
:102C30007109FB007209FC007309FD00FA0A03190F
:102C4000FB0A0319FC0A0319FD0A2E2E7308FD0066
:102C50007208FC007108FB007008FA007308720427
:102C600071047004031D352E362E3F2E0030F30004
:102C70000030F2000030F1000030F000AF2E96304E
:102C8000F9004B2E0130F9070130FD36FC0CFB0C2E
:102C9000FA0C890B452EFE307D05031D502E512E5A
:102CA000422E612E0130F9070130FA070030FB3D5A
:102CB000FC3DFD3D0130FD36FC0CFB0CFA0C890B94
:102CC0005B2EFF307D05031D662E672E522E712E62
:102CD0000130F9020130FA35FB0DFC0DFD0D890BB9
:102CE0006B2EFC1B742E752E7B2E0230790203187E
:102CF0007A2E7B2E682E79187E2E7F2E872EFF301F
:102D0000FA05FF30FB057F30FC05FF30FD050310A1
:102D1000F90C7908F400F501F601F7011830F435E3
:102D2000F50DF60DF70D890B8F2E7408FA04750852
:102D3000FB047608FC047708FD0478080319A12E2B
:102D4000A22EA72EF31FA52EA62EA72EFD177D08B7
:102D5000F3007C08F2007B08F1007A08F00008001C
:102D60002100A80028080319B62EB72ECB2EA31FCA
:102D7000BA2EBB2ECB2E2009AA002109AB002209B6
:102D8000AC002309AD00AA0A0319AB0A0319AC0A67
:102D90000319AD0AD32E2308AD002208AC00210888
:102DA000AB002008AA002308220421042004031DEC
:102DB000DA2EDB2EE42E0030A3000030A20000301B
:102DC000A1000030A000542F9630A900F02E013051
:102DD000A9070130AD36AC0CAB0CAA0C890BEA2E5E
:102DE000FE302D05031DF52EF62EE72E062F0130A1
:102DF000A9070130AA070030AB3DAC3DAD3D013025
:102E0000AD36AC0CAB0CAA0C890B002FFF302D0596
:102E1000031D0B2F0C2FF72E162F0130A9020130A6
:102E2000AA35AB0DAC0DAD0D890B102FAC1B192FB6
:102E30001A2F202F0230290203181F2F202F0D2FA9
:102E40002918232F242F2C2FFF30AA05FF30AB0584
:102E50007F30AC05FF30AD050310A90C2908A40094
:102E6000A501A601A7011830A435A50DA60DA70D33
:102E7000890B342F2408AA042508AB042608AC04C7
:102E80002708AD0428080319462F472F4C2FA31FEE
:102E90004A2F4B2F4C2FAD172D08A3002C08A20052
:102EA0002B08A1002A08A000080000302100EE0035
:102EB0000030ED000030EC000030EB00E801640869
:102EC0008600013087000108EF000130E407303050
:102ED0006F02031C6C2F6D2FBC2F3A306F0203184A
:102EE000722F732FBC2F4130CD002030CC0000302A
:102EF000CB000030CA006E08D1006D08D0006C080D
:102F0000CF006B08CE0080318E20973121004D0814
:102F1000EE004C08ED004B08EC004A08EB006F088F
:102F2000D03EA000FF3003180030A100A201A30191
:102F300000309631B026973121002308B1002208D5
:102F4000B0002108AF002008AE006E08B5006D0883
:102F5000B4006C08B3006B08B200853104259731CA
:102F600021003108EE003008ED002F08EC002E089B
:102F7000EB000130E9075F2F2C306F060319C12FDA
:102F8000C22FC82F2E306F06031DC72FC82FCC2F7E
:102F90000130E800E9015F2FEA01EC2F4130A30086
:102FA0002030A2000030A1000030A0006E08A70071
:102FB0006D08A6006C08A5006B08A4008C31502495
:102FC000973121002308EE002208ED002108EC00D3
:102FD0002008EB000130EA0768080319F02FF12FF1
:102FE000F72F69086A02031CF62FF72FCE2F6E0801
:102FF000E7006D08E6006C08E5006B08E4000800D7
:10300000C93407340034003418341E34A3341E3459
:10301000B7341B34AE341B34003400340034003475
:103020000034003400340034003400340034003400
:1030300000340034003400340034003400340034F0
:1030400000340034003400340034003400340034E0
:103050006C341C347B341C340034003400340034B1
:10306000C9341B3400340034A93413340034003420
:1030700000340034003400340034003417341C347D
:1030800000340034003400340034003400340034A0
:1030900000340034003400346334683461346E34F6
:1030A0006734653464342034733465347434703474
:1030B0006F3469346E347434203474346F34203493
:1030C000253475340D340A34003469346E34703468
:1030D000753474342034623475346634663465343F
:1030E000723420346F3476346534723466346C3420
:1030F0006F3477340D340A34003455346E346B3405
:103100006F3477346E34203463346F346D346D34FF
:1031100061346E3464340D340A3400342C34203479
:1031200064347534743479342034633479346334DA
:103130006C3465343A3420342534753400346C34BE
:103140006F3467347334203474346F3467346734C5
:103150006C34653464340D340A3400342C34203437
:1031600073346534743470346F3469346E34743449
:103170003A3420342534753400346334683461348F
:103180006E3467346534643420346B3469340D3400
:103190000A3400346334683461346E34673465341F
:1031A000643420346B3470340D340A3400346834A1
:1031B0006F346F346734743465343A3420342534D2
:1031C0007534003440340A34103407340034643425
:1031D0000034103401340034253469342E3425345D
:1031E00030343334753400342C3420346B34693447
:1031F0003A34203400342C3420346B3470343A3474
:043200002034003442
:10367E0008000800080023001D121D1608008931DD
:10368E00C7219B310800C2340134013410342100AB
:10369E001C08F1001B08F000080020005A08F10079
:1036AE005908F0000800640080010131890B5B2B82
:1036BE000034FE0012001E00FE0B612B00342100B0
:1036CE0021082200E700210020082200E600080061
:1036DE00320099019B019D0106309F009E019C01C5
:1036EE000800210021082000E2002100200820000F
:1036FE00E1000800210021082200E100210020083D
:10370E002200E000080020005A082100A10020003D
:10371E0059082100A000080020006D082100A1001A
:10372E0020006C082100A0000800210021082200C2
:10373E00DF00210020082200DE00080020005808CB
:10374E002100A100200057082100A0000800200041
:10375E006908031DB32BB52B0130B62B00300800C2
:10376E0020006608031DBC2BBE2B0130BF2B003082
:10377E00080021002E082000ED0021002D08200059
:10378E00EC000800210091112000911124009401F9
:10379E00950197019201080022005308EB00520890
:1037AE00EA005108E9005008E8000800220053081A
:1037BE00EF005208EE005108ED005008EC00080032
:1037CE00F1007108F000F00DF00D21001D087006DB
:1037DE00033970069D000800200010100B140030F5
:1037EE002100A0000030A1009B3178239B310800FE
:1037FE0080302C0099007F309800C03097001F0851
:10380E00FC3901389F0008002100A1002108A0000A
:10381E00A00DA00D1D082006033920069D000800EE
:10382E0021002008240091002000911D1F2C202C27
:10383E001B2C911124001108080010309C310B2410
:10384E009C3120302100A0001F30A1009B31662347
:10385E009C3108002100A6019331A9239C314630EA
:10386E002100A0001B30A1009B319C239C3108003D
:10387E00200011132200660867040319472C482CF8
:10388E004D2C67088A0066080A009C310800220049
:10389E00620863040319542C552C5A2C63088A00B1
:1038AE0062080A009C312000911008002200600876
:1038BE0061040319632C642C692C61088A0060086A
:1038CE000A009C31200092100800210020082104DB
:1038DE000319722C732C7A2C21082000DE00210093
:1038EE0020082000DD000800210020082104031913
:1038FE00812C822C892C21082000DC00210020083C
:10390E002000DB0008000E3028009D009C010330D3
:10391E002200DE000030DF00200092131D30280050
:10392E009E000800E3302100E7000030D900DA00E5
:10393E006208DC006108DB00E730DD009E31CB263B
:10394E009C310800FF3020009E009D014130220076
:10395E00E2001B30E30020009110210091141D3075
:10396E0020009F000800FF302800960095010230CD
:10397E002200E0000030E10020009210210092149D
:10398E00763028009700080022006B082100A30063
:10399E0022006A082100A200220069082100A1006D
:1039AE00220068082100A000080022006F082100F4
:1039BE00A30022006E082100A20022006D08210043
:1039CE00A10022006C082100A00008002100A71B06
:1039DE00F12CF22CF32CFE2C2609A8002709A900A5
:1039EE00A80A0319A90A2808A6002908A700080092
:1039FE002000921F032D042D122D22005E085F045D
:103A0E0003190A2D0B2D102D5F088A005E080A007F
:103A1E009D312000921308007108F3007008F20027
:103A2E00F336F20CF336F20C72082C009800700884
:103A3E000339F2000630F235890B222D72089700F9
:103A4E0008002100A0019C3117249D312100A00106
:103A5E009C3117249D312100A0019C3117249D31EA
:103A6E002100A0019C3117249D310800A0302100B7
:103A7E009E009B019C0105309F0001309D0020009F
:103A8E0011133F302100A0001B30A1009B31662393
:103A9E009D3121001117080021002008A200592D88
:103AAE000130A00720088600013087000108031DA1
:103ABE00612D622D572D22082002A000A101A01B0E
:103ACE00A1030800FF302100A0009C3117249D3176
:103ADE00FF302100A0009C3117249D31FF302100C2
:103AEE00A0009C3117249D31FF302100A0009C3195
:103AFE0017249D3108002100A4002308E038A000FF
:103B0E009C3117249D3121002208A0009C311724DE
:103B1E009D3121002108A0009C3117249D312100E8
:103B2E002408A0009C3117249D3108000830200085
:103B3E0069020318A32DA42DB62D6A08383E8600FF
:103B4E0001308700010823009A0020006A08013E18
:103B5E000739F0007008EA000130E907B82D21009E
:103B6E00111208009B316F239D319F31BC279D316F
:103B7E009C31A9249D319C31BA249D319C318A24DB
:103B8E009D319D313D259D318731C9279D319B3119
:103B9E00FF239D319B31C9239D319B31F3239D31F1
:103BAE0008002100A401A501201CDE2DDF2DE32D30
:103BBE002208A4072308A53D0130A235A30D890BC9
:103BCE00E42D0130A136A00C890BE92D200821042B
:103BDE00031DF22DF32DDB2D2508A1002408A000D6
:103BEE00080080302100C5064908B1004808B00021
:103BFE004708AF004608AE004508B5004408B400BB
:103C0E004308B3004208B200853104259D312100DE
:103C1E003108C5003008C4002F08C3002E08C200AA
:103C2E00080020006708303E86000130870001083A
:103C3E002100A10020006708013E07392100A000E5
:103C4E0020082000E70021009112200066080319C9
:103C5E00312E322E342E0130E6022100911621082B
:103C6E000800F800F401F5017008F200F301720883
:103C7E00F6007308F700781C452E462E4A2E76085D
:103C8E00F4077708F53D0130F635F70D890B4B2E0D
:103C9E000310F80C7808031D552E562E422E75086B
:103CAE00F1007408F00008002100A800A401A5018D
:103CBE002008A200A3012208A6002308A700281CA2
:103CCE00692E6A2E6E2E2608A4072708A53D013000
:103CDE00A635A70D890B6F2E0310A80C2808031DFF
:103CEE00792E7A2E662E2508A1002408A000080041
:103CFE002100B201B301962E3108AF00B0012F089A
:103D0E00A3003008A4002E08A6002D08A5009231AD
:103D1E006D229E3101302100B2070030B33D2C08D8
:103D2E0032078600013087000108B1003108031DFB
:103D3E00A12EA22E832E08002100111AA72EA82E26
:103D4E00AC2E200823009A00C82E20006908031903
:103D5E00B12EB22EC82E6B08383E86000130870079
:103D6E0021002008810020006B08013E0739210048
:103D7E00A10021082000EB002100111201302000CB
:103D8E00E90221001116080021005C08E0005B0822
:103D9E00DF002200C401C501E82E5A08CA005908E6
:103DAE00C900DF30CB005D08CC00CD018A31DE22A8
:103DBE009E31210049082200C40721004A08220032
:103DCE00C53D21005F088400600885001200031DB8
:103DDE00F12EF22ED42ED901DA0108009D31B9252B
:103DEE009E318B170B179C3124249E31BF3021003E
:103DFE00A0000830A1009B3181239E319C313124DB
:103E0E009E31883111209E3129302200DD009630FE
:103E1E00DC007F30890B112FDC0B112FDD0B112FE6
:103E2E0095310B259E319C31FF249E31082F803118
:103E3E005828382F9B314E239F3171082200CB001A
:103E4E007008CA0012302000EF00492F9B314E231C
:103E5E009F3171082000DA007008D9001030EF0091
:103E6E00492F20006F08F200F3017308003A03197E
:103E7E00412F492F7208103A0319212F023A0319C4
:103E8E002D2F492F6F089B31E7239F31080021000A
:103E9E00200821040319542F552F7C2F0130A40024
:103EAE005F2F0130A035A10D890B592F0130A407CA
:103EBE00A11F622F632F582F21082302031D692F84
:103ECE0020082202031C6C2F6D2F712F2008A202D6
:103EDE002108A33B0130A136A00C890B722F0130B3
:103EEE00A402031D7B2F7C2F632F2308A100220821
:103EFE00A00008002100A401A50120082104031937
:103F0E00892F8A2FB72F0130A600942F0130A035AC
:103F1E00A10D890B8E2F0130A607A11F972F982F69
:103F2E008D2F0130A435A50D890B992F2108230261
:103F3E00031DA32F20082202031CA62FA72FAC2F90
:103F4E002008A2022108A33B24140130A136A00CA4
:103F5E00890BAD2F0130A602031DB62FB72F982F58
:103F6E002508A1002408A000080022008C018D0164
:103F7E008E01193021008C0080308D00DF308E00D4
:103F8E00103023008C0020308D00FF308E00240076
:103F9E008C018D018E0125008C018D018E01373033
:103FAE0026008C00F0308D00FF308E003F30270051
:103FBE008C00F0308D00FF308E003C00A1010F30E0
:103FCE00A40019303D009C000230A50014309D0065
:103FDE000E303C00A00018303D009E0027009101DD
:103FEE00920193019401950196019701980199010F
:023FFE000800B9
:020000040001F9
:08000E008C3FF33FFF3FFF3F71
:00000001FF
