:1000000080315828013410347E1480310B1F0928A8
:100010000A2856282100111E0E280F281B28200010
:10002000111E132814281B28230059088A00580879
:100030000A00803156282100911E1F2820282C28D4
:100040002000911E242825282C28230057088A00E8
:1000500056080A00803156282100921C3028312889
:100060003A282000921C352836283A289B314D2307
:10007000803156282100911C3E283F284828200026
:10008000911C4328442848289B313E238031562820
:100090002100111F4C284D2856282000111F5128DF
:1000A000522856289B312F23803156287E10090074
:1000B00080315A28803102208031EE0080310320C7
:1000C0008031EF00C13084009A3085005F308600B7
:1000D000013087000A309A311E2280315A30840064
:1000E0000030850014309A3118228031433084006A
:1000F000013085001C309A3118228031A0308400F4
:100100000130850034309A3118228031203084004B
:100110000230850020309A31182280317E10200074
:1001200095316D2D21004D088039D7004D35DD000A
:10013000CC1F9B289C289D285D145D080319A128CD
:10014000A228B1285D0A031DA628A728AF280030E1
:10015000CD000030CC000030CB000030CA00CC17FE
:10016000B9280030CD000030CC000030CB0000308A
:10017000CA0051088039D7065135DC00D01FC1288C
:10018000C228C3285C145C080319C728C828D728CC
:100190005C0A031DCC28CD28D5280030D1000030C2
:1001A000D0000030CF000030CE00D017DF28003064
:1001B000D1000030D0000030CF000030CE005C080D
:1001C0000319E328E428E9285D08031DE828E92845
:1001D000F2280030CD000030CC000030CB000030E1
:1001E000CA00CC2A4A08A00050089D315925803108
:1001F00021002108E3002008E2006208D200D301B8
:10020000D401D5015508DB005408DA005308D900A1
:100210005208D8006308D200D301D401D501550893
:10022000E1005408E0005308DF005208DE004B08EC
:10023000A0004F089D315925803121002108E3009D
:100240002008E2006208D200D301D401D50152088F
:10025000D8075308D93D5408DA3D5508DB3D6308FB
:10026000D200D301D401D5015208DE075308DF3D87
:100270005408E03D5508E13D4C08A0004E089D3172
:100280005925803121002108E3002008E20062089E
:10029000D200D301D401D5015208D8075308D93D63
:1002A0005408DA3D5508DB3D6308D200D301D40180
:1002B000D5015208DE075308DF3D5408E03D5508DC
:1002C000E13D0830D835D90DDA0DDB0D890B6229F7
:1002D0004B08A0004E089D3159258031210021088E
:1002E000E3002008E2006208D8076308D93D003027
:1002F000DA3DDB3D4A08A0004F089D315925803189
:1003000021002108E3002008E2006208D807630802
:10031000D93D0030DA3DDB3D0830D835D90DDA0D56
:10032000DB0D890B8D294A08A0004E089D31592507
:10033000803121002108E3002008E2006208D8078C
:100340006308D93D0030DA3DDB3D4B08A000500882
:100350009D315925803121002108E3002008E20069
:100360006208DE076308DF3D0030E03DE13D4C08F8
:10037000A0004F089D315925803121002108E3005C
:100380002008E2006208DE076308DF3D0030E03D40
:10039000E13D4C08A00050089D31592580312100D5
:1003A0002108E3002008E2006208D2006308D300BD
:1003B000D401D5010830D235D30DD40DD50D890B1C
:1003C000DB295208DE075308DF3D5408E03D55089D
:1003D000E13D5808D2005908D3005A08D4005B0800
:1003E000D5001830D536D40CD30CD20C890BF22999
:1003F0005208DE075308DF3D5408E03D5508E13D53
:100400000830D835D90DDA0DDB0D890B012A5D08CE
:100410005C07D200D301D30D5208823EE200FF30C8
:10042000533DE3002A2A0130DE35DF0DE00DE10DFA
:10043000890B142ADB1F1D2A1E2A1F2A5E14013075
:10044000D835D90DDA0DDB0D890B202AFF30E207F4
:10045000FF30E33DE01F2D2A2E2A132ADC01DB1F8B
:10046000322A332A4F2AFF305805D200FF3059056F
:10047000D300FF305A05D4007F305B05D500550806
:100480005404530452040319462A472A4A2A0130C5
:10049000DC004F2A5E1C4D2A4E2A4F2A472A5C0850
:1004A0000319532A542A7A2A0130DE070030DF3D2F
:1004B000E03DE13D611C5D2A5E2A7A2A5E08D20099
:1004C0005F08D3006008D4006108D5000130D60071
:1004D000D537D40CD30CD20CD60B682A5508E100C2
:1004E0005408E0005308DF005208DE000130E20744
:1004F0000030E33D6308803AD20080305202031D91
:10050000832AFF306202031C862A872A912A7F30C1
:100510002100E1008030E0000030DF000030DE002C
:10052000C22A21006308803AD20080305202031DA3
:100530009B2A0130620203189E2A9F2AAA2A0030B1
:100540002100E1000030E0000030DF000030DE007C
:10055000D701C22A21006208DD00FF30DE05FF302E
:10056000DF057F30E0050030E1055D1CB82AB92ABF
:10057000BA2AE0175D08D2000130D236890BBD2AB5
:100580005208E1005708E1046108CD006008CC0082
:100590005F08CB005E08CA000800200023088039ED
:1005A000AD002335B300A21FD62AD72AD82A331488
:1005B00033080319DC2ADD2AEC2A330A031DE12A59
:1005C000E22AEA2A0030A3000030A2000030A10095
:1005D0000030A000A217F42A0030A3000030A200CF
:1005E0000030A1000030A00027088039AD06273573
:1005F000B200A61FFC2AFD2AFE2A32143208031973
:10060000022B032B122B320A031D072B082B102B56
:100610000030A7000030A6000030A5000030A40084
:10062000A6171A2B0030A7000030A6000030A50046
:100630000030A400320803191E2B1F2B242B330873
:10064000031D232B242B2D2B0030A3000030A200F0
:100650000030A1000030A000072D2008F00026087F
:100660009D313625823171082000B9007008B8002C
:100670003808A800A901AA01AB012B08B1002A087B
:10068000B0002908AF002808AE003908A800A90169
:10069000AA01AB012B08B7002A08B6002908B5004B
:1006A0002808B4002108F00025089D313625823144
:1006B00071082000B9007008B8003808A800A90126
:1006C000AA01AB012808AE072908AF3D2A08B03DB2
:1006D0002B08B13D3908A800A901AA01AB012808DF
:1006E000B4072908B53D2A08B63D2B08B73D2208B6
:1006F000F00024089D313625823171082000B900B0
:100700007008B8003808A800A901AA01AB012808A0
:10071000AE072908AF3D2A08B03D2B08B13D390886
:10072000A800A901AA01AB012808B4072908B53D12
:100730002A08B63D2B08B73D0830AE35AF0DB00DD9
:10074000B10D890B9D2B2108F00024089D31362521
:10075000823171082000B9007008B8003808AE076F
:100760003908AF3D0030B03DB13D2008F00025080C
:100770009D313625823171082000B9007008B8001B
:100780003808AE073908AF3D0030B03DB13D083004
:10079000AE35AF0DB00DB10D890BC82B2008F000A0
:1007A00024089D313625823171082000B900700877
:1007B000B8003808AE073908AF3D0030B03DB13D54
:1007C0002108F00026089D3136258231710820006D
:1007D000B9007008B8003808B4073908B53D0030D2
:1007E000B63DB73D2208F00025089D3136258231FF
:1007F00071082000B9007008B8003808B40739083B
:10080000B53D0030B63DB73D2208F00026089D31C9
:100810003625823171082000B9007008B800380808
:10082000A8003908A900AA01AB010830A835A90D14
:10083000AA0DAB0D890B162C2808B4072908B53D65
:100840002A08B63D2B08B73D2E08A8002F08A9009E
:100850003008AA003108AB001830AB36AA0CA90C3E
:10086000A80C890B2D2C2808B4072908B53D2A08A7
:10087000B63D2B08B73D0830AE35AF0DB00DB10D0C
:10088000890B3C2C33083207A800A901A90D2808C0
:10089000823EB800FF30293DB900652C0130B435E7
:1008A000B50DB60DB70D890B4F2CB11F582C592C17
:1008B0005A2C34140130AE35AF0DB00DB10D890B8B
:1008C0005B2CFF30B807FF30B93DB61F682C692C90
:1008D0004E2CB201B11F6D2C6E2C8A2CFF302E05D0
:1008E000A800FF302F05A900FF303005AA007F3097
:1008F0003105AB002B082A04290428040319812C94
:10090000822C852C0130B2008A2C341C882C892C36
:100910008A2C822C320803198E2C8F2CB52C013096
:10092000B4070030B53DB63DB73D371C982C992C27
:10093000B52C3408A8003508A9003608AA003708E5
:10094000AB000130AC00AB37AA0CA90CA80CAC0B67
:10095000A32C2B08B7002A08B6002908B5002808E0
:10096000B4000130B8070030B93D3908803AA8001A
:1009700080302802031DBE2CFF303802031CC12C1E
:10098000C22CCC2C7F302000B7008030B600003065
:10099000B5000030B400FD2C20003908803AA800D2
:1009A00080302802031DD62C013038020318D92CC0
:1009B000DA2CE52C00302000B7000030B600003003
:1009C000B5000030B400AD01FD2C20003808B300A4
:1009D000FF30B405FF30B5057F30B6050030B705F0
:1009E000331CF32CF42CF52CB6173308A800013077
:1009F000A836890BF82C2808B7002D08B70437084B
:100A0000A3003608A2003508A1003408A0000800A1
:100A1000210031088039BE003135C000B01F112DD2
:100A2000122D132D401440080319172D182D282DB1
:100A3000400A031D1C2D1D2D252D0030B100003056
:100A4000B0000030AF000030AE00B017B101302D63
:100A50000030B1000030B0000030AF000030AE0018
:100A600035088039BF003F083E060319382D392D5F
:100A70003A2D3E173535BF00B41F3F2D402D412D77
:100A80003F143F080319452D462D562D3F0A031DDF
:100A90004A2D4B2D532D0030B5000030B4000030EE
:100AA000B3000030B200B417B5015E2D0030B500C0
:100AB0000030B4000030B3000030B20040083F0204
:100AC0000318632D642D882D3E1F672D682D6A2D18
:100AD0008030BE064008C1003F08C0004108BF008A
:100AE0002E08C1003208AE004108B2002F08C10034
:100AF0003308AF004108B3003008C1003408B0002B
:100B00004108B4003108C1003508B1004108B50002
:100B1000C1013F08B600B7013708B90040083602E6
:100B2000B800031CB9033908803ABA0080303A0291
:100B3000031D9C2D1A303802031C9F2DA02DD62D8D
:100B40002100310830042F042E04031DA82DAA2DE6
:100B50000130AB2D0030C1000030B1000030B000DA
:100B60000030AF000030AE003F08C000DD2D411C5A
:100B7000BA2DBB2DC52D4108B6000130B636890B04
:100B8000BE2D36080138C100C72D0310C10C2E1C24
:100B9000CA2DCB2DCC2DC1170130B600B137B00C0A
:100BA000AF0CAE0CB60BCE2D0130C00721003F08B4
:100BB0004002031CDC2DDD2DB72D3E1BE02DE12D69
:100BC0001B2E4008031DE52DE62DEF2D0030B10052
:100BD0000030B0000030AF000030AE00132F3208FC
:100BE000AE073308AF3D3408B03D3508B13D311C88
:100BF000FA2DFB2DA52E411CFE2DFF2D092E41089F
:100C0000B6000130B636890B022E36080138C10015
:100C10000B2E0310C10C2E1C0E2E0F2E102EC117E2
:100C20000130B600B137B00CAF0CAE0CB60B122EC3
:100C30000130C007A52E3108803AB6003508803A49
:100C40003602031D2D2E34083002031D2D2E3308CD
:100C50002F02031D2D2E32082E020318302E312EA6
:100C6000662EFF30B600FF30B700FF30B800FF300F
:100C7000B9002E083202BA002F08333BBB003008FF
:100C8000343BBC003108353BBD003A08B6073B0891
:100C9000B73D3C08B83D3D08B93D3908B1003808BA
:100CA000B0003708AF003608AE008030BE06410302
:100CB000FF3AC1004108031D5E2E5F2E6E2E0130EB
:100CC000AE070030AF3DB03DB13D6E2E3208AE02F2
:100CD0003308AF3B3408B03B3508B13B3108300432
:100CE0002F042E04031D752E762EA12E4108031D00
:100CF0007A2E7B2EA12E0030B1000030B0000030E3
:100D0000AF000030AE00132F0130AE35AF0DB00D87
:100D1000B10D890B852EC11F8E2E8F2E902E2E1475
:100D2000411C932E942E982E0314410DC1009A2E2F
:100D30000310C10D400803199E2E9F2EA12E0130D5
:100D4000C002B01FA42EA52E842EBF01C11FA92E44
:100D5000AA2EB82E41087F390319AF2EB02EB32E1C
:100D60000130BF00B82E2E1CB62EB72EB82EB02ED6
:100D70003F080319BC2EBD2EE62E0130AE07003011
:100D8000AF3DB03DB13D311CC62EC72EE62E2E081C
:100D9000B6002F08B7003008B8003108B90001309C
:100DA000BA00B937B80CB70CB60CBA0BD12E39084B
:100DB000B1003808B0003708AF003608AE00400A6E
:100DC0000319E32EE42EE62E0130C007400A031972
:100DD000EA2EEB2EF02E4008031DEF2EF02EFE2EF5
:100DE0000030B1000030B0000030AF000030AE0085
:100DF0004008031DFC2EFD2EFE2EBE01401C012FBF
:100E0000022F042FB017062F7F30B0054008B60020
:100E10000130B636890B092F3608B100BE1F112FDD
:100E2000122F132FB117080090313B208731220079
:100E3000A400C32F2408013E2100A6009331CD2336
:100E4000873121002708AE002608AD009A31902294
:100E500087314C302100E2009830E3002200240862
:100E6000013E2100A6009331CD23873121002708C0
:100E7000E5002608E4009C3101248731EA2F24088C
:100E8000013E2100E40088311E20873121006708DF
:100E90002200A300210066082200A20021006508AC
:100EA0002200A100210064082200A0009A31B7228C
:100EB0008731E5302100E2009830E3009C310124C5
:100EC0008731EA2F2408013E2100E40088311E20EA
:100ED0008731210067082200A30021006608220054
:100EE000A200210065082200A10021006408220060
:100EF000A0009A31AD228731D8302100E20098302D
:100F0000E3009C3101248731EA2F2408013E2100AF
:100F1000E40088311E208731210067082200A300E9
:100F2000210066082200A200210065082200A1001D
:100F3000210064082200A0009A31A3228731CB301F
:100F40002100E2009830E3009C3101248731EA2F30
:100F500020006E080319AD2FAF2F0130B02F0030E5
:100F6000EE009F302100E2009830E3009C31012424
:100F70008731EA2F7D302100E2009830E3009C3178
:100F800001248731EA2F24088600013087000108F8
:100F9000003A0319EA2F443A0319852F0D3A031931
:100FA000622F053A0319A82F1C3A03193F2F033A61
:100FB00003191A2F373A0319852F0D3A0319622F97
:100FC000053A0319A82F1C3A03193F2F033A0319B6
:100FD0001A2FBA2F08002100A0019B310723873167
:100FE0002100A0019B31072387312100A0019B3103
:100FF000072387312100A0019B3107238731080097
:1010000008000800083020006B020318082809288F
:101010001B286C08B83E86000130870001082300B9
:101020009A0020006C08013E0739F0007008EC00BF
:101030000130EB071D2821001112080000302100AB
:10104000EE000030ED000030EC000030EB00E80175
:1010500064088600013087000108EF000130E407D2
:1010600030306F02031C3528362885283A306F024D
:1010700003183B283C2885284130CD002030CC0087
:101080000030CB000030CA006E08D1006D08D000DF
:101090006C08CF006B08CE0080319220883121008F
:1010A0004D08EE004C08ED004B08EC004A08EB0040
:1010B0006F08D03EA000FF3003180030A100A2014D
:1010C000A30100309631B226883121002308B100F7
:1010D0002208B0002108AF002008AE006E08B5005D
:1010E0006D08B4006C08B3006B08B20085310825A8
:1010F000883121003108EE003008ED002F08EC00A7
:101100002E08EB000130E90728282C306F06031960
:101110008A288B2891282E306F06031D902891284D
:1011200095280130E800E9012828EA01B528413076
:10113000A3002030A2000030A1000030A0006E0803
:10114000A7006D08A6006C08A5006B08A4008C31F0
:101150005024883121002308EE002208ED002108E8
:10116000EC002008EB000130EA0768080319B928F1
:10117000BA28C02869086A02031CBF28C02897281B
:101180006E08E7006D08E6006C08E5006B08E400F7
:10119000080001302100C300BF1BCF28D128013037
:1011A000D2280030C60020005B082100C5002000C6
:1011B0005A082100C40046080319DF28E028F42853
:1011C000FF30C407FF30C53D4608031DE828E92865
:1011D000EE282B30C1000030C200F2282D30C100B3
:1011E0000030C2004108C6001F30C7000030C800F0
:1011F0002400BF013129FF302100C707FF30C83D5F
:101200004708203E8600023087000A30A0000030E8
:10121000A1003F08A3003E08A2009F3106278831A5
:1012200021002108A7002008A6009B31EF23883168
:1012300021002608303E8100C301FF30C407FF3083
:10124000C53D0A30A0000030A1003F08A3003E08C1
:10125000A2009031EF20883121002108BF00200832
:10126000BE0021004808803AC00080304002031DC3
:101270003B2901304702031C3E293F295D292100FB
:101280003E083F04031D45294629FB284308031D4A
:101290004A294B29FB284508803AC000803040028B
:1012A000031D542901304402031C572958295D2984
:1012B0002000E4185C295D29FB2821004608031959
:1012C000622963296E29FF30C707FF30C83D4708F0
:1012D000203E860002308700460881003D08B500A8
:1012E0003C08B4004708203EB6004508B800440852
:1012F000B7009F31AB27883121003508BD00340885
:10130000BC0008009A311222893171082200D200F3
:101310007008D100510867022000D800220052084E
:10132000683B2000D9005808F0005908F100890DE9
:10133000893B8909F200F300013096310E2689318C
:1013400073082000A7007208A6007108A5007008A5
:10135000A4003A30A3000330A2001230A1006F3085
:10136000A0008231CD22893120002308BD0022084F
:10137000BC002108BB002008BA0022004A08200057
:10138000C100220049082000C000220048082000B7
:10139000BF00220047082000BE008D31F4258931AE
:1013A00020003D082200CA0020003C082200C9009D
:1013B00020003B082200C80020003A082200C70095
:1013C0002000580822004F022000D00059082200B7
:1013D000503B2000D10059082200D00020005808BE
:1013E0002200CF0020005808F0005908F100890DB4
:1013F000893B8909F200F300013096310E268931CC
:1014000073082000A7007208A6007108A5007008E4
:10141000A400220066082000A30022006508200026
:10142000A200220064082000A1002200630820001E
:10143000A0008231CD22893120002308BD0022087E
:10144000BC002108BB002008BA0092310622893175
:1014500020003B08D3003A08D20022006208200096
:10146000A700220061082000A600220060082000DA
:10147000A50022005F082000A40022004A082000E6
:10148000A300220049082000A200220048082000F2
:10149000A100220047082000A0008231CD2289311E
:1014A00020002308BD002208BC002108BB00200842
:1014B000BA0092310622893120003B08D5003A0853
:1014C000D4005008F0005108F100890D893B8909CA
:1014D000F200F300013096310E26893173082000A6
:1014E000A7007208A6007108A5007008A4002200D9
:1014F00046082000A300220045082000A200220088
:1015000044082000A100220043082000A0008231EE
:10151000CD22893120002308BD002208BC0021080B
:10152000BB002008BA0092310622893120003B0816
:10153000D7003A08D60054085207CE005508533D4C
:10154000CF0056084E07DC0057084F3DDD00043041
:101550005D02003003195C02031CAF2AB02AC32AC3
:101560005908803ACE0080304E02031DB92A01305E
:101570005802031CBC2ABD2AC32AFF302000DC000D
:101580000330DD00D42A043020005D02003003194E
:101590005C02031CCC2ACD2AD42AD91FD02AD12AF6
:1015A000D42ADC01DD01D42A5D08F1005C08F000DA
:1015B0009C3127248931080021004B0886008701CF
:1015C000403FCE00413FCF004E0884004F088500C9
:1015D0001200253A031DED2AEE2A2C2C4B0886001A
:1015E00087010130810741310318810A2000DA01A7
:1015F000DB010030E400FF302200CD00FF30CE00E0
:101600002100D201222B2000E41421004B08860087
:1016100087010130810741310318810A222B0130F3
:10162000D200222B4B0886008701403FCE00413F6D
:10163000CF004E0884004F0885000008303A031997
:10164000032B0F2B52080319262B272B122B4B0889
:10165000A6004D08A8004C08A70091314B218A3103
:10166000210027082000DB00210026082000DA00E6
:10167000DB1F3B2B3C2B422B6414DA09DB09DA0A13
:101680000319DB0A21004B0886008701403FD70081
:10169000413FD80057088400580885001200643A7A
:1016A0000319532B542B5E2B5708840058088500D0
:1016B0001200693A031D5D2B5E2B892B4C088600B6
:1016C0004D08870001088400850102308107003F32
:1016D000D300013FD4005708013ECE000030583DF2
:1016E000CF004B08860087014E08C03F4F08C13F1E
:1016F0004A08BD004908BC005408BF005308BE009A
:101700008831C9208A3121003D08CA003C08C9003F
:101710004F2C57088400580885001200753A031DA5
:10172000922B932BC82B4C0886004D08870001088C
:101730008400850102308107003FD300013FD400BF
:101740005708013ECE000030583DCF004B088600C0
:1017500087014E08C03F4F08C13FBF2B4A08BD005C
:101760004908BC005408BF005308BE0093315423FD
:101770008A3121003D08CA003C08C9004F2C570897
:101780008400580885000008753A0319AE2BC82B51
:10179000570884005808850012006E3A031DD12BAB
:1017A000D22BF92B4C0886004D08870001088400D5
:1017B000850102308107003FCE00013FCF004E0877
:1017C00086004F08870022004B08C03F4C08C13FED
:1017D00021005708013ECE000030583DCF004B0895
:1017E000860087014E08C03F4F08C13FC901CA01AA
:1017F0004F2C4B0886008701403FCE00413FCF0071
:101800004E0884004F0885001200253A031D092C5C
:101810000A2C232C4B0886008701013081074131B7
:101820000318810A2530A3000030A4004A08A6004E
:101830004908A5009131A8218A3101302100C90051
:101840000030CA004F2C4B08860087010130810709
:1018500041310318810AF62B4B0886008701403F6F
:10186000CE00413FCF004E0884004F08850000089D
:10187000D000D1015008A3005108A4004A08A600D6
:101880004908A5009131A8218A3121004B08860022
:1018900087010130810741310318810A1D2C08009E
:1018A000210027088039B1002735B800A61F592C20
:1018B0005A2C5B2C3814380803195F2C602C702CC0
:1018C000380A031D642C652C6D2C0030A7000030F5
:1018D000A6000030A5000030A400A617A701782CB0
:1018E0000030A7000030A6000030A5000030A400A2
:1018F00023088039B1062335B900A21F802C812C22
:10190000822C391439080319862C872C972C390A14
:10191000031D8B2C8C2C942C0030A3000030A200D3
:101920000030A1000030A000A217A3019F2C0030BE
:10193000A3000030A2000030A1000030A000230866
:10194000220421042004031DA62CA72CBE2C003049
:10195000A7000030A6000030A5000030A4008030B1
:10196000A6047F30A7043108A7042708A30026088F
:10197000A2002508A1002408A000F32D3808031DAB
:10198000C22CC32CCC2C0030A3000030A2000030AD
:10199000A1000030A000F32D3808A800A9012908F3
:1019A000AB0039082802AA00031CAB032A087F3EBB
:1019B000B20000302B3DB3002708B0002608AF006E
:1019C0002508AE002408AD000030A7000030A600B6
:1019D0000030A5000030A4000030B7000030B60091
:1019E0000030B5000030B400B901322D39080319B8
:1019F000FA2CFB2C152D0130AD35AE0DAF0DB00D11
:101A0000890BFC2C0130A435A50DA60DA70D890B63
:101A1000032DB71F0C2D0D2D0E2D24140130B435C0
:101A2000B50DB60DB70D890B0F2D23083002031D20
:101A3000232D22082F02031D232D21082E02031D12
:101A4000232D20082D02031C262D272D302D37177E
:101A50002008AD022108AE3B2208AF3B2308B03B73
:101A60000130B9071A303902031C372D382DF62CF6
:101A700030082F042E042D0403193F2D402D592D1D
:101A80003414592D0130A435A50DA60DA70D890BD1
:101A9000432DB71F4C2D4D2D4E2D24140130B43540
:101AA000B50DB60DB70D890B4F2DFF30B207FF30C6
:101AB000B33DA61F5C2D5D2D422DB901B71F612DD1
:101AC000622D7E2DFF303405A800FF303505A900BA
:101AD000FF303605AA007F303705AB002B082A04FB
:101AE000290428040319752D762D792D0130B900AC
:101AF0007E2D241C7C2D7D2D7E2D762D39080319FD
:101B0000822D832DA92D0130A4070030A53DA63DCF
:101B1000A73D271C8C2D8D2DA92D2408A800250854
:101B2000A9002608AA002708AB000130AC00AB379B
:101B3000AA0CA90CA80CAC0B972D2B08A7002A08FF
:101B4000A6002908A5002808A4000130B20700302B
:101B5000B33D3308803AA80080302802031DB22D1F
:101B6000FF303202031CB52DB62DC32DFF302100EE
:101B7000B2000030B3000030A7000030A6000030F3
:101B8000A5000030A40021003308803AA80080306E
:101B90002802031DCD2D013032020318D02DD12D86
:101BA000DD2D2100B201B3010030A7000030A600F6
:101BB0000030A5000030A400B10121003208B800B7
:101BC000381CE32DE42DE62DA617E82D7F30A60561
:101BD0003808A8000130A836890BEB2D2808A7008B
:101BE0003108A704B52C080020003D088039CA0040
:101BF0003D35CC00BC1FFD2DFE2DFF2D4C144C0897
:101C00000319032E042E142E4C0A031D082E092E30
:101C1000112E0030BD000030BC000030BB00003091
:101C2000BA00BC17BD011C2E0030BD000030BC0046
:101C30000030BB000030BA0041088039CB004B08AF
:101C40004A060319242E252E262E4A174135CB008D
:101C5000C01F2B2E2C2E2D2E4B144B080319312E6A
:101C6000322E422E4B0A031D362E372E3F2E0030C9
:101C7000C1000030C0000030BF000030BE00C017FF
:101C8000C1014A2E0030C1000030C0000030BF004A
:101C90000030BE004C084B0203184F2E502E742EFD
:101CA0004A1F532E542E562E8030CA064C08CD00A3
:101CB0004B08CC004D08CB003A08CD003E08BA00D6
:101CC0004D08BE003B08CD003F08BB004D08BF00DB
:101CD0003C08CD004008BC004D08C0003D08CD00C8
:101CE0004108BD004D08C100CD014B08C200C30131
:101CF0004308C5004C084202C400031CC503450844
:101D0000803AC60080304602031D882E1A304402F5
:101D1000031C8B2E8C2EC22E20003D083C043B045D
:101D20003A04031D942E962E0130972E0030CD00DC
:101D30000030BD000030BC000030BB000030BA00F5
:101D40004B08CC00C92E4D1CA62EA72EB12E4D0837
:101D5000C2000130C236890BAA2E42080138CD00DC
:101D6000B32E0310CD0C3A1CB62EB72EB82ECD17BD
:101D70000130C200BD37BC0CBB0CBA0CC20BBA2E72
:101D80000130CC0720004B084C02031CC82EC92E82
:101D9000A32E4A1BCC2ECD2E072F4C08031DD12E6F
:101DA000D22EDB2E0030BD000030BC000030BB0066
:101DB0000030BA00FF2F3E08BA073F08BB3D40087D
:101DC000BC3D4108BD3D3D1CE62EE72E912F4D1C2C
:101DD000EA2EEB2EF52E4D08C2000130C236890BDB
:101DE000EE2E42080138CD00F72E0310CD0C3A1C20
:101DF000FA2EFB2EFC2ECD170130C200BD37BC0CD5
:101E0000BB0CBA0CC20BFE2E0130CC07912F3D0843
:101E1000803AC2004108803A4202031D192F40084F
:101E20003C02031D192F3F083B02031D192F3E08DA
:101E30003A0203181C2F1D2F522FFF30C200FF3013
:101E4000C300FF30C400FF30C5003A083E02C600A0
:101E50003B083F3BC7003C08403BC8003D08413BB6
:101E6000C9004608C2074708C33D4808C43D4908A1
:101E7000C53D4508BD004408BC004308BB004208FE
:101E8000BA008030CA064D03FF3ACD004D08031D4D
:101E90004A2F4B2F5A2F0130BA070030BB3DBC3DB3
:101EA000BD3D5A2F3E08BA023F08BB3B4008BC3B31
:101EB0004108BD3B3D083C043B043A04031D612F2F
:101EC000622F8D2F4D08031D662F672F8D2F003039
:101ED000BD000030BC000030BB000030BA00FF2F56
:101EE0000130BA35BB0DBC0DBD0D890B712FCD1F57
:101EF0007A2F7B2F7C2F3A144D1C7F2F802F842F1D
:101F000003144D0DCD00862F0310CD0D4C08031981
:101F10008A2F8B2F8D2F0130CC02BC1F902F912F39
:101F2000702FCB01CD1F952F962FA42F4D087F39F1
:101F300003199B2F9C2F9F2F0130CB00A42F3A1CFD
:101F4000A22FA32FA42F9C2F4B080319A82FA92F32
:101F5000D22F0130BA070030BB3DBC3DBD3D3D1C1A
:101F6000B22FB32FD22F3A08C2003B08C3003C085F
:101F7000C4003D08C5000130C600C537C40CC30C01
:101F8000C20CC60BBD2F4508BD004408BC00430869
:101F9000BB004208BA004C0A0319CF2FD02FD22F12
:101FA0000130CC074C0A0319D62FD72FDC2F4C0851
:101FB000031DDB2FDC2FEA2F0030BD000030BC00FA
:101FC0000030BB000030BA004C08031DE82FE92F99
:101FD000EA2FCA014C1CED2FEE2FF02FBC17F22F69
:101FE0007F30BC054C08C2000130C236890BF52F8A
:101FF0004208BD00CA1FFD2FFE2FFF2FBD1708008E
:102000002100A401A501200821040319082809289A
:1020100036280130A60013280130A035A10D890B08
:102020000D280130A607A11F162817280C280130FB
:10203000A435A50D890B182821082302031D222889
:1020400020082202031C252826282B282008A2026B
:102050002108A33B24140130A136A00C890B2C28A5
:102060000130A602031D3528362817282508A100AF
:102070002408A00008009A3187229031003A031DFD
:10208000422843284D2820006608C03E86000130C3
:10209000870081016608C03E932813302000660245
:1020A000031C532854286E2858289C31F42490315E
:1020B0009A3187229031003A031D5F286028552805
:1020C00065302100E2009830E3009C31012490311A
:1020D0002000E6012300C001C03093289C31F42485
:1020E00090312100EB0020006608C03E86000130E0
:1020F000870021006B08810020006608C03E860032
:10210000013087000A300106031D8728882890289F
:102110006608C13E8600013087008101E6016C2817
:102120000130E6073B280800C0302100B100AF3085
:10213000B0009B30AF003430AE003D30CD008B306E
:10214000CC007A30CB008B30CA006E08A0006F083C
:10215000A100A201A30100309631B22690312100E6
:102160002308D1002208D0002108CF002008CE008B
:1021700080319220903121004D08B5004C08B40008
:102180004B08B3004A08B200853108259031210080
:1021900031082200A300210030082200A200210003
:1021A0002F082200A10021002E082200A0002308F1
:1021B0002100E700220022082100E6002200210879
:1021C0002100E500220020082100E4009231752260
:1021D000903121006508EF006408EE00080021003E
:1021E000A501A11FF428F528FC28A009A109A00A2F
:1021F0000319A10A0130A500A31FFF280029072900
:10220000A209A309A20A0319A30A0130A506A6017F
:10221000A7012008210403190E290F293C290130A8
:10222000A40019290130A035A10D890B1329013013
:10223000A407A11F1C291D2912290130A635A70DAD
:10224000890B1E2921082302031D282920082202A8
:10225000031C2B292C2931292008A2022108A33B89
:1022600026140130A136A00C890B32290130A402BA
:10227000031D3B293C291D29250803194029412913
:102280004629A609A709A60A0319A70A2708A10033
:102290002608A00008002100AD01AE012608860036
:1022A0008701403FA900413FAA00290884002A086D
:1022B000850012002A3A031D5E295F298F2926080E
:1022C000860087010130810741310318810A270800
:1022D00086002808870001088400850102308107F4
:1022E000003FAD00013FAE00A3292E08A1002D083C
:1022F000A0000A30A2000030A3009C31B424913128
:1023000021002C082007AD000030213DAE0026083A
:10231000860087010130810741310318810A2608B0
:1023200086008701403FA900413FAA002908840098
:102330002A0885000008D03EAC000A302C02031C9D
:10234000A229A32975292E08A7002D08A600080098
:102350002100250826040319AE29AF29B52925082F
:102360002604031DB429B529BA2923089B31DE238D
:102370009131052A25088600260887004931160074
:1023800001040319C429C529E52925088600260862
:1023900087004931403FA700413FA800250886003B
:1023A000260887004231403FA900413FAA002A0881
:1023B000803AAB002808803A2B02031DE129270848
:1023C00029020318E429E529052A210025088600A9
:1023D0002608870042312508840026088500003F32
:1023E000A700013FA800403F27078400413F283D48
:1023F00085002308800025088600260887004231D2
:102400000130810741310318810A080003102000C0
:102410003C0D3D0DC3004308031D0F2A102A192A45
:102420000030BD000030BC000030BB000030BA00FE
:10243000742A3A08BE003B08BF003C08C0003D08B3
:10244000C1001F30C136C00CBF0CBE0C890B222A44
:102450003E08C200BC17FF30BA05FF30BB05FF3095
:10246000BC050030BD059630C302C31F382A392A87
:102470004F2A4308803A973E03183F2A402A412AB0
:10248000102A0130BD36BC0CBB0CBA0C890B422A99
:102490000130C307031D4D2A4E2A412A642A2030E9
:1024A0004302031C542A552A5F2A102A0130BA35E8
:1024B000BB0DBC0DBD0D890B572A0130C30243086B
:1024C000031D632A642A562A42080319682A692AC6
:1024D000742ABA09BB09BC09BD09BA0A0319BB0AA7
:1024E0000319BC0A0319BD0A080003102100660D78
:1024F000670DED006D08031D7E2A7F2A882A0030B3
:10250000E7000030E6000030E5000030E400E32A98
:102510006408E8006508E9006608EA006708EB005F
:102520001F30EB36EA0CE90CE80C890B912A68089D
:10253000EC00E617FF30E405FF30E505FF30E60567
:102540000030E7059630ED02ED1FA72AA82ABE2A23
:102550006D08803A973E0318AE2AAF2AB02A7F2A28
:102560000130E736E60CE50CE40C890BB12A0130AA
:10257000ED07031DBC2ABD2AB02AD32A20306D02E4
:10258000031CC32AC42ACE2A7F2A0130E435E50D74
:10259000E60DE70D890BC62A0130ED026D08031D1B
:1025A000D22AD32AC52A6C080319D72AD82AE32AA3
:1025B000E409E509E609E709E40A0319E50A03194C
:1025C000E60A0319E70A08002400951AE82AE92A0E
:1025D000532B21002608A700A8012708A0002808DF
:1025E000A1000530A2000030A3009C31B424923138
:1025F00008302100200784001930213D80388500F3
:1026000000082400940021002608A700A80127083C
:10261000A0002808A1000530A2000030A3009C31D2
:10262000B424923109302100200784001930213D63
:102630008038850000082400950021002608A700A6
:10264000A8012708A0002808A1000530A20000303A
:10265000A3009C31B42492310A3021002007840069
:102660001930213D803885000008240097002100A2
:102670002608A700A8012708A0002808A100053007
:10268000A2000030A3009C31B42492310B30210011
:10269000200784001930213D80388500000824007F
:1026A00092009516532B080001302100C100200034
:1026B0005B082100C30020005A082100C2001F301F
:1026C000C4000030C5002400BF01942BFF3021005E
:1026D000C407FF30C53D4408203E86000230870015
:1026E0000A30A0000030A1003F08A3003E08A2006D
:1026F0009E311A26933121002008303E8100C1010D
:10270000FF30C207FF30C33D0A30A0000030A100F7
:102710003F08A3003E08A200903100209331210021
:102720002108BF002008BE00210044084504031909
:102730009A2B9B2BB82B3E083F04031DA02BA12BEB
:10274000662B4108031DA52BA62B662B4308803A58
:10275000C00080304002031DAF2B01304202031C39
:10276000B22BB32BB82B2000E418B72BB82B662B59
:1027700021003D08B5003C08B4004408203EB600E6
:102780004308B8004208B7009F31AB2793312100BE
:102790003508BD003408BC0008002100AB01AC01C5
:1027A000AA01D42B0130A607260886000130870035
:1027B000203001060319DD2BDE2BD22B26088600E4
:1027C00001308700F7300107A80005302802031CFC
:1027D000EA2BEB2BD22B26088600013087002D3008
:1027E0000106031DF42BF52BFA2B0130AA00013052
:1027F000A607232C26088600013087002B3001060F
:10280000031D032C042C232CF72B260886000130F3
:1028100087002C08A1002B08A0000A30A20000307D
:10282000A3009C31B424933121002108A9000108A0
:102830002002A800031CA9032808303EAB0000308A
:10284000293DAC00F72B2608860001308700D030E8
:102850000107A8000A302802031C2F2C302C052C5D
:102860002A08031D342C352C412C2B09A8002C09D7
:10287000A900A80A0319A90A2808A6002908A70080
:10288000452C2C08A7002B08A600080022002308CE
:102890002100E700220022082100E6002200210892
:1028A0002100E500220020082100E4009231752279
:1028B0009431210064082200A60023082100C900E9
:1028C000220022082100C800220021082100C700A0
:1028D000220020082100C600220026082100EE0068
:1028E000EF01EE1BEF036E08A0006F08A100890D39
:1028F000893B8909A200A30001309631B2269431A8
:1029000021002308C5002208C4002108C3002008B4
:10291000C2009C31D424943121004508D1004408E0
:10292000D0004308CF004208CE004430CD007A30BA
:10293000CC000030CB000030CA00803192209431AE
:1029400021004D08E7004C08E6004B08E5004A0866
:10295000E400923175229431210065082200A5001F
:10296000210064082200A40012302100E200993006
:10297000E300220026082100E400E501E41BE50352
:10298000220025082100E700220024082100E6009B
:102990009C310124943108009A314822943121005D
:1029A0002108EF002008EE0090319420943121009E
:1029B0006F082200A90021006E082200A800A91FAC
:1029C000E22CE32CE62CA801A901F82C2908803A76
:1029D000A40080302402031DEF2C3C302802031C8D
:1029E000F22CF32CF82C3B302200A8000030A90078
:1029F0009A315122943121002108EF002008EE0085
:102A000090319420943121006F082200A70021000A
:102A10006E082200A600A71F0E2D0F2D112DA60156
:102A2000A7018731EB2794312200AA012708290644
:102A3000031D1C2D26082806031D1F2D202D232DC8
:102A400001302000E50022002A08A400A501290881
:102A50002506031D2D2D28082406031D302D312D9C
:102A60003F2D44302100A1004430A2000530A300D6
:102A700044309C31992494312000E501602D2A08CE
:102A8000A400A50127082506031D482D26082406B5
:102A9000031D4B2D4C2D562D2100A101A201053007
:102AA000A300FF309C31992494313C2D2100A101D9
:102AB000A2010530A30000309C31992494313C2DB3
:102AC00001302200AA073B302A02031C682D692D21
:102AD000162D9C318024943108009D3114259531A8
:102AE0008B170B179B311423953182302100A000E6
:102AF0000930A1009A313F2295319B312123953134
:102B00002200C20187311427953120006708031D78
:102B10008A2D8B2DB62D9A316C22953101302100F2
:102B20002102C23003192002031C972D982DAE2DCF
:102B30003230A0000030A1009C3168249531013072
:102B40002000E70001302200C207D0302200AC0094
:102B5000C930890BA92DAC0BA92D00320030210002
:102B6000A000A1009C3168249531C52D9A316C22BA
:102B700095310130210021025F3003192002031832
:102B8000C22DC32DC52D2000E7010B302200AC0063
:102B90006230890BC92DAC0BC92D00009731572726
:102BA000953122004208AC00AD012C082100A000A4
:102BB00022002D082100A1003230A2000030A30025
:102BC0009C31B4249531210020082D3EAD00003009
:102BD000213DAE009A31902295312E302100E20045
:102BE000BD30E3009830E40022004208AC00AD01A3
:102BF0002C082100E50022002D082100E6009D316F
:102C0000A12595312E302100E9009A317E2295319F
:102C10009C3113249531822D80315828F800780892
:102C20000319132E142E282EF31F172E182E282EBC
:102C30007009FA007109FB007209FC007309FD00BC
:102C4000FA0A0319FB0A0319FC0A0319FD0A302EBC
:102C50007308FD007208FC007108FB007008FA00A0
:102C60007308720471047004031D372E382E412E30
:102C70000030F3000030F2000030F1000030F000CE
:102C8000B12E9630F9004D2E0130F9070130FD3696
:102C9000FC0CFB0CFA0C890B472EFE307D05031D46
:102CA000522E532E442E632E0130F9070130FA07BD
:102CB0000030FB3DFC3DFD3D0130FD36FC0CFB0CC6
:102CC000FA0C890B5D2EFF307D05031D682E692EE1
:102CD000542E732E0130F9020130FA35FB0DFC0D34
:102CE000FD0D890B6D2EFC1B762E772E7D2E02306E
:102CF000790203187C2E7D2E6A2E7918802E812E63
:102D0000892EFF30FA05FF30FB057F30FC05FF30D0
:102D1000FD050310F90C7908F400F501F601F7013F
:102D20001830F435F50DF60DF70D890B912E74085A
:102D3000FA047508FB047608FC047708FD0478089B
:102D40000319A32EA42EA92EF31FA72EA82EA92E59
:102D5000FD177D08F3007C08F2007B08F1007A087B
:102D6000F00008002100A80028080319B82EB92E89
:102D7000CD2EA31FBC2EBD2ECD2E2009AA002109C9
:102D8000AB002209AC002309AD00AA0A0319AB0A63
:102D90000319AC0A0319AD0AD52E2308AD00220889
:102DA000AC002108AB002008AA002308220421045B
:102DB0002004031DDC2EDD2EE62E0030A3000030A3
:102DC000A2000030A1000030A000562F9630A900CC
:102DD000F22E0130A9070130AD36AC0CAB0CAA0CB9
:102DE000890BEC2EFE302D05031DF72EF82EE92E53
:102DF000082F0130A9070130AA070030AB3DAC3DD8
:102E0000AD3D0130AD36AC0CAB0CAA0C890B022FDA
:102E1000FF302D05031D0D2F0E2FF92E182F013019
:102E2000A9020130AA35AB0DAC0DAD0D890B122FE7
:102E3000AC1B1B2F1C2F222F023029020318212F1D
:102E4000222F0F2F2918252F262F2E2FFF30AA05CE
:102E5000FF30AB057F30AC05FF30AD050310A90C8A
:102E60002908A400A501A601A7011830A435A50DC5
:102E7000A60DA70D890B362F2408AA042508AB043C
:102E80002608AC042708AD0428080319482F492F49
:102E90004E2FA31F4C2F4D2F4E2FAD172D08A300E3
:102EA0002C08A2002B08A1002A08A000080020007E
:102EB0006E0803195C2F5D2FFF2FF2302100E20016
:102EC0009830E3009A314822973121002108E5002B
:102ED0002008E4009C3101249731AE302100E2004B
:102EE0009830E3009A315122973121002108E50002
:102EF0002008E4009C31012497318E302100E2004B
:102F00009830E3009A316322973121002108E500CF
:102F10002008E4009C310124973128302100E20090
:102F20009930E3009C31012497319B31CD239731B7
:102F3000210023082200A300210022082200A20071
:102F4000210021082200A100210020082200A00069
:102F500094314624973121302100E2009930E3007A
:102F60009C31012497319B31BC23973121002308E8
:102F70002200A300210022082200A2002100210833
:102F80002200A100210020082200A0009431462444
:102F900097311A302100E2009930E3009C3101247E
:102FA00097319B31AB239731210023082200A300E6
:102FB000210022082200A200210021082200A100F5
:102FC000210020082200A000943146249731FD30D2
:102FD0002100E2009830E3009A316C229731210001
:102FE0002108E5002008E4009C3101249731AB3032
:102FF0002100E2009830E3009C3101249731080061
:103000004D341E3400340034F4341C34C7341D34C1
:1030100087341A3475341A340034003400340034E0
:103020000034003400340034003400340034003400
:1030300000340034003400340034003400340034F0
:1030400000340034003400340034003400340034E0
:103050005C341B346B341B340034003400340034D3
:1030600099341A3400340034E43412340034003417
:1030700000340034003400340034003407341B348E
:1030800000340034003400340034003400340034A0
:1030900000340034003400346334683461346E34F6
:1030A0006734653464342034733465347434703474
:1030B0006F3469346E347434203474346F34203493
:1030C000253475340D340A34003469346E34703468
:1030D000753474342034623475346634663465343F
:1030E000723420346F3476346534723466346C3420
:1030F0006F3477340D340A34003455346E346B3405
:103100006F3477346E34203463346F346D346D34FF
:1031100061346E3464340D340A3400342C34203479
:1031200064347534743479342034633479346334DA
:103130006C3465343A3420342534753400346C34BE
:103140006F3467347334203474346F3467346734C5
:103150006C34653464340D340A3400342C34203437
:1031600073346534743470346F3469346E34743449
:103170003A34203425347534003463346F34753474
:103180006E347434653472343A34203425347534F2
:103190000A340D3400346334683461346E34673477
:1031A0006534643420346B3464340D340A340034B0
:1031B0006334683461346E34673465346434203485
:1031C0006B3469340D340A34003463346834613448
:1031D0006E3467346534643420346B3470340D34A9
:1031E0000A34003468346F346F34673474346534AF
:1031F0003A3420342534753400342C34203470347F
:103200006F346D3470343A342034253475340034DE
:1032100040340A3410340734003464340034103439
:1032200001340034253469342E34253430343334B9
:10323000753400342C3420346B3464343A34203404
:1032400000342C3420346B3469343A342034003464
:0E3250002C3420346B3470343A342034003483
:1034020008000800080023001D121D160800943150
:10341200CC249A31080021001C08F1001B08F0009E
:10342200080020005F08F1005E08F0000800640058
:1034320080010131890B192A0034FE0012001E009E
:10344200FE0B1F2A0034210021082200EE00210079
:1034520020082200ED000800320099019B019D0125
:1034620006309F009E019C010800210021082000D7
:10347200E300210020082000E200080021002108CA
:103482002200EA00210020082200E90008002000B2
:103492005F082100A10020005E082100A0000800B2
:1034A200220068082100A100220067082100A00074
:1034B2000800210021082300D50021002008230054
:1034C200D400080020005D082100A10020005C0853
:1034D2002100A0000800220054082100A1002200BF
:1034E20053082100A000080020006B08031D7A2A5F
:1034F2007C2A01307D2A0030080021006908E200A0
:103502000130E3009C3101249A3108002000680850
:10351200031D8C2A8E2A01308F2A003008002100D8
:103522002E082200E80021002D082200E7000800F2
:10353200210091112000911124009401950197011D
:103542009201080022002308C6002208C5002108B3
:10355200C4002008C300080022002308E200220859
:10356200E1002108E0002008DF0008002200230813
:10357200E6002208E5002108E4002008E300080034
:1035820000340034903440346634663466343F3458
:1035920032340034F1007108F000F00DF00D21001A
:1035A2001D087006033970069D00080020001010E7
:1035B2000B1400302100A0000030A1009A31362205
:1035C2009A31080080302C009C007C309B00C03077
:1035D2009A001F08F33904389F00080080302C003D
:1035E20099007C309800C03097001F08FC390138E0
:1035F2009F0008002100A1002108A000A00DA00D3D
:103602001D082006033920069D000800210020081D
:10361200240091002000911D0F2B102B0B2B9111D8
:1036220024001108080010309A31FB229B318330AC
:103632002100A0001E30A1009A3124229B310800F3
:103642002100A6019231E4229B3108302100A00022
:103652001A30A1009A315A229B310800200011131E
:1036620022006D086E040319372B382B3D2B6E0890
:103672008A006D080A009B31080022006B086C0466
:103682000319442B452B4A2B6C088A006B080A004D
:103692009B31200091100800220069086A04031976
:1036A200532B542B592B6A088A0069080A009B3154
:1036B2002000921008002100200821040319622B27
:1036C200632B6A2B21082000E10021002008200042
:1036D200E00008002100200821040319712B722B3D
:1036E200792B21082200D800210020082200D700CF
:1036F20008000E3028009D009C0101302300D400F8
:103702000830D500200092131D3028009E000800CA
:10371200F93020009E009D0103302200EB001A3098
:10372200EC0020009110210091141E3020009F0017
:103732000800F93028009600950100302200E900C7
:103742000830EA00200092102100921477302800FD
:1037520097000800220046082100A3002200450825
:103762002100A200220044082100A10022004308F7
:103772002100A0000800220062082100A30022000C
:1037820061082100A200220060082100A10022009D
:103792005F082100A0000800220066082100A300A3
:1037A200220065082100A200220064082100A10075
:1037B200220063082100A00008002100A2009A3123
:1037C20075229B31003A0319E72BE82BE02B2100ED
:1037D2002208A0009D31C7259B3108002100A71BAC
:1037E200F32BF42BF52B002C2609A8002709A9009E
:1037F200A80A0319A90A2808A6002908A700080090
:10380200E4302100E8000030D900DA006308DC006F
:103812006208DB00E830DD000030DE009D31EF257C
:103822009C3108002000921F172C182C262C2300F4
:103832005408550403191E2C1F2C242C55088A00E9
:1038420054080A009C312000921308007108F3000A
:103852007008F200F336F20CF336F20C72082C0008
:10386200980070080339F2000630F235890B362CC5
:10387200720897000800A03021009E009B019C0165
:1038820005309F0001309D002000111301302100FE
:10389200A0001A30A1009A3124229C312100111774
:1038A200080021002008A200582C0130A00720089F
:1038B2008600023087000108031D602C612C562C03
:1038C20022082002A000A101A01BA10308002100E0
:1038D2002108A3002008A200A336A20CA336A20C42
:1038E20022082C009B00210020080339A200063088
:1038F200A235890B792C22082C009A000800FF308F
:103902002100A0009B3107239C31FF302100A00041
:103912009B3107239C31FF302100A0009B310723FC
:103922009C31FF302100A0009B3107239C3108000D
:103932002100A4002308E038A0009B3107239C311A
:1039420021002208A0009B3107239C31210021087D
:10395200A0009B3107239C3121002408A0009B3149
:1039620007239C3108002100A401A501201CBA2CC8
:10397200BB2CBF2C2208A4072308A53D0130A23589
:10398200A30D890BC02C0130A136A00C890BC52CCC
:1039920020082104031DCE2CCF2CB72C2508A10012
:1039A2002408A000080080302100C5064908B100A3
:1039B2004808B0004708AF004608AE004508B50009
:1039C2004408B4004308B3004208B2008531082518
:1039D2009C3121003108C5003008C4002F08C30003
:1039E2002E08C200080020006908B03E860001309F
:1039F200870001082100A10020006908013E073963
:103A02002100A00020082000E900210091122000DE
:103A1200680803190D2D0E2D102D0130E80221002A
:103A22009116210808009A312D229D319E31C0261F
:103A32009D319B3189239D319B319A239D319B314D
:103A42007A239D319C313C249D319E314D269D31FE
:103A52009A31E3229D319A31EF229D319A31992296
:103A62009D319A31D7229D310800F800F401F50109
:103A72007008F200F3017208F6007308F700781C70
:103A8200432D442D482D7608F4077708F53D013083
:103A9200F635F70D890B492D0310F80C7808031D34
:103AA200532D542D402D7508F1007408F0000800C4
:103AB2002100A800A401A5012008A200A301220858
:103AC200A6002308A700281C672D682D6C2D260848
:103AD200A4072708A53D0130A635A70D890B6D2D3A
:103AE2000310A80C2808031D772D782D642D2508B6
:103AF200A1002408A00008002100B201B301942D06
:103B02003108AF00B0012F08A3003008A4002E082E
:103B1200A6002D08A5009131A8219D310130210078
:103B2200B2070030B33D2C0832078600023087000E
:103B32000108B1003108031D9F2DA02D812D080021
:103B4200E5302200A000210062082200A10001301D
:103B5200A200A301A401AA01AB0121302100D900D6
:103B62000130DA006408DC006308DB002030DD008D
:103B72000130DE009D31EF259D31210062082200D7
:103B82002307860001308700810108002100111AF5
:103B9200CB2DCC2DD02D200823009A00EC2D200017
:103BA2006B080319D52DD62DEC2D6D08B83E860075
:103BB2000130870021002008810020006D08013EAD
:103BC20007392100A10021082000ED002100111277
:103BD20001302000EB0221001116080021005C08D0
:103BE200E1005B08E0002200CB01CC010D2E5A0857
:103BF200CA005908C900E030CB005E08CD005D085C
:103C0200CC008A31DC229D31210049082200CB07F9
:103C120021004A082200CC3D21006008840061088E
:103C220085001200031D162E172EF82DD901DA0178
:103C320008002100200821040319202E212E482EDD
:103C42000130A4002B2E0130A035A10D890B252EA9
:103C52000130A407A11F2E2E2F2E242E210823026D
:103C6200031D352E20082202031C382E392E3D2E2C
:103C72002008A2022108A33B0130A136A00C890B27
:103C82003E2E0130A402031D472E482E2F2E23085C
:103C9200A1002208A0000800210091125830230040
:103CA200D6001F30D7002100111202302300D800A5
:103CB2000830D90048309F0090309D0026309E0089
:103CC20040309B0003309C0002302100A0001A30DB
:103CD200A1009B315C239E3104302100A0001A30E8
:103CE200A1009B316B239E312200DD01DE01200009
:103CF200ED01EC010830EB00EA01E901E8012100E5
:103D020091160800A72E9A310C229E3171082200CA
:103D1200D6007008D50012302000EF00BB2E9A3179
:103D22000C229E3171082000DF007008DE00133083
:103D3200EF00BB2E9A310C229E3171082200D40072
:103D42007008D30010302000EF00BB2E20006F0857
:103D5200F200F3017308003A0319B02EBB2E720869
:103D6200103A0319842E023A0319902E013A0319CC
:103D72009B2EBB2E6F089A31CB229E310800220067
:103D82008C018D018E01193021008C0020308D00B4
:103D92001F308E00103023008C0080308D00BF3029
:103DA2008E0024008C018D018E0125008C018D0175
:103DB2008E01373026008C00F0308D00FF308E00EF
:103DC2003F3027008C00F0308D00FF308E003C0029
:103DD200A1010D30A40019303D009C000230A50065
:103DE2000330A70014309F000E303C00A0001830B2
:103DF2003D009E00270091019201930194019501DB
:103E0200960197019801990108002100A501A31FBD
:103E12000B2F0C2F132FA209A309A20A0319A30A1D
:103E22000130A500A11F162F172F1C2FA009A109D1
:103E3200A00A0319A10A200821040319212F222F05
:103E4200492F0130A4002C2F0130A035A10D890B80
:103E5200262F0130A407A11F2F2F302F252F210835
:103E62002302031D362F20082202031C392F3A2F6A
:103E72003E2F2008A2022108A33B0130A136A00C4C
:103E8200890B3F2F0130A402031D482F492F302FE9
:103E9200250803194D2F4E2F532FA209A309A20A59
:103EA2000319A30A2308A1002208A0000800200089
:103EB2006A35A03E8600013087000030C03FC13F16
:103EC20023009D1C652F662F792F20006A35A03EA6
:103ED2008600013087000115220057085804031993
:103EE200732F742F792F58088A0057080A009F31C0
:103EF20023001D1D7D2F7E2F902F20006A35A03EAE
:103F020086000130870081146008610403198A2F3A
:103F12008B2F902F61088A0060080A009F312300CE
:103F22001908F00020006A08013E0739F100710803
:103F32006906031D9D2F9E2F9F2FAA2F6A08B03E50
:103F4200860001308700700881007108EA000130A4
:103F5200E80708002000641CAF2FB02FBA2F210001
:103F62003608AC003508AE003408AD009D317D2521
:103F72009F312100B81FBE2FBF2FC12FB701B8013B
:103F8200BA01BB01D52F20302100A3000030A400CC
:103F92003508A6003408A5009131A8219F310130CF
:103FA2002100BA070030BB3D3B08803AB90038080F
:103FB200803A3902031DDF2F37083A02031CE22F31
:103FC200E32FC42F20006418E72FE82FF22F2100DF
:103FD2003608AC003508AE003408AD009D317D25B1
:103FE2009F3121003608A0009C3152249F312100CC
:0E3FF20037082007B4003808213DB50008004C
:020000040001F9
:08000E008C3FF33FFF3FFF3F71
:00000001FF
