:1000000080315828323400347E1480310B1F092887
:100010000A2856282100111E0E280F281B28200010
:10002000111E132814281B2822005D088A005C0872
:100030000A00803156282100911E1F2820282C28D4
:100040002000911E242825282C2822005B088A00E5
:100050005A080A00803156282100921C3028312885
:100060003A282000921C352836283A289E315726F7
:10007000803156282100911C3E283F284828200026
:10008000911C4328442848289E3148268031562810
:100090002100111F4C284D2856282000111F5128DF
:1000A000522856289E313926803156287E10090064
:1000B00080315A288731FD278031ED008731FE27B6
:1000C0008031EE002100803102208031ED0080314E
:1000D00003208031EE007C3084009D30850060304C
:1000E00086000130870008309D31762580315530FB
:1000F00084000030850018309D317025803120301B
:1001000084000130850034309D3170258031A0306D
:1001100084000130850034309D31702580317E109F
:1001200020009031FD2821002C088039B6002C35A4
:10013000BC00AB1F9C289D289E283C143C0803193A
:10014000A228A328B2283C0A031DA728A828B02863
:100150000030AC000030AB000030AA000030A90035
:10016000AB17BA280030AC000030AB000030AA005A
:100170000030A90030088039B6063035BB00AF1F0B
:10018000C228C328C4283B143B080319C828C9281F
:10019000D8283B0A031DCD28CE28D6280030B00031
:1001A0000030AF000030AE000030AD00AF17E028E7
:1001B0000030B0000030AF000030AE000030AD00C5
:1001C0003B080319E428E528EA283C08031DE92830
:1001D000EA28F3280030AC000030AB000030AA0061
:1001E0000030A900CD2A2908A0002F0890318720CF
:1001F000803121002108C2002008C1004108B1005F
:10020000B201B301B4013408BA003308B9003208AE
:10021000B8003108B7004208B100B201B301B4011F
:100220003408C0003308BF003208BE003108BD00EA
:100230002A08A0002E089031872080312100210853
:10024000C2002008C1004108B100B201B301B401ED
:100250003108B7073208B83D3308B93D3408BA3D14
:100260004208B100B201B301B4013108BD07320840
:10027000BE3D3308BF3D3408C03D2B08A0002D080B
:1002800090318720803121002108C2002008C10060
:100290004108B100B201B301B4013108B707320817
:1002A000B83D3308B93D3408BA3D4208B100B20147
:1002B000B301B4013108BD073208BE3D3308BF3D6C
:1002C0003408C03D0830B735B80DB90DBA0D890BEB
:1002D00063292A08A0002D08903187208031210051
:1002E0002108C2002008C1004108B7074208B83DF4
:1002F0000030B93DBA3D2908A0002E089031872072
:10030000803121002108C2002008C1004108B70740
:100310004208B83D0030B93DBA3D0830B735B80D98
:10032000B90DBA0D890B8E292908A0002D0890312E
:100330008720803121002108C2002008C100410827
:10034000B7074208B83D0030B93DBA3D2A08A000C1
:100350002F0890318720803121002108C200200819
:10036000C1004108BD074208BE3D0030BF3DC03D51
:100370002B08A0002E089031872080312100210811
:10038000C2002008C1004108BD074208BE3D003040
:10039000BF3DC03D2B08A0002F0890318720803141
:1003A00021002108C2002008C1004108B100420814
:1003B000B200B301B4010830B135B20DB30DB40DC4
:1003C000890BDC293108BD073208BE3D3308BF3D2B
:1003D0003408C03D3708B1003808B2003908B3000E
:1003E0003A08B4001830B436B30CB20CB10C890B17
:1003F000F3293108BD073208BE3D3308BF3D34083C
:10040000C03D0830B735B80DB90DBA0D890B022AB9
:100410003C083B07B100B201B20D3108823EC10079
:10042000FF30323DC2002B2A0130BD35BE0DBF0D5D
:10043000C00D890B152ABA1F1E2A1F2A202A3D1417
:100440000130B735B80DB90DBA0D890B212AFF302F
:10045000C107FF30C23DBF1F2E2A2F2A142ABB011D
:10046000BA1F332A342A502AFF303705B100FF3033
:100470003805B200FF303905B3007F303A05B400CB
:1004800034083304320431040319472A482A4B2A1A
:100490000130BB00502A3D1C4E2A4F2A502A482AC0
:1004A0003B080319542A552A7B2A0130BD07003026
:1004B000BE3DBF3DC03D401C5E2A5F2A7B2A3D08F1
:1004C000B1003E08B2003F08B3004008B40001305C
:1004D000B500B437B30CB20CB10CB50B692A3408B3
:1004E000C0003308BF003208BE003108BD00013033
:1004F000C1070030C23D4208803AB100803031026D
:10050000031D842AFF304102031C872A882A922A6D
:100510007F302100C0008030BF000030BE000030BE
:10052000BD00C32A21004208803AB1008030310268
:10053000031D9C2A0130410203189F2AA02AAB2ADE
:1005400000302100C0000030BF000030BE0000308D
:10055000BD00B601C32A21004108BC00FF30BD0523
:10056000FF30BE057F30BF050030C0053C1CB92AF6
:10057000BA2ABB2ABF173C08B1000130B136890B3B
:10058000BE2A3108C0003608C0044008AC003F084D
:10059000AB003E08AA003D08A9000800200023087F
:1005A0008039AD002335B300A21FD72AD82AD92A13
:1005B000331433080319DD2ADE2AED2A330A031D1A
:1005C000E22AE32AEB2A0030A3000030A200003028
:1005D000A1000030A000A217F52A0030A3000030CF
:1005E000A2000030A1000030A00027088039AD062D
:1005F0002735B200A61FFD2AFE2AFF2A3214320830
:100600000319032B042B132B320A031D082B092B70
:10061000112B0030A7000030A6000030A5000030EC
:10062000A400A6171B2B0030A7000030A600003046
:10063000A5000030A400320803191F2B202B252B06
:100640003308031D242B252B2E2B0030A300003054
:10065000A2000030A1000030A000082D2008F0000A
:10066000260890314020823171082000B9007008BE
:10067000B8003808A800A901AA01AB012B08B100F5
:100680002A08B0002908AF002808AE003908A800E1
:10069000A901AA01AB012B08B7002A08B600290856
:1006A000B5002808B4002108F0002508903140204A
:1006B000823171082000B9007008B8003808A8001D
:1006C000A901AA01AB012808AE072908AF3D2A08F5
:1006D000B03D2B08B13D3908A800A901AA01AB0122
:1006E0002808B4072908B53D2A08B63D2B08B73DB0
:1006F0002208F00024089031402082317108200047
:10070000B9007008B8003808A800A901AA01AB0117
:100710002808AE072908AF3D2A08B03D2B08B13D97
:100720003908A800A901AA01AB012808B4072908C3
:10073000B53D2A08B63D2B08B73D0830AE35AF0DA4
:10074000B00DB10D890B9E2B2108F00024089031CB
:100750004020823171082000B9007008B8003808C4
:10076000AE073908AF3D0030B03DB13D2008F00084
:10077000250890314020823171082000B9007008AE
:10078000B8003808AE073908AF3D0030B03DB13D84
:100790000830AE35AF0DB00DB10D890BC92B200857
:1007A000F000240890314020823171082000B90007
:1007B0007008B8003808AE073908AF3D0030B03DCA
:1007C000B13D2108F00026089031402082317108A7
:1007D0002000B9007008B8003808B4073908B53DE2
:1007E0000030B63DB73D2208F0002508903140208A
:1007F000823171082000B9007008B8003808B407C9
:100800003908B53D0030B63DB73D2208F000260856
:1008100090314020823171082000B9007008B80082
:100820003808A8003908A900AA01AB010830A8358A
:10083000A90DAA0DAB0D890B172C2808B4072908A0
:10084000B53D2A08B63D2B08B73D2E08A8002F0855
:10085000A9003008AA003108AB001830AB36AA0C4A
:10086000A90CA80C890B2E2C2808B4072908B53D23
:100870002A08B63D2B08B73D0830AE35AF0DB00D98
:10088000B10D890B3D2C33083207A800A901A90D31
:100890002808823EB800FF30293DB900662C01309F
:1008A000B435B50DB60DB70D890B502CB11F592CB1
:1008B0005A2C5B2C34140130AE35AF0DB00DB10D98
:1008C000890B5C2CFF30B807FF30B93DB61F692C8F
:1008D0006A2C4F2CB201B11F6E2C6F2C8B2CFF3069
:1008E0002E05A800FF302F05A900FF303005AA0013
:1008F0007F303105AB002B082A0429042804031992
:10090000822C832C862C0130B2008B2C341C892C39
:100910008A2C8B2C832C320803198F2C902CB62C0C
:100920000130B4070030B53DB63DB73D371C992CBA
:100930009A2CB62C3408A8003508A9003608AA005D
:100940003708AB000130AC00AB37AA0CA90CA80CDF
:10095000AC0BA42C2B08B7002A08B6002908B50058
:100960002808B4000130B8070030B93D3908803A92
:10097000A80080302802031DBF2CFF303802031C62
:10098000C22CC32CCD2C7F302000B7008030B600A5
:100990000030B5000030B400FE2C20003908803A49
:1009A000A80080302802031DD72C0130380203181C
:1009B000DA2CDB2CE62C00302000B7000030B6002B
:1009C0000030B5000030B400AD01FE2C2000380826
:1009D000B300FF30B405FF30B5057F30B6050030F9
:1009E000B705331CF42CF52CF62CB6173308A800E9
:1009F0000130A836890BF92C2808B7002D08B70458
:100A00003708A3003608A2003508A1003408A0006A
:100A10000800210031088039BE003135C000B01F08
:100A2000122D132D142D401440080319182D192DC3
:100A3000292D400A031D1D2D1E2D262D0030B1002D
:100A40000030B0000030AF000030AE00B017B10190
:100A5000312D0030B1000030B0000030AF00003068
:100A6000AE0035088039BF003F083E060319392D16
:100A70003A2D3B2D3E173535BF00B41F402D412D7B
:100A8000422D3F143F080319462D472D572D3F0A8D
:100A9000031D4B2D4C2D542D0030B5000030B400FB
:100AA0000030B3000030B200B417B5015F2D003044
:100AB000B5000030B4000030B3000030B200400890
:100AC0003F020318642D652D892D3E1F682D692D69
:100AD0006B2D8030BE064008C1003F08C0004108B1
:100AE000BF002E08C1003208AE004108B2002F0836
:100AF000C1003308AF004108B3003008C10034081A
:100B0000B0004108B4003108C1003508B100410807
:100B1000B500C1013F08B600B7013708B900400869
:100B20003602B800031CB9033908803ABA00803095
:100B30003A02031D9D2D1A303802031CA02DA12D51
:100B4000D72D2100310830042F042E04031DA92DB8
:100B5000AB2D0130AC2D0030C1000030B1000030B1
:100B6000B0000030AF000030AE003F08C000DE2D06
:100B7000411CBB2DBC2DC62D4108B6000130B63638
:100B8000890BBF2D36080138C100C82D0310C10CD8
:100B90002E1CCB2DCC2DCD2DC1170130B600B13779
:100BA000B00CAF0CAE0CB60BCF2D0130C00721003E
:100BB0003F084002031CDD2DDE2DB82D3E1BE12D2C
:100BC000E22D1C2E4008031DE62DE72DF02D0030F0
:100BD000B1000030B0000030AF000030AE00142F84
:100BE0003208AE073308AF3D3408B03D3508B13D9B
:100BF000311CFB2DFC2DA62E411CFF2D002E0A2E94
:100C00004108B6000130B636890B032E360801388C
:100C1000C1000C2E0310C10C2E1C0F2E102E112EF5
:100C2000C1170130B600B137B00CAF0CAE0CB60B2B
:100C3000132E0130C007A62E3108803AB6003508C1
:100C4000803A3602031D2E2E34083002031D2E2E4C
:100C500033082F02031D2E2E32082E020318312EC8
:100C6000322E672EFF30B600FF30B700FF30B800DD
:100C7000FF30B9002E083202BA002F08333BBB0008
:100C80003008343BBC003108353BBD003A08B6079C
:100C90003B08B73D3C08B83D3D08B93D3908B100B7
:100CA0003808B0003708AF003608AE008030BE0606
:100CB0004103FF3AC1004108031D5F2E602E6F2ED5
:100CC0000130AE070030AF3DB03DB13D6F2E320870
:100CD000AE023308AF3B3408B03B3508B13B3108B6
:100CE00030042F042E04031D762E772EA22E4108E9
:100CF000031D7B2E7C2EA22E0030B1000030B000F0
:100D00000030AF000030AE00142F0130AE35AF0D13
:100D1000B00DB10D890B862EC11F8F2E902E912EF6
:100D20002E14411C942E952E992E0314410DC100B2
:100D30009B2E0310C10D400803199F2EA02EA22E3A
:100D40000130C002B01FA52EA62E852EBF01C11FE7
:100D5000AA2EAB2EB92E41087F390319B02EB12E21
:100D6000B42E0130BF00B92E2E1CB72EB82EB92ECE
:100D7000B12E3F080319BD2EBE2EE72E0130AE075F
:100D80000030AF3DB03DB13D311CC72EC82EE72E1F
:100D90002E08B6002F08B7003008B8003108B90097
:100DA0000130BA00B937B80CB70CB60CBA0BD22E5A
:100DB0003908B1003808B0003708AF003608AE0077
:100DC000400A0319E42EE52EE72E0130C007400A41
:100DD0000319EB2EEC2EF12E4008031DF02EF12E00
:100DE000FF2E0030B1000030B0000030AF00003006
:100DF000AE004008031DFD2EFE2EFF2EBE01401C3E
:100E0000022F032F052FB017072F7F30B0054008A2
:100E1000B6000130B636890B0A2F3608B100BE1F66
:100E2000122F132F142FB117080001302100C30017
:100E3000BF1B1B2F1D2F01301E2F0030C6002000AE
:100E400056082100C500200055082100C4004608AE
:100E500003192B2F2C2F402FFF30C407FF30C53D27
:100E60004608031D342F352F3A2F2B30C100003098
:100E7000C2003E2F2D30C1000030C2004108C60024
:100E80001F30C7000030C8002300BF017D2FFF3096
:100E90002100C707FF30C83D4708A03E860001304B
:100EA00087000A30A0000030A1003F08A3003E08E0
:100EB000A2009231A122873121002108A700200839
:100EC000A6009E31F826873121002608303E810099
:100ED000C301FF30C407FF30C53D0A30A000003019
:100EE000A1003F08A3003E08A2009431542487319A
:100EF00021002108BF002008BE0021004808803AD8
:100F0000C00080304002031D872F01304702031CC0
:100F10008A2F8B2FA92F21003E083F04031D912FFC
:100F2000922F472F4308031D962F972F472F4508D1
:100F3000803AC00080304002031DA02F01304402DF
:100F4000031CA32FA42FA92F2000E318A82FA92F3B
:100F5000472F210046080319AE2FAF2FBA2FFF30BD
:100F6000C707FF30C83D4708A03E86000130870014
:100F7000460881003D08B5003C08B4004708A03E83
:100F8000B6004508B8004408B7009231F322873113
:100F900021003508BD003408BC00080020006D08A1
:100FA0000319D32FD42FFC2FCC302100E10098302F
:100FB000E2009D31A825873121002108E4002008A6
:100FC000E3009E3193268731B7302100E10098304D
:100FD000E2009D31B125873121002108E40020087D
:100FE000E3009E31932687319A302100E10098304A
:100FF000E2009E3193268731080001341034080046
:101000000800210091112000911124009401950104
:101010009701920108002100AB01AC01AA0112283E
:101020000130A6072608860001308700203001061F
:1010300003191B281C281028260886000130870069
:10104000F7300107A80005302802031C28282928AA
:10105000102826088600013087002D300106031D68
:101060003228332838280130AA000130A607612829
:1010700026088600013087002B300106031D412819
:1010800042286128352826088600013087002C0870
:10109000A1002B08A0000A30A2000030A3009F315D
:1010A000C027883121002108A90001082002A800DA
:1010B000031CA9032808303EAB000030293DAC00DA
:1010C00035282608860001308700D0300107A800A7
:1010D0000A302802031C6D286E2843282A08031DA5
:1010E000722873287F282B09A8002C09A900A80AB8
:1010F0000319A90A2808A6002908A70083282C0894
:10110000A7002B08A60008002100A8002808031942
:101110008A288B289F28A31F8E288F289F28200984
:10112000AA002109AB002209AC002309AD00AA0ADC
:101130000319AB0A0319AC0A0319AD0AA72823083F
:10114000AD002208AC002108AB002008AA0023084B
:10115000220421042004031DAE28AF28B828003043
:10116000A3000030A2000030A1000030A000282918
:101170009630A900C4280130A9070130AD36AC0C67
:10118000AB0CAA0C890BBE28FE302D05031DC92807
:10119000CA28BB28DA280130A9070130AA07003085
:1011A000AB3DAC3DAD3D0130AD36AC0CAB0CAA0C4B
:1011B000890BD428FF302D05031DDF28E028CB281C
:1011C000EA280130A9020130AA35AB0DAC0DAD0DF6
:1011D000890BE428AC1BED28EE28F4280230290204
:1011E0000318F328F428E1282918F728F8280029FB
:1011F000FF30AA05FF30AB057F30AC05FF30AD05F1
:101200000310A90C2908A400A501A601A701183004
:10121000A435A50DA60DA70D890B08292408AA043D
:101220002508AB042608AC042708AD0428080319D8
:101230001A291B292029A31F1E291F292029AD1780
:101240002D08A3002C08A2002B08A1002A08A0004A
:10125000080000302100CD000030CC000030CB0071
:101260000030CA00C701430886000130870001082A
:10127000CE000130C30730304E02031C4029412903
:1012800090293A304E0203184629472990294130C7
:10129000AC002030AB000030AA000030A9004D089F
:1012A000B0004C08AF004B08AE004A08AD008031DA
:1012B0009320893121002C08CD002B08CC002A086E
:1012C000CB002908CA004E08D03EA000FF3003180A
:1012D0000030A100A201A3010030883184208931AF
:1012E00021002308B1002208B0002108AF00200827
:1012F000AE004D08B5004C08B4004B08B3004A08D6
:10130000B20085310925893121003108CD0030082E
:10131000CC002F08CB002E08CA000130C8073329A3
:101320002C304E060319952996299C292E304E06FD
:10133000031D9B299C29A0290130C700C80133291E
:10134000C901C0294130A3002030A2000030A10013
:101350000030A0004D08A7004C08A6004B08A500CF
:101360004A08A4008C315024893121002308CD0083
:101370002208CC002108CB002008CA000130C90790
:1013800047080319C429C529CB2948084902031C69
:10139000CA29CB29A2294D08C6004C08C5004B0814
:1013A000C4004A08C30008009D31642589317108D2
:1013B0002200CB007008CA004A0821006D022000FC
:1013C000D30022004B0821006E3B2000D4005308BC
:1013D000F0005408F100890D893B8909F200F300FF
:1013E000013097315C27893173082000A70072080B
:1013F000A6007108A5007008A4003B30A3000330CC
:10140000A2001230A1006F30A0008231CE228931BB
:1014100020002308BD002208BC002108BB002008D2
:10142000BA00220043082000C10022004208200028
:10143000C000220041082000BF0022004008200018
:10144000BE008D31F425893120003D082200C30003
:1014500020003C082200C20020003B082200C100FE
:1014600020003A082200C00020005308F000540871
:10147000F100890D893B8909F200F30001309731B1
:101480005C27893173082000A7007208A600710844
:10149000A5007008A400220067082000A300220015
:1014A00066082000A200220065082000A10022009A
:1014B00064082000A0008231CE2289312000230858
:1014C000BD002208BC002108BB002008BA009531ED
:1014D0006A25893120003B08D0003A08CF0022005D
:1014E00063082000A700220062082000A600220056
:1014F00061082000A500220060082000A40022004E
:1015000043082000A300220042082000A20022007D
:1015100041082000A100220040082000A0008231E4
:10152000CE22893120002308BD002208BC002108FA
:10153000BB002008BA0095316A25893120003B089C
:10154000D2003A08D10051084F07D7005208503D49
:10155000D80004305802003003195702031CB12A86
:10156000B22AC52A5408803ACE0080304E02031DAC
:10157000BB2A01305302031CBE2ABF2AC52AFF30F2
:101580002000D7000330D800D62A043020005802AB
:10159000003003195702031CCE2ACF2AD62AD41FA3
:1015A000D22AD32AD62AD701D801D62A5808F10040
:1015B0005708F0009F311E278931080021004B0891
:1015C00086008701403FCE00413FCF004E08840097
:1015D0004F0885001200253A031DEF2AF02A2C2C13
:1015E0004B08860087010130810741310318810AC9
:1015F0002000D501D6010030E300FF302200C600F4
:10160000FF30C7002100D201242B2000E314210069
:101610004B08860087010130810741310318810A98
:10162000242B0130D200242B4B0886008701403F39
:10163000CE00413FCF004E0884004F0885000008CF
:10164000303A0319052B112B52080319282B292B8B
:10165000142B4B08A6004C08A7009431B0248A3103
:10166000210027082000D600210026082000D500F0
:10167000D61F3B2B3C2B422B6314D509D609D50A28
:101680000319D60A21004B0886008701403FD70086
:10169000413FD80057088400580885001200643A7A
:1016A0000319532B542B5E2B5708840058088500D0
:1016B0001200693A031D5D2B5E2B892B4C088600B6
:1016C0004D08870001088400850102308107003F32
:1016D000D300013FD4005708013ECE000030583DF2
:1016E000CF004B08860087014E08C03F4F08C13F1E
:1016F0004A08BD004908BC005408BF005308BE009A
:10170000873115278A3121003D08CA003C08C900ED
:101710004F2C57088400580885001200753A031DA5
:10172000922B932BC82B4C0886004D08870001088C
:101730008400850102308107003FD300013FD400BF
:101740005708013ECE000030583DCF004B088600C0
:1017500087014E08C03F4F08C13FBF2B4A08BD005C
:101760004908BC005408BF005308BE009631492602
:101770008A3121003D08CA003C08C9004F2C570897
:101780008400580885000008753A0319AE2BC82B51
:10179000570884005808850012006E3A031DD12BAB
:1017A000D22BF92B4C0886004D08870001088400D5
:1017B000850102308107003FCE00013FCF004E0877
:1017C00086004F08870022004408C03F4508C13FFB
:1017D00021005708013ECE000030583DCF004B0895
:1017E000860087014E08C03F4F08C13FC901CA01AA
:1017F0004F2C4B0886008701403FCE00413FCF0071
:101800004E0884004F0885001200253A031D092C5C
:101810000A2C232C4B0886008701013081074131B7
:101820000318810A2530A3000030A4004A08A6004E
:101830004908A50095310C258A3101302100C900E5
:101840000030CA004F2C4B08860087010130810709
:1018500041310318810AF62B4B0886008701403F6F
:10186000CE00413FCF004E0884004F08850000089D
:10187000D000D1015008A3005108A4004A08A600D6
:101880004908A50095310C258A3121004B088600B6
:1018900087010130810741310318810A1D2C08009E
:1018A000210027088039B1002735B800A61F592C20
:1018B0005A2C5B2C3814380803195F2C602C702CC0
:1018C000380A031D642C652C6D2C0030A7000030F5
:1018D000A6000030A5000030A400A617A701782CB0
:1018E0000030A7000030A6000030A5000030A400A2
:1018F00023088039B1062335B900A21F802C812C22
:10190000822C391439080319862C872C972C390A14
:10191000031D8B2C8C2C942C0030A3000030A200D3
:101920000030A1000030A000A217A3019F2C0030BE
:10193000A3000030A2000030A1000030A000230866
:10194000220421042004031DA62CA72CBE2C003049
:10195000A7000030A6000030A5000030A4008030B1
:10196000A6047F30A7043108A7042708A30026088F
:10197000A2002508A1002408A000F32D3808031DAB
:10198000C22CC32CCC2C0030A3000030A2000030AD
:10199000A1000030A000F32D3808A800A9012908F3
:1019A000AB0039082802AA00031CAB032A087F3EBB
:1019B000B20000302B3DB3002708B0002608AF006E
:1019C0002508AE002408AD000030A7000030A600B6
:1019D0000030A5000030A4000030B7000030B60091
:1019E0000030B5000030B400B901322D39080319B8
:1019F000FA2CFB2C152D0130AD35AE0DAF0DB00D11
:101A0000890BFC2C0130A435A50DA60DA70D890B63
:101A1000032DB71F0C2D0D2D0E2D24140130B435C0
:101A2000B50DB60DB70D890B0F2D23083002031D20
:101A3000232D22082F02031D232D21082E02031D12
:101A4000232D20082D02031C262D272D302D37177E
:101A50002008AD022108AE3B2208AF3B2308B03B73
:101A60000130B9071A303902031C372D382DF62CF6
:101A700030082F042E042D0403193F2D402D592D1D
:101A80003414592D0130A435A50DA60DA70D890BD1
:101A9000432DB71F4C2D4D2D4E2D24140130B43540
:101AA000B50DB60DB70D890B4F2DFF30B207FF30C6
:101AB000B33DA61F5C2D5D2D422DB901B71F612DD1
:101AC000622D7E2DFF303405A800FF303505A900BA
:101AD000FF303605AA007F303705AB002B082A04FB
:101AE000290428040319752D762D792D0130B900AC
:101AF0007E2D241C7C2D7D2D7E2D762D39080319FD
:101B0000822D832DA92D0130A4070030A53DA63DCF
:101B1000A73D271C8C2D8D2DA92D2408A800250854
:101B2000A9002608AA002708AB000130AC00AB379B
:101B3000AA0CA90CA80CAC0B972D2B08A7002A08FF
:101B4000A6002908A5002808A4000130B20700302B
:101B5000B33D3308803AA80080302802031DB22D1F
:101B6000FF303202031CB52DB62DC32DFF302100EE
:101B7000B2000030B3000030A7000030A6000030F3
:101B8000A5000030A40021003308803AA80080306E
:101B90002802031DCD2D013032020318D02DD12D86
:101BA000DD2D2100B201B3010030A7000030A600F6
:101BB0000030A5000030A400B10121003208B800B7
:101BC000381CE32DE42DE62DA617E82D7F30A60561
:101BD0003808A8000130A836890BEB2D2808A7008B
:101BE0003108A704B52C080020003D088039CA0040
:101BF0003D35CC00BC1FFD2DFE2DFF2D4C144C0897
:101C00000319032E042E142E4C0A031D082E092E30
:101C1000112E0030BD000030BC000030BB00003091
:101C2000BA00BC17BD011C2E0030BD000030BC0046
:101C30000030BB000030BA0041088039CB004B08AF
:101C40004A060319242E252E262E4A174135CB008D
:101C5000C01F2B2E2C2E2D2E4B144B080319312E6A
:101C6000322E422E4B0A031D362E372E3F2E0030C9
:101C7000C1000030C0000030BF000030BE00C017FF
:101C8000C1014A2E0030C1000030C0000030BF004A
:101C90000030BE004C084B0203184F2E502E742EFD
:101CA0004A1F532E542E562E8030CA064C08CD00A3
:101CB0004B08CC004D08CB003A08CD003E08BA00D6
:101CC0004D08BE003B08CD003F08BB004D08BF00DB
:101CD0003C08CD004008BC004D08C0003D08CD00C8
:101CE0004108BD004D08C100CD014B08C200C30131
:101CF0004308C5004C084202C400031CC503450844
:101D0000803AC60080304602031D882E1A304402F5
:101D1000031C8B2E8C2EC22E20003D083C043B045D
:101D20003A04031D942E962E0130972E0030CD00DC
:101D30000030BD000030BC000030BB000030BA00F5
:101D40004B08CC00C92E4D1CA62EA72EB12E4D0837
:101D5000C2000130C236890BAA2E42080138CD00DC
:101D6000B32E0310CD0C3A1CB62EB72EB82ECD17BD
:101D70000130C200BD37BC0CBB0CBA0CC20BBA2E72
:101D80000130CC0720004B084C02031CC82EC92E82
:101D9000A32E4A1BCC2ECD2E072F4C08031DD12E6F
:101DA000D22EDB2E0030BD000030BC000030BB0066
:101DB0000030BA00FF2F3E08BA073F08BB3D40087D
:101DC000BC3D4108BD3D3D1CE62EE72E912F4D1C2C
:101DD000EA2EEB2EF52E4D08C2000130C236890BDB
:101DE000EE2E42080138CD00F72E0310CD0C3A1C20
:101DF000FA2EFB2EFC2ECD170130C200BD37BC0CD5
:101E0000BB0CBA0CC20BFE2E0130CC07912F3D0843
:101E1000803AC2004108803A4202031D192F40084F
:101E20003C02031D192F3F083B02031D192F3E08DA
:101E30003A0203181C2F1D2F522FFF30C200FF3013
:101E4000C300FF30C400FF30C5003A083E02C600A0
:101E50003B083F3BC7003C08403BC8003D08413BB6
:101E6000C9004608C2074708C33D4808C43D4908A1
:101E7000C53D4508BD004408BC004308BB004208FE
:101E8000BA008030CA064D03FF3ACD004D08031D4D
:101E90004A2F4B2F5A2F0130BA070030BB3DBC3DB3
:101EA000BD3D5A2F3E08BA023F08BB3B4008BC3B31
:101EB0004108BD3B3D083C043B043A04031D612F2F
:101EC000622F8D2F4D08031D662F672F8D2F003039
:101ED000BD000030BC000030BB000030BA00FF2F56
:101EE0000130BA35BB0DBC0DBD0D890B712FCD1F57
:101EF0007A2F7B2F7C2F3A144D1C7F2F802F842F1D
:101F000003144D0DCD00862F0310CD0D4C08031981
:101F10008A2F8B2F8D2F0130CC02BC1F902F912F39
:101F2000702FCB01CD1F952F962FA42F4D087F39F1
:101F300003199B2F9C2F9F2F0130CB00A42F3A1CFD
:101F4000A22FA32FA42F9C2F4B080319A82FA92F32
:101F5000D22F0130BA070030BB3DBC3DBD3D3D1C1A
:101F6000B22FB32FD22F3A08C2003B08C3003C085F
:101F7000C4003D08C5000130C600C537C40CC30C01
:101F8000C20CC60BBD2F4508BD004408BC00430869
:101F9000BB004208BA004C0A0319CF2FD02FD22F12
:101FA0000130CC074C0A0319D62FD72FDC2F4C0851
:101FB000031DDB2FDC2FEA2F0030BD000030BC00FA
:101FC0000030BB000030BA004C08031DE82FE92F99
:101FD000EA2FCA014C1CED2FEE2FF02FBC17F22F69
:101FE0007F30BC054C08C2000130C236890BF52F8A
:101FF0004208BD00CA1FFD2FFE2FFF2FBD1708008E
:1020000008000800083020006A0203180828092880
:102010001B286B08383E860001308700010823002A
:102020009A0020006B08013E0739F0007008EB00B1
:102030000130EA071D282100111208009D318D256D
:1020400090319231092290319E31A32690319E31F8
:10205000B42690319E31842690319F3148279031AB
:1020600091315B2190319D31ED2590319D31F925E4
:1020700090318831012090319D31E1259031080067
:10208000F800F401F5017008F200F3017208F6009F
:102090007308F700781C4D284E2852287608F4075C
:1020A0007708F53D0130F635F70D890B53280310FD
:1020B000F80C7808031D5D285E284A287508F10091
:1020C0007408F00008002100B201B3017A28310839
:1020D000AF00B0012F08A3003008A4002E08A6000E
:1020E0002D08A50095310C25903101302100B20753
:1020F0000030B33D2C08320786000130870001080C
:10210000B1003108031D85288628672808002100B2
:10211000A800A401A5012008A200A3012208A6008E
:102120002308A700281C952896289A282608A40783
:102130002708A53D0130A635A70D890B9B28031064
:10214000A80C2808031DA528A62892282508A10068
:102150002408A00008002100111AAF28B028B428D4
:10216000200823009A00D02820006A080319B92803
:10217000BA28D0286C08383E86000130870021003C
:102180002008810020006C08013E07392100A100D1
:1021900021082000EC002100111201302000EA0289
:1021A00021001116080021005C08E0005B08DF0038
:1021B0002200C401C501F0285A08CA005908C90004
:1021C000DF30CB005D08CC00CD018A31DE229031BA
:1021D000210049082200C40721004A082200C53D09
:1021E00021005F088400600885001200031DF928A3
:1021F000FA28DC28D901DA01080090311E2090313C
:102200008B170B179E311E269031D4302100A00071
:102210000930A1009D319F2590319E312B269031B0
:102220009631C22690319331F923903168302100E4
:10223000EC00E430890B1A29EC0B1A2900008731D5
:10224000CE2790319F310A279031102980315828AC
:1022500021002008210403192E292F295629013095
:10226000A40039290130A035A10D890B3329013093
:10227000A407A11F3C293D29322921082302031D5F
:10228000432920082202031C462947294B292008FC
:10229000A2022108A33B0130A136A00C890B4C29D6
:1022A0000130A402031D552956293D292308A10008
:1022B0002208A0000800210091124F302200DA000D
:1022C0001230DB002100111202302200DC0010303D
:1022D000DD00483023009F0090309D0026309E0096
:1022E00040309B0003309C0000302100A0001030E3
:1022F000A1009E316626913156302100A0001D308C
:10230000A1009E31752691312200D201D301200017
:10231000EC01EB010830EA00E901E801E7012100E6
:10232000911608002100A401A50120082104031929
:102330009A299B29C8290130A600A5290130A0357A
:10234000A10D890B9F290130A607A11FA829A92942
:102350009E290130A435A50D890BAA292108230245
:10236000031DB42920082202031CB729B829BD295E
:102370002008A2022108A33B24140130A136A00C9E
:10238000890BBE290130A602031DC729C829A92926
:102390002508A1002408A0000800F0299D315E2531
:1023A000913171082200CD007008CC00123020005D
:1023B000EE00042A9D315E25913171082000DC0079
:1023C0007008DB001330EE00042A9D315E25913148
:1023D00071082000DA007008D9001030EE00042ADD
:1023E00020006E08F200F3017308003A0319F9297E
:1023F000042A7208103A0319CE29023A0319DA297D
:10240000013A0319E529042A6E089D31D525913139
:10241000080022008C018D018E01193021008C00F2
:1024200020308D001F308E00103023008C00803053
:102430008D00BF308E0024008C018D018E0125009F
:102440008C018D018E01373026008C00F0308D001C
:10245000FF308E003F3027008C00F0308D00FF30C1
:102460008E003C00A1010D30A40019303D009C00FD
:102470000230A5000330A70014309F000E303C004E
:10248000A00018303D009E002700910192019301A9
:102490009401950196019701980199010800200087
:1024A0006935203E8600013087000030C03FC13FC3
:1024B00023009D1C5C2A5D2A6F2A20006935203E7E
:1024C00086000130870001155D085E040319692A42
:1024D0006A2A6F2A5E088A005D080A00923123008A
:1024E0001D1D732A742A862A20006935203E860025
:1024F0000130870081145F0860040319802A812A53
:10250000862A60088A005F080A00923123001908B1
:10251000F00020006908013E0739F10071086806E3
:10252000031D932A942A952AA02A6908303E860022
:1025300001308700700881007108E9000130E70769
:1025400008002100A501A31FA62AA72AAE2AA209D6
:10255000A309A20A0319A30A0130A500A11FB12AE9
:10256000B22AB72AA009A109A00A0319A10A2008C2
:1025700021040319BC2ABD2AE42A0130A400C72A79
:102580000130A035A10D890BC12A0130A407A11F7C
:10259000CA2ACB2AC02A21082302031DD12A2008D7
:1025A0002202031CD42AD52AD92A2008A2022108F3
:1025B000A33B0130A136A00C890BDA2A0130A4021A
:1025C000031DE32AE42ACB2A25080319E82AE92A6D
:1025D000EE2AA209A309A20A0319A30A2308A1004B
:1025E0002208A00008002000631CF72AF82A022B0A
:1025F00021003608AC003508AE003408AD0090313B
:10260000632092312100B81F062B072B092BB7013D
:10261000B801BA01BB011D2B20302100A3000030FE
:10262000A4003508A6003408A50095310C25923188
:1026300001302100BA070030BB3D3B08803AB900A9
:102640003808803A3902031D272B37083A02031C49
:102650002A2B2B2B0C2B200063182F2B302B3A2BE3
:1026600021003608AC003508AE003408AD009031CA
:102670006320923121003608A0009F315E279231FD
:10268000210037082007B4003808213DB5000800B4
:102690009D31A825933121002108AC002008AB0012
:1026A0003C30A0000030A1002C08A3002B08A200A1
:1026B00091319221933121002108AA002008A9001C
:1026C0002A08A1002908A0003C30A2000030A30085
:1026D0009F31C027933121002008AB022108AC3B79
:1026E0009F31332793312100AD012D08A700A801A8
:1026F00028082C02031D7E2B27082B02031C812B8C
:10270000822B8B2BA101A2010530A300FF309F314A
:10271000A5279331932BA101A2010530A30000301E
:102720009F31A527933101302100AD073C302D02A8
:10273000031C9B2B9C2B752B9F318C2793310800FE
:102740009D31CC259331003A031DA72BA82BB22B2A
:1027500020006608C03E86000130870081016608BF
:10276000C03EF82B133020006602031CB82BB92B97
:10277000D32BBD2B9F31E02793319D31CC25933155
:10278000003A031DC42BC52BBA2B65302100E10094
:102790009830E2009E31932693312000E601230019
:1027A000C001C030F82B9F31E02793312100EA00AF
:1027B00020006608C03E86000130870021006A08BC
:1027C000810020006608C03E8600013087000A3084
:1027D0000106031DEC2BED2BF52B6608C13E860090
:1027E000013087008101E601D12B0130E607A02BE3
:1027F000080020006408031DFE2BFF2B442C9D3194
:10280000B1259331013021002102C2300319200289
:10281000031C0B2C0C2C3C2C9030A0000130A10090
:102820009F317427933101302000E40001302200F1
:10283000C8070030C93D49082100A100220048080E
:102840002100A0003230A2000030A3009F31C02739
:102850009331210020082D3EAD000030213DAE0017
:102860009D316A259331D0302100AF00C930890BEA
:10287000372CAF0B372C003200302100A000A10014
:102880009F3174279331532C9D31B1259331013001
:10289000210021025F30031920020318502C512C13
:1028A000532C2000E40108002100A501A11F592C90
:1028B0005A2C612CA009A109A00A0319A10A013010
:1028C000A500A31F642C652C6C2CA209A309A20AE5
:1028D0000319A30A0130A506A601A70120082104B7
:1028E0000319732C742CA12C0130A4007E2C013010
:1028F000A035A10D890B782C0130A407A11F812CD4
:10290000822C772C0130A635A70D890B832C21084A
:102910002302031D8D2C20082202031C902C912CD5
:10292000962C2008A2022108A33B26140130A136D0
:10293000A00C890B972C0130A402031DA02CA12C04
:10294000822C25080319A52CA62CAB2CA609A709B7
:10295000A60A0319A70A2708A1002608A000080054
:102960002100AC01AD01260886008701403FA80088
:10297000413FA900280884002908850012002A3A4E
:10298000031DC32CC42CF32C2608860087010130BC
:10299000810741310318810A270886008701010851
:1029A0008400850102308107003FAC00013FAD008B
:1029B000072D2D08A1002C08A0000A30A20000302D
:1029C000A3009F31C027943121002B082007AC00C1
:1029D0000030213DAD0026088600870101308107C7
:1029E00041310318810A260886008701403FA8006C
:1029F000413FA90028088400290885000008D03E2E
:102A0000AB000A302B02031C062D072DD92C2D08F4
:102A1000A7002C08A6000800210025082604031999
:102A2000122D132D192D25082604031D182D192DDF
:102A30001E2D23089E31C5269531692D2508860057
:102A4000260887004931160001040319282D292D75
:102A5000492D25088600260887004931403FA700F8
:102A6000413FA80025088600260887004231403FE4
:102A7000A900413FAA002A08803AAB002808803A02
:102A80002B02031D452D270829020318482D492D27
:102A9000692D210025088600260887004231250877
:102AA000840026088500003FA700013FA800403FA2
:102AB00027078400413F283D850023088000250822
:102AC0008600260887004231013081074131031812
:102AD000810A0800031020003C0D3D0DC30043088F
:102AE000031D732D742D7D2D0030BD000030BC0002
:102AF0000030BB000030BA00D82D3A08BE003B08B9
:102B0000BF003C08C0003D08C1001F30C136C00CEA
:102B1000BF0CBE0C890B862D3E08C200BC17FF30CF
:102B2000BA05FF30BB05FF30BC050030BD0596304F
:102B3000C302C31F9C2D9D2DB32D4308803A973EA1
:102B40000318A32DA42DA52D742D0130BD36BC0C6A
:102B5000BB0CBA0C890BA62D0130C307031DB12D88
:102B6000B22DA52DC82D20304302031CB82DB92D40
:102B7000C32D742D0130BA35BB0DBC0DBD0D890BB5
:102B8000BB2D0130C3024308031DC72DC82DBA2D2C
:102B900042080319CC2DCD2DD82DBA09BB09BC098B
:102BA000BD09BA0A0319BB0A0319BC0A0319BD0AF5
:102BB00008002400951ADD2DDE2D482E2100260860
:102BC000A700A8012708A0002808A1000530A2003E
:102BD0000030A3009F31C0279531C230210020076B
:102BE00084001830213D80388500000824009400BE
:102BF00021002608A700A8012708A0002808A10096
:102C00000530A2000030A3009F31C0279531C330AA
:102C10002100200784001830213D803885000008FD
:102C20002400950021002608A700A8012708A0007D
:102C30002808A1000530A2000030A3009F31C02762
:102C40009531C4302100200784001830213D8038A0
:102C5000850000082400970021002608A700A8018D
:102C60002708A0002808A1000530A2000030A3001A
:102C70009F31C0279531C5302100200784001830CE
:102C8000213D803885000008240092009516482ECA
:102C9000080001302100C100200056082100C300B7
:102CA000200055082100C2001F30C4000030C500BC
:102CB0002300BF01892EFF302100C407FF30C53D2E
:102CC0004408A03E8600013087000A30A000003092
:102CD000A1003F08A3003E08A200913128219631AF
:102CE00021002008303E8100C101FF30C207FF30C3
:102CF000C33D0A30A0000030A1003F08A3003E08F9
:102D0000A20091319221963121002108BF002008B4
:102D1000BE0021004408450403198F2E902EAD2ECD
:102D20003E083F04031D952E962E5B2E4108031D81
:102D30009A2E9B2E5B2E4308803AC00080304002C2
:102D4000031DA42E01304202031CA72EA82EAD2E77
:102D50002000E318AC2EAD2E5B2E21003D08B500FF
:102D60003C08B4004408A03EB6004308B80042083E
:102D7000B7009231F322963121003508BD003408A6
:102D8000BC0008009331A02396312100EB003A2FBC
:102D90006B08013EA60088310B20963121002708E0
:102DA000AE002608AD009D316A2596314C302100D9
:102DB000E1009830E2006B08013EA60088310B204C
:102DC000963121002708E4002608E3009E3193266F
:102DD00096315B2F6B08013EC30089312921963162
:102DE00021004608D2004508D1004408D00043081D
:102DF000CF009E31E7269631AA302100E1009830BD
:102E0000E2009E31932696315B2F6B08013EC30092
:102E100089312921963121004608D2004508D10088
:102E20004408D0004308CF009E31D62696319D300D
:102E30002100E1009830E2009E31932696315B2F0D
:102E400020006D080319252F272F0130282F00306F
:102E5000ED008E302100E1009830E2009E31932693
:102E600096315B2F7D30E1009830E2009E31932651
:102E700096315B2F6B088600013087000108003A0D
:102E800003195B2F493A0319052F053A0319202F1F
:102E90001C3A0319EA2E033A0319C82E3A3A0319C9
:102EA000052F053A0319202F1C3A0319EA2E033A7D
:102EB0000319C82E322F0800F80078080319612F73
:102EC000622F762FF31F652F662F762F7009FA0079
:102ED0007109FB007209FC007309FD00FA0A03196D
:102EE000FB0A0319FC0A0319FD0A7E2F7308FD0073
:102EF0007208FC007108FB007008FA007308720485
:102F000071047004031D852F862F8F2F0030F3006E
:102F10000030F2000030F1000030F000FF2F96305A
:102F2000F9009B2F0130F9070130FD36FC0CFB0C3A
:102F3000FA0C890B952FFE307D05031DA02FA12FC4
:102F4000922FB12F0130F9070130FA070030FB3D15
:102F5000FC3DFD3D0130FD36FC0CFB0CFA0C890BF1
:102F6000AB2FFF307D05031DB62FB72FA22FC12F2A
:102F70000130F9020130FA35FB0DFC0DFD0D890B16
:102F8000BB2FFC1BC42FC52FCB2F02307902031897
:102F9000CA2FCB2FB82F7918CE2FCF2FD72FFF3096
:102FA000FA05FF30FB057F30FC05FF30FD050310FF
:102FB000F90C7908F400F501F601F7011830F43541
:102FC000F50DF60DF70D890BDF2F7408FA0475085F
:102FD000FB047608FC047708FD0478080319F12F38
:102FE000F22FF72FF31FF52FF62FF72FFD177D0880
:102FF000F3007C08F2007B08F1007A08F00008007A
:103000005B34113400340034E0341F34AB341034FA
:10301000CC341D34C3341D34003400340034003447
:103020000034003400340034003400340034003400
:1030300000340034003400340034003400340034F0
:1030400000340034003400340034003400340034E0
:1030500066341E3475341E340034003400340034B9
:103060000134083400340034D934153400340034C9
:1030700000340034003400340034003411341E3481
:1030800000340034003400340034003400340034A0
:1030900000340034003400346334683461346E34F6
:1030A0006734653464342034733465347434703474
:1030B0006F3469346E347434203474346F34203493
:1030C000253475340D340A34003469346E34703468
:1030D000753474342034623475346634663465343F
:1030E000723420346F3476346534723466346C3420
:1030F0006F3477340D340A34003455346E346B3405
:103100006F3477346E34203463346F346D346D34FF
:1031100061346E3464340D340A3400346C346F34EA
:1031200067347334203474346F34673467346C34E8
:10313000653464340D340A340034633468346134E3
:103140006E3467346534643420346B3469340D3440
:103150000A3400346334683461346E34673465345F
:10316000643420346B3470340D340A3400342C341D
:10317000203470346F346D3470343A342034253454
:103180007534003440340A34103407340034643465
:10319000003410340134003443346F3475346E34E9
:1031A00074343A3420342534753400342534693489
:0C31B0002E3425343034333475340034B0
:103AAA00080023001D121D160800933148239D317A
:103ABA00080021001C08F1001B08F0000800200083
:103ACA005C08F1005B08F000080021002E08EE00F7
:103ADA002D08ED000800640080010131890B712D69
:103AEA000034FE0012001E00FE0B772D0034003455
:103AFA000034603440346634663466343F3421001E
:103B0A0021082200DF00210020082200DE00080030
:103B1A00320099019B019D0106309F009E019C0184
:103B2A000800210021082000E200210020082000CE
:103B3A00E1000800210021082200D7002100200806
:103B4A002200D6000800220049082100A100220014
:103B5A0048082100A000080020005A082100A100FE
:103B6A00200059082100A000080021002108220095
:103B7A00D500210020082200D400080020006A088D
:103B8A00031DC82DCA2D0130CB2D0030080020009E
:103B9A006708031DD12DD32D0130D42D0030080024
:103BAA00F1007108F000F00DF00D21001D087006FB
:103BBA00033970069D000800200010100B14003015
:103BCA002100A0000030A1009D3196259D310800FA
:103BDA0080302C009C007C309B00C0309A001F086B
:103BEA00F33904389F00080080302C0099007C309B
:103BFA009800C03097001F08FC3901389F00080060
:103C0A002100A1002108A000A00DA00D1D0820067A
:103C1A00033920069D000800210020082400910095
:103C2A002000911D192E1A2E152E9111240011080B
:103C3A00080010309E3105269E31CD302100A000AB
:103C4A001130A1009D3184259E3108002100A60172
:103C5A009531D9259E315A302100A0001D30A1008E
:103C6A009D31BA259E3108002000111322005E08FA
:103C7A005F040319412E422E472E5F088A005E0810
:103C8A000A009E31080022005808590403194E2ED2
:103C9A004F2E542E59088A0058080A009E312000D7
:103CAA009110080022005608570403195D2E5E2E53
:103CBA00632E57088A0056080A009E312000921087
:103CCA00080021002008210403196C2E6D2E742E81
:103CDA0021082000E000210020082000DF00080061
:103CEA0021002008210403197B2E7C2E832E210813
:103CFA002000DE00210020082000DD0008000E3030
:103D0A0028009D009C01FF302200D4000730D50016
:103D1A00200092131D3028009E000800E330210085
:103D2A00E7000030D900DA006208DC006108DB0035
:103D3A00E730DD009031D3209E310800F9302000B1
:103D4A009E009D0101302200D8001030D9002000C9
:103D5A009110210091141E3020009F000800F930B4
:103D6A0028009600950100302200D6000830D700BE
:103D7A002000921021009214773028009700080042
:103D8A002100A2009D31C3259E31003A0319CE2E8F
:103D9A00CF2EC72E21002208A0009031AB209E31E1
:103DAA000800210052082200E300210051082200E5
:103DBA00E200210050082200E10021004F08220001
:103DCA00E0000800210052082200E7002100510803
:103DDA002200E600210050082200E50021004F08D9
:103DEA002200E40008002100A71BFC2EFD2EFE2E57
:103DFA00092F2609A8002709A900A80A0319A90A50
:103E0A002808A6002908A70008002000921F0E2FE4
:103E1A000F2F1D2F2200540855040319152F162F92
:103E2A001B2F55088A0054080A009F31200092135C
:103E3A0008007108F3007008F200F336F20CF3364A
:103E4A00F20C72082C00980070080339F200063050
:103E5A00F235890B2D2F7208970008002100A00166
:103E6A009E3111269F312100A0019E3111269F31DA
:103E7A002100A0019E3111269F312100A0019E310F
:103E8A0011269F310800A03021009E009B019C0151
:103E9A0005309F0001309D0020001113553021008C
:103EAA00A0001D30A1009D3184259F3121001117EA
:103EBA00080021002008A200642F0130A007200872
:103ECA008600013087000108031D6C2F6D2F622FB9
:103EDA0022082002A000A101A01BA10308002100C2
:103EEA002108A3002008A200A336A20CA336A20C24
:103EFA0022082C009B00210020080339A20006306A
:103F0A00A235890B852F22082C009A000800FF3061
:103F1A002100A0009E3111269F31FF302100A00010
:103F2A009E3111269F31FF302100A0009E311126BB
:103F3A009F31FF302100A0009E3111269F310800D9
:103F4A002100A4002308E038A0009E3111269F31E9
:103F5A0021002208A0009E3111269F31210021084C
:103F6A00A0009E3111269F3121002408A0009E3115
:103F7A0011269F3108002100A401A501201CC62F8B
:103F8A00C72FCB2F2208A4072308A53D0130A2354D
:103F9A00A30D890BCC2F0130A136A00C890BD12F90
:103FAA0020082104031DDA2FDB2FC32F2508A100C7
:103FBA002408A000080020006808303E860001306E
:103FCA00870001082100A10020006808013E073986
:103FDA002100A00020082000E80021009112200002
:103FEA0067080319F92FFA2FFC2F0130E702210085
:063FFA00911621080800E9
:020000040001F9
:08000E008C3FF33FFF3FFF3F71
:00000001FF
