:1000000080315828080008007E1480310B1F092811
:100010000A2856282100111E0E280F281B28200010
:10002000111E132814281B2822005D088A005C0872
:100030000A00803156282100911E1F2820282C28D4
:100040002000911E242825282C2822005B088A00E5
:100050005A080A00803156282100921C3028312885
:100060003A282000921C352836283A289E3134261A
:10007000803156282100911C3E283F284828200026
:10008000911C4328442848289E3125268031562833
:100090002100111F4C284D2856282000111F5128DF
:1000A000522856289E311626803156287E10090087
:1000B00080315A282F3084009D3085006B308600B7
:1000C0000030870004309D314B258031B5308400ED
:1000D0009D30850060308600013087000A309D31F8
:1000E0004B258031553084000030850016309D311D
:1000F000452580312100ED01EE01203084000130E2
:10010000850034309D3145258031A0308400013098
:10011000850034309D31452580317E10200090319E
:10012000D82821002C088039B6002C35BC00AB1F24
:100130009A289B289C283C143C080319A028A12835
:10014000B0283C0A031DA528A628AE280030AC0024
:100150000030AB000030AA000030A900AB17B8286F
:100160000030AC000030AB000030AA000030A90025
:1001700030088039B6063035BB00AF1FC028C12813
:10018000C2283B143B080319C628C728D6283B0AB7
:10019000031DCB28CC28D4280030B0000030AF009D
:1001A0000030AE000030AD00AF17DE280030B000E8
:1001B0000030AF000030AE000030AD003B08031946
:1001C000E228E328E8283C08031DE728E828F1286E
:1001D0000030AC000030AB000030AA000030A900B5
:1001E000CB2A2908A0002F089031622080312100FD
:1001F0002108C2002008C1004108B100B201B301CA
:10020000B4013408BA003308B9003208B800310824
:10021000B7004208B100B201B301B4013408C00014
:100220003308BF003208BE003108BD002A08A00014
:100230002E0890316220803121002108C200200860
:10024000C1004108B100B201B301B4013108B707E0
:100250003208B83D3308B93D3408BA3D4208B10010
:10026000B201B301B4013108BD073208BE3D330805
:10027000BF3D3408C03D2B08A0002D0890316220FE
:10028000803121002108C2002008C1004108B100CE
:10029000B201B301B4013108B7073208B83D3308E1
:1002A000B93D3408BA3D4208B100B201B301B4010E
:1002B0003108BD073208BE3D3308BF3D3408C03D9C
:1002C0000830B735B80DB90DBA0D890B61292A0868
:1002D000A0002D0890316220803121002108C20049
:1002E0002008C1004108B7074208B83D0030B93DB9
:1002F000BA3D2908A0002E089031622080312100EB
:100300002108C2002008C1004108B7074208B83DD3
:100310000030B93DBA3D0830B735B80DB90DBA0D4A
:10032000890B8C292908A0002D089031622080318A
:1003300021002108C2002008C1004108B707420877
:10034000B83D0030B93DBA3D2A08A0002F089031D1
:100350006220803121002108C2002008C10041082C
:10036000BD074208BE3D0030BF3DC03D2B08A00088
:100370002E0890316220803121002108C20020081F
:10038000C1004108BD074208BE3D0030BF3DC03D31
:100390002B08A0002F089031622080312100210815
:1003A000C2002008C1004108B1004208B200B301F8
:1003B000B4010830B135B20DB30DB40D890BDA2993
:1003C0003108BD073208BE3D3308BF3D3408C03D8B
:1003D0003708B1003808B2003908B3003A08B40051
:1003E0001830B436B30CB20CB10C890BF1293108BA
:1003F000BD073208BE3D3308BF3D3408C03D08305C
:10040000B735B80DB90DBA0D890B002A3C083B076A
:10041000B100B201B20D3108823EC100FF30323D61
:10042000C200292A0130BD35BE0DBF0DC00D890B9C
:10043000132ABA1F1C2A1D2A1E2A3D140130B73563
:10044000B80DB90DBA0D890B1F2AFF30C107FF3057
:10045000C23DBF1F2C2A2D2A122ABB01BA1F312AE6
:10046000322A4E2AFF303705B100FF303805B2007E
:10047000FF303905B3007F303A05B4003408330447
:10048000320431040319452A462A492A0130BB00A7
:100490004E2A3D1C4C2A4D2A4E2A462A3B08031957
:1004A000522A532A792A0130BD070030BE3DBF3D94
:1004B000C03D401C5C2A5D2A792A3D08B1003E08F7
:1004C000B2003F08B3004008B4000130B500B437B3
:1004D000B30CB20CB10CB50B672A3408C00033085A
:1004E000BF003208BE003108BD000130C107003036
:1004F000C23D4208803AB10080303102031D822A99
:10050000FF304102031C852A862A902A7F30210071
:10051000C0008030BF000030BE000030BD00C12AE6
:1005200021004208803AB10080303102031D9A2A2E
:100530000130410203189D2A9E2AA92A0030210079
:10054000C0000030BF000030BE000030BD00B6016A
:10055000C12A21004108BC00FF30BD05FF30BE05A7
:100560007F30BF050030C0053C1CB72AB82AB92A25
:10057000BF173C08B1000130B136890BBC2A3108E5
:10058000C0003608C0044008AC003F08AB003E087D
:10059000AA003D08A9000800200023088039AD000A
:1005A0002335B300A21FD52AD62AD72A33143308FD
:1005B0000319DB2ADC2AEB2A330A031DE02AE12A8D
:1005C000E92A0030A3000030A2000030A100003072
:1005D000A000A217F32A0030A3000030A2000030D0
:1005E000A1000030A00027088039AD062735B200F1
:1005F000A61FFB2AFC2AFD2A321432080319012BFC
:10060000022B112B320A031D062B072B0F2B003058
:10061000A7000030A6000030A5000030A400A617F7
:10062000192B0030A7000030A6000030A5000030D4
:10063000A400320803191D2B1E2B232B3308031D86
:10064000222B232B2C2B0030A3000030A2000030E3
:10065000A1000030A000062D2008F00026089031EF
:100660001B20823171082000B9007008B8003808DA
:10067000A800A901AA01AB012B08B1002A08B0000B
:100680002908AF002808AE003908A800A901AA016E
:10069000AB012B08B7002A08B6002908B5002808C6
:1006A000B4002108F000250890311B208231710828
:1006B0002000B9007008B8003808A800A901AA01F4
:1006C000AB012808AE072908AF3D2A08B03D2B082A
:1006D000B13D3908A800A901AA01AB012808B40757
:1006E0002908B53D2A08B63D2B08B73D2208F00081
:1006F000240890311B20823171082000B900700855
:10070000B8003808A800A901AA01AB012808AE0763
:100710002908AF3D2A08B03D2B08B13D3908A80093
:10072000A901AA01AB012808B4072908B53D2A0888
:10073000B63D2B08B73D0830AE35AF0DB00DB10D4D
:10074000890B9C2B2108F000240890311B2082315A
:1007500071082000B9007008B8003808AE073908E1
:10076000AF3D0030B03DB13D2008F000250890318C
:100770001B20823171082000B9007008B8003808C9
:10078000AE073908AF3D0030B03DB13D0830AE3561
:10079000AF0DB00DB10D890BC72B2008F000240858
:1007A00090311B20823171082000B9007008B80018
:1007B0003808AE073908AF3D0030B03DB13D2108E3
:1007C000F000260890311B20823171082000B9000A
:1007D0007008B8003808B4073908B53D0030B63D98
:1007E000B73D2208F000250890311B2082317108A6
:1007F0002000B9007008B8003808B4073908B53DC2
:100800000030B63DB73D2208F000260890311B208D
:10081000823171082000B9007008B8003808A800BB
:100820003908A900AA01AB010830A835A90DAA0D05
:10083000AB0D890B152C2808B4072908B53D2A08EB
:10084000B63D2B08B73D2E08A8002F08A900300898
:10085000AA003108AB001830AB36AA0CA90CA80CC2
:10086000890B2C2C2808B4072908B53D2A08B63D69
:100870002B08B73D0830AE35AF0DB00DB10D890B6B
:100880003B2C33083207A800A901A90D2808823E95
:10089000B800FF30293DB900642C0130B435B50DE6
:1008A000B60DB70D890B4E2CB11F572C582C592C57
:1008B00034140130AE35AF0DB00DB10D890B5A2C8B
:1008C000FF30B807FF30B93DB61F672C682C4D2CA0
:1008D000B201B11F6C2C6D2C892CFF302E05A800A5
:1008E000FF302F05A900FF303005AA007F30310509
:1008F000AB002B082A04290428040319802C812C1E
:10090000842C0130B200892C341C872C882C892C33
:10091000812C320803198D2C8E2CB42C0130B40795
:100920000030B53DB63DB73D371C972C982CB42C04
:100930003408A8003508A9003608AA003708AB001B
:100940000130AC00AB37AA0CA90CA80CAC0BA22C44
:100950002B08B7002A08B6002908B5002808B400FB
:100960000130B8070030B93D3908803AA80080301E
:100970002802031DBD2CFF303802031CC02CC12CE3
:10098000CB2C7F302000B7008030B6000030B5009F
:100990000030B400FC2C20003908803AA8008030D8
:1009A0002802031DD52C013038020318D82CD92C6D
:1009B000E42C00302000B7000030B6000030B50055
:1009C0000030B400AD01FC2C20003808B300FF302B
:1009D000B405FF30B5057F30B6050030B705331CD0
:1009E000F22CF32CF42CB6173308A8000130A836EB
:1009F000890BF72C2808B7002D08B7043708A30087
:100A00003608A2003508A1003408A0000800210023
:100A100031088039BE003135C000B01F102D112DB6
:100A2000122D401440080319162D172D272D400AAA
:100A3000031D1B2D1C2D242D0030B1000030B000F3
:100A40000030AF000030AE00B017B1012F2D0030E4
:100A5000B1000030B0000030AF000030AE0035080B
:100A60008039BF003F083E060319372D382D392D38
:100A70003E173535BF00B41F3E2D3F2D402D3F148E
:100A80003F080319442D452D552D3F0A031D492DBF
:100A90004A2D522D0030B5000030B4000030B300B4
:100AA0000030B200B417B5015D2D0030B500003044
:100AB000B4000030B3000030B20040083F02031819
:100AC000622D632D872D3E1F662D672D692D803089
:100AD000BE064008C1003F08C0004108BF002E0804
:100AE000C1003208AE004108B2002F08C10033082F
:100AF000AF004108B3003008C1003408B00041081D
:100B0000B4003108C1003508B1004108B500C10189
:100B10003F08B600B7013708B90040083602B800F0
:100B2000031CB9033908803ABA0080303A02031D29
:100B30009B2D1A303802031C9E2D9F2DD52D210090
:100B4000310830042F042E04031DA72DA92D0130D8
:100B5000AA2D0030C1000030B1000030B0000030DC
:100B6000AF000030AE003F08C000DC2D411CB92DA5
:100B7000BA2DC42D4108B6000130B636890BBD2D03
:100B800036080138C100C62D0310C10C2E1CC92D1A
:100B9000CA2DCB2DC1170130B600B137B00CAF0C48
:100BA000AE0CB60BCD2D0130C00721003F0840022E
:100BB000031CDB2DDC2DB62D3E1BDF2DE02D1A2E68
:100BC0004008031DE42DE52DEE2D0030B10000306E
:100BD000B0000030AF000030AE00122F3208AE0778
:100BE0003308AF3D3408B03D3508B13D311CF92D17
:100BF000FA2DA42E411CFD2DFE2D082E4108B60015
:100C00000130B636890B012E36080138C1000A2E94
:100C10000310C10C2E1C0D2E0E2E0F2EC1170130ED
:100C2000B600B137B00CAF0CAE0CB60B112E0130C4
:100C3000C007A42E3108803AB6003508803A360243
:100C4000031D2C2E34083002031D2C2E33082F02D6
:100C5000031D2C2E32082E0203182F2E302E652E47
:100C6000FF30B600FF30B700FF30B800FF30B900EA
:100C70002E083202BA002F08333BBB003008343B49
:100C8000BC003108353BBD003A08B6073B08B73D0C
:100C90003C08B83D3D08B93D3908B1003808B000FE
:100CA0003708AF003608AE008030BE064103FF3A79
:100CB000C1004108031D5D2E5E2E6D2E0130AE0772
:100CC0000030AF3DB03DB13D6D2E3208AE0233086D
:100CD000AF3B3408B03B3508B13B310830042F043A
:100CE0002E04031D742E752EA02E4108031D792E8F
:100CF0007A2EA02E0030B1000030B0000030AF00DE
:100D00000030AE00122F0130AE35AF0DB00DB10D79
:100D1000890B842EC11F8D2E8E2E8F2E2E14411CDA
:100D2000922E932E972E0314410DC100992E03107D
:100D3000C10D400803199D2E9E2EA02E0130C00229
:100D4000B01FA32EA42E832EBF01C11FA82EA92E33
:100D5000B72E41087F390319AE2EAF2EB22E0130C7
:100D6000BF00B72E2E1CB52EB62EB72EAF2E3F08C5
:100D70000319BB2EBC2EE52E0130AE070030AF3D6F
:100D8000B03DB13D311CC52EC62EE52E2E08B60055
:100D90002F08B7003008B8003108B9000130BA0098
:100DA000B937B80CB70CB60CBA0BD02E3908B10055
:100DB0003808B0003708AF003608AE00400A031903
:100DC000E22EE32EE52E0130C007400A0319E92E7A
:100DD000EA2EEF2E4008031DEE2EEF2EFD2E0030E2
:100DE000B1000030B0000030AF000030AE0040086D
:100DF000031DFB2EFC2EFD2EBE01401C002F012FDB
:100E0000032FB017052F7F30B0054008B600013022
:100E1000B636890B082F3608B100BE1F102F112FD0
:100E2000122FB117080001302100C300BF1B192F7A
:100E30001B2F01301C2F0030C60020005608210057
:100E4000C500200055082100C40046080319292FB9
:100E50002A2F3E2FFF30C407FF30C53D4608031D33
:100E6000322F332F382F2B30C1000030C2003C2FDF
:100E70002D30C1000030C2004108C6001F30C7003D
:100E80000030C8002300BF017B2FFF302100C707BF
:100E9000FF30C83D4708A03E8600013087000A3079
:100EA000A0000030A1003F08A3003E08A20092313C
:100EB0008922873121002108A7002008A6009E3141
:100EC000D526873121002608303E8100C301FF303E
:100ED000C407FF30C53D0A30A0000030A1003F0824
:100EE000A3003E08A2009331DF23873121002108AF
:100EF000BF002008BE0021004808803AC0008030B2
:100F00004002031D852F01304702031C882F892FC3
:100F1000A72F21003E083F04031D8F2F902F452F40
:100F20004308031D942F952F452F4508803AC00094
:100F300080304002031D9E2F01304402031CA12F6C
:100F4000A22FA72F2000E118A62FA72F452F2100A1
:100F500046080319AC2FAD2FB82FFF30C707FF305D
:100F6000C83D4708A03E8600013087004608810042
:100F70003D08B5003C08B4004708A03EB60045084F
:100F8000B8004408B7009231DB22873121003508D0
:100F9000BD003408BC00080021002008210403190A
:100FA000D22FD32FFA2F0130A400DD2F0130A0352E
:100FB000A10D890BD72F0130A407A11FE02FE12F2E
:100FC000D62F21082302031DE72F20082202031C2D
:100FD000EA2FEB2FEF2F2008A2022108A33B0130BC
:100FE000A136A00C890BF02F0130A402031DF92FAC
:100FF000FA2FE12F2308A1002208A0000800080012
:1010000010309D31EF25883175302100A00011305E
:10101000A1009D315125883108002100AB01AC01B0
:10102000AA0114280130A60726088600013087008F
:101030002030010603191D281E28122826088600C4
:1010400001308700F7300107A80005302802031C93
:101050002A282B28122826088600013087002D30E8
:101060000106031D342835283A280130AA00013032
:10107000A607632826088600013087002B3001066A
:10108000031D43284428632837282608860001309A
:1010900087002C08A1002B08A0000A30A200003015
:1010A000A3009F319E27883121002108A900010853
:1010B0002002A800031CA9032808303EAB00003022
:1010C000293DAC0037282608860001308700D03043
:1010D0000107A8000A302802031C6F287028452841
:1010E0002A08031D7428752881282B09A8002C09BB
:1010F000A900A80A0319A90A2808A6002908A70018
:1011000085282C08A7002B08A60008002100A800AD
:10111000280803198C288D28A128A31F902891281E
:10112000A1282009AA002109AB002209AC0023094B
:10113000AD00AA0A0319AB0A0319AC0A0319AD0AD8
:10114000A9282308AD002208AC002108AB00200824
:10115000AA002308220421042004031DB028B1287A
:10116000BA280030A3000030A2000030A1000030F7
:10117000A0002A299630A900C6280130A90701300D
:10118000AD36AC0CAB0CAA0C890BC028FE302D057B
:10119000031DCB28CC28BD28DC280130A90701304D
:1011A000AA070030AB3DAC3DAD3D0130AD36AC0CD7
:1011B000AB0CAA0C890BD628FF302D05031DE128A6
:1011C000E228CD28EC280130A9020130AA35AB0D68
:1011D000AC0DAD0D890BE628AC1BEF28F028F628E6
:1011E000023029020318F528F628E3282918F928DF
:1011F000FA280229FF30AA05FF30AB057F30AC0585
:10120000FF30AD050310A90C2908A400A501A60113
:10121000A7011830A435A50DA60DA70D890B0A2925
:101220002408AA042508AB042608AC042708AD044A
:10123000280803191C291D292229A31F2029212937
:101240002229AD172D08A3002C08A2002B08A1000D
:101250002A08A000080000302100CD000030CC009A
:101260000030CB000030CA00C701430886000130BF
:1012700087000108CE000130C30730304E02031C46
:101280004229432992293A304E0203184829492914
:1012900092294130AC002030AB000030AA00003071
:1012A000A9004D08B0004C08AF004B08AE004A083A
:1012B000AD0080319120893121002C08CD002B0810
:1012C000CC002A08CB002908CA004E08D03EA00056
:1012D000FF3003180030A100A201A30100308831C3
:1012E0008620893121002308B1002208B00021089E
:1012F000AF002008AE004D08B5004C08B4004B0804
:10130000B3004A08B2008531072589312100310830
:10131000CD003008CC002F08CB002E08CA000130C9
:10132000C80735292C304E060319972998299E297C
:101330002E304E06031D9D299E29A2290130C7008B
:10134000C8013529C901C2294130A3002030A200BB
:101350000030A1000030A0004D08A7004C08A600F6
:101360004B08A5004A08A4008C3150248931210083
:101370002308CD002208CC002108CB002008CA0099
:101380000130C90747080319C629C729CD294808CC
:101390004902031CCC29CD29A4294D08C6004C08BC
:1013A000C5004B08C4004A08C30008009D31392518
:1013B000893171082200CB007008CA004A0868020F
:1013C0002000D30022004B08693B2000D4005308C2
:1013D000F0005408F100890D893B8909F200F300FF
:1013E000013097315C27893173082000A70072080B
:1013F000A6007108A5007008A4003B30A3000330CC
:10140000A2001230A1006F30A0008231CC228931BD
:1014100020002308BD002208BC002108BB002008D2
:10142000BA00220043082000C10022004208200028
:10143000C000220041082000BF0022004008200018
:10144000BE008D31F425893120003D082200C30003
:1014500020003C082200C20020003B082200C100FE
:1014600020003A082200C00020005308F000540871
:10147000F100890D893B8909F200F30001309731B1
:101480005C27893173082000A7007208A600710844
:10149000A5007008A400220067082000A300220015
:1014A00066082000A200220065082000A10022009A
:1014B00064082000A0008231CC228931200023085A
:1014C000BD002208BC002108BB002008BA009431EE
:1014D000F524893120003B08D0003A08CF002200D3
:1014E00063082000A700220062082000A600220056
:1014F00061082000A500220060082000A40022004E
:1015000043082000A300220042082000A20022007D
:1015100041082000A100220040082000A0008231E4
:10152000CC22893120002308BD002208BC002108FC
:10153000BB002008BA009431F524893120003B0813
:10154000D2003A08D10051084F07D7005208503D49
:10155000D80004305802003003195702031CB12A86
:10156000B22AC52A5408803ACE0080304E02031DAC
:10157000BB2A01305302031CBE2ABF2AC52AFF30F2
:101580002000D7000330D800D62A043020005802AB
:10159000003003195702031CCE2ACF2AD62AD41FA3
:1015A000D22AD32AD62AD701D801D62A5808F10040
:1015B0005708F0009E31FB268931080021004B08B6
:1015C00086008701403FCE00413FCF004E08840097
:1015D0004F0885001200253A031DEF2AF02A2C2C13
:1015E0004B08860087010130810741310318810AC9
:1015F0002000D501D6010030E100FF302200C600F6
:10160000FF30C7002100D201242B2000E11421006B
:101610004B08860087010130810741310318810A98
:10162000242B0130D200242B4B0886008701403F39
:10163000CE00413FCF004E0884004F0885000008CF
:10164000303A0319052B112B52080319282B292B8B
:10165000142B4B08A6004C08A70094313B248A3178
:10166000210027082000D600210026082000D500F0
:10167000D61F3B2B3C2B422B6114D509D609D50A2A
:101680000319D60A21004B0886008701403FD70086
:10169000413FD80057088400580885001200643A7A
:1016A0000319532B542B5E2B5708840058088500D0
:1016B0001200693A031D5D2B5E2B892B4C088600B6
:1016C0004D08870001088400850102308107003F32
:1016D000D300013FD4005708013ECE000030583DF2
:1016E000CF004B08860087014E08C03F4F08C13F1E
:1016F0004A08BD004908BC005408BF005308BE009A
:10170000873113278A3121003D08CA003C08C900EF
:101710004F2C57088400580885001200753A031DA5
:10172000922B932BC82B4C0886004D08870001088C
:101730008400850102308107003FD300013FD400BF
:101740005708013ECE000030583DCF004B088600C0
:1017500087014E08C03F4F08C13FBF2B4A08BD005C
:101760004908BC005408BF005308BE009631492602
:101770008A3121003D08CA003C08C9004F2C570897
:101780008400580885000008753A0319AE2BC82B51
:10179000570884005808850012006E3A031DD12BAB
:1017A000D22BF92B4C0886004D08870001088400D5
:1017B000850102308107003FCE00013FCF004E0877
:1017C00086004F08870022004408C03F4508C13FFB
:1017D00021005708013ECE000030583DCF004B0895
:1017E000860087014E08C03F4F08C13FC901CA01AA
:1017F0004F2C4B0886008701403FCE00413FCF0071
:101800004E0884004F0885001200253A031D092C5C
:101810000A2C232C4B0886008701013081074131B7
:101820000318810A2530A3000030A4004A08A6004E
:101830004908A500943197248A3101302100C9005C
:101840000030CA004F2C4B08860087010130810709
:1018500041310318810AF62B4B0886008701403F6F
:10186000CE00413FCF004E0884004F08850000089D
:10187000D000D1015008A3005108A4004A08A600D6
:101880004908A500943197248A3121004B0886002D
:1018900087010130810741310318810A1D2C08009E
:1018A000210027088039B1002735B800A61F592C20
:1018B0005A2C5B2C3814380803195F2C602C702CC0
:1018C000380A031D642C652C6D2C0030A7000030F5
:1018D000A6000030A5000030A400A617A701782CB0
:1018E0000030A7000030A6000030A5000030A400A2
:1018F00023088039B1062335B900A21F802C812C22
:10190000822C391439080319862C872C972C390A14
:10191000031D8B2C8C2C942C0030A3000030A200D3
:101920000030A1000030A000A217A3019F2C0030BE
:10193000A3000030A2000030A1000030A000230866
:10194000220421042004031DA62CA72CBE2C003049
:10195000A7000030A6000030A5000030A4008030B1
:10196000A6047F30A7043108A7042708A30026088F
:10197000A2002508A1002408A000F32D3808031DAB
:10198000C22CC32CCC2C0030A3000030A2000030AD
:10199000A1000030A000F32D3808A800A9012908F3
:1019A000AB0039082802AA00031CAB032A087F3EBB
:1019B000B20000302B3DB3002708B0002608AF006E
:1019C0002508AE002408AD000030A7000030A600B6
:1019D0000030A5000030A4000030B7000030B60091
:1019E0000030B5000030B400B901322D39080319B8
:1019F000FA2CFB2C152D0130AD35AE0DAF0DB00D11
:101A0000890BFC2C0130A435A50DA60DA70D890B63
:101A1000032DB71F0C2D0D2D0E2D24140130B435C0
:101A2000B50DB60DB70D890B0F2D23083002031D20
:101A3000232D22082F02031D232D21082E02031D12
:101A4000232D20082D02031C262D272D302D37177E
:101A50002008AD022108AE3B2208AF3B2308B03B73
:101A60000130B9071A303902031C372D382DF62CF6
:101A700030082F042E042D0403193F2D402D592D1D
:101A80003414592D0130A435A50DA60DA70D890BD1
:101A9000432DB71F4C2D4D2D4E2D24140130B43540
:101AA000B50DB60DB70D890B4F2DFF30B207FF30C6
:101AB000B33DA61F5C2D5D2D422DB901B71F612DD1
:101AC000622D7E2DFF303405A800FF303505A900BA
:101AD000FF303605AA007F303705AB002B082A04FB
:101AE000290428040319752D762D792D0130B900AC
:101AF0007E2D241C7C2D7D2D7E2D762D39080319FD
:101B0000822D832DA92D0130A4070030A53DA63DCF
:101B1000A73D271C8C2D8D2DA92D2408A800250854
:101B2000A9002608AA002708AB000130AC00AB379B
:101B3000AA0CA90CA80CAC0B972D2B08A7002A08FF
:101B4000A6002908A5002808A4000130B20700302B
:101B5000B33D3308803AA80080302802031DB22D1F
:101B6000FF303202031CB52DB62DC32DFF302100EE
:101B7000B2000030B3000030A7000030A6000030F3
:101B8000A5000030A40021003308803AA80080306E
:101B90002802031DCD2D013032020318D02DD12D86
:101BA000DD2D2100B201B3010030A7000030A600F6
:101BB0000030A5000030A400B10121003208B800B7
:101BC000381CE32DE42DE62DA617E82D7F30A60561
:101BD0003808A8000130A836890BEB2D2808A7008B
:101BE0003108A704B52C080020003D088039CA0040
:101BF0003D35CC00BC1FFD2DFE2DFF2D4C144C0897
:101C00000319032E042E142E4C0A031D082E092E30
:101C1000112E0030BD000030BC000030BB00003091
:101C2000BA00BC17BD011C2E0030BD000030BC0046
:101C30000030BB000030BA0041088039CB004B08AF
:101C40004A060319242E252E262E4A174135CB008D
:101C5000C01F2B2E2C2E2D2E4B144B080319312E6A
:101C6000322E422E4B0A031D362E372E3F2E0030C9
:101C7000C1000030C0000030BF000030BE00C017FF
:101C8000C1014A2E0030C1000030C0000030BF004A
:101C90000030BE004C084B0203184F2E502E742EFD
:101CA0004A1F532E542E562E8030CA064C08CD00A3
:101CB0004B08CC004D08CB003A08CD003E08BA00D6
:101CC0004D08BE003B08CD003F08BB004D08BF00DB
:101CD0003C08CD004008BC004D08C0003D08CD00C8
:101CE0004108BD004D08C100CD014B08C200C30131
:101CF0004308C5004C084202C400031CC503450844
:101D0000803AC60080304602031D882E1A304402F5
:101D1000031C8B2E8C2EC22E20003D083C043B045D
:101D20003A04031D942E962E0130972E0030CD00DC
:101D30000030BD000030BC000030BB000030BA00F5
:101D40004B08CC00C92E4D1CA62EA72EB12E4D0837
:101D5000C2000130C236890BAA2E42080138CD00DC
:101D6000B32E0310CD0C3A1CB62EB72EB82ECD17BD
:101D70000130C200BD37BC0CBB0CBA0CC20BBA2E72
:101D80000130CC0720004B084C02031CC82EC92E82
:101D9000A32E4A1BCC2ECD2E072F4C08031DD12E6F
:101DA000D22EDB2E0030BD000030BC000030BB0066
:101DB0000030BA00FF2F3E08BA073F08BB3D40087D
:101DC000BC3D4108BD3D3D1CE62EE72E912F4D1C2C
:101DD000EA2EEB2EF52E4D08C2000130C236890BDB
:101DE000EE2E42080138CD00F72E0310CD0C3A1C20
:101DF000FA2EFB2EFC2ECD170130C200BD37BC0CD5
:101E0000BB0CBA0CC20BFE2E0130CC07912F3D0843
:101E1000803AC2004108803A4202031D192F40084F
:101E20003C02031D192F3F083B02031D192F3E08DA
:101E30003A0203181C2F1D2F522FFF30C200FF3013
:101E4000C300FF30C400FF30C5003A083E02C600A0
:101E50003B083F3BC7003C08403BC8003D08413BB6
:101E6000C9004608C2074708C33D4808C43D4908A1
:101E7000C53D4508BD004408BC004308BB004208FE
:101E8000BA008030CA064D03FF3ACD004D08031D4D
:101E90004A2F4B2F5A2F0130BA070030BB3DBC3DB3
:101EA000BD3D5A2F3E08BA023F08BB3B4008BC3B31
:101EB0004108BD3B3D083C043B043A04031D612F2F
:101EC000622F8D2F4D08031D662F672F8D2F003039
:101ED000BD000030BC000030BB000030BA00FF2F56
:101EE0000130BA35BB0DBC0DBD0D890B712FCD1F57
:101EF0007A2F7B2F7C2F3A144D1C7F2F802F842F1D
:101F000003144D0DCD00862F0310CD0D4C08031981
:101F10008A2F8B2F8D2F0130CC02BC1F902F912F39
:101F2000702FCB01CD1F952F962FA42F4D087F39F1
:101F300003199B2F9C2F9F2F0130CB00A42F3A1CFD
:101F4000A22FA32FA42F9C2F4B080319A82FA92F32
:101F5000D22F0130BA070030BB3DBC3DBD3D3D1C1A
:101F6000B22FB32FD22F3A08C2003B08C3003C085F
:101F7000C4003D08C5000130C600C537C40CC30C01
:101F8000C20CC60BBD2F4508BD004408BC00430869
:101F9000BB004208BA004C0A0319CF2FD02FD22F12
:101FA0000130CC074C0A0319D62FD72FDC2F4C0851
:101FB000031DDB2FDC2FEA2F0030BD000030BC00FA
:101FC0000030BB000030BA004C08031DE82FE92F99
:101FD000EA2FCA014C1CED2FEE2FF02FBC17F22F69
:101FE0007F30BC054C08C2000130C236890BF52F8A
:101FF0004208BD00CA1FFD2FFE2FFF2FBD1708008E
:102000002100A4002308E038A0009D31FB25903179
:1020100021002208A0009D31FB25903121002108DC
:10202000A0009D31FB25903121002408A0009D31A6
:10203000FB2590310800F800F401F5017008F2006A
:10204000F3017208F6007308F700781C2828292885
:102050002D287608F4077708F53D0130F635F70DA1
:10206000890B2E280310F80C7808031D382839280E
:1020700025287508F1007408F00008002100B2015D
:10208000B30155283108AF00B0012F08A300300874
:10209000A4002E08A6002D08A500943197249031A5
:1020A00001302100B2070030B33D2C083207860012
:1020B000013087000108B1003108031D6028612844
:1020C000422808002100A800A401A5012008A200C0
:1020D000A3012208A6002308A700281C7028712845
:1020E00075282608A4072708A53D0130A635A70DA9
:1020F000890B76280310A80C2808031D8028812846
:102100006D282508A1002408A00008002100111A4C
:102110008A288B288F28200823009A00AB282000CB
:102120006808031994289528AB286A08383E860069
:102130000130870021002008810020006A08013E4C
:1021400007392100A10021082000EA002100111216
:1021500001302000E80221001116080021005C086F
:10216000E0005B08DF002200C401C501CB285A084B
:10217000CA005908C900DF30CB005D08CC00CD0192
:102180008A31DE229031210049082200C407210053
:102190004A082200C53D21005F08840060088500D0
:1021A0001200031DD428D528B728D901DA01080068
:1021B0009F31DE2790318B170B178831002090312B
:1021C000D6302100A0000930A1009D316C2590314E
:1021D0009E31082690319631C22690319531D42512
:1021E000903168302100EC00E430890BF528EC0BCD
:1021F000F52800009131B22190319E31E7269031CF
:10220000EB28803158282100911237302200DA0063
:102210001230DB002100111282302200DC001F305E
:10222000DD00483023009F0090309D0026309E0046
:1022300040309B0003309C0026302100A0001D3060
:10224000A1009E314326913127302100A0001D308E
:10225000A1009E31522691312200D201D3012000EB
:10226000EA01E9010830E800E701E601E5012100A3
:10227000911608002100A401A501200821040319DA
:102280004229432970290130A6004D290130A0358B
:10229000A10D890B47290130A607A11F50295129FB
:1022A00046290130A435A50D890B522921082302A6
:1022B000031D5C2920082202031C5F29602965296F
:1022C0002008A2022108A33B24140130A136A00C4F
:1022D000890B66290130A602031D6F297029512937
:1022E0002508A1002408A000080099299D31332564
:1022F000913171082200CD007008CC00123020000E
:10230000EE00AD299D313325913171082000DA00AE
:102310007008D9001330EE00AD299D31332591317D
:1023200071082100EE007008ED0010302000EE0072
:10233000AD2920006E08F200F3017308003A03197A
:10234000A229AD297208103A03197629023A031915
:102350008229013A03198D29AD296E089D31BF25C7
:102360009131080020006D080319B729B829F02918
:102370008E302100E1009830E2009D317E259131C0
:1023800021002108E4002008E3009E3170269131ED
:10239000DC302100E1009830E2009D31752591315B
:1023A00021002108E4002008E3009E3170269131CD
:1023B000C7302100E1009830E2009D313F25913186
:1023C00021002108E4002008E3009E3170269131AD
:1023D000AA302100E1009830E2009E317026913150
:1023E000080022008C018D018E01193021008C0023
:1023F00020308D001F308E00103023008C00803084
:102400008D00BF308E0024008C018D018E012500CF
:102410008C018D018E01373026008C00F0308D004C
:10242000FF308E003F3027008C00F0308D00FF30F1
:102430008E003C00A1010D30A40019303D009C002D
:102440000230A5000330A70014309F000E303C007E
:10245000A00018303D009E002700910192019301D9
:1024600094019501960197019801990108002000B7
:102470006735203E8600013087000030C03FC13FF5
:1024800023009D1C442A452A572A20006735203EF8
:1024900086000130870001155B085C040319512A8E
:1024A000522A572A5C088A005B080A0092312300EE
:1024B0001D1D5B2A5C2A6E2A20006735203E86009F
:1024C0000130870081145D085E040319682A692AB7
:1024D0006E2A5E088A005D080A00923123001908FE
:1024E000F00020006708013E0739F1007108660618
:1024F000031D7B2A7C2A7D2A882A6708303E8600B5
:1025000001308700700881007108E7000130E5079D
:1025100008002100A501A31F8E2A8F2A962AA2094E
:10252000A309A20A0319A30A0130A500A11F992A31
:102530009A2A9F2AA009A109A00A0319A10A200822
:1025400021040319A42AA52ACC2A0130A400AF2A09
:102550000130A035A10D890BA92A0130A407A11FC4
:10256000B22AB32AA82A21082302031DB92A200867
:102570002202031CBC2ABD2AC12A2008A20221086B
:10258000A33B0130A136A00C890BC22A0130A40262
:10259000031DCB2ACC2AB32A25080319D02AD12A15
:1025A000D62AA209A309A20A0319A30A2308A10093
:1025B0002208A00008002000611CDF2AE02AEA2A85
:1025C00021003608AC003508AE003408AD0090316B
:1025D0003E2092312100B81FEE2AEF2AF12AB701DE
:1025E000B801BA01BB01052B20302100A300003047
:1025F000A4003508A6003408A50094319724923130
:1026000001302100BA070030BB3D3B08803AB900D9
:102610003808803A3902031D0F2B37083A02031C91
:10262000122B132BF42A20006118172B182B222BA6
:1026300021003608AC003508AE003408AD009031FA
:102640003E20923121003608A0009F313B27923175
:10265000210037082007B4003808213DB5000800E4
:102660009D317525933121002108AB002008AA0077
:102670003C30A0000030A1002B08A3002A08A200D3
:1026800091313A21933121002108A9002008A800A6
:102690002908A1002808A0003C30A2000030A300B7
:1026A0009F319E27933121002008AA022108AB3BCD
:1026B0009F31102793312100AC012C08A7002B0873
:1026C000031D642B2A0827020318672B682B712B24
:1026D000A101A2010530A300FF3090310020933109
:1026E000792BA101A2010530A30000309031002018
:1026F000933101302100AC073C302C02031C812BAC
:10270000822B5D2B9F316927933108009D31A225D3
:102710009331003A031D8D2B8E2B982B20006408DB
:10272000C03E86000130870081016408C03EDE2B78
:10273000133020006402031C9E2B9F2BB92BA32B6C
:102740009F31BE2793319D31A2259331003A031D5D
:10275000AA2BAB2BA02B65302100E1009830E200C2
:102760009E31702693312000E4012300C001C03067
:10277000DE2B9F31BE2793312100EA002000640840
:10278000C03E86000130870021006A0881002000D9
:102790006408C03E8600013087000A300106031D30
:1027A000D22BD32BDB2B6408C13E8600013087007F
:1027B0008101E401B72B0130E407862B08002100DA
:1027C000A501A11FE42BE52BEC2BA009A109A00A70
:1027D0000319A10A0130A500A31FEF2BF02BF72B43
:1027E000A209A309A20A0319A30A0130A506A6019A
:1027F000A701200821040319FE2BFF2B2C2C0130EC
:10280000A400092C0130A035A10D890B032C013047
:10281000A407A11F0C2C0D2C022C0130A635A70DEE
:10282000890B0E2C21082302031D182C20082202DC
:10283000031C1B2C1C2C212C2008A2022108A33BCA
:1028400026140130A136A00C890B222C0130A402E1
:10285000031D2B2C2C2C0D2C25080319302C312C6E
:10286000362CA609A709A60A0319A70A2708A1005A
:102870002608A00008002100AC01AD012608860052
:102880008701403FA800413FA9002808840029088B
:10289000850012002A3A031D4E2C4F2C7E2C260850
:1028A000860087010130810741310318810A27081A
:1028B0008600870101088400850102308107003FFE
:1028C000AC00013FAD00922C2D08A1002C08A00007
:1028D0000A30A2000030A3009F319E2794312100CE
:1028E0002B082007AC000030213DAD0026088600F3
:1028F00087010130810741310318810A26088600CB
:102900008701403FA800413FA9002808840029080A
:1029100085000008D03EAB000A302B02031C912C2E
:10292000922C642C2D08A7002C08A600080021007A
:102930002508260403199D2C9E2CA42C250826046A
:10294000031DA32CA42CA92C23089E31A22694316C
:10295000F42C25088600260887004931160001045A
:102960000319B32CB42CD42C250886002608870024
:102970004931403FA700413FA800250886002608AE
:1029800087004231403FA900413FAA002A08803A0F
:10299000AB002808803A2B02031DD02C27082902FF
:1029A0000318D32CD42CF42C2100250886002608EB
:1029B000870042312508840026088500003FA700D3
:1029C000013FA800403F27078400413F283D850084
:1029D0002308800025088600260887004231013040
:1029E000810741310318810A0800031020003C0DC3
:1029F0003D0DC3004308031DFE2CFF2C082D0030A5
:102A0000BD000030BC000030BB000030BA00632DB8
:102A10003A08BE003B08BF003C08C0003D08C100AA
:102A20001F30C136C00CBF0CBE0C890B112D3E08E7
:102A3000C200BC17FF30BA05FF30BB05FF30BC0534
:102A40000030BD059630C302C31F272D282D3E2D13
:102A50004308803A973E03182E2D2F2D302DFF2C42
:102A60000130BD36BC0CBB0CBA0C890B312D0130CA
:102A7000C307031D3C2D3D2D302D532D2030430227
:102A8000031C432D442D4E2DFF2C0130BA35BB0DB8
:102A9000BC0DBD0D890B462D0130C3024308031D3B
:102AA000522D532D452D42080319572D582D632DB6
:102AB000BA09BB09BC09BD09BA0A0319BB0A031943
:102AC000BC0A0319BD0A08002400951A682D692D57
:102AD000D32D21002608A700A8012708A000280858
:102AE000A1000530A2000030A3009F319E27953140
:102AF000D2302100200784001830213D8038850025
:102B000000082400940021002608A700A801270837
:102B1000A0002808A1000530A2000030A3009F31CA
:102B20009E279531D3302100200784001830213DA5
:102B30008038850000082400950021002608A700A1
:102B4000A8012708A0002808A1000530A200003035
:102B5000A3009F319E279531D430210020078400A7
:102B60001830213D8038850000082400970021009E
:102B70002608A700A8012708A0002808A100053002
:102B8000A2000030A3009F319E279531D53021004F
:102B9000200784001830213D80388500000824007B
:102BA00092009516D32D080020006208031DD92D30
:102BB000DA2D392E9D313F2595310130210021023A
:102BC000C23003192002031CE62DE72D312E903070
:102BD000A0000130A1009F31512795310130200024
:102BE000E20001302200C8070030C93D9D317E253A
:102BF000953120006B0821002007AD0020006C08F3
:102C00002100213DAE009D3187259531D030210036
:102C1000AF00C930890B0A2EAF0B0A2E00329D314E
:102C20007E25953103302100210252300319200204
:102C3000031C1B2E1C2E232E2000EB09EC09EB0A93
:102C40000319EC0A312E9D317E259531003021008B
:102C5000210297300319200203182F2E302E312E17
:102C60001C2E00302100A000A1009F31512795317A
:102C7000482E9D313F2595310130210021025F30E2
:102C8000031920020318452E462E482E2000E2018B
:102C9000080001302100C100200056082100C300B7
:102CA000200055082100C2001F30C4000030C500BC
:102CB0002300BF01892EFF302100C407FF30C53D2E
:102CC0004408A03E8600013087000A30A000003092
:102CD000A1003F08A3003E08A2008731CC2796310F
:102CE00021002008303E8100C101FF30C207FF30C3
:102CF000C33D0A30A0000030A1003F08A3003E08F9
:102D0000A20091313A21963121002108BF0020080C
:102D1000BE0021004408450403198F2E902EAD2ECD
:102D20003E083F04031D952E962E5B2E4108031D81
:102D30009A2E9B2E5B2E4308803AC00080304002C2
:102D4000031DA42E01304202031CA72EA82EAD2E77
:102D50002000E118AC2EAD2E5B2E21003D08B50001
:102D60003C08B4004408A03EB6004308B80042083E
:102D7000B7009231DB22963121003508BD003408BE
:102D8000BC0008009331862396312100EB003A2FD6
:102D90006B08013EA60088310D20963121002708DE
:102DA000AE002608AD009D31872596314C302100BC
:102DB000E1009830E2006B08013EA60088310D204A
:102DC000963121002708E4002608E3009E31702692
:102DD00096315B2F6B08013EC30089312B21963160
:102DE00021004608D2004508D1004408D00043081D
:102DF000CF009E31C4269631BA302100E1009830D0
:102E0000E2009E31702696315B2F6B08013EC300B5
:102E100089312B21963121004608D2004508D10086
:102E20004408D0004308CF009E31B3269631AD3020
:102E30002100E1009830E2009E31702696315B2F30
:102E400020006D080319252F272F0130282F00306F
:102E5000ED009E302100E1009830E2009E317026A6
:102E600096315B2F7D30E1009830E2009E31702674
:102E700096315B2F6B088600013087000108003A0D
:102E800003195B2F493A0319052F053A0319202F1F
:102E90001C3A0319EA2E033A0319C82E3A3A0319C9
:102EA000052F053A0319202F1C3A0319EA2E033A7D
:102EB0000319C82E322F0800F80078080319612F73
:102EC000622F762FF31F652F662F762F7009FA0079
:102ED0007109FB007209FC007309FD00FA0A03196D
:102EE000FB0A0319FC0A0319FD0A7E2F7308FD0073
:102EF0007208FC007108FB007008FA007308720485
:102F000071047004031D852F862F8F2F0030F3006E
:102F10000030F2000030F1000030F000FF2F96305A
:102F2000F9009B2F0130F9070130FD36FC0CFB0C3A
:102F3000FA0C890B952FFE307D05031DA02FA12FC4
:102F4000922FB12F0130F9070130FA070030FB3D15
:102F5000FC3DFD3D0130FD36FC0CFB0CFA0C890BF1
:102F6000AB2FFF307D05031DB62FB72FA22FC12F2A
:102F70000130F9020130FA35FB0DFC0DFD0D890B16
:102F8000BB2FFC1BC42FC52FCB2F02307902031897
:102F9000CA2FCB2FB82F7918CE2FCF2FD72FFF3096
:102FA000FA05FF30FB057F30FC05FF30FD050310FF
:102FB000F90C7908F400F501F601F7011830F43541
:102FC000F50DF60DF70D890BDF2F7408FA0475085F
:102FD000FB047608FC047708FD0478080319F12F38
:102FE000F22FF72FF31FF52FF62FF72FFD177D0880
:102FF000F3007C08F2007B08F1007A08F00008007A
:103000000334113400340034BE341F348634103499
:10301000A2341D3499341D3400340034003400349B
:103020000034003400340034003400340034003400
:1030300000340034003400340034003400340034F0
:1030400000340034003400340034003400340034E0
:1030500043341E3452341E340034003400340034FF
:10306000AB341D340034003464341534003400347F
:10307000003400340034003400340034FB341D3498
:1030800000340034003400340034003400340034A0
:1030900000340034003400346334683461346E34F6
:1030A0006734653464342034733465347434703474
:1030B0006F3469346E347434203474346F34203493
:1030C000253475340D340A34003469346E34703468
:1030D000753474342034623475346634663465343F
:1030E000723420346F3476346534723466346C3420
:1030F0006F3477340D340A34003455346E346B3405
:103100006F3477346E34203463346F346D346D34FF
:1031100061346E3464340D340A3400342C34203479
:1031200073346534743470346F3469346E34743489
:103130003A34203425347534203400346C346F3400
:1031400067347334203474346F34673467346C34C8
:10315000653464340D340A340034633468346134C3
:103160006E3467346534643420346B3469340D3420
:103170000A3400346334683461346E34673465343F
:10318000643420346B3470340D340A3400342C34FD
:10319000203470346F346D3470343A342034253434
:1031A0007534003440340A34103407340034643445
:1031B000003410340134003443346F3475346E34C9
:1031C00074343A3420342534753400342534693469
:0C31D0002E342534303433347534003490
:103A4A000800080023001D121D16080093313023B8
:103A5A009D310800233400340134103421001C083D
:103A6A00F1001B08F000080020005A08F10059086C
:103A7A00F000080021006E08A1006D08A0000800EF
:103A8A00640080010131890B462D0034FE001200CA
:103A9A001E00FE0B4C2D0034210021082200DF00FD
:103AAA00210020082200DE000800320099019B0153
:103ABA009D0106309F009E019C01080021002108FB
:103ACA002000E000210020082000DF00080021007B
:103ADA0021082200D700210020082200D600080071
:103AEA00220049082100A100220048082100A00064
:103AFA000800220069082100A100220068082100AC
:103B0A00A000080021002E082200E90021002D084B
:103B1A002200E8000800210021082200D500210027
:103B2A0020082200D400080020006808031D9E2DEA
:103B3A00A02D0130A12D0030080020006508031DCA
:103B4A00A72DA92D0130AA2D0030080021009111BE
:103B5A002000911124009401950197019201080017
:103B6A0000340034603440346634663466343F349A
:103B7A0096340034F1007108F000F00DF00D2100C8
:103B8A001D087006033970069D00080020001010F9
:103B9A000B1400302100A0000030A1009D316325E4
:103BAA009D31080080302C009C007C309B00C03086
:103BBA009A001F08F33904389F00080080302C004F
:103BCA0099007C309800C03097001F08FC390138F2
:103BDA009F0008002100A1002108A000A00DA00D4F
:103BEA001D082006033920069D0008002100200830
:103BFA00240091002000911D032E042EFF2D911107
:103C0A002400110808002100A601953164259E317F
:103C1A002B302100A0001D30A1009D3190259E313E
:103C2A0008002000111322005E085F0403191E2EEB
:103C3A001F2E242E5F088A005E080A009E310800A3
:103C4A0022005808590403192B2E2C2E312E5908FC
:103C5A008A0058080A009E312000911008002200AC
:103C6A005608570403193A2E3B2E402E57088A004D
:103C7A0056080A009E3120009210080021002008F0
:103C8A0021040319492E4A2E512E21082000DE0054
:103C9A00210020082000DD0008002100200821045E
:103CAA000319582E592E602E21082000DC0021000D
:103CBA0020082000DB0008000E3028009D009C012F
:103CCA00FF302200D4000730D500200092131D30A7
:103CDA0028009E000800E3302100E7000030D900E8
:103CEA00DA006208DC006108DB00E730DD009031B1
:103CFA00AE209E310800F93020009E009D0102305E
:103D0A002200D8000030D90020009110210091141F
:103D1A001E3020009F000800F93028009600950107
:103D2A0003302200D6000030D70020009210210074
:103D3A00921477302800970008002100A2009D31D4
:103D4A0099259E31003A0319AB2EAC2EA42E2100E0
:103D5A002208A000903186209E31080021005208D6
:103D6A002200E300210051082200E200210050084D
:103D7A002200E10021004F082200E0000800210093
:103D8A0052082200E700210051082200E600210023
:103D9A0050082200E50021004F082200E400080034
:103DAA002100A71BD92EDA2EDB2EE62E2609A80023
:103DBA002709A900A80A0319A90A2808A600290898
:103DCA00A70008002000921FEB2EEC2EFA2E2200EC
:103DDA00540855040319F22EF32EF82E55088A00BA
:103DEA0054080A009E312000921308007108F3005B
:103DFA007008F200F336F20CF336F20C72082C005B
:103E0A00980070080339F2000630F235890B0A2F40
:103E1A007208970008002100A0019D31FB259F31FF
:103E2A002100A0019D31FB259F312100A0019D3178
:103E3A00FB259F312100A0019D31FB259F31080000
:103E4A00A03021009E009B019C0105309F0001309B
:103E5A009D002000111325302100A0001D30A10073
:103E6A009D3151259F31210011170800210020089A
:103E7A00A200412F0130A0072008860001308700E8
:103E8A000108031D492F4A2F3F2F22082002A000B4
:103E9A00A101A01BA103080021002108A3002008FA
:103EAA00A200A336A20CA336A20C22082C009B0067
:103EBA00210020080339A2000630A235890B622F9F
:103ECA0022082C009A000800FF302100A0009D3132
:103EDA00FB259F31FF302100A0009D31FB259F313A
:103EEA00FF302100A0009D31FB259F31FF302100CA
:103EFA00A0009D31FB259F31080008302000680290
:103F0A000318882F892F9B2F6908383E86000130B5
:103F1A008700010823009A0020006908013E07393A
:103F2A00F0007008E9000130E8079D2F2100111206
:103F3A0008002100A401A501201CA42FA52FA92F48
:103F4A002208A4072308A53D0130A235A30D890B39
:103F5A00AA2F0130A136A00C890BAF2F200821040B
:103F6A00031DB82FB92FA12F2508A1002408A000EE
:103F7A00080020006608303E8600013087000108EC
:103F8A002100A10020006608013E07392100A00097
:103F9A0020082000E600210091122000650803197C
:103FAA00D72FD82FDA2F0130E502210091162108E8
:103FBA0008009D315A259F319131F1219F319E315F
:103FCA0080269F319E3191269F319E3161269F31F5
:103FDA009F3125279F31913103219F319D31D7256B
:103FEA009F319D31E3259F319D31AB259F319D3115
:063FFA00CB259F310800F9
:020000040001F9
:08000E008C3FF33FFF3FFF3F71
:00000001FF
