:1000000080314028080008007E1480310B1F3E28F4
:100010002100111E15282000111E15282200650838
:100020008A0064080A0080313E282100911E22289F
:100030002000911E2228230055088A0054080A0037
:1000400080313E282100921C2C282000921C2C2854
:100050009F31BC2780313E282100911C362820008A
:10006000911C36289F31AF2780313E282100111F77
:100070003E282000111F3E289F31A2277E10090034
:1000800080314228B03084009E3085006C3086007C
:100090000030870004309E31C6268031DC30840079
:1000A0009E308500683086000130870008309E3120
:1000B000C6268031553084000030850017309E31CF
:1000C000C026803120308400013085002E309E31E2
:1000D000C0268031A03084000130850034309E314C
:1000E000C0267E1020009331952B21004D088039C9
:1000F000D7004D35DD00CC1B5D145D0803198D283C
:100100005D0A031D8B280030CD000030CC0000308C
:10011000CB000030CA00CC1795280030CD0000304D
:10012000CC000030CB000030CA0051088039D7061F
:100130005135DC00D01B5C145C080319AC285C0A48
:10014000031DAA280030D1000030D0000030CF00BD
:100150000030CE00D017B4280030D1000030D000DD
:100160000030CF000030CE005C08031D5D08031D89
:10017000C2280030CD000030CC000030CB00003071
:10018000CA0008004A08A00050089131AA21803115
:1001900021002108E3002008E2006208D200D30118
:1001A000D401D5015508DB005408DA005308D90002
:1001B0005208D8006308D200D301D401D5015508F4
:1001C000E1005408E0005308DF005208DE004B084D
:1001D000A0004F089131AA21803121002108E300BD
:1001E0002008E2006208D200D301D401D5015208F0
:1001F000D8075308D93D5408DA3D5508DB3D63085C
:10020000D200D301D401D5015208DE075308DF3DE7
:100210005408E03D5508E13D4C08A0004E089131DE
:10022000AA21803121002108E3002008E2006208B1
:10023000D200D301D401D5015208D8075308D93DC3
:100240005408DA3D5508DB3D6308D200D301D401E0
:10025000D5015208DE075308DF3D5408E03D55083C
:10026000E13D0830D835D90DDA0DDB0D890B322987
:100270004B08A0004E089131AA21803121002108AD
:10028000E3002008E2006208D8076308D93D003087
:10029000DA3DDB3D4A08A0004F089131AA218031A8
:1002A00021002108E3002008E2006208D807630863
:1002B000D93D0030DA3DDB3D0830D835D90DDA0DB7
:1002C000DB0D890B5D294A08A0004E089131AA2157
:1002D000803121002108E3002008E2006208D807ED
:1002E0006308D93D0030DA3DDB3D4B08A0005008E3
:1002F0009131AA21803121002108E3002008E20089
:100300006208DE076308DF3D0030E03DE13D4C0858
:10031000A0004F089131AA21803121002108E3007B
:100320002008E2006208DE076308DF3D0030E03DA0
:10033000E13D4C08A00050089131AA2180312100F4
:100340002108E3002008E2006208D2006308D3001D
:10035000D401D5010830D235D30DD40DD50D890B7C
:10036000AB295208DE075308DF3D5408E03D55082D
:10037000E13D5808D2005908D3005A08D4005B0860
:10038000D5001830D536D40CD30CD20C890BC22929
:100390005208DE075308DF3D5408E03D5508E13DB3
:1003A0000830D835D90DDA0DDB0D890BD1295D0860
:1003B0005C07D200D301D30D5208823EE200FF3029
:1003C000533DE300E01BF9290130DE35DF0DE00D80
:1003D000E10D890BE529DB1B5E140130D835D90D01
:1003E000DA0DDB0D890BEE29FF30E207FF30E33D2C
:1003F000E229DC01DB1F122AFF305805D200FF3052
:100400005905D300FF305A05D4007F305B05D50075
:10041000550854045304520403195E18102A122A72
:100420000130DC005C080319392A0130DE07003096
:10043000DF3DE03DE13D611C392A5E08D2005F08E6
:10044000D3006008D4006108D5000130D600D5374C
:10045000D40CD30CD20CD60B272A5508E100540833
:10046000E0005308DF005208DE000130E2070030F0
:10047000E33D6308803AD20080305202031D422AD5
:10048000FF306202031C4E2A7F302100E1008030E1
:10049000E0000030DF000030DE007A2A210063082F
:1004A000803AD20080305202031D582A0130620285
:1004B0000318652A00302100E1000030E000003020
:1004C000DF000030DE00D7017A2A21006208DD005B
:1004D000FF30DE05FF30DF057F30E0050030E1054D
:1004E0005D18E0175D08D2000130D236890B752AFD
:1004F0005208E1005708E1046108CD006008CC0013
:100500005F08CB005E08CA0008002000230880397D
:10051000AD002335B300A21B3314330803199D2A01
:10052000330A031D9B2A0030A3000030A2000030D4
:10053000A1000030A000A217A52A0030A3000030BF
:10054000A2000030A1000030A00027088039AD06CD
:100550002735B200A61B321432080319BC2A320A0E
:10056000031DBA2A0030A7000030A6000030A50005
:100570000030A400A617C42A0030A7000030A6004F
:100580000030A5000030A4003208031D3308031D0D
:10059000D22A0030A3000030A2000030A1000030B9
:1005A000A00008002008F000260891316C2182315B
:1005B00071082000B9007008B8003808A800A90127
:1005C000AA01AB012B08B1002A08B0002908AF002E
:1005D0002808AE003908A800A901AA01AB012B0820
:1005E000B7002A08B6002908B5002808B400210879
:1005F000F000250891316C21823171082000B9008A
:100600007008B8003808A800A901AA01AB012808A1
:10061000AE072908AF3D2A08B03D2B08B13D390887
:10062000A800A901AA01AB012808B4072908B53D13
:100630002A08B63D2B08B73D2208F0002408913166
:100640006C21823171082000B9007008B8003808A8
:10065000A800A901AA01AB012808AE072908AF3DEF
:100660002A08B03D2B08B13D3908A800A901AA010C
:10067000AB012808B4072908B53D2A08B63D2B0868
:10068000B73D0830AE35AF0DB00DB10D890B422B23
:100690002108F000240891316C218231710820007A
:1006A000B9007008B8003808AE073908AF3D00300F
:1006B000B03DB13D2008F000250891316C21823118
:1006C00071082000B9007008B8003808AE07390872
:1006D000AF3D0030B03DB13D0830AE35AF0DB00D8F
:1006E000B10D890B6D2B2008F000240891316C218D
:1006F000823171082000B9007008B8003808AE07D0
:100700003908AF3D0030B03DB13D2108F00026086A
:1007100091316C21823171082000B9007008B80055
:100720003808B4073908B53D0030B63DB73D22085A
:10073000F000250891316C21823171082000B90048
:100740007008B8003808B4073908B53D0030B63D28
:10075000B73D2208F000260891316C2182317108E2
:100760002000B9007008B8003808A8003908A900AE
:10077000AA01AB010830A835A90DAA0DAB0D890B54
:10078000BB2B2808B4072908B53D2A08B63D2B081D
:10079000B73D2E08A8002F08A9003008AA0031088C
:1007A000AB001830AB36AA0CA90CA80C890BD22BC5
:1007B0002808B4072908B53D2A08B63D2B08B73DDF
:1007C0000830AE35AF0DB00DB10D890BE12B3308FC
:1007D0003207A800A901A90D2808823EB800FF3001
:1007E000293DB900B61B092C0130B435B50DB60D45
:1007F000B70D890BF52BB11B34140130AE35AF0D9D
:10080000B00DB10D890BFE2BFF30B807FF30B93D9D
:10081000F22BB201B11F222CFF302E05A800FF30B1
:100820002F05A900FF303005AA007F303105AB004D
:100830002B082A042904280403193418202C222CFC
:100840000130B20032080319492C0130B4070030DE
:10085000B53DB63DB73D371C492C3408A8003508D6
:10086000A9003608AA003708AB000130AC00AB374E
:10087000AA0CA90CA80CAC0B372C2B08B7002A0823
:10088000B6002908B5002808B4000130B8070030C8
:10089000B93D3908803AA80080302802031D522C47
:1008A000FF303802031C5E2C7F302000B700803000
:1008B000B6000030B5000030B4008A2C20003908A2
:1008C000803AA80080302802031D682C01303802CD
:1008D0000318752C00302000B7000030B60000303F
:1008E000B5000030B400AD018A2C20003808B300F8
:1008F000FF30B405FF30B5057F30B6050030B705D1
:100900003318B6173308A8000130A836890B852C98
:100910002808B7002D08B7043708A3003608A2003E
:100920003508A1003408A0000800210031088039F2
:10093000BE003135C000B01B401440080319AE2C76
:10094000400A031DAB2C0030B1000030B000003075
:10095000AF000030AE00B017B101B62C0030B100CE
:100960000030B0000030AF000030AE0035088039F4
:10097000BF003F083E06031D3E173535BF00B41BC0
:100980003F143F080319D22C3F0A031DCF2C00301F
:10099000B5000030B4000030B3000030B200B4172E
:1009A000B501DA2C0030B5000030B4000030B300DF
:1009B0000030B20040083F020318002D3E1FE22C19
:1009C0008030BE064008C1003F08C0004108BF009B
:1009D0002E08C1003208AE004108B2002F08C10045
:1009E0003308AF004108B3003008C1003408B0003C
:1009F0004108B4003108C1003508B1004108B50014
:100A0000C1013F08B600B7013708B90040083602F7
:100A1000B800031CB9033908803ABA0080303A02A2
:100A2000031D142D1A303802031C462D21003108F5
:100A300030042F042E0403191F2D0130202D003007
:100A4000C1000030B1000030B0000030AF00003015
:100A5000AE003F08C0004B2D411C382D4108B600A8
:100A60000130B636890B312D36080138C1003A2DD8
:100A70000310C10C2E18C1170130B600B137B00CED
:100A8000AF0CAE0CB60B3E2D0130C00721003F0865
:100A90004002031C2C2D3E1B7E2D4008031D592DAA
:100AA0000030B1000030B0000030AF000030AE00C8
:100AB00008003208AE073308AF3D3408B03D3508B2
:100AC000B13D311CF72D411C6F2D4108B60001309E
:100AD000B636890B682D36080138C100712D031018
:100AE000C10C2E18C1170130B600B137B00CAF0CD5
:100AF000AE0CB60B752D0130C007F72D3108803ACA
:100B0000B6003508803A3602031D902D34083002B5
:100B1000031D902D33082F02031D902D32082E0245
:100B20000318C52DFF30B600FF30B700FF30B80006
:100B3000FF30B9002E083202BA002F08333BBB0049
:100B40003008343BBC003108353BBD003A08B607DD
:100B50003B08B73D3C08B83D3D08B93D3908B100F8
:100B60003808B0003708AF003608AE008030BE0647
:100B70004103FF3AC1004108031DCD2D0130AE07EE
:100B80000030AF3DB03DB13DCD2D3208AE0233084F
:100B9000AF3B3408B03B3508B13B310830042F047B
:100BA0002E04031DF52D4108031DF52D0030B10065
:100BB0000030B0000030AF000030AE00080001305F
:100BC000AE35AF0DB00DB10D890BE02DC11B2E144C
:100BD000411CEE2D0314410DC100F02D0310C10D79
:100BE00040080319F52D0130C002B01FDF2DBF01F1
:100BF000C11F022E41087F3903192E18002E022E24
:100C00000130BF003F0803192A2E0130AE07003023
:100C1000AF3DB03DB13D311C2A2E2E08B6002F0845
:100C2000B7003008B8003108B9000130BA00B93750
:100C3000B80CB70CB60CBA0B172E3908B10038082F
:100C4000B0003708AF003608AE00400A03192A2E5C
:100C50000130C007400A031D4008031D3A2E003032
:100C6000B1000030B0000030AF000030AE004008EE
:100C70000319BE01401C3E2EB017402E7F30B00538
:100C80004008B6000130B636890B432E3608B10055
:100C9000BE1F0800B1170800210027088039B100E5
:100CA0002735B800A61B381438080319652E380AF2
:100CB000031D622E0030A7000030A6000030A50002
:100CC0000030A400A617A7016D2E0030A700003049
:100CD000A6000030A5000030A40023088039B1062A
:100CE0002335B900A21B391439080319852E390A96
:100CF000031D822E0030A3000030A2000030A100AE
:100D00000030A000A217A3018D2E0030A3000030F8
:100D1000A2000030A1000030A0002308220421041A
:100D20002004031DAA2E0030A7000030A6000030CA
:100D3000A5000030A4008030A6047F30A70431084D
:100D4000A7042708A3002608A2002508A10024085C
:100D5000A00008003808031DB62E0030A3000030A4
:100D6000A2000030A1000030A00008003808A80050
:100D7000A9012908AB0039082802AA00031CAB030B
:100D80002A087F3EB20000302B3DB3002708B00098
:100D90002608AF002508AE002408AD000030A700EB
:100DA0000030A6000030A5000030A4000030B700DD
:100DB0000030B6000030B5000030B400B9011A3080
:100DC00039020318192F39080319FD2E0130AD35EA
:100DD000AE0DAF0DB00D890BE72E0130A435A50D7A
:100DE000A60DA70D890BEE2EB71B24140130B435C8
:100DF000B50DB60DB70D890BF72E23083002031D74
:100E00000B2F22082F02031D0B2F21082E02031D7A
:100E10000B2F20082D02031C162F37172008AD02B8
:100E20002108AE3B2208AF3B2308B03B0130B90795
:100E3000DF2E30082F042E042D04031D3414A61BAE
:100E4000362F0130A435A50DA60DA70D890B222F35
:100E5000B71B24140130B435B50DB60DB70D890B91
:100E60002B2FFF30B207FF30B33D1F2FB901B71F43
:100E70004F2FFF303405A800FF303505A900FF30A3
:100E80003605AA007F303705AB002B082A04290459
:100E90002804031924184D2F4F2F0130B9003908A9
:100EA0000319762F0130A4070030A53DA63DA73DCC
:100EB000271C762F2408A8002508A9002608AA00C8
:100EC0002708AB000130AC00AB37AA0CA90CA80C6A
:100ED000AC0B642F2B08A7002A08A6002908A50040
:100EE0002808A4000130B2070030B33D3308803A2F
:100EF000A80080302802031D7F2FFF303202031C20
:100F00008E2FFF302100B2000030B3000030A70068
:100F10000030A6000030A5000030A40021003308F6
:100F2000803AA80080302802031D982F0130320239
:100F30000318A62F2100B201B3010030A700003032
:100F4000A6000030A5000030A400B1012100320845
:100F5000B800381CAD2FA617AF2F7F30A605380874
:100F6000A8000130A836890BB22F2808A7009F2EB1
:100F700020006835203E8600013087000030C03FE9
:100F8000C13F23009D1CD42F20006835203E8600E1
:100F90000130870001155D085E040319D42F5E0837
:100FA0008A005D080A00873123001D1DE72F2000FD
:100FB0006835203E86000130870081145F08600498
:100FC0000319E72F60088A005F080A0087312300B1
:100FD0001908F00020006808013E0739F100710887
:100FE0006706031908006808303E86000130870054
:100FF000700881007108E8000130E6070800080069
:10100000080022006F082100A30022006E082100C2
:10101000A20022006D082100A10022006C0821001E
:10102000A0000800220051082100E700220050081B
:101030002100E60022004F082100E50022004E08B2
:101040002100E4009531E725883121006408220061
:10105000D40051082100C900220050082100C80016
:1010600022004F082100C70022004E082100C600C0
:10107000220054082100EE00EF01EE1BEF036E0882
:10108000A0006F08A100890D893B8909A200A30077
:10109000013089312421883121002308C50022082C
:1010A000C4002108C3002008C20091318B2188317F
:1010B00021004508D1004408D0004308CF00420871
:1010C000CE004430CD007A30CC000030CB00003070
:1010D000CA0080317520883121004D08E7004C0896
:1010E000E6004B08E5004A08E4009531E725883121
:1010F000210065082200D300210064082200D200EC
:10110000EC302100E0009830E1002200540821007A
:10111000E200E301E21BE303220053082100E500A3
:10112000220052082100E40090311C200800F80041
:101130007808031DF31FAC287009FA007109FB0041
:101140007209FC007309FD00FA0A0319FB0A03196E
:10115000FC0A0319FD0AB4287308FD007208FC009C
:101160007108FB007008FA007308720471047004BF
:10117000031DC3280030F3000030F2000030F100FE
:101180000030F00008009630F900FE307D050319AC
:10119000E2280130F9070130FD36FC0CFB0CFA0C9B
:1011A000890BCC28C5280130F9070130FA07003037
:1011B000FB3DFC3DFD3D0130FD36FC0CFB0CFA0C0B
:1011C000890BDC28FF307D050319F428D328023071
:1011D0007902031CF6280130F9020130FA35FB0DC3
:1011E000FC0DFD0D890BEE28FC1FE728791800295E
:1011F000FF30FA05FF30FB057F30FC05FF30FD05B1
:101200000310F90C7908F400F501F601F701183024
:10121000F435F50DF60DF70D890B08297408FA045D
:101220007508FB047608FC047708FD047808031DA4
:10123000F31F1B29FD177D08F3007C08F2007B08D3
:10124000F1007A08F00008002100A8002808031D1A
:10125000A31F3A292009AA002109AB002209AC00EA
:101260002309AD00AA0A0319AB0A0319AC0A031932
:10127000AD0A42292308AD002208AC002108AB00CA
:101280002008AA002308220421042004031D512958
:101290000030A3000030A2000030A1000030A00008
:1012A00008009630A900FE302D0503197029013081
:1012B000A9070130AD36AC0CAB0CAA0C890B5A292E
:1012C00053290130A9070130AA070030AB3DAC3DDE
:1012D000AD3D0130AD36AC0CAB0CAA0C890B6A29C4
:1012E000FF302D0503198229612902302902031CD0
:1012F00084290130A9020130AA35AB0DAC0DAD0D2A
:10130000890B7C29AC1F752929188E29FF30AA0565
:10131000FF30AB057F30AC05FF30AD050310A90CE5
:101320002908A400A501A601A7011830A435A50D20
:10133000A60DA70D890B96292408AA042508AB043D
:101340002608AC042708AD042808031DA31FA929FB
:10135000AD172D08A3002C08A2002B08A1002A0815
:10136000A000080001302100C300BF1FB9290130CF
:10137000BA290030C600200056082100C500200010
:1013800055082100C40046080319D529FF30C407B9
:10139000FF30C53D4608031DCF292B30D0292D3005
:1013A000C1000030C2004108C6001F30C700003035
:1013B000C8002300BF01282A21003E083F04031D66
:1013C000F2294308031DF2294508803AC000803005
:1013D0004002031DED2901304402031C342A200081
:1013E000E31C342AFF302100C707FF30C83D4708FF
:1013F000A03E8600013087000A30A0000030A10026
:101400003F08A3003E08A2009331512389312100F7
:101410002108A7002008A60090310D208931210065
:101420002608303E8100C301FF30C407FF30C53DB0
:101430000A30A0000030A1003F08A3003E08A2002F
:101440009331E223893121002108BF002008BE002A
:1014500021004808803AC00080304002031D322A33
:10146000013047020318DC29210046080319432AEA
:10147000FF30C707FF30C83D4708A03E8600013057
:101480008700460881003D08B5003C08B4004708C5
:10149000A03EB6004508B8004408B7009231CE22FD
:1014A000080000302100EE000030ED000030EC00BC
:1014B0000030EB00E801A82A3A306F020318B42A82
:1014C0004130CD002030CC000030CB000030CA00CD
:1014D0006E08D1006D08D0006C08CF006B08CE00FC
:1014E000803175208A3121004D08EE004C08ED0056
:1014F0004B08EC004A08EB006F08D03EA000FF301C
:1015000003180030A100A201A30100308931242179
:101510008A3121002308B1002208B0002108AF0061
:101520002008AE006E08B5006D08B4006C08B3006A
:101530006B08B200843195248A3121003108EE0015
:101540003008ED002F08EC002E08EB000130E90711
:1015500064088600013087000108EF000130E407CD
:1015600030306F0203185C2A2C306F060319BC2A36
:101570002E306F06031DC02A0130E800E901A82AB9
:10158000EA01E42A69086A020318E72A4130A30045
:101590002030A2000030A1000030A0006E08A7009B
:1015A0006D08A6006C08A5006B08A40086314C26C7
:1015B0008A3121002308EE002208ED002108EC000A
:1015C0002008EB000130EA076808031DC22A6E08F4
:1015D000E7006D08E6006C08E5006B08E400080011
:1015E000943130248A312200D200762B5208013EF9
:1015F0002100A60097311C278A3121002708AE0060
:101600002608AD009F3135278A314C302100E0009B
:101610009830E10022005208013E2100A6009731D7
:101620001C278A3121002708E3002608E2009031B8
:101630001C2008005208013E2100E4008A3151229A
:101640008A31210067082200D100210066082200AB
:10165000D000210065082200CF002100640822008C
:10166000CE009F3152278A31CA302100E0009830E5
:10167000E10090311C2008005208013E2100E400E6
:101680008A3151228A31210067082200D1002100CD
:1016900066082200D000210065082200CF0021004A
:1016A00064082200CE009F3148278A31BD302100D6
:1016B000E0009830E10090311C20080020006E0806
:1016C000031D642B0130652B0030EE009F3021009C
:1016D000E0009830E10090311C2008007D302100AE
:1016E000E0009830E10090311C200800520886008C
:1016F000013087000108003A0319972B493A031972
:101700003C2B053A03195E2B1C3A03191A2B033A9A
:101710000319F62A3A3A03193C2B053A03195E2BB2
:101720001C3A03191A2B033A0319F62A6E2B0800E8
:101730009F3108278B3121002108EF002008EE009F
:1017400095312D258B3121006F082200D900210011
:101750006E082200D800D91FB02BD801D901C02BA8
:101760005908803AD20080305202031DB92B3C3018
:101770005802031CC02B3B302200D8000030D90097
:101780009F3111278B3121002108EF002008EE0046
:1017900095312D258B3121006F082200D6002100C4
:1017A0006E082200D500D61FD72BD501D601903167
:1017B0006E208B312200D70156085906031DE22BFB
:1017C00055085806031DE72B01302000E4002000D7
:1017D000640803191C2C22005508FF3ED200FF307C
:1017E000563DD3005908803AD4005308803A540239
:1017F000031DFC2B52085802031C1C2C2200550808
:10180000013ED2000030563DD3005308803AD40048
:101810005908803A5402031D0F2C58085202031C29
:101820001C2CFF302100A100A2010530A3000030D4
:101830009031DE208B314E2C22005708D200D3018C
:1018400059085306031D262C58085206031D312C37
:1018500044302100A1004430A2000530A3004430F0
:10186000492C5708D200D30156085306031D3A2CC1
:1018700055085206031D432C2100A101A201053089
:10188000A300FF30492C2100A101A2010530A300D3
:1018900000309031DE208B312000E4010130220045
:1018A000D7073B305702031CDC2B9031AC200800DB
:1018B00021004B0886008701403FCD00413FCE000C
:1018C0004D0884004E0885001200253A031D322D74
:1018D0004B08860087010130810741310318810AD6
:1018E0002000D501D6010030E300FF302200C40003
:1018F000FF30C5002100D1018B2C2000E314210012
:101900004B08860087010130810741310318810AA5
:101910008B2C0130D1005108031D9F2C4B088600F1
:101920008701403FCD00413FCE004D0884004E0866
:1019300085000008303A03197D2C892C8B2C4B082C
:10194000A6004C08A7009431D5248C31210027082B
:101950002000D600210026082000D500D61FB62C76
:101960006314D509D609D50A0319D60A21004B08F4
:1019700086008701403FD600413FD70056088400CB
:10198000570885001200643A0319CE2C56088400CB
:10199000570885001200693A031DF22C4C08860096
:1019A000870101088400850102308107003FD200D1
:1019B000013FD3005608013ECD000030573DCE0018
:1019C0004B08860087014D08C03F4E08C13F4A08BA
:1019D000BD004908BC005308BF005208BE00893151
:1019E000B221080056088400570885001200753A95
:1019F000031D282D4C0886008701010884008501FD
:101A000002308107003FD200013FD3005608013E5B
:101A1000CD000030573DCE004B08860087014D08B1
:101A2000C03F4E08C13F1F2D4A08BD004908BC00F9
:101A30005308BF005208BE009631472608005608DA
:101A40008400570885000008753A0319142D282DC5
:101A500021004B08860087010130810741310318BE
:101A6000810A08004B0886008701403FCD00413FB6
:101A7000CE004D0884004E0885000008CF00D0013C
:101A80004F08A3005008A4004A08A6004908A50072
:101A9000943180248C31282D9E31BA268D317108E5
:101AA0002200C7007008C600460820006C02D30060
:101AB0002200470820006D3BD4005308F000540872
:101AC000F100890D893B8909F200F300013088316A
:101AD00097208D3173082000A7007208A6007108B6
:101AE000A5007008A4003A30A3000330A200123011
:101AF000A1006F30A000823185228D3120002308A3
:101B0000BD002208BC002108BB002008BA0022004A
:101B100043082000C100220042082000C00022002B
:101B200041082000BF00220040082000BE008E3186
:101B300049268D3120003D082200C30020003C08CA
:101B40002200C20020003B082200C10020003A0809
:101B50002200C00020005308F0005408F100890D55
:101B6000893B8909F200F3000130883197208D31DB
:101B700073082000A7007208A6007108A50070086D
:101B8000A40022006F082000A30022006E0820009D
:101B9000A20022006D082000A10022006C08200095
:101BA000A000823185228D3120002308BD0022084B
:101BB000BC002108BB002008BA00953187258D3173
:101BC00020003B08D0003A08CF0022006B0820001C
:101BD000A70022006A082000A60022006908200051
:101BE000A500220068082000A4002200430820006D
:101BF000A300220042082000A20022004108200089
:101C0000A100220040082000A000823185228D31F1
:101C100020002308BD002208BC002108BB002008CA
:101C2000BA00953187258D3120003B08D2003A0853
:101C3000D10051084F07D7005208503DD80004305A
:101C40005802003003195702031C372E5408803AFB
:101C5000CE0080304E02031D2F2E01305302031C94
:101C6000372EFF302000D7000330D800422E04303A
:101C7000200058020030031957020318D41F422EC7
:101C8000D701D8015808F1005708F00090318220A0
:101C9000080020003D088039CA003D35CC00BC1B3F
:101CA0004C144C080319622E4C0A031D5F2E0030A1
:101CB000BD000030BC000030BB000030BA00BC17D3
:101CC000BD016A2E0030BD000030BC000030BB00FA
:101CD0000030BA0041088039CB004B084A06031D8A
:101CE0004A174135CB00C01B4B144B080319862EF5
:101CF0004B0A031D832E0030C1000030C0000030AD
:101D0000BF000030BE00C017C1018E2E0030C100E0
:101D10000030C0000030BF000030BE004C084B0255
:101D20000318B42E4A1F962E8030CA064C08CD00E8
:101D30004B08CC004D08CB003A08CD003E08BA0055
:101D40004D08BE003B08CD003F08BB004D08BF005A
:101D50003C08CD004008BC004D08C0003D08CD0047
:101D60004108BD004D08C100CD014B08C200C301B0
:101D70004308C5004C084202C400031CC5034508C3
:101D8000803AC60080304602031DC82E1A30440235
:101D9000031CFA2E20003D083C043B043A040319BE
:101DA000D32E0130D42E0030CD000030BD000030E5
:101DB000BC000030BB000030BA004B08CC00FF2E46
:101DC0004D1CEC2E4D08C2000130C236890BE52EA9
:101DD00042080138CD00EE2E0310CD0C3A18CD1775
:101DE0000130C200BD37BC0CBB0CBA0CC20BF22ECA
:101DF0000130CC0720004B084C02031CE02E4A1B8C
:101E0000322F4C08031D0D2F0030BD000030BC00E8
:101E10000030BB000030BA0008003E08BA073F0897
:101E2000BB3D4008BC3D4108BD3D3D1CAB2F4D1C9A
:101E3000232F4D08C2000130C236890B1C2F4208E7
:101E40000138CD00252F0310CD0C3A18CD170130E5
:101E5000C200BD37BC0CBB0CBA0CC20B292F013021
:101E6000CC07AB2F3D08803AC2004108803A4202BD
:101E7000031D442F40083C02031D442F3F083B0232
:101E8000031D442F3E083A020318792FFF30C20089
:101E9000FF30C300FF30C400FF30C5003A083E02E7
:101EA000C6003B083F3BC7003C08403BC8003D081C
:101EB000413BC9004608C2074708C33D4808C43D26
:101EC0004908C53D4508BD004408BC004308BB00A7
:101ED0004208BA008030CA064D03FF3ACD004D08D3
:101EE000031D812F0130BA070030BB3DBC3DBD3D15
:101EF000812F3E08BA023F08BB3B4008BC3B41086B
:101F0000BD3B3D083C043B043A04031DA92F4D088A
:101F1000031DA92F0030BD000030BC000030BB0005
:101F20000030BA0008000130BA35BB0DBC0DBD0D44
:101F3000890B942FCD1B3A144D1CA22F03144D0D69
:101F4000CD00A42F0310CD0D4C080319A92F01308B
:101F5000CC02BC1F932FCB01CD1FB62F4D087F396C
:101F600003193A18B42FB62F0130CB004B080319D0
:101F7000DE2F0130BA070030BB3DBC3DBD3D3D1CEE
:101F8000DE2F3A08C2003B08C3003C08C4003D08ED
:101F9000C5000130C600C537C40CC30CC20CC60B4B
:101FA000CB2F4508BD004408BC004308BB004208D5
:101FB000BA004C0A0319DE2F0130CC074C0A031D6E
:101FC0004C08031DEE2F0030BD000030BC00003077
:101FD000BB000030BA004C080319CA014C1CF22F98
:101FE000BC17F42F7F30BC054C08C2000130C2364C
:101FF000890BF72F4208BD00CA1F0800BD17080053
:102000002100A6019631B0269031A9302100A00010
:102010001E30A1009F31232708002100A71F0800C0
:102020002609A8002709A900A80A0319A90A28084F
:10203000A6002908A7000800E2302100E6000030D1
:10204000D800D9006108DB006008DA00E630DC0067
:102050009131142108002000921F080022005E0820
:102060005F04031938285F088A005E080A0090316F
:10207000200092130800FF3020009E009D010230D6
:102080002200E2000030E3002000911021009114B2
:102090001D3020009F000800FF30280096009501A9
:1020A00003302200E0000030E10020009210210007
:1020B0009214763028009700080022006B08210057
:1020C000A30022006A082100A20022006908210062
:1020D000A100220068082100A00008002100A00142
:1020E0009F31672790312100A0019F3167279031F0
:1020F0002100A0019F31672790312100A0019F316D
:10210000672708007108F3007008F200F336F20C3C
:10211000F336F20C72082C00980070080339F200B4
:102120000630F235890B9128720897000800A0301C
:1021300021009E009B019C0105309F0001309D0005
:1021400020001113A8302100A0001E30A1009E31F4
:10215000E426210011170800FF302100A0009F3164
:1021600067279031FF302100A0009F316727903111
:10217000FF302100A0009F3167279031FF30210000
:10218000A0009F316727080008302000690203186B
:10219000DB286A08383E86000130870001082300EA
:1021A0009A0020006A08013E0739F0007008EA0032
:1021B0000130E90708002100111208002100A400E5
:1021C0002308E038A0009F316727903121002208C2
:1021D000A0009F316727903121002108A0009F3186
:1021E0006727903121002408A0009F31672708004D
:1021F0002100A401A501201C01292208A40723080D
:10220000A53D0130A235A30D890B02290130A1366D
:10221000A00C890B072920082104031DFB28250891
:10222000A1002408A000080021005B08DF005A0874
:10223000DE0021005E0884005F088500120003199B
:102240002D295908CA005808C900DE30CB005C08A7
:10225000CC008C31582491311929D801D9010800BA
:102260009E31ED26913193310D23913190313B20F8
:10227000913190314C2091319F31F1279131903142
:10228000972091319231982291319F317E2791315F
:102290009F313E2791319F315C270800200067085D
:1022A000303E86000130870001082100A100200097
:1022B0006708013E07392100A00020082000E70040
:1022C0002100911220006608031968290130E602F6
:1022D0002100911621080800F800F401F5017008AA
:1022E000F200F3017208F6007308F700781C7C29ED
:1022F0007608F4077708F53D0130F635F70D890BC0
:102300007D290310F80C7808031D76297508F10063
:102310007408F000080080302100C5064908B100AB
:102320004808B0004708AF004608AE004508B500B1
:102330004408B4004308B3004208B2008431952435
:1023400021003108C5003008C4002F08C3002E0842
:10235000C20008002100A800A401A5012008A200D5
:10236000A3012208A6002308A700281CBB292608D1
:10237000A4072708A53D0130A635A70D890BBC2968
:102380000310A80C2808031DB5292508A10024085E
:10239000A00008002100B201B3012C08320786001A
:1023A000013087000108B100310803190800310825
:1023B000AF00B0012F08A3003008A4002E08A6002B
:1023C0002D08A50094318024913101302100B207FD
:1023D0000030B33DCD292100111AF2292008230035
:1023E0009A000C2A2000690803190C2A6B08383E51
:1023F00086000130870021002008810020006B0842
:10240000013E07392100A10021082000EB00210036
:10241000111201302000E902210011160800252ABE
:102420009E31B426923171082000DC007008DB0078
:102430001230232A9E31B426923171082000DA002E
:102440007008D9001030EF00362A20006F08F20023
:10245000F3017308003A03192E2A362A7208103A3B
:102460000319102A023A03191A2A362A6F089F31D3
:10247000722708002100200821040319602A013076
:10248000A400A11B4B2A0130A035A10D890B442AC1
:102490000130A407412A21082302031D512A2008E4
:1024A0002202031C572A2008A2022108A33B013064
:1024B000A136A00C890B582A0130A402031D4B2A17
:1024C0002308A1002208A00008002100A401A50102
:1024D000200821040319932A0130A600A11B782AA1
:1024E0000130A035A10D890B712A0130A6076E2A93
:1024F0000130A435A50D890B792A21082302031D7B
:10250000832A20082202031C8A2A2008A20221080A
:10251000A33B24140130A136A00C890B8B2A013077
:10252000A602031D782A2508A1002408A00008009F
:1025300021009112B8302300D4000730D5002100CB
:102540001112C4302200E4001030E50048302300AE
:102550009F0090309D0026309E0040309B0003304D
:102560009C0000302100A0000830A1009F31C92745
:102570009231AC302100A0001E30A1009F31D6273F
:102580002200CC01CD012000EB01EA010830E90076
:10259000E801E701E6012100911608002000631C14
:1025A000DB2A21003608AC003508AE003408AD0047
:1025B0009131CA2192312100B81FE02AB701B80138
:1025C000BA01BB013B08803AB9003808803A3902A9
:1025D000031DEC2A37083A020318002B2030210093
:1025E000A3000030A4003508A6003408A5009431EB
:1025F0008024923101302100BA070030BB3DE22A2D
:1026000020006318080021003608AC003508AE0031
:102610003408AD009131CA21080022008C018D01DF
:102620008E01193021008C0020308D00DF308E00AB
:10263000103023008C0080308D00FF308E0024008D
:102640008C018D018E0125008C018D018E013730AA
:1026500026008C00F0308D00FF308E003F302700C8
:102660008C00F0308D00FF308E003C00A1010D3059
:10267000A40019303D009C000230A50014309F00DA
:102680000E303C00A00018303D009E002700910154
:102690009201930194019501960197019801990186
:1026A00008002100A501A31F5C2BA209A309A20A0F
:1026B0000319A30A0130A500A11F632BA009A109DA
:1026C000A00A0319A10A200821040319882B01304C
:1026D000A400A11B732B0130A035A10D890B6C2B1D
:1026E0000130A407692B21082302031D792B200840
:1026F0002202031C7F2B2008A2022108A33B0130E9
:10270000A136A00C890B802B0130A402031D732B72
:1027100025080319902BA209A309A20A0319A30AE9
:102720002308A1002208A000080091313021933134
:102730008B170B179F31962793314C302100A00047
:102740000D30A1009E31FF2693319031002093314E
:102750008A31F022933122008C128C100C119F319F
:102760001A279331210021082200DD0021002008D2
:102770002200DC0001305D02013003195C02031805
:102780008C1602305D02013003195C0203188C14B0
:1027900003305D02013003195C0203180C1505308B
:1027A0002200DB000F30DA00F130890BD52BDA0B79
:1027B000D52BDB0BD52B97318827933190312B20EC
:1027C0009331A82B2100A501A11FED2BA009A10980
:1027D000A00A0319A10A0130A500A31FF62BA20924
:1027E000A309A20A0319A30A0130A506A601A7019D
:1027F000200821040319232C0130A400A11B082C5C
:102800000130A035A10D890B012C0130A407FE2B4E
:102810000130A635A70D890B092C21082302031DC1
:10282000132C20082202031C1A2C2008A2022108C3
:10283000A33B26140130A136A00C890B1B2C0130C0
:10284000A402031D082C250803192B2CA609A7098F
:10285000A60A0319A70A2708A1002608A000080055
:102860009E31D4269431003A031D402C2000650887
:10287000C03E86000130870081016508C03E080027
:102880001330200065020318492C652C91314E212C
:1028900094319E31D4269431003A031D462C653084
:1028A0002100E0009830E10090311C20943120009C
:1028B000E5012300C001632C6508C13E860001309C
:1028C00087008101E501C030080091314E2194312B
:1028D0002100E90020006508C03E86000130870025
:1028E00021006908810020006508C03E8600013093
:1028F00087000A30010603195C2C0130E507302CF3
:102900002100250826040319892C25082604031D07
:102910008D2C23089F31E327080025088600260810
:1029200087004931160001040319B42C25088600DC
:10293000260887004931403FA700413FA8002508ED
:102940008600260887004231403FA900413FAA0087
:102950002A08803AAB002808803A2B02031DB22CCB
:1029600027082902031808002100250886002608E8
:10297000870042312508840026088500003FA70013
:10298000013FA800403F27078400413F283D8500C4
:102990002308800025088600260887004231013080
:1029A000810741310318810A08002100AC01AD0103
:1029B000260886008701403FA800413FA90028085B
:1029C00084002908850012002A3A031D162D2608C6
:1029D000860087010130810741310318810A2708E9
:1029E0008600870101088400850102308107003FCD
:1029F000AC00013FAD00282D2D08A1002C08A0003F
:102A00000A30A2000030A3009031F8209431210058
:102A10002B082007AC000030213DAD0026088600C1
:102A200087010130810741310318810A2608860099
:102A30008701403FA800413FA900280884002908D9
:102A400085000008D03EAB000A302B02031CFC2C92
:102A50002D08A7002C08A6000800C0302100B100F6
:102A6000AF30B0009B30AF003430AE003D30CD0011
:102A70008B30CC007A30CB008B30CA006E08A000BF
:102A80006F08A100A201A3010030893124219531F2
:102A900021002308D1002208D0002108CF002008FF
:102AA000CE0080317520953121004D08B5004C08CD
:102AB000B4004B08B3004A08B20084319524953124
:102AC000210031082200D100210030082200D0006E
:102AD00021002F082200CF0021002E082200CE0066
:102AE00051082100E700220050082100E6002200E2
:102AF0004F082100E50022004E082100E400953136
:102B0000E72521006508EF006408EE0008000310C7
:102B100020003C0D3D0DC3004308031D982D0030DF
:102B2000BD000030BC000030BB000030BA0008001F
:102B30003A08BE003B08BF003C08C0003D08C10089
:102B40001F30C136C00CBF0CBE0C890BA12D3E0836
:102B5000C200BC17FF30BA05FF30BB05FF30BC0513
:102B60000030BD059630C302C31FC72D4308803A0D
:102B7000973E031C8F2D0130BD36BC0CBB0CBA0C2C
:102B8000890BBC2D0130C3070319D82DBB2D203074
:102B9000430203188F2D43080319D82D0130BA358D
:102BA000BB0DBC0DBD0D890BCF2D0130C302CB2D4C
:102BB000420803190800BA09BB09BC09BD09BA0AD1
:102BC0000319BB0A0319BC0A0319BD0A0800031044
:102BD0002100660D670DED006D08031DF82D003016
:102BE000E7000030E6000030E5000030E4000800B7
:102BF0006408E8006508E9006608EA006708EB0079
:102C00001F30EB36EA0CE90CE80C890B012E680842
:102C1000EC00E617FF30E405FF30E505FF30E60580
:102C20000030E7059630ED02ED1F272E6D08803A43
:102C3000973E031CEF2D0130E736E60CE50CE40C63
:102C4000890B1C2E0130ED070319382E1B2E203066
:102C50006D020318EF2D6D080319382E0130E4358D
:102C6000E50DE60DE70D890B2F2E0130ED022B2E21
:102C70006C0803190800E409E509E609E709E40A14
:102C80000319E50A0319E60A0319E70A08000130E7
:102C90002100C100200056082100C3002000550873
:102CA0002100C2001F30C4000030C5002300BF0156
:102CB0009C2E3E083F04031D6E2E4108031D6E2E00
:102CC0004308803AC00080304002031D692E013065
:102CD0004202031CA12E2000E31CA12EFF30210084
:102CE000C407FF30C53D4408A03E86000130870080
:102CF0000A30A0000030A1003F08A3003E08A20057
:102D000092313A22963121002008303E8100C101E3
:102D1000FF30C207FF30C33D0A30A0000030A100E1
:102D20003F08A3003E08A20092316522963121009F
:102D30002108BF002008BE00210044084504031DEF
:102D4000592E21003D08B5003C08B4004408A03EBF
:102D5000B6004308B8004208B7009231CE220800FE
:102D60002400951A080021002608A700A8012708BA
:102D7000A0002808A1000530A2000030A300903177
:102D8000F8209631E2302100200784001830213DE0
:102D90008038850000082400940021002608A70040
:102DA000A8012708A0002808A1000530A2000030D3
:102DB000A3009031F8209631E330210020078400F1
:102DC0001830213D8038850000082400950021003E
:102DD0002608A700A8012708A0002808A1000530A0
:102DE000A2000030A3009031F8209631E430210099
:102DF000200784001830213D803885000008240019
:102E0000970021002608A700A8012708A00028088D
:102E1000A1000530A2000030A3009031F820E53079
:102E20002100200784001830213D803885000008EB
:102E300024009200951608002100AB01AC01AA0104
:102E4000260886000130870020300106031D2B2F45
:102E50000130A607202F2608860001308700F730B2
:102E60000107A80005302802031C282F2608860029
:102E7000013087002D300106031D412F0130AA00CB
:102E8000712F26088600013087002B3001060319B8
:102E9000712F2608860001308700D0300107A80076
:102EA0000A3028020318742F260886000130870094
:102EB0002C08A1002B08A0000A30A2000030A300BB
:102EC0009031F820973121002108A9000108200243
:102ED000A800031CA9032808303EAB000030293DA0
:102EE000AC000130A607492F2A08031D832F2B09A8
:102EF000A8002C09A900A80A0319A90A2808A600F5
:102F00002908A70008002C08A7002B08A600080025
:102F100020006E0803190800D7302100E000983027
:102F2000E1009F310827973121002108E3002008A4
:102F3000E20090311C209731AE302100E000983043
:102F4000E1009F311127973121002108E30020087B
:102F5000E20090311C2097318E302100E000983043
:102F6000E1009F312C27973121002108E300200840
:102F7000E20090311C209731FB302100E0009830B6
:102F8000E10090311C2097318831012097312100D8
:102F900023082200D100210022082200D0002100B5
:102FA00021082200CF00210020082200CE00883115
:102FB00012209731F4302100E0009830E100903188
:102FC0001C20973190315D20973121002308220089
:102FD000D100210022082200D00021002108220077
:102FE000CF00210020082200CE0088311220973126
:102FF000AB302100E0009830E10090311C20080047
:1030000098341234003400344E341134EB3411341B
:10301000D4341E34CC341E34003400340034003434
:103020000034003400340034003400340034003400
:1030300000340034003400340034003400340034F0
:1030400000340034003400340034003400340034E0
:10305000C9341F34D6341F340034003400340034F3
:103060003E341F3400340034B0341634003400349D
:1030700000340034003400340034003467341F342A
:1030800000340034003400340034003400340034A0
:1030900000340034003400346334683461346E34F6
:1030A0006734653464342034733465347434703474
:1030B0006F3469346E347434203474346F34203493
:1030C000253475340D340A34003469346E34703468
:1030D000753474342034623475346634663465343F
:1030E000723420346F3476346534723466346C3420
:1030F0006F3477340D340A34003455346E346B3405
:103100006F3477346E34203463346F346D346D34FF
:1031100061346E3464340D340A3400342C34203479
:1031200064347534743479342034633479346334DA
:103130006C3465343A3420342534753400346C34BE
:103140006F3467347334203474346F3467346734C5
:103150006C34653464340D340A3400342C34203437
:1031600073346534743470346F3469346E34743449
:103170003A3420342534753400346334683461348F
:103180006E3467346534643420346B3469340D3400
:103190000A3400346334683461346E34673465341F
:1031A000643420346B3470340D340A3400346834A1
:1031B0006F346F346734743465343A3420342534D2
:1031C0007534003440340A34103407340034643425
:1031D0000034103401340034253469342E3425345D
:1031E00030343334753400342C3420346B34693447
:1031F0003A34203400342C3420346B3470343A3474
:043200002034003442
:103D500008008B319823080023001D121D1608004F
:103D6000C23401340134103421001C08F1001B0856
:103D7000F000080020005A08F1005908F00008007F
:103D8000640080010131890BC12E0034FE00120055
:103D90001E00FE0BC72E0034200069080319D22E26
:103DA0000130080000300800200066080319DA2EF0
:103DB000013008000030080000340034A0344034E2
:103DC0006634663466343F34210021082200E7005F
:103DD000210020082200E6000800320099019B0122
:103DE0009D0106309F009E019C01080021002108D2
:103DF0002000E200210020082000E100080021004E
:103E000021082200E100210020082200E000080033
:103E100020005A082100A100200059082100A0001C
:103E2000080020006D082100A10020006C0821007E
:103E3000A000080020005C082100A10020005B0811
:103E40002100A0000800210021082200DF0021003D
:103E500020082200DE000800200058082100A100F0
:103E6000200057082100A000080021002E08200093
:103E7000ED0021002D082000EC0008002100911128
:103E800020009111240094019501970192010800EE
:103E900022005108EB005008EA004F08E9004E08E4
:103EA000E800080022005108EF005008EE004F081B
:103EB000ED004E08EC000800200010100B1400303C
:103EC0002100A0000030A1009E31F626080021004C
:103ED0002008240091002000911D6B2F91112400D7
:103EE00011080800F1007108F000F00DF00D21003C
:103EF0001D087006033970069D00080080302C00F4
:103F000099007F309800C03097001F08FC390138B5
:103F10009F0008002100A1002108A000A00DA00D15
:103F20001D082006033920069D00080010309F312F
:103F30008A279F310F302100A0001230A1009E314E
:103F4000E426080020001113220066086704031904
:103F5000080067088A0066080A009F3108002200EE
:103F6000620863040319B92F63088A0062080A0013
:103F70009F3120009110080022006008610403199D
:103F8000C62F61088A0060080A009F312000921045
:103F9000080021002008210403190800210820003E
:103FA000E000210020082000DF0008002100200898
:103FB00021040319080021082000DE002100200848
:103FC0002000DD0008002100A2009E31CC269F3198
:103FD000003A0319E52F21002208A0009131EB21BE
:103FE00008000E3028009D009C01FF302200DE00FA
:103FF0000730DF00200092131D3028009E000800CB
:020000040001F9
:08000E008C3FF33FFF3FFF3F71
:00000001FF
