:1000000080314028080008007E1480310B1F3E28F4
:100010002100111E15282000111E15282200650838
:100020008A0064080A0080313E282100911E22289F
:100030002000911E2228230055088A0054080A0037
:1000400080313E282100921C2C282000921C2C2854
:100050009031522080313E282100911C362820000A
:10006000911C36289031452080313E282100111FF7
:100070003E282000111F3E28903109207E100900E3
:1000800080314228FC308400873085006C30860047
:100090000030870004309F314E2780318C3084003F
:1000A0009F308500683086000130870008309F311E
:1000B0004E278031553084000030850017309F3145
:1000C0004827803120308400013085002E309F3158
:1000D00048278031A03084000130850034309F31C2
:1000E00048277E1020009431252C4D088039D700F8
:1000F0004D35DD00CC1B5D145D0803198C285D0AAD
:10010000031D8A280030CD000030CC000030CB0029
:100110000030CA00CC1794280030CD000030CC004D
:100120000030CB000030CA0051088039D706513565
:10013000D800D01B581458080319AB28580A031DBF
:10014000A9280030D1000030D0000030CF000030AE
:10015000CE00D017B3280030D1000030D0000030DE
:10016000CF000030CE005808031D5D08031DC128D4
:100170000030CD000030CC000030CB000030CA0091
:1001800008004A08A000500892311D228031210841
:10019000E3002008E2006208D200D301D401D501B7
:1001A0005508DC005408DB005308DA005208D90077
:1001B0006308D200D301D401D5015508E1005408E9
:1001C000E0005308DF005208DE004B08A0004F0893
:1001D00092311D2280312108E3002008E2006208EC
:1001E000D200D301D401D5015208D9075308DA3D12
:1001F0005408DB3D5508DC3D6308D200D301D4012F
:10020000D5015208DE075308DF3D5408E03D55088C
:10021000E13D4C08A0004E0892311D22803121089A
:10022000E3002008E2006208D200D301D401D50126
:100230005208D9075308DA3D5408DB3D5508DC3D28
:100240006308D200D301D401D5015208DE07530858
:10025000DF3D5408E03D5508E13D0830D935DA0D61
:10026000DB0DDC0D890B2E294B08A0004E089231C6
:100270001D2280312108E3002008E2006208D9072E
:100280006308DA3D0030DB3DDC3D4A08A0004F0842
:1002900092311D2280312108E3002008E20062082B
:1002A000D9076308DA3D0030DB3DDC3D0830D93545
:1002B000DA0DDB0DDC0D890B57294A08A0004E082A
:1002C00092311D2280312108E3002008E2006208FB
:1002D000D9076308DA3D0030DB3DDC3D4B08A00068
:1002E000500892311D2280312108E3002008E200ED
:1002F0006208DE076308DF3D0030E03DE13D4C0869
:10030000A0004F0892311D2280312108E30020080F
:10031000E2006208DE076308DF3D0030E03DE13DBA
:100320004C08A000500892311D2280312108E300C2
:100330002008E2006208D2006308D300D401D5018E
:100340000830D235D30DD40DD50D890BA129520813
:10035000DE075308DF3D5408E03D5508E13D5C08E9
:10036000D200D301D401D5015208DE075308DF3D86
:100370005408E03D5508E13D0830D935DA0DDB0D74
:10038000DC0D890BBD295D085807D200D301D30DC0
:100390005208823EE200FF30533DE300E01BE529B6
:1003A0000130DE35DF0DE00DE10D890BD129DC1BBD
:1003B0005E140130D935DA0DDB0DDC0D890BDA293D
:1003C000FF30E207FF30E33DCE29D801DC1FFE29D4
:1003D000FF305905D200FF305A05D300FF305B05CE
:1003E000D4007F305C05D5005508540453045204F2
:1003F00003195E18FC29FE290130D800580803199A
:10040000252A0130DE070030DF3DE03DE13D611C83
:10041000252A5E08D2005F08D3006008D400610876
:10042000D5000130D600D537D40CD30CD20CD60B66
:10043000132A5508E1005408E0005308DF00520871
:10044000DE000130E2070030E33D6308803AD2006D
:1004500080305202031D2E2AFF306202031C3A2A0A
:100460007F302100E1008030E0000030DF0000300C
:10047000DE00662A21006308803AD20080305202F2
:10048000031D442A013062020318512A0030210062
:10049000E1000030E0000030DF000030DE00D70176
:1004A000662A21006208DD00FF30DE05FF30DF052F
:1004B0007F30E0050030E1055D18E0175D08D200EF
:1004C0000130D236890B612A5208E1005708E10455
:1004D0006108CD006008CC005F08CB005E08CA0050
:1004E000080023088039AD002335B300A21B331464
:1004F00033080319882A330A031D862A0030A30013
:100500000030A2000030A1000030A000A217902A05
:100510000030A3000030A2000030A1000030A00095
:1005200027088039AD062735AE00A61B2E142E08ED
:100530000319A72A2E0A031DA52A0030A7000030A0
:10054000A6000030A5000030A400A617AF2A003096
:10055000A7000030A6000030A5000030A4002E083F
:10056000031D3308031DBD2A0030A3000030A20084
:100570000030A1000030A00008002008F00026088C
:100580009131FE2182317108B9007008B800380835
:10059000A800A901AA01AB012B08B2002A08B100EA
:1005A0002908B0002808AF003908A800A901AA014D
:1005B000AB012B08B7002A08B6002908B5002808A7
:1005C000B4002108F00025089131FE218231710824
:1005D000B9007008B8003808A800A901AA01AB0149
:1005E0002808AF072908B03D2A08B13D2B08B23DC5
:1005F0003908A800A901AA01AB012808B4072908F5
:10060000B53D2A08B63D2B08B73D2208F000240866
:100610009131FE2182317108B9007008B8003808A4
:10062000A800A901AA01AB012808AF072908B03D1D
:100630002A08B13D2B08B23D3908A800A901AA013A
:10064000AB012808B4072908B53D2A08B63D2B0898
:10065000B73D0830AF35B00DB10DB20D890B2A2B67
:100660002108F00024089131FE2182317108B9007F
:100670007008B8003808AF073908B03D0030B13D08
:10068000B23D2008F00025089131FE218231710829
:10069000B9007008B8003808AF073908B03D00301D
:1006A000B13DB23D0830AF35B00DB10DB20D890B83
:1006B000532B2008F00024089131FE21823171086B
:1006C000B9007008B8003808AF073908B03D0030ED
:1006D000B13DB23D2108F00026089131FE21823162
:1006E0007108B9007008B8003808B4073908B53D7A
:1006F0000030B63DB73D2208F00025089131FE21BB
:1007000082317108B9007008B8003808B407390898
:10071000B53D0030B63DB73D2208F00026089131C6
:10072000FE2182317108B9007008B8003808A800AD
:100730003908A900AA01AB010830A835A90DAA0DF6
:10074000AB0D890B9D2B2808B4072908B53D2A0855
:10075000B63D2B08B73D3208A800A901AA01AB019C
:100760002808B4072908B53D2A08B63D2B08B73D2F
:100770000830AF35B00DB10DB20D890BB92B330870
:100780002E07A800A901A90D2808823EB800FF3055
:10079000293DB900B61BE12B0130B435B50DB60DBE
:1007A000B70D890BCD2BB21B34140130AF35B00D12
:1007B000B10DB20D890BD62BFF30B807FF30B93D14
:1007C000CA2BAE01B21FFA2BFF302F05A800FF3055
:1007D0003005A900FF303105AA007F303205AB009B
:1007E0002B082A042904280403193418F82BFA2B9F
:1007F0000130AE002E080319212C0130B40700305F
:10080000B53DB63DB73D371C212C3408A80035084E
:10081000A9003608AA003708AB000130AC00AB379E
:10082000AA0CA90CA80CAC0B0F2C2B08B7002A089B
:10083000B6002908B5002808B4000130B807003018
:10084000B93D3908803AA80080302802031D2A2CBF
:10085000FF303802031C362C7F302000B700803078
:10086000B6000030B5000030B400622C200039081A
:10087000803AA80080302802031D402C0130380245
:1008800003184D2C00302000B7000030B6000030B7
:10089000B5000030B400AD01622C20003808B30070
:1008A000FF30B405FF30B5057F30B6050030B70521
:1008B0003318B6173308A8000130A836890B5D2C11
:1008C0002808B7002D08B7043708A3003608A2008F
:1008D0003508A1003408A000080031088039BE00A6
:1008E0003135C000B01B401440080319852C400A64
:1008F000031D822C0030B1000030B0000030AF008A
:100900000030AE00B017B1018D2C0030B1000030C6
:10091000B0000030AF000030AE0035088039BF00B5
:100920003F083E06031D3E173535BF00B41B3F147C
:100930003F080319A92C3F0A031DA62C0030B5005F
:100940000030B4000030B3000030B200B417B5017D
:10095000B12C0030B5000030B4000030B3000030DE
:10096000B20040083F020318D72C3E1FB92C80303C
:10097000BE064008C1003F08C0004108BF002E0865
:10098000C1003208AE004108B2002F08C100330890
:10099000AF004108B3003008C1003408B00041087E
:1009A000B4003108C1003508B1004108B500C101EB
:1009B0003F08B600B7013708B90040083602B80052
:1009C000031CB9033908803ABA0080303A02031D8B
:1009D000EB2C1A303802031C1D2D21003108300485
:1009E0002F042E040319F62C0130F72C0030C1001F
:1009F0000030B1000030B0000030AF000030AE0079
:100A00003F08C000222D411C0F2D4108B6000130C7
:100A1000B636890B082D36080138C100112D031098
:100A2000C10C2E18C1170130B600B137B00CAF0C95
:100A3000AE0CB60B152D0130C00721003F08400257
:100A4000031C032D3E1B552D4008031D302D003087
:100A5000B1000030B0000030AF000030AE00080040
:100A60003208AE073308AF3D3408B03D3508B13D1C
:100A7000311CCE2D411C462D4108B6000130B63642
:100A8000890B3F2D36080138C100482D0310C10CD9
:100A90002E18C1170130B600B137B00CAF0CAE0C38
:100AA000B60B4C2D0130C007CE2D3108803AB60070
:100AB0003508803A3602031D672D34083002031DC5
:100AC000672D33082F02031D672D32082E020318ED
:100AD0009C2DFF30B600FF30B700FF30B800FF306C
:100AE000B9002E083202BA002F08333BBB00300891
:100AF000343BBC003108353BBD003A08B6073B0823
:100B0000B73D3C08B83D3D08B93D3908B10038084B
:100B1000B0003708AF003608AE008030BE06410393
:100B2000FF3AC1004108031DA42D0130AE0700307B
:100B3000AF3DB03DB13DA42D3208AE023308AF3B0E
:100B40003408B03B3508B13B310830042F042E0483
:100B5000031DCC2D4108031DCC2D0030B100003009
:100B6000B0000030AF000030AE0008000130AE35FC
:100B7000AF0DB00DB10D890BB72DC11B2E14411C4B
:100B8000C52D0314410DC100C72D0310C10D400830
:100B90000319CC2D0130C002B01FB62DBF01C11FFB
:100BA000D92D41087F3903192E18D72DD92D0130A1
:100BB000BF003F080319012E0130AE070030AF3DE2
:100BC000B03DB13D311C012E2E08B6002F08B700F4
:100BD0003008B8003108B9000130BA00B937B80C94
:100BE000B70CB60CBA0BEE2D3908B1003808B000BE
:100BF0003708AF003608AE00400A0319012E013055
:100C0000C007400A031D4008031D112E0030B1002B
:100C10000030B0000030AF000030AE0040080319D3
:100C2000BE01401C152EB017172E7F30B0054008AE
:100C3000B6000130B636890B1A2E3608B100BE1F39
:100C40000800B11708003D088039CA003D35CC00C6
:100C5000BC1B4C144C0803193B2E4C0A031D382EA8
:100C60000030BD000030BC000030BB000030BA00D6
:100C7000BC17BD01432E0030BD000030BC00003069
:100C8000BB000030BA0041088039CB004B084A064F
:100C9000031D4A174135CB00C01B4B144B080319E9
:100CA0005F2E4B0A031D5C2E0030C1000030C000D7
:100CB0000030BF000030BE00C017C101672E0030F9
:100CC000C1000030C0000030BF000030BE004C0842
:100CD0004B0203188D2E4A1F6F2E8030CA064C0817
:100CE000CD004B08CC004D08CB003A08CD003E08A3
:100CF000BA004D08BE003B08CD003F08BB004D08C0
:100D0000BF003C08CD004008BC004D08C0003D08B5
:100D1000CD004108BD004D08C100CD014B08C20007
:100D2000C3014308C5004C084202C400031CC503AC
:100D30004508803AC60080304602031DA12E1A30B5
:100D40004402031CD32E20003D083C043B043A041B
:100D50000319AC2E0130AD2E0030CD000030BD00A7
:100D60000030BC000030BB000030BA004B08CC00A3
:100D7000D82E4D1CC52E4D08C2000130C236890B3D
:100D8000BE2E42080138CD00C72E0310CD0C3A18F4
:100D9000CD170130C200BD37BC0CBB0CBA0CC20B66
:100DA000CB2E0130CC0720004B084C02031CB92E7F
:100DB0004A1B0B2F4C08031DE62E0030BD000030EF
:100DC000BC000030BB000030BA0008003E08BA0783
:100DD0003F08BB3D4008BC3D4108BD3D3D1C842F44
:100DE0004D1CFC2E4D08C2000130C236890BF52E79
:100DF00042080138CD00FE2E0310CD0C3A18CD1755
:100E00000130C200BD37BC0CBB0CBA0CC20B022FA8
:100E10000130CC07842F3D08803AC2004108803A57
:100E20004202031D1D2F40083C02031D1D2F3F08D9
:100E30003B02031D1D2F3E083A020318522FFF30BC
:100E4000C200FF30C300FF30C400FF30C5003A08C5
:100E50003E02C6003B083F3BC7003C08403BC80081
:100E60003D08413BC9004608C2074708C33D480842
:100E7000C43D4908C53D4508BD004408BC004308C1
:100E8000BB004208BA008030CA064D03FF3ACD00CD
:100E90004D08031D5A2F0130BA070030BB3DBC3D41
:100EA000BD3D5A2F3E08BA023F08BB3B4008BC3B41
:100EB0004108BD3B3D083C043B043A04031D822F1E
:100EC0004D08031D822F0030BD000030BC000030F3
:100ED000BB000030BA0008000130BA35BB0DBC0DB4
:100EE000BD0D890B6D2FCD1B3A144D1C7B2F0314A8
:100EF0004D0DCD007D2F0310CD0D4C080319822F11
:100F00000130CC02BC1F6C2FCB01CD1F8F2F4D08A1
:100F10007F3903193A188D2F8F2F0130CB004B08E2
:100F20000319B72F0130BA070030BB3DBC3DBD3DB2
:100F30003D1CB72F3A08C2003B08C3003C08C40060
:100F40003D08C5000130C600C537C40CC30CC20C37
:100F5000C60BA42F4508BD004408BC004308BB00D5
:100F60004208BA004C0A0319B72F0130CC074C0ACB
:100F7000031D4C08031DC72F0030BD000030BC000E
:100F80000030BB000030BA004C080319CA014C1CE9
:100F9000CB2FBC17CD2F7F30BC054C08C2000130D1
:100FA000C236890BD02F4208BD00CA1F0800BD17EA
:100FB0000800111ADF2F200823009A00F92F2000C3
:100FC00069080319F92F6B08383E86000130870045
:100FD00021002008810020006B08013E0739210014
:100FE000A10021082000EB00210011120130200097
:100FF000E902210011160800C23401340134103412
:10100000080022006F082100A30022006E082100C2
:10101000A20022006D082100A10022006C0821001E
:10102000A000080020006E0803190800D730210036
:10103000E0009830E1009F319D2788312108E300CE
:101040002008E200903195208831AE30E0009830E1
:10105000E1009F31A62788312108E3002008E20043
:101060009031952088318E30E0009830E1009F313A
:10107000B82788312108E3002008E200903195204C
:101080008831FB30E0009830E100903195208831C4
:1010900088310120883123082200D1002100220854
:1010A0002200D000210021082200CF0021002008CA
:1010B0002200CE00883180208831F430E000983062
:1010C000E1009031952088319031D5208831230876
:1010D0002200D100210022082200D0002100210896
:1010E0002200CF00210020082200CE00883180207D
:1010F0008831AB30E0009830E10090319520080055
:1011000051082100E700220050082100E6002200DB
:101110004F082100E50022004E082100E40096312E
:101120006926883164082200D40051082100C900D2
:10113000220050082100C80022004F082100C700EB
:1011400022004E082100C600220054082100EE00B3
:10115000EF01EE1BEF036E08A0006F08A100890DE0
:10116000893B8909A200A300013089318C21883193
:101170002308C5002208C4002108C3002008C200BB
:101180009131A52188314508D1004408D000430899
:10119000CF004208CE004430CD007A30CC00003081
:1011A000CB000030CA008031752088314D08E7003F
:1011B0004C08E6004B08E5004A08E4009631692631
:1011C000883165082200D300210064082200D20083
:1011D000EC302100E0009830E100220054082100AA
:1011E000E200E301E21BE303220053082100E500D3
:1011F000220052082100E400903195200800F800F8
:101200007808031DF31F14297009FA007109FB0007
:101210007209FC007309FD00FA0A0319FB0A03199D
:10122000FC0A0319FD0A1C297308FD007208FC0062
:101230007108FB007008FA007308720471047004EE
:10124000031D2B290030F3000030F2000030F100C4
:101250000030F00008009630F900FE307D050319DB
:101260004A290130F9070130FD36FC0CFB0CFA0C61
:10127000890B34292D290130F9070130FA07003094
:10128000FB3DFC3DFD3D0130FD36FC0CFB0CFA0C3A
:10129000890B4429FF307D0503195C293B29023065
:1012A0007902031C5E290130F9020130FA35FB0D89
:1012B000FC0DFD0D890B5629FC1F4F297918682953
:1012C000FF30FA05FF30FB057F30FC05FF30FD05E0
:1012D0000310F90C7908F400F501F601F701183054
:1012E000F435F50DF60DF70D890B70297408FA0425
:1012F0007508FB047608FC047708FD047808031DD4
:10130000F31F8329FD177D08F3007C08F2007B089A
:10131000F1007A08F0000800A8002808031DA31FA8
:10132000A1292009AA002109AB002209AC00230948
:10133000AD00AA0A0319AB0A0319AC0A0319AD0AD6
:10134000A9292308AD002208AC002108AB00200821
:10135000AA002308220421042004031DB829003018
:10136000A3000030A2000030A1000030A00008005F
:101370009630A900FE302D050319D7290130A907A1
:101380000130AD36AC0CAB0CAA0C890BC129BA29C3
:101390000130A9070130AA070030AB3DAC3DAD3D9F
:1013A0000130AD36AC0CAB0CAA0C890BD129FF3047
:1013B0002D050319E929C82902302902031CEB294C
:1013C0000130A9020130AA35AB0DAC0DAD0D890B72
:1013D000E329AC1FDC292918F529FF30AA05FF30C5
:1013E000AB057F30AC05FF30AD050310A90C290813
:1013F000A400A501A601A7011830A435A50DA60DCE
:10140000A70D890BFD292408AA042508AB0426088A
:10141000AC042708AD042808031DA31F102AAD172C
:101420002D08A3002C08A2002B08A1002A08A00068
:1014300008000030EE000030ED000030EC0000301D
:10144000EB00E8016C2A3A306F020318782A413029
:10145000CD002030CC000030CB000030CA006E0838
:10146000D1006D08D0006C08CF006B08CE00803131
:1014700075208A314D08EE004C08ED004B08EC0059
:101480004A08EB006F08D03EA000FF300318003080
:10149000A100A201A301003089318C218A312308E7
:1014A000B1002208B0002108AF002008AE006E088D
:1014B000B5006D08B4006C08B3006B08B20084314D
:1014C0006D248A313108EE003008ED002F08EC0061
:1014D0002E08EB000130E907640886000130870020
:1014E0000108EF000130E40730306F020318232AAF
:1014F0002C306F060319802A2E306F06031D842AB4
:101500000130E800E9016C2AEA01A72A69086A02A9
:101510000318AA2A4130A3002030A2000030A10005
:101520000030A0006E08A7006D08A6006C08A5009A
:101530006B08A4008E3195268A312308EE0022081C
:10154000ED002108EC002008EB000130EA076808F4
:10155000031D862A6E08E7006D08E6006C08E500AA
:101560006B08E40008000130C300BF1FB92A013036
:10157000BA2A0030C600200056082100C50020000D
:1015800055082100C40046080319D52AFF30C407B6
:10159000FF30C53D4608031DCF2A2B30D02A2D3001
:1015A000C1000030C2004108C6001F30C700003033
:1015B000C8002300BF01252B21003E083F04031D66
:1015C000F22A4308031DF22A4508803AC000803001
:1015D0004002031DED2A01304402031C312B200080
:1015E000E31C312BFF302100C707FF30C83D4708FF
:1015F000A03E8600013087000A30A0000030A10024
:101600003F08A3003E08A200933157238A312108E6
:10161000A7002008A600903187208A312608303E96
:101620008100C301FF30C407FF30C53D0A30A00070
:101630000030A1003F08A3003E08A20094317124AD
:101640008A312108BF002008BE0021004808803AE6
:10165000C00080304002031D2F2B013047020318C9
:10166000DC2A210046080319402BFF30C707FF3052
:10167000C83D4708A03E860001308700460881002B
:101680003D08B5003C08B4004708A03EB600450838
:10169000B8004408B7009331182308009431BE24E1
:1016A0008B312200D200D02B5208013E2100A6002F
:1016B000973196278B312708AE002608AD009F3161
:1016C00084278B314C302100E0009830E10022006B
:1016D0005208013E2100A600973196278B3127083A
:1016E000E3002608E2009031952008005208013EF0
:1016F0002100E4008A3119228B3167082200D100D1
:10170000210066082200D000210065082200CF00D9
:10171000210064082200CE00903100208B31CA30B5
:101720002100E0009830E100903195200800520837
:10173000013E2100E4008A3119228B316708220022
:10174000D100210066082200D00021006508220097
:10175000CF00210064082200CE009F31C1278B31C9
:10176000BD302100E0009830E10090319520080064
:1017700020006E08031DBE2B0130BF2B0030EE0091
:101780009F302100E0009830E10090319520080062
:101790007D302100E0009830E10090319520080074
:1017A00052088600013087000108003A0319F12B26
:1017B000493A0319972B053A0319B82B1C3A031918
:1017C000762B033A0319542B3A3A0319972B053A0F
:1017D0000319B82B1C3A0319762B033A0319542B1F
:1017E000C82B08009F319D278B312108EF0020086E
:1017F000EE0095315F258B316F082200D900210062
:101800006E082200D800D91F082CD801D901182C45
:101810005908803AD20080305202031D112C3C300E
:101820005802031C182C3B302200D8000030D9008D
:101830009F31A6278B312108EF002008EE0095315B
:101840005F258B316F082200D60021006E08220030
:10185000D500D61F2D2CD501D6019031E6208B3135
:101860002200D70156085906031D382C5508580682
:10187000031D3D2C01302000E40020006408031902
:10188000722C22005508FF3ED200FF30563DD30097
:101890005908803AD4005308803A5402031D522C50
:1018A00052085802031C722C22005508013ED20037
:1018B0000030563DD3005308803AD4005908803A8E
:1018C0005402031D652C58085202031C722CFF3071
:1018D0002100A100A2010530A300003091313C217C
:1018E0008B31A42C22005708D200D301590853068B
:1018F000031D7C2C58085206031D872C4430210000
:10190000A1004430A2000530A30044309F2C5708AA
:10191000D200D30156085306031D902C55085206D9
:10192000031D992C2100A101A2010530A300FF3065
:101930009F2C2100A101A2010530A30000309131AC
:101940003C218B312000E40101302200D7073B30DD
:101950005702031C322C9131242108004B088600C9
:101960008701403FCD00413FCE004D0884004E0826
:1019700085001200253A031D862D4B08860087013D
:101980000130810741310318810A2000D501D601B9
:101990000030E300FF302200C400FF30C50021000A
:1019A000D101E02C2000E31421004B0886008701C0
:1019B0000130810741310318810AE02C0130D10048
:1019C0005108031DF42C4B0886008701403FCD00D1
:1019D000413FCE004D0884004E0885000008303A93
:1019E0000319D22CDE2CE02C4B08A6004C08A700D3
:1019F0009531B4258C3127082000D6002100260817
:101A00002000D500D61F0A2D6314D509D609D50AA2
:101A10000319D60A21004B0886008701403FD600F3
:101A2000413FD70056088400570885001200643AE9
:101A30000319222D56088400570885001200693AC0
:101A4000031D462D4C08860087010108840085018E
:101A500002308107003FD200013FD3005608013E0B
:101A6000CD000030573DCE004B08860087014D0861
:101A7000C03F4E08C13F4A08BD004908BC0053089A
:101A8000BF005208BE008A31B32208005608840005
:101A9000570885001200753A031D7C2D4C088600FE
:101AA000870101088400850102308107003FD200D0
:101AB000013FD3005608013ECD000030573DCE0017
:101AC0004B08860087014D08C03F4E08C13F732D6B
:101AD0004A08BD004908BC005308BF005208BE00B8
:101AE0009631C8260800560884005708850000086B
:101AF000753A0319682D7C2D21004B08860087015B
:101B00000130810741310318810A08004B08860023
:101B10008701403FCD00413FCE004D0884004E0874
:101B200085000008CF00D0014F08A3005008A40092
:101B30004A08A6004908A50095310B258C317C2D5B
:101B40009F3142278D3171082200C7007008C600FE
:101B5000460820006C02D3002200470820006D3B9D
:101B6000D4005308F0005408F100890D893B89091D
:101B7000F200F30001308831FF208D317308A70097
:101B80007208A6007108A5007008A4003A30A300EE
:101B90000330A2001230A1006F30A0008231712208
:101BA0008D312308BD002208BC002108BB0020089D
:101BB000BA00220043082000C10022004208200091
:101BC000C000220041082000BF0022004008200081
:101BD000BE00863123268D313D082200C30020003F
:101BE0003C082200C20020003B082200C100200067
:101BF0003A082200C00020005308F0005408F10009
:101C0000890D893B8909F200F30001308831FF20FA
:101C10008D317308A7007208A6007108A50070082E
:101C2000A40022006F082000A30022006E082000FC
:101C3000A20022006D082000A10022006C082000F4
:101C4000A000823171228D312308BD002208BC0022
:101C50002108BB002008BA0096310A268D313B08C6
:101C6000D0003A08CF0022006B082000A700220015
:101C70006A082000A600220069082000A5002200B2
:101C800068082000A400220043082000A3002200CE
:101C900042082000A200220041082000A1002200EA
:101CA00040082000A000823171228D312308BD0040
:101CB0002208BC002108BB002008BA0096310A2681
:101CC0008D313B08D2003A08D10051084F07D700A8
:101CD0005208503DD8000430580200300319570212
:101CE000031C832E5408803ACE0080304E02031D20
:101CF0007B2E01305302031C832EFF302000D700BF
:101D00000330D8008E2E0430200058020030031912
:101D100057020318D41F8E2ED701D8015808F1009E
:101D20005708F0009031FA20080027088039B100E8
:101D30002735B800A61B381438080319AD2E380A09
:101D4000031DAA2E0030A7000030A6000030A50019
:101D50000030A400A617A701B52E0030A700003060
:101D6000A6000030A5000030A40023088039B10689
:101D70002335B900A21B391439080319CD2E390AAD
:101D8000031DCA2E0030A3000030A2000030A100C5
:101D90000030A000A217A301D52E0030A300003010
:101DA000A2000030A1000030A0002308220421047A
:101DB0002004031DF22E0030A7000030A6000030E2
:101DC000A5000030A4008030A6047F30A7043108AD
:101DD000A7042708A3002608A2002508A1002408BC
:101DE000A00008003808031DFE2E0030A3000030BC
:101DF000A2000030A1000030A00008003808A800B0
:101E0000A9012908AB0039082802AA00031CAB036A
:101E10002A087F3EB20000302B3DB3002708B000F7
:101E20002608AF002508AE002408AD000030A7004A
:101E30000030A6000030A5000030A4000030B7003C
:101E40000030B6000030B5000030B400B9011A30DF
:101E500039020318612F39080319452F0130AD35B8
:101E6000AE0DAF0DB00D890B2F2F0130A435A50D90
:101E7000A60DA70D890B362FB71B24140130B435DE
:101E8000B50DB60DB70D890B3F2F23083002031D8A
:101E9000532F22082F02031D532F21082E02031D4A
:101EA000532F20082D02031C5E2F37172008AD0288
:101EB0002108AE3B2208AF3B2308B03B0130B907F5
:101EC000272F30082F042E042D04031D3414A61BC5
:101ED0007E2F0130A435A50DA60DA70D890B6A2F05
:101EE000B71B24140130B435B50DB60DB70D890BF1
:101EF000732FFF30B207FF30B33D672FB901B71F13
:101F0000972FFF303405A800FF303505A900FF30BA
:101F10003605AA007F303705AB002B082A042904B8
:101F2000280403192418952F972F0130B900390878
:101F30000319BE2F0130A4070030A53DA63DA73DE3
:101F4000271CBE2F2408A8002508A9002608AA00DF
:101F50002708AB000130AC00AB37AA0CA90CA80CC9
:101F6000AC0BAC2F2B08A7002A08A6002908A50057
:101F70002808A4000130B2070030B33D3308803A8E
:101F8000A80080302802031DC72FFF303202031C37
:101F9000D62FFF302100B2000030B3000030A70080
:101FA0000030A6000030A5000030A4002100330856
:101FB000803AA80080302802031DE02F0130320251
:101FC0000318EE2F2100B201B3010030A70000304A
:101FD000A6000030A5000030A400B10121003208A5
:101FE000B800381CF52FA617F72F7F30A605380844
:101FF000A8000130A836890BFA2F2808A700E72E81
:102000005108EF005008EE004F08ED004E08EC00BC
:102010000800111322006608670403190800670806
:102020008A0066080A00903108002008210403197C
:10203000080021082000E000210020082000DF0027
:102040000800200821040319080021082000DE00F0
:10205000210020082000DD00080080302C009900BD
:102060007F309800C03097001F08FC3901389F006E
:1020700008002100A1002108A000A00DA00D1D084E
:102080002006033920069D00080022006208630430
:1020900003194F2863088A0062080A009031200063
:1020A0009110080022006008610403195C2861088F
:1020B0008A0060080A009031200092100800210078
:1020C000A60197312E27903135302100A0001F3016
:1020D000A1009F316C270800A2009F317427903126
:1020E000003A03196D2821002208A0008731D92762
:1020F00008000E309D009C0103302200DE000030FD
:10210000DF00200092131D3028009E000800A71F4A
:1021100008002609A8002709A900A80A0319A90A86
:102120002808A6002908A7000800E230E6000030D1
:10213000D800D9006108DB006008DA00E630DC0076
:1021400091318A2108002000921F080022005E08B9
:102150005F040319B0285F088A005E080A00903106
:10216000200092130800FF3020009E009D010030E7
:102170002200E2000830E3002000911021009114B9
:102180001D3020009F000800FF30280096009501B8
:1021900002302200E0000030E10020009210210017
:1021A0009214763028009700080022006B08210066
:1021B000A30022006A082100A20022006908210071
:1021C000A100220068082100A00008002100A00151
:1021D0009F31D42790312100A0019F31D427903125
:1021E0002100A0019F31D42790312100A0019F310F
:1021F000D42708007108F3007008F200F336F20CDF
:10220000F336F20C72082C00980070080339F200C3
:102210000630F235890B0929720897000800A030B2
:1022200021009E009B019C0105309F0001309D0014
:102230002000111333302100A0001F30A1009F3176
:102240005427210011170800FF302100A0009F3102
:10225000D4279131FF302100A0009F31D427913144
:10226000FF302100A0009F31D4279131FF302100A1
:10227000A0009F31D4270800A4002308E038A00064
:102280009F31D427913121002208A0009F31D4270B
:10229000913121002108A0009F31D42791312100E4
:1022A0002408A0009F31D4270800083020006902CC
:1022B00003186C296A08383E86000130870001083F
:1022C00023009A0020006A08013E0739F0007008D8
:1022D000EA000130E9070800210011120800A401FA
:1022E000A501201C77292208A4072308A53D013059
:1022F000A235A30D890B78290130A136A00C890BDA
:102300007D2920082104031D71292508A100240826
:10231000A00008005B08DF005A08DE0021005E080C
:1023200084005F08850012000319A2295908CA0019
:102330005808C900DE30CB005C08CC008C31AE24DC
:1023400091318E29D801D90108008030C50649088D
:10235000B1004808B0004708AF004608AE00450885
:10236000B5004408B4004308B3004208B200843109
:102370006D243108C5003008C4002F08C3002E08A2
:10238000C20008009F319427913193319A239131F3
:102390009031B32091319031C42091319031792026
:1023A000913191310F2191319231E322913190316C
:1023B0002D2091319F31CA2791319F31DE270800AE
:1023C00020006708303E86000130870001082100A8
:1023D000A10020006708013E07392100A000200865
:1023E0002000E70021009112200066080319FA2955
:1023F0000130E6022100911621080800F800F401DE
:10240000F5017008F200F3017208F6007308F70096
:10241000781C0E2A7608F4077708F53D0130F6356A
:10242000F70D890B0F2A0310F80C7808031D082AF2
:102430007508F1007408F0000800A800A401A501C7
:102440002008A200A3012208A6002308A700281C38
:102450002D2A2608A4072708A53D0130A635A70D7B
:10246000890B2E2A0310A80C2808031D272A2508EB
:10247000A1002408A0000800B201B3012C08320713
:102480008600013087000108B100310803190800F7
:102490003108AF00B0012F08A3003008A4002E08B7
:1024A000A6002D08A50095310B25923101302100A1
:1024B000B2070030B33D3E2A200821040319812AC7
:1024C0000130A400A11B6C2A0130A035A10D890B9D
:1024D000652A0130A407622A21082302031D722AFB
:1024E00020082202031C782A2008A2022108A33B0C
:1024F0000130A136A00C890B792A0130A402031DFA
:102500006C2A2308A1002208A00008009C2A9F3101
:102510003C27923171082000DC007008DB0012308B
:102520009A2A9F313C27923171082000DA00700806
:10253000D9001030EF00AD2A20006F08F200F3013F
:102540007308003A0319A52AAD2A7208103A031934
:10255000872A023A0319912AAD2A6F089F31F4277E
:102560000800A401A501200821040319DE2A013076
:10257000A600A11BC32A0130A035A10D890BBC2ADE
:102580000130A607B92A0130A435A50D890BC42A4C
:1025900021082302031DCE2A20082202031CD52A6B
:1025A0002008A2022108A33B24140130A136A00C6C
:1025B000890BD62A0130A602031DC32A2508A100D3
:1025C0002408A00008009112DE302300D40013304C
:1025D000D5002100111255302200E4001130E50031
:1025E000483023009F0090309D0026309E004030F0
:1025F0009B0003309C0034302100A0001F30A1005C
:1026000090311520923138302100A0001F30A100F8
:10261000903121202200CA01CB012000EB01EA0108
:102620000830E900E801E701E60121009116080001
:102630002000631C252B21003608AC003508AE00B5
:102640003408AD0092313C2293312100B81F2A2B6F
:10265000B701B801BA01BB013B08803AB90038089C
:10266000803A3902031D362B37083A0203184A2BE9
:1026700020302100A3000030A4003508A600340853
:10268000A50095310B25933101302100BA070030A8
:10269000BB3D2C2B20006318080021003608AC003D
:1026A0003508AE003408AD0092313C220800A50187
:1026B000A31F612BA209A309A20A0319A30A0130CF
:1026C000A500A11F682BA009A109A00A0319A10A4E
:1026D0002008210403198D2B0130A400A11B782BA5
:1026E0000130A035A10D890B712B0130A4076E2B91
:1026F00021082302031D7E2B20082202031C842BA9
:102700002008A2022108A33B0130A136A00C890BAE
:10271000852B0130A402031D782B25080319952B66
:10272000A209A309A20A0319A30A2308A1002208E7
:10273000A000080022008C018D018E0119302100BB
:102740008C0020308D00DF308E00103023008C0094
:1027500080308D00FF308E0024008C018D018E01B1
:1027600025008C018D018E01373026008C00F03061
:102770008D00FF308E003F3027008C00F0308D0040
:10278000FF308E003C00A1010D30A40019303D0047
:102790009C000230A50014309F000E303C00A000C9
:1027A00018303D009E002700910192019301940191
:1027B000950196019701980199010800200068355C
:1027C000203E8600013087000030C03FC13F23001B
:1027D0009D1CFA2B20006835203E860001308700C2
:1027E00001155D085E040319FA2B5E088A005D0876
:1027F0000A00933123001D1D0D2C20006835203E5A
:1028000086000130870081145F08600403190D2CD5
:1028100060088A005F080A00943123001908F0005C
:1028200020006808013E0739F100710867060319A6
:1028300008006808303E860001308700700881007B
:102840007108E8000130E60708009131C221943197
:102850008B170B179F31E9279431A0302100A0007E
:102860000D30A1009F316427943190315F20943165
:102870008B314E23943122008C128C100C119F311D
:10288000AF27943121082200DD002100200822001A
:10289000DC0001305D02013003195C0203188C1664
:1028A00002305D02013003195C0203188C140330FE
:1028B0005D02013003195C0203180C15053022007B
:1028C000DB000F30DA00F130890B642CDA0B642C5A
:1028D000DB0B642C8831122094319031A320943189
:1028E000382CA501A11F7B2CA009A109A00A03195E
:1028F000A10A0130A500A31F842CA209A309A20AE2
:102900000319A30A0130A506A601A7012008210486
:102910000319B12C0130A400A11B962C0130A03565
:10292000A10D890B8F2C0130A4078C2C0130A6350A
:10293000A70D890B972C21082302031DA12C200829
:102940002202031CA82C2008A2022108A33B261463
:102950000130A136A00C890BA92C0130A402031D63
:10296000962C25080319B92CA609A709A60A03194C
:10297000A70A2708A1002608A00008009F317C278D
:102980009431003A031DCD2C6508C03E860001300D
:10299000870081016508C03E0800133065020318F6
:1029A000D52CF12C9131E02194319F317C27943149
:1029B000003A031DD22C65302100E0009830E10080
:1029C0009031952094312000E5012300C001EF2CC7
:1029D0006508C13E8600013087008101E501C030F5
:1029E00008009131E0219431E90020006508C03EE3
:1029F00086000130870021006908810020006508F9
:102A0000C03E8600013087000A3001060319E82C19
:102A10000130E507BE2C250826040319132D2508CF
:102A20002604031D172D230890316C20080025086B
:102A300086002608870049311600010403193E2D3F
:102A400025088600260887004931403FA700413FFE
:102A5000A80025088600260887004231403FA900CB
:102A6000413FAA002A08803AAB002808803A2B028E
:102A7000031D3C2D27082902031808002100250802
:102A80008600260887004231250884002608850034
:102A9000003FA700013FA800403F27078400413FB7
:102AA000283D850023088000250886002608870029
:102AB00042310130810741310318810A0800C030DA
:102AC000B100AF30B0009B30AF003430AE003D30CD
:102AD000CD008B30CC007A30CB008B30CA006E0832
:102AE000A0006F08A100A201A301003089318C2150
:102AF00095312308D1002208D0002108CF002008FA
:102B0000CE008031752095314D08B5004C08B400D9
:102B10004B08B3004A08B20084316D249531310866
:102B20002200D100210030082200D00021002F080F
:102B30002200CF0021002E082200CE0051082100E3
:102B4000E700220050082100E60022004F08210083
:102B5000E50022004E082100E40096316926650850
:102B6000EF006408EE000800AC01AD012608860005
:102B70008701403FA800413FA90028088400290898
:102B8000850012002A3A031DF32D260886008701CE
:102B90000130810741310318810A27088600870127
:102BA00001088400850102308107003FAC00013F2D
:102BB000AD00052E2D08A1002C08A0000A30A200AF
:102BC0000030A30091316F2195312B082007AC0014
:102BD0000030213DAD0026088600870101308107C5
:102BE00041310318810A260886008701403FA8006A
:102BF000413FA90028088400290885000008D03E2C
:102C0000AB000A302B02031CDA2D2D08A7002C087C
:102C1000A600080003103C0D3D0DC3004308031D32
:102C20001A2E0030BD000030BC000030BB00003068
:102C3000BA0008003A08BE003B08BF003C08C000CC
:102C40003D08C1001F30C136C00CBF0CBE0C890B43
:102C5000232E3E08C200BC17FF30BA05FF30BB056B
:102C6000FF30BC050030BD059630C302C31F492E9E
:102C70004308803A973E031C112E0130BD36BC0C30
:102C8000BB0CBA0C890B3E2E0130C30703195A2E18
:102C90003D2E203043020318112E430803195A2EEB
:102CA0000130BA35BB0DBC0DBD0D890B512E013065
:102CB000C3024D2E420803190800BA09BB09BC091A
:102CC000BD09BA0A0319BB0A0319BC0A0319BD0AD4
:102CD00008000310660D670DED006D08031D792EC9
:102CE0000030E7000030E6000030E5000030E4008E
:102CF00008006408E8006508E9006608EA0067085B
:102D0000EB001F30EB36EA0CE90CE80C890B822E45
:102D10006808EC00E617FF30E405FF30E505FF30FA
:102D2000E6050030E7059630ED02ED1FA82E6D0890
:102D3000803A973E031C702E0130E736E60CE50C16
:102D4000E40C890B9D2E0130ED070319B92E9C2E42
:102D500020306D020318702E6D080319B92E013052
:102D6000E435E50DE60DE70D890BB02E0130ED02DF
:102D7000AC2E6C0803190800E409E509E609E70927
:102D8000E40A0319E50A0319E60A0319E70A080029
:102D90000130C100200056082100C3002000550862
:102DA0002100C2001F30C4000030C5002300BF0155
:102DB0001A2F3E083F04031DEE2E4108031DEE2E80
:102DC0004308803AC00080304002031DE92E0130E4
:102DD0004202031C1F2F2000E31C1F2FFF30210085
:102DE000C407FF30C53D4408A03E8600013087007F
:102DF0000A30A0000030A1003F08A3003E08A20056
:102E000092315C2296312008303E8100C101FF30B2
:102E1000C207FF30C33D0A30A0000030A1003F08C8
:102E2000A3003E08A2009231B12296312108BF00D2
:102E30002008BE00210044084504031DD92E2100AE
:102E40003D08B5003C08B4004408A03EB600430865
:102E5000B8004208B7009331182308002400951ADF
:102E6000080021002608A700A8012708A0002808BC
:102E7000A1000530A2000030A30091316F219731ED
:102E8000E230200784001830213D8038850000089A
:102E90002400940021002608A700A8012708A0000C
:102EA0002808A1000530A2000030A30091316F2155
:102EB0009731E330200784001830213D80388500A9
:102EC00000082400950021002608A700A801270873
:102ED000A0002808A1000530A2000030A300913115
:102EE0006F219731E430200784001830213D80386D
:102EF000850000082400970021002608A700A801EB
:102F00002708A0002808A1000530A2000030A30077
:102F100091316F21E530200784001830213D803841
:102F2000850000082400920095160800AB01AC0152
:102F3000AA01260886000130870020300106031D03
:102F4000A42F0130A607992F26088600013087009C
:102F5000F7300107A80005302802031CA12F26081E
:102F60008600013087002D300106031DBA2F013085
:102F7000AA00E92F26088600013087002B300106C1
:102F80000319E92F2608860001308700D030010799
:102F9000A8000A3028020318EC2F2608860001300A
:102FA00087002C08A1002B08A0000A30A2000030E6
:102FB000A30091316F2197312108A9000108200257
:102FC000A800031CA9032808303EAB000030293DAF
:102FD000AC000130A607C22F2A08031DFB2F2B09C6
:102FE000A8002C09A900A80A0319A90A2808A60004
:102FF0002908A70008002C08A7002B08A600080035
:10300000E334123400340034E0341134D93407345A
:103010007C341F3474341F340034003400340034E2
:103020000034003400340034003400340034003400
:1030300000340034003400340034003400340034F0
:1030400000340034003400340034003400340034E0
:10305000153410342134103400340034003400347A
:10306000CA341F34003400342E3417340034003492
:10307000003400340034003400340034D4341F34BD
:1030800000340034003400340034003400340034A0
:1030900000340034003400346334683461346E34F6
:1030A0006734653464342034733465347434703474
:1030B0006F3469346E347434203474346F34203493
:1030C000253475340D340A34003469346E34703468
:1030D000753474342034623475346634663465343F
:1030E000723420346F3476346534723466346C3420
:1030F0006F3477340D340A34003455346E346B3405
:103100006F3477346E34203463346F346D346D34FF
:1031100061346E3464340D340A3400342C34203479
:1031200064347534743479342034633479346334DA
:103130006C3465343A3420342534753400346C34BE
:103140006F3467347334203474346F3467346734C5
:103150006C34653464340D340A3400342C34203437
:1031600073346534743470346F3469346E34743449
:103170003A3420342534753400346334683461348F
:103180006E3467346534643420346B3469340D3400
:103190000A3400346334683461346E34673465341F
:1031A000643420346B3470340D340A3400346834A1
:1031B0006F346F346734743465343A3420342534D2
:1031C0007534003440340A34103407340034643425
:1031D0000034103401340034253469342E3425345D
:1031E00030343334753400342C3420346B34693447
:1031F0003A34203400342C3420346B3470343A3474
:043200002034003442
:103E6600080008008B31F223080023001D121D16DE
:103E7600080021001C08F1001B08F00008002000C3
:103E86005A08F1005908F000080064008001013169
:103E9600890B492F0034FE0012001E00FE0B4F2F27
:103EA600003421082200E700210020082200E60055
:103EB600080021082200CD00210020082200CC00A5
:103EC600080021082200E100210020082200E0006D
:103ED600080021082200DF00210020082200DE0061
:103EE60008002000690803197A2F01300800003005
:103EF6000800200066080319822F013008000030F0
:103F060008002E082000ED0021002D082000EC00FE
:103F1600080000340034A034403466346634663415
:103F26003F34320099019B019D0106309F009E019E
:103F36009C01080020005A082100A1002000590811
:103F46002100A000080020006D082100A10020002B
:103F56006C082100A000080020005C082100A100D8
:103F660020005B082100A00008002000580821005E
:103F7600A100200057082100A00008005108EB000E
:103F86005008EA004F08E9004E08E8000800210042
:103F9600911120009111240094019501970192013D
:103FA60008002008240091002000911DD72F9111B0
:103FB600240011080800200010100B140030210006
:103FC600A0000030A1009F315C270800103090311E
:103FD60039209F318630A0001230A1009F3154272E
:103FE6000800F1007108F000F00DF00D21001D0829
:0A3FF6007006033970069D000800F4
:020000040001F9
:08000E008C3FF33FFF3FFF3F71
:00000001FF
